{
	"contracts/EthernalStorage.sol": {
		"EternalStorage": {
			"abi": [
				{
					"inputs": [
						{
							"internalType": "bytes32",
							"name": "record",
							"type": "bytes32"
						}
					],
					"name": "getBooleanValue",
					"outputs": [
						{
							"internalType": "bool",
							"name": "",
							"type": "bool"
						}
					],
					"stateMutability": "view",
					"type": "function"
				},
				{
					"inputs": [
						{
							"internalType": "bytes32",
							"name": "record",
							"type": "bytes32"
						}
					],
					"name": "getUIntValue",
					"outputs": [
						{
							"internalType": "uint256",
							"name": "",
							"type": "uint256"
						}
					],
					"stateMutability": "view",
					"type": "function"
				},
				{
					"inputs": [
						{
							"internalType": "bytes32",
							"name": "record",
							"type": "bytes32"
						},
						{
							"internalType": "bool",
							"name": "value",
							"type": "bool"
						}
					],
					"name": "setBooleanValue",
					"outputs": [],
					"stateMutability": "nonpayable",
					"type": "function"
				},
				{
					"inputs": [
						{
							"internalType": "bytes32",
							"name": "record",
							"type": "bytes32"
						},
						{
							"internalType": "uint256",
							"name": "value",
							"type": "uint256"
						}
					],
					"name": "setUIntValue",
					"outputs": [],
					"stateMutability": "nonpayable",
					"type": "function"
				}
			],
			"devdoc": {
				"kind": "dev",
				"methods": {},
				"version": 1
			},
			"evm": {
				"assembly": "    /* \"contracts/EthernalStorage.sol\":58:636  contract EternalStorage{... */\n  mstore(0x40, 0x80)\n  callvalue\n  dup1\n  iszero\n  tag_1\n  jumpi\n  0x00\n  dup1\n  revert\ntag_1:\n  pop\n  dataSize(sub_0)\n  dup1\n  dataOffset(sub_0)\n  0x00\n  codecopy\n  0x00\n  return\nstop\n\nsub_0: assembly {\n        /* \"contracts/EthernalStorage.sol\":58:636  contract EternalStorage{... */\n      mstore(0x40, 0x80)\n      callvalue\n      dup1\n      iszero\n      tag_1\n      jumpi\n      0x00\n      dup1\n      revert\n    tag_1:\n      pop\n      jumpi(tag_2, lt(calldatasize, 0x04))\n      shr(0xe0, calldataload(0x00))\n      dup1\n      0x17e7dd22\n      eq\n      tag_3\n      jumpi\n      dup1\n      0x3562fd20\n      eq\n      tag_4\n      jumpi\n      dup1\n      0x3eba9ed2\n      eq\n      tag_5\n      jumpi\n      dup1\n      0xbdc963d8\n      eq\n      tag_6\n      jumpi\n    tag_2:\n      0x00\n      dup1\n      revert\n        /* \"contracts/EthernalStorage.sol\":402:515  function getBooleanValue(bytes32 record) public view returns (bool){... */\n    tag_3:\n      tag_7\n      0x04\n      dup1\n      calldatasize\n      sub\n      dup2\n      add\n      swap1\n      tag_8\n      swap2\n      swap1\n      tag_9\n      jump\t// in\n    tag_8:\n      tag_10\n      jump\t// in\n    tag_7:\n      mload(0x40)\n      tag_11\n      swap2\n      swap1\n      tag_12\n      jump\t// in\n    tag_11:\n      mload(0x40)\n      dup1\n      swap2\n      sub\n      swap1\n      return\n        /* \"contracts/EthernalStorage.sol\":244:349  function setUIntValue(bytes32 record, uint value) public... */\n    tag_4:\n      tag_13\n      0x04\n      dup1\n      calldatasize\n      sub\n      dup2\n      add\n      swap1\n      tag_14\n      swap2\n      swap1\n      tag_15\n      jump\t// in\n    tag_14:\n      tag_16\n      jump\t// in\n    tag_13:\n      stop\n        /* \"contracts/EthernalStorage.sol\":521:632  function setBooleanValue(bytes32 record, bool value) public... */\n    tag_5:\n      tag_17\n      0x04\n      dup1\n      calldatasize\n      sub\n      dup2\n      add\n      swap1\n      tag_18\n      swap2\n      swap1\n      tag_19\n      jump\t// in\n    tag_18:\n      tag_20\n      jump\t// in\n    tag_17:\n      stop\n        /* \"contracts/EthernalStorage.sol\":131:238  function getUIntValue(bytes32 record) public view returns (uint){... */\n    tag_6:\n      tag_21\n      0x04\n      dup1\n      calldatasize\n      sub\n      dup2\n      add\n      swap1\n      tag_22\n      swap2\n      swap1\n      tag_9\n      jump\t// in\n    tag_22:\n      tag_23\n      jump\t// in\n    tag_21:\n      mload(0x40)\n      tag_24\n      swap2\n      swap1\n      tag_25\n      jump\t// in\n    tag_24:\n      mload(0x40)\n      dup1\n      swap2\n      sub\n      swap1\n      return\n        /* \"contracts/EthernalStorage.sol\":402:515  function getBooleanValue(bytes32 record) public view returns (bool){... */\n    tag_10:\n        /* \"contracts/EthernalStorage.sol\":464:468  bool */\n      0x00\n        /* \"contracts/EthernalStorage.sol\":486:500  BooleanStorage */\n      0x01\n        /* \"contracts/EthernalStorage.sol\":486:508  BooleanStorage[record] */\n      0x00\n        /* \"contracts/EthernalStorage.sol\":501:507  record */\n      dup4\n        /* \"contracts/EthernalStorage.sol\":486:508  BooleanStorage[record] */\n      dup2\n      mstore\n      0x20\n      add\n      swap1\n      dup2\n      mstore\n      0x20\n      add\n      0x00\n      keccak256\n      0x00\n      swap1\n      sload\n      swap1\n      0x0100\n      exp\n      swap1\n      div\n      0xff\n      and\n        /* \"contracts/EthernalStorage.sol\":479:508  return BooleanStorage[record] */\n      swap1\n      pop\n        /* \"contracts/EthernalStorage.sol\":402:515  function getBooleanValue(bytes32 record) public view returns (bool){... */\n      swap2\n      swap1\n      pop\n      jump\t// out\n        /* \"contracts/EthernalStorage.sol\":244:349  function setUIntValue(bytes32 record, uint value) public... */\n    tag_16:\n        /* \"contracts/EthernalStorage.sol\":337:342  value */\n      dup1\n        /* \"contracts/EthernalStorage.sol\":315:326  UIntStorage */\n      0x00\n        /* \"contracts/EthernalStorage.sol\":315:334  UIntStorage[record] */\n      dup1\n        /* \"contracts/EthernalStorage.sol\":327:333  record */\n      dup5\n        /* \"contracts/EthernalStorage.sol\":315:334  UIntStorage[record] */\n      dup2\n      mstore\n      0x20\n      add\n      swap1\n      dup2\n      mstore\n      0x20\n      add\n      0x00\n      keccak256\n        /* \"contracts/EthernalStorage.sol\":315:342  UIntStorage[record] = value */\n      dup2\n      swap1\n      sstore\n      pop\n        /* \"contracts/EthernalStorage.sol\":244:349  function setUIntValue(bytes32 record, uint value) public... */\n      pop\n      pop\n      jump\t// out\n        /* \"contracts/EthernalStorage.sol\":521:632  function setBooleanValue(bytes32 record, bool value) public... */\n    tag_20:\n        /* \"contracts/EthernalStorage.sol\":620:625  value */\n      dup1\n        /* \"contracts/EthernalStorage.sol\":595:609  BooleanStorage */\n      0x01\n        /* \"contracts/EthernalStorage.sol\":595:617  BooleanStorage[record] */\n      0x00\n        /* \"contracts/EthernalStorage.sol\":610:616  record */\n      dup5\n        /* \"contracts/EthernalStorage.sol\":595:617  BooleanStorage[record] */\n      dup2\n      mstore\n      0x20\n      add\n      swap1\n      dup2\n      mstore\n      0x20\n      add\n      0x00\n      keccak256\n      0x00\n        /* \"contracts/EthernalStorage.sol\":595:625  BooleanStorage[record] = value */\n      0x0100\n      exp\n      dup2\n      sload\n      dup2\n      0xff\n      mul\n      not\n      and\n      swap1\n      dup4\n      iszero\n      iszero\n      mul\n      or\n      swap1\n      sstore\n      pop\n        /* \"contracts/EthernalStorage.sol\":521:632  function setBooleanValue(bytes32 record, bool value) public... */\n      pop\n      pop\n      jump\t// out\n        /* \"contracts/EthernalStorage.sol\":131:238  function getUIntValue(bytes32 record) public view returns (uint){... */\n    tag_23:\n        /* \"contracts/EthernalStorage.sol\":190:194  uint */\n      0x00\n        /* \"contracts/EthernalStorage.sol\":212:223  UIntStorage */\n      dup1\n        /* \"contracts/EthernalStorage.sol\":212:231  UIntStorage[record] */\n      0x00\n        /* \"contracts/EthernalStorage.sol\":224:230  record */\n      dup4\n        /* \"contracts/EthernalStorage.sol\":212:231  UIntStorage[record] */\n      dup2\n      mstore\n      0x20\n      add\n      swap1\n      dup2\n      mstore\n      0x20\n      add\n      0x00\n      keccak256\n      sload\n        /* \"contracts/EthernalStorage.sol\":205:231  return UIntStorage[record] */\n      swap1\n      pop\n        /* \"contracts/EthernalStorage.sol\":131:238  function getUIntValue(bytes32 record) public view returns (uint){... */\n      swap2\n      swap1\n      pop\n      jump\t// out\n        /* \"#utility.yul\":7:140   */\n    tag_31:\n      0x00\n        /* \"#utility.yul\":88:94   */\n      dup2\n        /* \"#utility.yul\":75:95   */\n      calldataload\n        /* \"#utility.yul\":66:95   */\n      swap1\n      pop\n        /* \"#utility.yul\":104:134   */\n      tag_33\n        /* \"#utility.yul\":128:133   */\n      dup2\n        /* \"#utility.yul\":104:134   */\n      tag_34\n      jump\t// in\n    tag_33:\n        /* \"#utility.yul\":56:140   */\n      swap3\n      swap2\n      pop\n      pop\n      jump\t// out\n        /* \"#utility.yul\":146:285   */\n    tag_35:\n      0x00\n        /* \"#utility.yul\":230:236   */\n      dup2\n        /* \"#utility.yul\":217:237   */\n      calldataload\n        /* \"#utility.yul\":208:237   */\n      swap1\n      pop\n        /* \"#utility.yul\":246:279   */\n      tag_37\n        /* \"#utility.yul\":273:278   */\n      dup2\n        /* \"#utility.yul\":246:279   */\n      tag_38\n      jump\t// in\n    tag_37:\n        /* \"#utility.yul\":198:285   */\n      swap3\n      swap2\n      pop\n      pop\n      jump\t// out\n        /* \"#utility.yul\":291:430   */\n    tag_39:\n      0x00\n        /* \"#utility.yul\":375:381   */\n      dup2\n        /* \"#utility.yul\":362:382   */\n      calldataload\n        /* \"#utility.yul\":353:382   */\n      swap1\n      pop\n        /* \"#utility.yul\":391:424   */\n      tag_41\n        /* \"#utility.yul\":418:423   */\n      dup2\n        /* \"#utility.yul\":391:424   */\n      tag_42\n      jump\t// in\n    tag_41:\n        /* \"#utility.yul\":343:430   */\n      swap3\n      swap2\n      pop\n      pop\n      jump\t// out\n        /* \"#utility.yul\":436:698   */\n    tag_9:\n      0x00\n        /* \"#utility.yul\":544:546   */\n      0x20\n        /* \"#utility.yul\":532:541   */\n      dup3\n        /* \"#utility.yul\":523:530   */\n      dup5\n        /* \"#utility.yul\":519:542   */\n      sub\n        /* \"#utility.yul\":515:547   */\n      slt\n        /* \"#utility.yul\":512:514   */\n      iszero\n      tag_44\n      jumpi\n        /* \"#utility.yul\":560:561   */\n      0x00\n        /* \"#utility.yul\":557:558   */\n      dup1\n        /* \"#utility.yul\":550:562   */\n      revert\n        /* \"#utility.yul\":512:514   */\n    tag_44:\n        /* \"#utility.yul\":603:604   */\n      0x00\n        /* \"#utility.yul\":628:681   */\n      tag_45\n        /* \"#utility.yul\":673:680   */\n      dup5\n        /* \"#utility.yul\":664:670   */\n      dup3\n        /* \"#utility.yul\":653:662   */\n      dup6\n        /* \"#utility.yul\":649:671   */\n      add\n        /* \"#utility.yul\":628:681   */\n      tag_35\n      jump\t// in\n    tag_45:\n        /* \"#utility.yul\":618:681   */\n      swap2\n      pop\n        /* \"#utility.yul\":574:691   */\n      pop\n        /* \"#utility.yul\":502:698   */\n      swap3\n      swap2\n      pop\n      pop\n      jump\t// out\n        /* \"#utility.yul\":704:1105   */\n    tag_19:\n      0x00\n      dup1\n        /* \"#utility.yul\":826:828   */\n      0x40\n        /* \"#utility.yul\":814:823   */\n      dup4\n        /* \"#utility.yul\":805:812   */\n      dup6\n        /* \"#utility.yul\":801:824   */\n      sub\n        /* \"#utility.yul\":797:829   */\n      slt\n        /* \"#utility.yul\":794:796   */\n      iszero\n      tag_47\n      jumpi\n        /* \"#utility.yul\":842:843   */\n      0x00\n        /* \"#utility.yul\":839:840   */\n      dup1\n        /* \"#utility.yul\":832:844   */\n      revert\n        /* \"#utility.yul\":794:796   */\n    tag_47:\n        /* \"#utility.yul\":885:886   */\n      0x00\n        /* \"#utility.yul\":910:963   */\n      tag_48\n        /* \"#utility.yul\":955:962   */\n      dup6\n        /* \"#utility.yul\":946:952   */\n      dup3\n        /* \"#utility.yul\":935:944   */\n      dup7\n        /* \"#utility.yul\":931:953   */\n      add\n        /* \"#utility.yul\":910:963   */\n      tag_35\n      jump\t// in\n    tag_48:\n        /* \"#utility.yul\":900:963   */\n      swap3\n      pop\n        /* \"#utility.yul\":856:973   */\n      pop\n        /* \"#utility.yul\":1012:1014   */\n      0x20\n        /* \"#utility.yul\":1038:1088   */\n      tag_49\n        /* \"#utility.yul\":1080:1087   */\n      dup6\n        /* \"#utility.yul\":1071:1077   */\n      dup3\n        /* \"#utility.yul\":1060:1069   */\n      dup7\n        /* \"#utility.yul\":1056:1078   */\n      add\n        /* \"#utility.yul\":1038:1088   */\n      tag_31\n      jump\t// in\n    tag_49:\n        /* \"#utility.yul\":1028:1088   */\n      swap2\n      pop\n        /* \"#utility.yul\":983:1098   */\n      pop\n        /* \"#utility.yul\":784:1105   */\n      swap3\n      pop\n      swap3\n      swap1\n      pop\n      jump\t// out\n        /* \"#utility.yul\":1111:1518   */\n    tag_15:\n      0x00\n      dup1\n        /* \"#utility.yul\":1236:1238   */\n      0x40\n        /* \"#utility.yul\":1224:1233   */\n      dup4\n        /* \"#utility.yul\":1215:1222   */\n      dup6\n        /* \"#utility.yul\":1211:1234   */\n      sub\n        /* \"#utility.yul\":1207:1239   */\n      slt\n        /* \"#utility.yul\":1204:1206   */\n      iszero\n      tag_51\n      jumpi\n        /* \"#utility.yul\":1252:1253   */\n      0x00\n        /* \"#utility.yul\":1249:1250   */\n      dup1\n        /* \"#utility.yul\":1242:1254   */\n      revert\n        /* \"#utility.yul\":1204:1206   */\n    tag_51:\n        /* \"#utility.yul\":1295:1296   */\n      0x00\n        /* \"#utility.yul\":1320:1373   */\n      tag_52\n        /* \"#utility.yul\":1365:1372   */\n      dup6\n        /* \"#utility.yul\":1356:1362   */\n      dup3\n        /* \"#utility.yul\":1345:1354   */\n      dup7\n        /* \"#utility.yul\":1341:1363   */\n      add\n        /* \"#utility.yul\":1320:1373   */\n      tag_35\n      jump\t// in\n    tag_52:\n        /* \"#utility.yul\":1310:1373   */\n      swap3\n      pop\n        /* \"#utility.yul\":1266:1383   */\n      pop\n        /* \"#utility.yul\":1422:1424   */\n      0x20\n        /* \"#utility.yul\":1448:1501   */\n      tag_53\n        /* \"#utility.yul\":1493:1500   */\n      dup6\n        /* \"#utility.yul\":1484:1490   */\n      dup3\n        /* \"#utility.yul\":1473:1482   */\n      dup7\n        /* \"#utility.yul\":1469:1491   */\n      add\n        /* \"#utility.yul\":1448:1501   */\n      tag_39\n      jump\t// in\n    tag_53:\n        /* \"#utility.yul\":1438:1501   */\n      swap2\n      pop\n        /* \"#utility.yul\":1393:1511   */\n      pop\n        /* \"#utility.yul\":1194:1518   */\n      swap3\n      pop\n      swap3\n      swap1\n      pop\n      jump\t// out\n        /* \"#utility.yul\":1524:1633   */\n    tag_54:\n        /* \"#utility.yul\":1605:1626   */\n      tag_56\n        /* \"#utility.yul\":1620:1625   */\n      dup2\n        /* \"#utility.yul\":1605:1626   */\n      tag_57\n      jump\t// in\n    tag_56:\n        /* \"#utility.yul\":1600:1603   */\n      dup3\n        /* \"#utility.yul\":1593:1627   */\n      mstore\n        /* \"#utility.yul\":1583:1633   */\n      pop\n      pop\n      jump\t// out\n        /* \"#utility.yul\":1639:1757   */\n    tag_58:\n        /* \"#utility.yul\":1726:1750   */\n      tag_60\n        /* \"#utility.yul\":1744:1749   */\n      dup2\n        /* \"#utility.yul\":1726:1750   */\n      tag_61\n      jump\t// in\n    tag_60:\n        /* \"#utility.yul\":1721:1724   */\n      dup3\n        /* \"#utility.yul\":1714:1751   */\n      mstore\n        /* \"#utility.yul\":1704:1757   */\n      pop\n      pop\n      jump\t// out\n        /* \"#utility.yul\":1763:1973   */\n    tag_12:\n      0x00\n        /* \"#utility.yul\":1888:1890   */\n      0x20\n        /* \"#utility.yul\":1877:1886   */\n      dup3\n        /* \"#utility.yul\":1873:1891   */\n      add\n        /* \"#utility.yul\":1865:1891   */\n      swap1\n      pop\n        /* \"#utility.yul\":1901:1966   */\n      tag_63\n        /* \"#utility.yul\":1963:1964   */\n      0x00\n        /* \"#utility.yul\":1952:1961   */\n      dup4\n        /* \"#utility.yul\":1948:1965   */\n      add\n        /* \"#utility.yul\":1939:1945   */\n      dup5\n        /* \"#utility.yul\":1901:1966   */\n      tag_54\n      jump\t// in\n    tag_63:\n        /* \"#utility.yul\":1855:1973   */\n      swap3\n      swap2\n      pop\n      pop\n      jump\t// out\n        /* \"#utility.yul\":1979:2201   */\n    tag_25:\n      0x00\n        /* \"#utility.yul\":2110:2112   */\n      0x20\n        /* \"#utility.yul\":2099:2108   */\n      dup3\n        /* \"#utility.yul\":2095:2113   */\n      add\n        /* \"#utility.yul\":2087:2113   */\n      swap1\n      pop\n        /* \"#utility.yul\":2123:2194   */\n      tag_65\n        /* \"#utility.yul\":2191:2192   */\n      0x00\n        /* \"#utility.yul\":2180:2189   */\n      dup4\n        /* \"#utility.yul\":2176:2193   */\n      add\n        /* \"#utility.yul\":2167:2173   */\n      dup5\n        /* \"#utility.yul\":2123:2194   */\n      tag_58\n      jump\t// in\n    tag_65:\n        /* \"#utility.yul\":2077:2201   */\n      swap3\n      swap2\n      pop\n      pop\n      jump\t// out\n        /* \"#utility.yul\":2207:2297   */\n    tag_57:\n      0x00\n        /* \"#utility.yul\":2284:2289   */\n      dup2\n        /* \"#utility.yul\":2277:2290   */\n      iszero\n        /* \"#utility.yul\":2270:2291   */\n      iszero\n        /* \"#utility.yul\":2259:2291   */\n      swap1\n      pop\n        /* \"#utility.yul\":2249:2297   */\n      swap2\n      swap1\n      pop\n      jump\t// out\n        /* \"#utility.yul\":2303:2380   */\n    tag_67:\n      0x00\n        /* \"#utility.yul\":2369:2374   */\n      dup2\n        /* \"#utility.yul\":2358:2374   */\n      swap1\n      pop\n        /* \"#utility.yul\":2348:2380   */\n      swap2\n      swap1\n      pop\n      jump\t// out\n        /* \"#utility.yul\":2386:2463   */\n    tag_61:\n      0x00\n        /* \"#utility.yul\":2452:2457   */\n      dup2\n        /* \"#utility.yul\":2441:2457   */\n      swap1\n      pop\n        /* \"#utility.yul\":2431:2463   */\n      swap2\n      swap1\n      pop\n      jump\t// out\n        /* \"#utility.yul\":2469:2585   */\n    tag_34:\n        /* \"#utility.yul\":2539:2560   */\n      tag_71\n        /* \"#utility.yul\":2554:2559   */\n      dup2\n        /* \"#utility.yul\":2539:2560   */\n      tag_57\n      jump\t// in\n    tag_71:\n        /* \"#utility.yul\":2532:2537   */\n      dup2\n        /* \"#utility.yul\":2529:2561   */\n      eq\n        /* \"#utility.yul\":2519:2521   */\n      tag_72\n      jumpi\n        /* \"#utility.yul\":2575:2576   */\n      0x00\n        /* \"#utility.yul\":2572:2573   */\n      dup1\n        /* \"#utility.yul\":2565:2577   */\n      revert\n        /* \"#utility.yul\":2519:2521   */\n    tag_72:\n        /* \"#utility.yul\":2509:2585   */\n      pop\n      jump\t// out\n        /* \"#utility.yul\":2591:2713   */\n    tag_38:\n        /* \"#utility.yul\":2664:2688   */\n      tag_74\n        /* \"#utility.yul\":2682:2687   */\n      dup2\n        /* \"#utility.yul\":2664:2688   */\n      tag_67\n      jump\t// in\n    tag_74:\n        /* \"#utility.yul\":2657:2662   */\n      dup2\n        /* \"#utility.yul\":2654:2689   */\n      eq\n        /* \"#utility.yul\":2644:2646   */\n      tag_75\n      jumpi\n        /* \"#utility.yul\":2703:2704   */\n      0x00\n        /* \"#utility.yul\":2700:2701   */\n      dup1\n        /* \"#utility.yul\":2693:2705   */\n      revert\n        /* \"#utility.yul\":2644:2646   */\n    tag_75:\n        /* \"#utility.yul\":2634:2713   */\n      pop\n      jump\t// out\n        /* \"#utility.yul\":2719:2841   */\n    tag_42:\n        /* \"#utility.yul\":2792:2816   */\n      tag_77\n        /* \"#utility.yul\":2810:2815   */\n      dup2\n        /* \"#utility.yul\":2792:2816   */\n      tag_61\n      jump\t// in\n    tag_77:\n        /* \"#utility.yul\":2785:2790   */\n      dup2\n        /* \"#utility.yul\":2782:2817   */\n      eq\n        /* \"#utility.yul\":2772:2774   */\n      tag_78\n      jumpi\n        /* \"#utility.yul\":2831:2832   */\n      0x00\n        /* \"#utility.yul\":2828:2829   */\n      dup1\n        /* \"#utility.yul\":2821:2833   */\n      revert\n        /* \"#utility.yul\":2772:2774   */\n    tag_78:\n        /* \"#utility.yul\":2762:2841   */\n      pop\n      jump\t// out\n\n    auxdata: 0xa264697066735822122065463f030dd8b1a78c0ed1833a2eac9c6b1b2e657ca1d39fa90cb25093a4e50064736f6c63430008010033\n}\n",
				"bytecode": {
					"linkReferences": {},
					"object": "608060405234801561001057600080fd5b50610348806100206000396000f3fe608060405234801561001057600080fd5b506004361061004c5760003560e01c806317e7dd22146100515780633562fd20146100815780633eba9ed21461009d578063bdc963d8146100b9575b600080fd5b61006b600480360381019061006691906101b8565b6100e9565b6040516100789190610277565b60405180910390f35b61009b6004803603810190610096919061021d565b610113565b005b6100b760048036038101906100b291906101e1565b61012e565b005b6100d360048036038101906100ce91906101b8565b61015d565b6040516100e09190610292565b60405180910390f35b60006001600083815260200190815260200160002060009054906101000a900460ff169050919050565b80600080848152602001908152602001600020819055505050565b806001600084815260200190815260200160002060006101000a81548160ff0219169083151502179055505050565b6000806000838152602001908152602001600020549050919050565b600081359050610188816102cd565b92915050565b60008135905061019d816102e4565b92915050565b6000813590506101b2816102fb565b92915050565b6000602082840312156101ca57600080fd5b60006101d88482850161018e565b91505092915050565b600080604083850312156101f457600080fd5b60006102028582860161018e565b925050602061021385828601610179565b9150509250929050565b6000806040838503121561023057600080fd5b600061023e8582860161018e565b925050602061024f858286016101a3565b9150509250929050565b610262816102ad565b82525050565b610271816102c3565b82525050565b600060208201905061028c6000830184610259565b92915050565b60006020820190506102a76000830184610268565b92915050565b60008115159050919050565b6000819050919050565b6000819050919050565b6102d6816102ad565b81146102e157600080fd5b50565b6102ed816102b9565b81146102f857600080fd5b50565b610304816102c3565b811461030f57600080fd5b5056fea264697066735822122065463f030dd8b1a78c0ed1833a2eac9c6b1b2e657ca1d39fa90cb25093a4e50064736f6c63430008010033",
					"opcodes": "PUSH1 0x80 PUSH1 0x40 MSTORE CALLVALUE DUP1 ISZERO PUSH2 0x10 JUMPI PUSH1 0x0 DUP1 REVERT JUMPDEST POP PUSH2 0x348 DUP1 PUSH2 0x20 PUSH1 0x0 CODECOPY PUSH1 0x0 RETURN INVALID PUSH1 0x80 PUSH1 0x40 MSTORE CALLVALUE DUP1 ISZERO PUSH2 0x10 JUMPI PUSH1 0x0 DUP1 REVERT JUMPDEST POP PUSH1 0x4 CALLDATASIZE LT PUSH2 0x4C JUMPI PUSH1 0x0 CALLDATALOAD PUSH1 0xE0 SHR DUP1 PUSH4 0x17E7DD22 EQ PUSH2 0x51 JUMPI DUP1 PUSH4 0x3562FD20 EQ PUSH2 0x81 JUMPI DUP1 PUSH4 0x3EBA9ED2 EQ PUSH2 0x9D JUMPI DUP1 PUSH4 0xBDC963D8 EQ PUSH2 0xB9 JUMPI JUMPDEST PUSH1 0x0 DUP1 REVERT JUMPDEST PUSH2 0x6B PUSH1 0x4 DUP1 CALLDATASIZE SUB DUP2 ADD SWAP1 PUSH2 0x66 SWAP2 SWAP1 PUSH2 0x1B8 JUMP JUMPDEST PUSH2 0xE9 JUMP JUMPDEST PUSH1 0x40 MLOAD PUSH2 0x78 SWAP2 SWAP1 PUSH2 0x277 JUMP JUMPDEST PUSH1 0x40 MLOAD DUP1 SWAP2 SUB SWAP1 RETURN JUMPDEST PUSH2 0x9B PUSH1 0x4 DUP1 CALLDATASIZE SUB DUP2 ADD SWAP1 PUSH2 0x96 SWAP2 SWAP1 PUSH2 0x21D JUMP JUMPDEST PUSH2 0x113 JUMP JUMPDEST STOP JUMPDEST PUSH2 0xB7 PUSH1 0x4 DUP1 CALLDATASIZE SUB DUP2 ADD SWAP1 PUSH2 0xB2 SWAP2 SWAP1 PUSH2 0x1E1 JUMP JUMPDEST PUSH2 0x12E JUMP JUMPDEST STOP JUMPDEST PUSH2 0xD3 PUSH1 0x4 DUP1 CALLDATASIZE SUB DUP2 ADD SWAP1 PUSH2 0xCE SWAP2 SWAP1 PUSH2 0x1B8 JUMP JUMPDEST PUSH2 0x15D JUMP JUMPDEST PUSH1 0x40 MLOAD PUSH2 0xE0 SWAP2 SWAP1 PUSH2 0x292 JUMP JUMPDEST PUSH1 0x40 MLOAD DUP1 SWAP2 SUB SWAP1 RETURN JUMPDEST PUSH1 0x0 PUSH1 0x1 PUSH1 0x0 DUP4 DUP2 MSTORE PUSH1 0x20 ADD SWAP1 DUP2 MSTORE PUSH1 0x20 ADD PUSH1 0x0 KECCAK256 PUSH1 0x0 SWAP1 SLOAD SWAP1 PUSH2 0x100 EXP SWAP1 DIV PUSH1 0xFF AND SWAP1 POP SWAP2 SWAP1 POP JUMP JUMPDEST DUP1 PUSH1 0x0 DUP1 DUP5 DUP2 MSTORE PUSH1 0x20 ADD SWAP1 DUP2 MSTORE PUSH1 0x20 ADD PUSH1 0x0 KECCAK256 DUP2 SWAP1 SSTORE POP POP POP JUMP JUMPDEST DUP1 PUSH1 0x1 PUSH1 0x0 DUP5 DUP2 MSTORE PUSH1 0x20 ADD SWAP1 DUP2 MSTORE PUSH1 0x20 ADD PUSH1 0x0 KECCAK256 PUSH1 0x0 PUSH2 0x100 EXP DUP2 SLOAD DUP2 PUSH1 0xFF MUL NOT AND SWAP1 DUP4 ISZERO ISZERO MUL OR SWAP1 SSTORE POP POP POP JUMP JUMPDEST PUSH1 0x0 DUP1 PUSH1 0x0 DUP4 DUP2 MSTORE PUSH1 0x20 ADD SWAP1 DUP2 MSTORE PUSH1 0x20 ADD PUSH1 0x0 KECCAK256 SLOAD SWAP1 POP SWAP2 SWAP1 POP JUMP JUMPDEST PUSH1 0x0 DUP2 CALLDATALOAD SWAP1 POP PUSH2 0x188 DUP2 PUSH2 0x2CD JUMP JUMPDEST SWAP3 SWAP2 POP POP JUMP JUMPDEST PUSH1 0x0 DUP2 CALLDATALOAD SWAP1 POP PUSH2 0x19D DUP2 PUSH2 0x2E4 JUMP JUMPDEST SWAP3 SWAP2 POP POP JUMP JUMPDEST PUSH1 0x0 DUP2 CALLDATALOAD SWAP1 POP PUSH2 0x1B2 DUP2 PUSH2 0x2FB JUMP JUMPDEST SWAP3 SWAP2 POP POP JUMP JUMPDEST PUSH1 0x0 PUSH1 0x20 DUP3 DUP5 SUB SLT ISZERO PUSH2 0x1CA JUMPI PUSH1 0x0 DUP1 REVERT JUMPDEST PUSH1 0x0 PUSH2 0x1D8 DUP5 DUP3 DUP6 ADD PUSH2 0x18E JUMP JUMPDEST SWAP2 POP POP SWAP3 SWAP2 POP POP JUMP JUMPDEST PUSH1 0x0 DUP1 PUSH1 0x40 DUP4 DUP6 SUB SLT ISZERO PUSH2 0x1F4 JUMPI PUSH1 0x0 DUP1 REVERT JUMPDEST PUSH1 0x0 PUSH2 0x202 DUP6 DUP3 DUP7 ADD PUSH2 0x18E JUMP JUMPDEST SWAP3 POP POP PUSH1 0x20 PUSH2 0x213 DUP6 DUP3 DUP7 ADD PUSH2 0x179 JUMP JUMPDEST SWAP2 POP POP SWAP3 POP SWAP3 SWAP1 POP JUMP JUMPDEST PUSH1 0x0 DUP1 PUSH1 0x40 DUP4 DUP6 SUB SLT ISZERO PUSH2 0x230 JUMPI PUSH1 0x0 DUP1 REVERT JUMPDEST PUSH1 0x0 PUSH2 0x23E DUP6 DUP3 DUP7 ADD PUSH2 0x18E JUMP JUMPDEST SWAP3 POP POP PUSH1 0x20 PUSH2 0x24F DUP6 DUP3 DUP7 ADD PUSH2 0x1A3 JUMP JUMPDEST SWAP2 POP POP SWAP3 POP SWAP3 SWAP1 POP JUMP JUMPDEST PUSH2 0x262 DUP2 PUSH2 0x2AD JUMP JUMPDEST DUP3 MSTORE POP POP JUMP JUMPDEST PUSH2 0x271 DUP2 PUSH2 0x2C3 JUMP JUMPDEST DUP3 MSTORE POP POP JUMP JUMPDEST PUSH1 0x0 PUSH1 0x20 DUP3 ADD SWAP1 POP PUSH2 0x28C PUSH1 0x0 DUP4 ADD DUP5 PUSH2 0x259 JUMP JUMPDEST SWAP3 SWAP2 POP POP JUMP JUMPDEST PUSH1 0x0 PUSH1 0x20 DUP3 ADD SWAP1 POP PUSH2 0x2A7 PUSH1 0x0 DUP4 ADD DUP5 PUSH2 0x268 JUMP JUMPDEST SWAP3 SWAP2 POP POP JUMP JUMPDEST PUSH1 0x0 DUP2 ISZERO ISZERO SWAP1 POP SWAP2 SWAP1 POP JUMP JUMPDEST PUSH1 0x0 DUP2 SWAP1 POP SWAP2 SWAP1 POP JUMP JUMPDEST PUSH1 0x0 DUP2 SWAP1 POP SWAP2 SWAP1 POP JUMP JUMPDEST PUSH2 0x2D6 DUP2 PUSH2 0x2AD JUMP JUMPDEST DUP2 EQ PUSH2 0x2E1 JUMPI PUSH1 0x0 DUP1 REVERT JUMPDEST POP JUMP JUMPDEST PUSH2 0x2ED DUP2 PUSH2 0x2B9 JUMP JUMPDEST DUP2 EQ PUSH2 0x2F8 JUMPI PUSH1 0x0 DUP1 REVERT JUMPDEST POP JUMP JUMPDEST PUSH2 0x304 DUP2 PUSH2 0x2C3 JUMP JUMPDEST DUP2 EQ PUSH2 0x30F JUMPI PUSH1 0x0 DUP1 REVERT JUMPDEST POP JUMP INVALID LOG2 PUSH5 0x6970667358 0x22 SLT KECCAK256 PUSH6 0x463F030DD8B1 0xA7 DUP13 0xE 0xD1 DUP4 GASPRICE 0x2E 0xAC SWAP13 PUSH12 0x1B2E657CA1D39FA90CB25093 LOG4 0xE5 STOP PUSH5 0x736F6C6343 STOP ADDMOD ADD STOP CALLER "
				},
				"gasEstimates": {
					"creation": {
						"codeDepositCost": "168000",
						"executionCost": "214",
						"totalCost": "168214"
					},
					"external": {
						"getBooleanValue(bytes32)": "1500",
						"getUIntValue(bytes32)": "1524",
						"setBooleanValue(bytes32,bool)": "21552",
						"setUIntValue(bytes32,uint256)": "20671"
					}
				},
				"methodIdentifiers": {
					"getBooleanValue(bytes32)": "17e7dd22",
					"getUIntValue(bytes32)": "bdc963d8",
					"setBooleanValue(bytes32,bool)": "3eba9ed2",
					"setUIntValue(bytes32,uint256)": "3562fd20"
				}
			},
			"storageLayout": {
				"storage": [
					{
						"astId": 5,
						"contract": "contracts/EthernalStorage.sol:EternalStorage",
						"label": "UIntStorage",
						"offset": 0,
						"slot": "0",
						"type": "t_mapping(t_bytes32,t_uint256)"
					},
					{
						"astId": 35,
						"contract": "contracts/EthernalStorage.sol:EternalStorage",
						"label": "BooleanStorage",
						"offset": 0,
						"slot": "1",
						"type": "t_mapping(t_bytes32,t_bool)"
					}
				],
				"types": {
					"t_bool": {
						"encoding": "inplace",
						"label": "bool",
						"numberOfBytes": "1"
					},
					"t_bytes32": {
						"encoding": "inplace",
						"label": "bytes32",
						"numberOfBytes": "32"
					},
					"t_mapping(t_bytes32,t_bool)": {
						"encoding": "mapping",
						"key": "t_bytes32",
						"label": "mapping(bytes32 => bool)",
						"numberOfBytes": "32",
						"value": "t_bool"
					},
					"t_mapping(t_bytes32,t_uint256)": {
						"encoding": "mapping",
						"key": "t_bytes32",
						"label": "mapping(bytes32 => uint256)",
						"numberOfBytes": "32",
						"value": "t_uint256"
					},
					"t_uint256": {
						"encoding": "inplace",
						"label": "uint256",
						"numberOfBytes": "32"
					}
				}
			},
			"userdoc": {
				"kind": "user",
				"methods": {},
				"version": 1
			}
		}
	}
}