{
	"contracts/FundMe.sol": {
		"FundMe": {
			"abi": [
				{
					"inputs": [
						{
							"internalType": "address",
							"name": "",
							"type": "address"
						}
					],
					"name": "addressToAmountFunded",
					"outputs": [
						{
							"internalType": "uint256",
							"name": "",
							"type": "uint256"
						}
					],
					"stateMutability": "view",
					"type": "function"
				},
				{
					"inputs": [],
					"name": "fund",
					"outputs": [],
					"stateMutability": "payable",
					"type": "function"
				},
				{
					"inputs": [
						{
							"internalType": "uint256",
							"name": "",
							"type": "uint256"
						}
					],
					"name": "funders",
					"outputs": [
						{
							"internalType": "address",
							"name": "",
							"type": "address"
						}
					],
					"stateMutability": "view",
					"type": "function"
				},
				{
					"inputs": [],
					"name": "minimumUsd",
					"outputs": [
						{
							"internalType": "uint256",
							"name": "",
							"type": "uint256"
						}
					],
					"stateMutability": "view",
					"type": "function"
				},
				{
					"inputs": [],
					"name": "withdraw",
					"outputs": [],
					"stateMutability": "nonpayable",
					"type": "function"
				}
			],
			"devdoc": {
				"kind": "dev",
				"methods": {},
				"version": 1
			},
			"evm": {
				"assembly": "    /* \"contracts/FundMe.sol\":137:826  contract FundMe {... */\n  mstore(0x40, 0x80)\n    /* \"contracts/FundMe.sol\":226:235  50 * 1e18 */\n  0x02b5e3af16b1880000\n    /* \"contracts/FundMe.sol\":198:235  uint256 public minimumUsd = 50 * 1e18 */\n  0x00\n  sstore\n    /* \"contracts/FundMe.sol\":137:826  contract FundMe {... */\n  callvalue\n  dup1\n  iszero\n  tag_1\n  jumpi\n  0x00\n  dup1\n  revert\ntag_1:\n  pop\n  dataSize(sub_0)\n  dup1\n  dataOffset(sub_0)\n  0x00\n  codecopy\n  0x00\n  return\nstop\n\nsub_0: assembly {\n        /* \"contracts/FundMe.sol\":137:826  contract FundMe {... */\n      mstore(0x40, 0x80)\n      jumpi(tag_1, lt(calldatasize, 0x04))\n      shr(0xe0, calldataload(0x00))\n      dup1\n      0x098de820\n      eq\n      tag_2\n      jumpi\n      dup1\n      0x3ccfd60b\n      eq\n      tag_3\n      jumpi\n      dup1\n      0x3e47d6f3\n      eq\n      tag_4\n      jumpi\n      dup1\n      0xb60d4288\n      eq\n      tag_5\n      jumpi\n      dup1\n      0xdc0d3dff\n      eq\n      tag_6\n      jumpi\n    tag_1:\n      0x00\n      dup1\n      revert\n        /* \"contracts/FundMe.sol\":198:235  uint256 public minimumUsd = 50 * 1e18 */\n    tag_2:\n      callvalue\n      dup1\n      iszero\n      tag_7\n      jumpi\n      0x00\n      dup1\n      revert\n    tag_7:\n      pop\n      tag_8\n      tag_9\n      jump\t// in\n    tag_8:\n      mload(0x40)\n      tag_10\n      swap2\n      swap1\n      tag_11\n      jump\t// in\n    tag_10:\n      mload(0x40)\n      dup1\n      swap2\n      sub\n      swap1\n      return\n        /* \"contracts/FundMe.sol\":573:785  function withdraw() public {... */\n    tag_3:\n      callvalue\n      dup1\n      iszero\n      tag_12\n      jumpi\n      0x00\n      dup1\n      revert\n    tag_12:\n      pop\n      tag_13\n      tag_14\n      jump\t// in\n    tag_13:\n      stop\n        /* \"contracts/FundMe.sol\":272:328  mapping(address => uint256) public addressToAmountFunded */\n    tag_4:\n      callvalue\n      dup1\n      iszero\n      tag_15\n      jumpi\n      0x00\n      dup1\n      revert\n    tag_15:\n      pop\n      tag_16\n      0x04\n      dup1\n      calldatasize\n      sub\n      dup2\n      add\n      swap1\n      tag_17\n      swap2\n      swap1\n      tag_18\n      jump\t// in\n    tag_17:\n      tag_19\n      jump\t// in\n    tag_16:\n      mload(0x40)\n      tag_20\n      swap2\n      swap1\n      tag_11\n      jump\t// in\n    tag_20:\n      mload(0x40)\n      dup1\n      swap2\n      sub\n      swap1\n      return\n        /* \"contracts/FundMe.sol\":335:563  function fund() public payable {... */\n    tag_5:\n      tag_21\n      tag_22\n      jump\t// in\n    tag_21:\n      stop\n        /* \"contracts/FundMe.sol\":242:266  address[] public funders */\n    tag_6:\n      callvalue\n      dup1\n      iszero\n      tag_23\n      jumpi\n      0x00\n      dup1\n      revert\n    tag_23:\n      pop\n      tag_24\n      0x04\n      dup1\n      calldatasize\n      sub\n      dup2\n      add\n      swap1\n      tag_25\n      swap2\n      swap1\n      tag_26\n      jump\t// in\n    tag_25:\n      tag_27\n      jump\t// in\n    tag_24:\n      mload(0x40)\n      tag_28\n      swap2\n      swap1\n      tag_29\n      jump\t// in\n    tag_28:\n      mload(0x40)\n      dup1\n      swap2\n      sub\n      swap1\n      return\n        /* \"contracts/FundMe.sol\":198:235  uint256 public minimumUsd = 50 * 1e18 */\n    tag_9:\n      sload(0x00)\n      dup2\n      jump\t// out\n        /* \"contracts/FundMe.sol\":573:785  function withdraw() public {... */\n    tag_14:\n        /* \"contracts/FundMe.sol\":669:688  uint256 funderIndex */\n      0x00\n        /* \"contracts/FundMe.sol\":665:779  for(uint256 funderIndex = 0; funderIndex < funders.length; funderIndex = funderIndex +1) {... */\n    tag_31:\n        /* \"contracts/FundMe.sol\":708:715  funders */\n      0x01\n        /* \"contracts/FundMe.sol\":708:722  funders.length */\n      dup1\n      sload\n      swap1\n      pop\n        /* \"contracts/FundMe.sol\":694:705  funderIndex */\n      dup2\n        /* \"contracts/FundMe.sol\":694:722  funderIndex < funders.length */\n      lt\n        /* \"contracts/FundMe.sol\":665:779  for(uint256 funderIndex = 0; funderIndex < funders.length; funderIndex = funderIndex +1) {... */\n      iszero\n      tag_32\n      jumpi\n        /* \"contracts/FundMe.sol\":751:752  1 */\n      0x01\n        /* \"contracts/FundMe.sol\":738:749  funderIndex */\n      dup2\n        /* \"contracts/FundMe.sol\":738:752  funderIndex +1 */\n      tag_34\n      swap2\n      swap1\n      tag_35\n      jump\t// in\n    tag_34:\n        /* \"contracts/FundMe.sol\":724:752  funderIndex = funderIndex +1 */\n      swap1\n      pop\n        /* \"contracts/FundMe.sol\":665:779  for(uint256 funderIndex = 0; funderIndex < funders.length; funderIndex = funderIndex +1) {... */\n      jump(tag_31)\n    tag_32:\n      pop\n        /* \"contracts/FundMe.sol\":573:785  function withdraw() public {... */\n      jump\t// out\n        /* \"contracts/FundMe.sol\":272:328  mapping(address => uint256) public addressToAmountFunded */\n    tag_19:\n      mstore(0x20, 0x02)\n      dup1\n      0x00\n      mstore\n      keccak256(0x00, 0x40)\n      0x00\n      swap2\n      pop\n      swap1\n      pop\n      sload\n      dup2\n      jump\t// out\n        /* \"contracts/FundMe.sol\":335:563  function fund() public payable {... */\n    tag_22:\n        /* \"contracts/FundMe.sol\":426:436  minimumUsd */\n      sload(0x00)\n        /* \"contracts/FundMe.sol\":393:422  msg.value.getConversionRate() */\n      tag_37\n        /* \"contracts/FundMe.sol\":393:402  msg.value */\n      callvalue\n        /* \"contracts/FundMe.sol\":393:420  msg.value.getConversionRate */\n      tag_38\n        /* \"contracts/FundMe.sol\":393:422  msg.value.getConversionRate() */\n      jump\t// in\n    tag_37:\n        /* \"contracts/FundMe.sol\":393:436  msg.value.getConversionRate() >= minimumUsd */\n      lt\n      iszero\n        /* \"contracts/FundMe.sol\":385:467  require(msg.value.getConversionRate() >= minimumUsd, \"Did not send enough moneys\") */\n      tag_39\n      jumpi\n      mload(0x40)\n      0x08c379a000000000000000000000000000000000000000000000000000000000\n      dup2\n      mstore\n      0x04\n      add\n      tag_40\n      swap1\n      tag_41\n      jump\t// in\n    tag_40:\n      mload(0x40)\n      dup1\n      swap2\n      sub\n      swap1\n      revert\n    tag_39:\n        /* \"contracts/FundMe.sol\":477:484  funders */\n      0x01\n        /* \"contracts/FundMe.sol\":490:500  msg.sender */\n      caller\n        /* \"contracts/FundMe.sol\":477:501  funders.push(msg.sender) */\n      swap1\n      dup1\n      0x01\n      dup2\n      sload\n      add\n      dup1\n      dup3\n      sstore\n      dup1\n      swap2\n      pop\n      pop\n      0x01\n      swap1\n      sub\n      swap1\n      0x00\n      mstore\n      keccak256(0x00, 0x20)\n      add\n      0x00\n      swap1\n      swap2\n      swap1\n      swap2\n      swap1\n      swap2\n      0x0100\n      exp\n      dup2\n      sload\n      dup2\n      0xffffffffffffffffffffffffffffffffffffffff\n      mul\n      not\n      and\n      swap1\n      dup4\n      0xffffffffffffffffffffffffffffffffffffffff\n      and\n      mul\n      or\n      swap1\n      sstore\n      pop\n        /* \"contracts/FundMe.sol\":547:556  msg.value */\n      callvalue\n        /* \"contracts/FundMe.sol\":511:532  addressToAmountFunded */\n      0x02\n        /* \"contracts/FundMe.sol\":511:544  addressToAmountFunded[msg.sender] */\n      0x00\n        /* \"contracts/FundMe.sol\":533:543  msg.sender */\n      caller\n        /* \"contracts/FundMe.sol\":511:544  addressToAmountFunded[msg.sender] */\n      0xffffffffffffffffffffffffffffffffffffffff\n      and\n      0xffffffffffffffffffffffffffffffffffffffff\n      and\n      dup2\n      mstore\n      0x20\n      add\n      swap1\n      dup2\n      mstore\n      0x20\n      add\n      0x00\n      keccak256\n        /* \"contracts/FundMe.sol\":511:556  addressToAmountFunded[msg.sender] = msg.value */\n      dup2\n      swap1\n      sstore\n      pop\n        /* \"contracts/FundMe.sol\":335:563  function fund() public payable {... */\n      jump\t// out\n        /* \"contracts/FundMe.sol\":242:266  address[] public funders */\n    tag_27:\n      0x01\n      dup2\n      dup2\n      sload\n      dup2\n      lt\n      tag_43\n      jumpi\n      0x00\n      dup1\n      revert\n    tag_43:\n      swap1\n      0x00\n      mstore\n      keccak256(0x00, 0x20)\n      add\n      0x00\n      swap2\n      pop\n      sload\n      swap1\n      0x0100\n      exp\n      swap1\n      div\n      0xffffffffffffffffffffffffffffffffffffffff\n      and\n      dup2\n      jump\t// out\n        /* \"contracts/PriceConverter.sol\":647:868  function getConversionRate(uint256 ethAmount) internal view returns (uint256) {... */\n    tag_38:\n        /* \"contracts/PriceConverter.sol\":716:723  uint256 */\n      0x00\n        /* \"contracts/PriceConverter.sol\":736:752  uint256 ethPrice */\n      dup1\n        /* \"contracts/PriceConverter.sol\":755:765  getPrice() */\n      tag_46\n        /* \"contracts/PriceConverter.sol\":755:763  getPrice */\n      tag_47\n        /* \"contracts/PriceConverter.sol\":755:765  getPrice() */\n      jump\t// in\n    tag_46:\n        /* \"contracts/PriceConverter.sol\":736:765  uint256 ethPrice = getPrice() */\n      swap1\n      pop\n        /* \"contracts/PriceConverter.sol\":775:798  uint256  ethAmountInUsd */\n      0x00\n        /* \"contracts/PriceConverter.sol\":826:830  1e18 */\n      0x0de0b6b3a7640000\n        /* \"contracts/PriceConverter.sol\":813:822  ethAmount */\n      dup5\n        /* \"contracts/PriceConverter.sol\":802:810  ethPrice */\n      dup4\n        /* \"contracts/PriceConverter.sol\":802:822  ethPrice * ethAmount */\n      tag_48\n      swap2\n      swap1\n      tag_49\n      jump\t// in\n    tag_48:\n        /* \"contracts/PriceConverter.sol\":801:830  (ethPrice * ethAmount) / 1e18 */\n      tag_50\n      swap2\n      swap1\n      tag_51\n      jump\t// in\n    tag_50:\n        /* \"contracts/PriceConverter.sol\":775:830  uint256  ethAmountInUsd = (ethPrice * ethAmount) / 1e18 */\n      swap1\n      pop\n        /* \"contracts/PriceConverter.sol\":847:861  ethAmountInUsd */\n      dup1\n        /* \"contracts/PriceConverter.sol\":840:861  return ethAmountInUsd */\n      swap3\n      pop\n      pop\n      pop\n        /* \"contracts/PriceConverter.sol\":647:868  function getConversionRate(uint256 ethAmount) internal view returns (uint256) {... */\n      swap2\n      swap1\n      pop\n      jump\t// out\n        /* \"contracts/PriceConverter.sol\":130:429  function getPrice() internal view returns(uint256){... */\n    tag_47:\n        /* \"contracts/PriceConverter.sol\":172:179  uint256 */\n      0x00\n        /* \"contracts/PriceConverter.sol\":225:256  AggregatorV3Interface priceFeed */\n      dup1\n        /* \"contracts/PriceConverter.sol\":281:323  0x5f4eC3Df9cbd43714FE2740f5E3616155c5b8419 */\n      0x5f4ec3df9cbd43714fe2740f5e3616155c5b8419\n        /* \"contracts/PriceConverter.sol\":225:324  AggregatorV3Interface priceFeed = AggregatorV3Interface(0x5f4eC3Df9cbd43714FE2740f5E3616155c5b8419) */\n      swap1\n      pop\n        /* \"contracts/PriceConverter.sol\":336:348  int256 price */\n      0x00\n        /* \"contracts/PriceConverter.sol\":355:364  priceFeed */\n      dup2\n        /* \"contracts/PriceConverter.sol\":355:380  priceFeed.latestRoundData */\n      0xffffffffffffffffffffffffffffffffffffffff\n      and\n      0xfeaf968c\n        /* \"contracts/PriceConverter.sol\":355:382  priceFeed.latestRoundData() */\n      mload(0x40)\n      dup2\n      0xffffffff\n      and\n      0xe0\n      shl\n      dup2\n      mstore\n      0x04\n      add\n      0xa0\n      mload(0x40)\n      dup1\n      dup4\n      sub\n      dup2\n      dup7\n      dup1\n      extcodesize\n      iszero\n      dup1\n      iszero\n      tag_53\n      jumpi\n      0x00\n      dup1\n      revert\n    tag_53:\n      pop\n      gas\n      staticcall\n      iszero\n      dup1\n      iszero\n      tag_55\n      jumpi\n      returndatasize\n      0x00\n      dup1\n      returndatacopy\n      revert(0x00, returndatasize)\n    tag_55:\n      pop\n      pop\n      pop\n      pop\n      mload(0x40)\n      returndatasize\n      not(0x1f)\n      0x1f\n      dup3\n      add\n      and\n      dup3\n      add\n      dup1\n      0x40\n      mstore\n      pop\n      dup2\n      add\n      swap1\n      tag_56\n      swap2\n      swap1\n      tag_57\n      jump\t// in\n    tag_56:\n        /* \"contracts/PriceConverter.sol\":334:382  (,int256 price,,,) = priceFeed.latestRoundData() */\n      pop\n      pop\n      pop\n      swap2\n      pop\n      pop\n        /* \"contracts/PriceConverter.sol\":416:420  1e10 */\n      0x02540be400\n        /* \"contracts/PriceConverter.sol\":408:413  price */\n      dup2\n        /* \"contracts/PriceConverter.sol\":408:420  price * 1e10 */\n      tag_58\n      swap2\n      swap1\n      tag_59\n      jump\t// in\n    tag_58:\n        /* \"contracts/PriceConverter.sol\":393:421  return uint256(price * 1e10) */\n      swap3\n      pop\n      pop\n      pop\n        /* \"contracts/PriceConverter.sol\":130:429  function getPrice() internal view returns(uint256){... */\n      swap1\n      jump\t// out\n        /* \"#utility.yul\":7:146   */\n    tag_61:\n      0x00\n        /* \"#utility.yul\":91:97   */\n      dup2\n        /* \"#utility.yul\":78:98   */\n      calldataload\n        /* \"#utility.yul\":69:98   */\n      swap1\n      pop\n        /* \"#utility.yul\":107:140   */\n      tag_63\n        /* \"#utility.yul\":134:139   */\n      dup2\n        /* \"#utility.yul\":107:140   */\n      tag_64\n      jump\t// in\n    tag_63:\n        /* \"#utility.yul\":59:146   */\n      swap3\n      swap2\n      pop\n      pop\n      jump\t// out\n        /* \"#utility.yul\":152:293   */\n    tag_65:\n      0x00\n        /* \"#utility.yul\":239:245   */\n      dup2\n        /* \"#utility.yul\":233:246   */\n      mload\n        /* \"#utility.yul\":224:246   */\n      swap1\n      pop\n        /* \"#utility.yul\":255:287   */\n      tag_67\n        /* \"#utility.yul\":281:286   */\n      dup2\n        /* \"#utility.yul\":255:287   */\n      tag_68\n      jump\t// in\n    tag_67:\n        /* \"#utility.yul\":214:293   */\n      swap3\n      swap2\n      pop\n      pop\n      jump\t// out\n        /* \"#utility.yul\":299:438   */\n    tag_69:\n      0x00\n        /* \"#utility.yul\":383:389   */\n      dup2\n        /* \"#utility.yul\":370:390   */\n      calldataload\n        /* \"#utility.yul\":361:390   */\n      swap1\n      pop\n        /* \"#utility.yul\":399:432   */\n      tag_71\n        /* \"#utility.yul\":426:431   */\n      dup2\n        /* \"#utility.yul\":399:432   */\n      tag_72\n      jump\t// in\n    tag_71:\n        /* \"#utility.yul\":351:438   */\n      swap3\n      swap2\n      pop\n      pop\n      jump\t// out\n        /* \"#utility.yul\":444:587   */\n    tag_73:\n      0x00\n        /* \"#utility.yul\":532:538   */\n      dup2\n        /* \"#utility.yul\":526:539   */\n      mload\n        /* \"#utility.yul\":517:539   */\n      swap1\n      pop\n        /* \"#utility.yul\":548:581   */\n      tag_75\n        /* \"#utility.yul\":575:580   */\n      dup2\n        /* \"#utility.yul\":548:581   */\n      tag_72\n      jump\t// in\n    tag_75:\n        /* \"#utility.yul\":507:587   */\n      swap3\n      swap2\n      pop\n      pop\n      jump\t// out\n        /* \"#utility.yul\":593:734   */\n    tag_76:\n      0x00\n        /* \"#utility.yul\":680:686   */\n      dup2\n        /* \"#utility.yul\":674:687   */\n      mload\n        /* \"#utility.yul\":665:687   */\n      swap1\n      pop\n        /* \"#utility.yul\":696:728   */\n      tag_78\n        /* \"#utility.yul\":722:727   */\n      dup2\n        /* \"#utility.yul\":696:728   */\n      tag_79\n      jump\t// in\n    tag_78:\n        /* \"#utility.yul\":655:734   */\n      swap3\n      swap2\n      pop\n      pop\n      jump\t// out\n        /* \"#utility.yul\":740:1002   */\n    tag_18:\n      0x00\n        /* \"#utility.yul\":848:850   */\n      0x20\n        /* \"#utility.yul\":836:845   */\n      dup3\n        /* \"#utility.yul\":827:834   */\n      dup5\n        /* \"#utility.yul\":823:846   */\n      sub\n        /* \"#utility.yul\":819:851   */\n      slt\n        /* \"#utility.yul\":816:818   */\n      iszero\n      tag_81\n      jumpi\n        /* \"#utility.yul\":864:865   */\n      0x00\n        /* \"#utility.yul\":861:862   */\n      dup1\n        /* \"#utility.yul\":854:866   */\n      revert\n        /* \"#utility.yul\":816:818   */\n    tag_81:\n        /* \"#utility.yul\":907:908   */\n      0x00\n        /* \"#utility.yul\":932:985   */\n      tag_82\n        /* \"#utility.yul\":977:984   */\n      dup5\n        /* \"#utility.yul\":968:974   */\n      dup3\n        /* \"#utility.yul\":957:966   */\n      dup6\n        /* \"#utility.yul\":953:975   */\n      add\n        /* \"#utility.yul\":932:985   */\n      tag_61\n      jump\t// in\n    tag_82:\n        /* \"#utility.yul\":922:985   */\n      swap2\n      pop\n        /* \"#utility.yul\":878:995   */\n      pop\n        /* \"#utility.yul\":806:1002   */\n      swap3\n      swap2\n      pop\n      pop\n      jump\t// out\n        /* \"#utility.yul\":1008:1270   */\n    tag_26:\n      0x00\n        /* \"#utility.yul\":1116:1118   */\n      0x20\n        /* \"#utility.yul\":1104:1113   */\n      dup3\n        /* \"#utility.yul\":1095:1102   */\n      dup5\n        /* \"#utility.yul\":1091:1114   */\n      sub\n        /* \"#utility.yul\":1087:1119   */\n      slt\n        /* \"#utility.yul\":1084:1086   */\n      iszero\n      tag_84\n      jumpi\n        /* \"#utility.yul\":1132:1133   */\n      0x00\n        /* \"#utility.yul\":1129:1130   */\n      dup1\n        /* \"#utility.yul\":1122:1134   */\n      revert\n        /* \"#utility.yul\":1084:1086   */\n    tag_84:\n        /* \"#utility.yul\":1175:1176   */\n      0x00\n        /* \"#utility.yul\":1200:1253   */\n      tag_85\n        /* \"#utility.yul\":1245:1252   */\n      dup5\n        /* \"#utility.yul\":1236:1242   */\n      dup3\n        /* \"#utility.yul\":1225:1234   */\n      dup6\n        /* \"#utility.yul\":1221:1243   */\n      add\n        /* \"#utility.yul\":1200:1253   */\n      tag_69\n      jump\t// in\n    tag_85:\n        /* \"#utility.yul\":1190:1253   */\n      swap2\n      pop\n        /* \"#utility.yul\":1146:1263   */\n      pop\n        /* \"#utility.yul\":1074:1270   */\n      swap3\n      swap2\n      pop\n      pop\n      jump\t// out\n        /* \"#utility.yul\":1276:2180   */\n    tag_57:\n      0x00\n      dup1\n      0x00\n      dup1\n      0x00\n        /* \"#utility.yul\":1460:1463   */\n      0xa0\n        /* \"#utility.yul\":1448:1457   */\n      dup7\n        /* \"#utility.yul\":1439:1446   */\n      dup9\n        /* \"#utility.yul\":1435:1458   */\n      sub\n        /* \"#utility.yul\":1431:1464   */\n      slt\n        /* \"#utility.yul\":1428:1430   */\n      iszero\n      tag_87\n      jumpi\n        /* \"#utility.yul\":1477:1478   */\n      0x00\n        /* \"#utility.yul\":1474:1475   */\n      dup1\n        /* \"#utility.yul\":1467:1479   */\n      revert\n        /* \"#utility.yul\":1428:1430   */\n    tag_87:\n        /* \"#utility.yul\":1520:1521   */\n      0x00\n        /* \"#utility.yul\":1545:1608   */\n      tag_88\n        /* \"#utility.yul\":1600:1607   */\n      dup9\n        /* \"#utility.yul\":1591:1597   */\n      dup3\n        /* \"#utility.yul\":1580:1589   */\n      dup10\n        /* \"#utility.yul\":1576:1598   */\n      add\n        /* \"#utility.yul\":1545:1608   */\n      tag_76\n      jump\t// in\n    tag_88:\n        /* \"#utility.yul\":1535:1608   */\n      swap6\n      pop\n        /* \"#utility.yul\":1491:1618   */\n      pop\n        /* \"#utility.yul\":1657:1659   */\n      0x20\n        /* \"#utility.yul\":1683:1746   */\n      tag_89\n        /* \"#utility.yul\":1738:1745   */\n      dup9\n        /* \"#utility.yul\":1729:1735   */\n      dup3\n        /* \"#utility.yul\":1718:1727   */\n      dup10\n        /* \"#utility.yul\":1714:1736   */\n      add\n        /* \"#utility.yul\":1683:1746   */\n      tag_65\n      jump\t// in\n    tag_89:\n        /* \"#utility.yul\":1673:1746   */\n      swap5\n      pop\n        /* \"#utility.yul\":1628:1756   */\n      pop\n        /* \"#utility.yul\":1795:1797   */\n      0x40\n        /* \"#utility.yul\":1821:1885   */\n      tag_90\n        /* \"#utility.yul\":1877:1884   */\n      dup9\n        /* \"#utility.yul\":1868:1874   */\n      dup3\n        /* \"#utility.yul\":1857:1866   */\n      dup10\n        /* \"#utility.yul\":1853:1875   */\n      add\n        /* \"#utility.yul\":1821:1885   */\n      tag_73\n      jump\t// in\n    tag_90:\n        /* \"#utility.yul\":1811:1885   */\n      swap4\n      pop\n        /* \"#utility.yul\":1766:1895   */\n      pop\n        /* \"#utility.yul\":1934:1936   */\n      0x60\n        /* \"#utility.yul\":1960:2024   */\n      tag_91\n        /* \"#utility.yul\":2016:2023   */\n      dup9\n        /* \"#utility.yul\":2007:2013   */\n      dup3\n        /* \"#utility.yul\":1996:2005   */\n      dup10\n        /* \"#utility.yul\":1992:2014   */\n      add\n        /* \"#utility.yul\":1960:2024   */\n      tag_73\n      jump\t// in\n    tag_91:\n        /* \"#utility.yul\":1950:2024   */\n      swap3\n      pop\n        /* \"#utility.yul\":1905:2034   */\n      pop\n        /* \"#utility.yul\":2073:2076   */\n      0x80\n        /* \"#utility.yul\":2100:2163   */\n      tag_92\n        /* \"#utility.yul\":2155:2162   */\n      dup9\n        /* \"#utility.yul\":2146:2152   */\n      dup3\n        /* \"#utility.yul\":2135:2144   */\n      dup10\n        /* \"#utility.yul\":2131:2153   */\n      add\n        /* \"#utility.yul\":2100:2163   */\n      tag_76\n      jump\t// in\n    tag_92:\n        /* \"#utility.yul\":2090:2163   */\n      swap2\n      pop\n        /* \"#utility.yul\":2044:2173   */\n      pop\n        /* \"#utility.yul\":1418:2180   */\n      swap3\n      swap6\n      pop\n      swap3\n      swap6\n      swap1\n      swap4\n      pop\n      jump\t// out\n        /* \"#utility.yul\":2186:2304   */\n    tag_93:\n        /* \"#utility.yul\":2273:2297   */\n      tag_95\n        /* \"#utility.yul\":2291:2296   */\n      dup2\n        /* \"#utility.yul\":2273:2297   */\n      tag_96\n      jump\t// in\n    tag_95:\n        /* \"#utility.yul\":2268:2271   */\n      dup3\n        /* \"#utility.yul\":2261:2298   */\n      mstore\n        /* \"#utility.yul\":2251:2304   */\n      pop\n      pop\n      jump\t// out\n        /* \"#utility.yul\":2310:2634   */\n    tag_97:\n      0x00\n        /* \"#utility.yul\":2473:2540   */\n      tag_99\n        /* \"#utility.yul\":2537:2539   */\n      0x1a\n        /* \"#utility.yul\":2532:2535   */\n      dup4\n        /* \"#utility.yul\":2473:2540   */\n      tag_100\n      jump\t// in\n    tag_99:\n        /* \"#utility.yul\":2466:2540   */\n      swap2\n      pop\n        /* \"#utility.yul\":2570:2598   */\n      0x446964206e6f742073656e6420656e6f756768206d6f6e657973000000000000\n        /* \"#utility.yul\":2566:2567   */\n      0x00\n        /* \"#utility.yul\":2561:2564   */\n      dup4\n        /* \"#utility.yul\":2557:2568   */\n      add\n        /* \"#utility.yul\":2550:2599   */\n      mstore\n        /* \"#utility.yul\":2625:2627   */\n      0x20\n        /* \"#utility.yul\":2620:2623   */\n      dup3\n        /* \"#utility.yul\":2616:2628   */\n      add\n        /* \"#utility.yul\":2609:2628   */\n      swap1\n      pop\n        /* \"#utility.yul\":2456:2634   */\n      swap2\n      swap1\n      pop\n      jump\t// out\n        /* \"#utility.yul\":2640:2758   */\n    tag_101:\n        /* \"#utility.yul\":2727:2751   */\n      tag_103\n        /* \"#utility.yul\":2745:2750   */\n      dup2\n        /* \"#utility.yul\":2727:2751   */\n      tag_104\n      jump\t// in\n    tag_103:\n        /* \"#utility.yul\":2722:2725   */\n      dup3\n        /* \"#utility.yul\":2715:2752   */\n      mstore\n        /* \"#utility.yul\":2705:2758   */\n      pop\n      pop\n      jump\t// out\n        /* \"#utility.yul\":2764:2986   */\n    tag_29:\n      0x00\n        /* \"#utility.yul\":2895:2897   */\n      0x20\n        /* \"#utility.yul\":2884:2893   */\n      dup3\n        /* \"#utility.yul\":2880:2898   */\n      add\n        /* \"#utility.yul\":2872:2898   */\n      swap1\n      pop\n        /* \"#utility.yul\":2908:2979   */\n      tag_106\n        /* \"#utility.yul\":2976:2977   */\n      0x00\n        /* \"#utility.yul\":2965:2974   */\n      dup4\n        /* \"#utility.yul\":2961:2978   */\n      add\n        /* \"#utility.yul\":2952:2958   */\n      dup5\n        /* \"#utility.yul\":2908:2979   */\n      tag_93\n      jump\t// in\n    tag_106:\n        /* \"#utility.yul\":2862:2986   */\n      swap3\n      swap2\n      pop\n      pop\n      jump\t// out\n        /* \"#utility.yul\":2992:3411   */\n    tag_41:\n      0x00\n        /* \"#utility.yul\":3196:3198   */\n      0x20\n        /* \"#utility.yul\":3185:3194   */\n      dup3\n        /* \"#utility.yul\":3181:3199   */\n      add\n        /* \"#utility.yul\":3173:3199   */\n      swap1\n      pop\n        /* \"#utility.yul\":3245:3254   */\n      dup2\n        /* \"#utility.yul\":3239:3243   */\n      dup2\n        /* \"#utility.yul\":3235:3255   */\n      sub\n        /* \"#utility.yul\":3231:3232   */\n      0x00\n        /* \"#utility.yul\":3220:3229   */\n      dup4\n        /* \"#utility.yul\":3216:3233   */\n      add\n        /* \"#utility.yul\":3209:3256   */\n      mstore\n        /* \"#utility.yul\":3273:3404   */\n      tag_108\n        /* \"#utility.yul\":3399:3403   */\n      dup2\n        /* \"#utility.yul\":3273:3404   */\n      tag_97\n      jump\t// in\n    tag_108:\n        /* \"#utility.yul\":3265:3404   */\n      swap1\n      pop\n        /* \"#utility.yul\":3163:3411   */\n      swap2\n      swap1\n      pop\n      jump\t// out\n        /* \"#utility.yul\":3417:3639   */\n    tag_11:\n      0x00\n        /* \"#utility.yul\":3548:3550   */\n      0x20\n        /* \"#utility.yul\":3537:3546   */\n      dup3\n        /* \"#utility.yul\":3533:3551   */\n      add\n        /* \"#utility.yul\":3525:3551   */\n      swap1\n      pop\n        /* \"#utility.yul\":3561:3632   */\n      tag_110\n        /* \"#utility.yul\":3629:3630   */\n      0x00\n        /* \"#utility.yul\":3618:3627   */\n      dup4\n        /* \"#utility.yul\":3614:3631   */\n      add\n        /* \"#utility.yul\":3605:3611   */\n      dup5\n        /* \"#utility.yul\":3561:3632   */\n      tag_101\n      jump\t// in\n    tag_110:\n        /* \"#utility.yul\":3515:3639   */\n      swap3\n      swap2\n      pop\n      pop\n      jump\t// out\n        /* \"#utility.yul\":3645:3814   */\n    tag_100:\n      0x00\n        /* \"#utility.yul\":3763:3769   */\n      dup3\n        /* \"#utility.yul\":3758:3761   */\n      dup3\n        /* \"#utility.yul\":3751:3770   */\n      mstore\n        /* \"#utility.yul\":3803:3807   */\n      0x20\n        /* \"#utility.yul\":3798:3801   */\n      dup3\n        /* \"#utility.yul\":3794:3808   */\n      add\n        /* \"#utility.yul\":3779:3808   */\n      swap1\n      pop\n        /* \"#utility.yul\":3741:3814   */\n      swap3\n      swap2\n      pop\n      pop\n      jump\t// out\n        /* \"#utility.yul\":3820:4125   */\n    tag_35:\n      0x00\n        /* \"#utility.yul\":3879:3899   */\n      tag_113\n        /* \"#utility.yul\":3897:3898   */\n      dup3\n        /* \"#utility.yul\":3879:3899   */\n      tag_104\n      jump\t// in\n    tag_113:\n        /* \"#utility.yul\":3874:3899   */\n      swap2\n      pop\n        /* \"#utility.yul\":3913:3933   */\n      tag_114\n        /* \"#utility.yul\":3931:3932   */\n      dup4\n        /* \"#utility.yul\":3913:3933   */\n      tag_104\n      jump\t// in\n    tag_114:\n        /* \"#utility.yul\":3908:3933   */\n      swap3\n      pop\n        /* \"#utility.yul\":4067:4068   */\n      dup3\n        /* \"#utility.yul\":3999:4065   */\n      0xffffffffffffffffffffffffffffffffffffffffffffffffffffffffffffffff\n        /* \"#utility.yul\":3995:4069   */\n      sub\n        /* \"#utility.yul\":3992:3993   */\n      dup3\n        /* \"#utility.yul\":3989:4070   */\n      gt\n        /* \"#utility.yul\":3986:3988   */\n      iszero\n      tag_115\n      jumpi\n        /* \"#utility.yul\":4073:4091   */\n      tag_116\n      tag_117\n      jump\t// in\n    tag_116:\n        /* \"#utility.yul\":3986:3988   */\n    tag_115:\n        /* \"#utility.yul\":4117:4118   */\n      dup3\n        /* \"#utility.yul\":4114:4115   */\n      dup3\n        /* \"#utility.yul\":4110:4119   */\n      add\n        /* \"#utility.yul\":4103:4119   */\n      swap1\n      pop\n        /* \"#utility.yul\":3864:4125   */\n      swap3\n      swap2\n      pop\n      pop\n      jump\t// out\n        /* \"#utility.yul\":4131:4316   */\n    tag_51:\n      0x00\n        /* \"#utility.yul\":4188:4208   */\n      tag_119\n        /* \"#utility.yul\":4206:4207   */\n      dup3\n        /* \"#utility.yul\":4188:4208   */\n      tag_104\n      jump\t// in\n    tag_119:\n        /* \"#utility.yul\":4183:4208   */\n      swap2\n      pop\n        /* \"#utility.yul\":4222:4242   */\n      tag_120\n        /* \"#utility.yul\":4240:4241   */\n      dup4\n        /* \"#utility.yul\":4222:4242   */\n      tag_104\n      jump\t// in\n    tag_120:\n        /* \"#utility.yul\":4217:4242   */\n      swap3\n      pop\n        /* \"#utility.yul\":4261:4262   */\n      dup3\n        /* \"#utility.yul\":4251:4253   */\n      tag_121\n      jumpi\n        /* \"#utility.yul\":4266:4284   */\n      tag_122\n      tag_123\n      jump\t// in\n    tag_122:\n        /* \"#utility.yul\":4251:4253   */\n    tag_121:\n        /* \"#utility.yul\":4308:4309   */\n      dup3\n        /* \"#utility.yul\":4305:4306   */\n      dup3\n        /* \"#utility.yul\":4301:4310   */\n      div\n        /* \"#utility.yul\":4296:4310   */\n      swap1\n      pop\n        /* \"#utility.yul\":4173:4316   */\n      swap3\n      swap2\n      pop\n      pop\n      jump\t// out\n        /* \"#utility.yul\":4322:5313   */\n    tag_59:\n      0x00\n        /* \"#utility.yul\":4384:4403   */\n      tag_125\n        /* \"#utility.yul\":4401:4402   */\n      dup3\n        /* \"#utility.yul\":4384:4403   */\n      tag_126\n      jump\t// in\n    tag_125:\n        /* \"#utility.yul\":4379:4403   */\n      swap2\n      pop\n        /* \"#utility.yul\":4417:4436   */\n      tag_127\n        /* \"#utility.yul\":4434:4435   */\n      dup4\n        /* \"#utility.yul\":4417:4436   */\n      tag_126\n      jump\t// in\n    tag_127:\n        /* \"#utility.yul\":4412:4436   */\n      swap3\n      pop\n        /* \"#utility.yul\":4618:4619   */\n      dup3\n        /* \"#utility.yul\":4550:4616   */\n      0x7fffffffffffffffffffffffffffffffffffffffffffffffffffffffffffffff\n        /* \"#utility.yul\":4546:4620   */\n      div\n        /* \"#utility.yul\":4543:4544   */\n      dup3\n        /* \"#utility.yul\":4540:4621   */\n      gt\n        /* \"#utility.yul\":4535:4536   */\n      0x00\n        /* \"#utility.yul\":4532:4533   */\n      dup5\n        /* \"#utility.yul\":4528:4537   */\n      sgt\n        /* \"#utility.yul\":4524:4525   */\n      0x00\n        /* \"#utility.yul\":4521:4522   */\n      dup5\n        /* \"#utility.yul\":4517:4526   */\n      sgt\n        /* \"#utility.yul\":4513:4538   */\n      and\n        /* \"#utility.yul\":4509:4622   */\n      and\n        /* \"#utility.yul\":4506:4508   */\n      iszero\n      tag_128\n      jumpi\n        /* \"#utility.yul\":4625:4643   */\n      tag_129\n      tag_117\n      jump\t// in\n    tag_129:\n        /* \"#utility.yul\":4506:4508   */\n    tag_128:\n        /* \"#utility.yul\":4829:4830   */\n      dup2\n        /* \"#utility.yul\":4761:4827   */\n      0x8000000000000000000000000000000000000000000000000000000000000000\n        /* \"#utility.yul\":4756:4831   */\n      sdiv\n        /* \"#utility.yul\":4753:4754   */\n      dup4\n        /* \"#utility.yul\":4749:4832   */\n      slt\n        /* \"#utility.yul\":4744:4745   */\n      0x00\n        /* \"#utility.yul\":4741:4742   */\n      dup5\n        /* \"#utility.yul\":4737:4746   */\n      slt\n        /* \"#utility.yul\":4733:4734   */\n      0x00\n        /* \"#utility.yul\":4730:4731   */\n      dup5\n        /* \"#utility.yul\":4726:4735   */\n      sgt\n        /* \"#utility.yul\":4722:4747   */\n      and\n        /* \"#utility.yul\":4718:4833   */\n      and\n        /* \"#utility.yul\":4715:4717   */\n      iszero\n      tag_130\n      jumpi\n        /* \"#utility.yul\":4836:4854   */\n      tag_131\n      tag_117\n      jump\t// in\n    tag_131:\n        /* \"#utility.yul\":4715:4717   */\n    tag_130:\n        /* \"#utility.yul\":5040:5041   */\n      dup3\n        /* \"#utility.yul\":4972:5038   */\n      0x8000000000000000000000000000000000000000000000000000000000000000\n        /* \"#utility.yul\":4967:5042   */\n      sdiv\n        /* \"#utility.yul\":4964:4965   */\n      dup3\n        /* \"#utility.yul\":4960:5043   */\n      slt\n        /* \"#utility.yul\":4955:4956   */\n      0x00\n        /* \"#utility.yul\":4952:4953   */\n      dup5\n        /* \"#utility.yul\":4948:4957   */\n      sgt\n        /* \"#utility.yul\":4944:4945   */\n      0x00\n        /* \"#utility.yul\":4941:4942   */\n      dup5\n        /* \"#utility.yul\":4937:4946   */\n      slt\n        /* \"#utility.yul\":4933:4958   */\n      and\n        /* \"#utility.yul\":4929:5044   */\n      and\n        /* \"#utility.yul\":4926:4928   */\n      iszero\n      tag_132\n      jumpi\n        /* \"#utility.yul\":5047:5065   */\n      tag_133\n      tag_117\n      jump\t// in\n    tag_133:\n        /* \"#utility.yul\":4926:4928   */\n    tag_132:\n        /* \"#utility.yul\":5250:5251   */\n      dup3\n        /* \"#utility.yul\":5182:5248   */\n      0x7fffffffffffffffffffffffffffffffffffffffffffffffffffffffffffffff\n        /* \"#utility.yul\":5177:5252   */\n      sdiv\n        /* \"#utility.yul\":5174:5175   */\n      dup3\n        /* \"#utility.yul\":5170:5253   */\n      slt\n        /* \"#utility.yul\":5165:5166   */\n      0x00\n        /* \"#utility.yul\":5162:5163   */\n      dup5\n        /* \"#utility.yul\":5158:5167   */\n      slt\n        /* \"#utility.yul\":5154:5155   */\n      0x00\n        /* \"#utility.yul\":5151:5152   */\n      dup5\n        /* \"#utility.yul\":5147:5156   */\n      slt\n        /* \"#utility.yul\":5143:5168   */\n      and\n        /* \"#utility.yul\":5139:5254   */\n      and\n        /* \"#utility.yul\":5136:5138   */\n      iszero\n      tag_134\n      jumpi\n        /* \"#utility.yul\":5257:5275   */\n      tag_135\n      tag_117\n      jump\t// in\n    tag_135:\n        /* \"#utility.yul\":5136:5138   */\n    tag_134:\n        /* \"#utility.yul\":5305:5306   */\n      dup3\n        /* \"#utility.yul\":5302:5303   */\n      dup3\n        /* \"#utility.yul\":5298:5307   */\n      mul\n        /* \"#utility.yul\":5287:5307   */\n      swap1\n      pop\n        /* \"#utility.yul\":4369:5313   */\n      swap3\n      swap2\n      pop\n      pop\n      jump\t// out\n        /* \"#utility.yul\":5319:5667   */\n    tag_49:\n      0x00\n        /* \"#utility.yul\":5382:5402   */\n      tag_137\n        /* \"#utility.yul\":5400:5401   */\n      dup3\n        /* \"#utility.yul\":5382:5402   */\n      tag_104\n      jump\t// in\n    tag_137:\n        /* \"#utility.yul\":5377:5402   */\n      swap2\n      pop\n        /* \"#utility.yul\":5416:5436   */\n      tag_138\n        /* \"#utility.yul\":5434:5435   */\n      dup4\n        /* \"#utility.yul\":5416:5436   */\n      tag_104\n      jump\t// in\n    tag_138:\n        /* \"#utility.yul\":5411:5436   */\n      swap3\n      pop\n        /* \"#utility.yul\":5604:5605   */\n      dup2\n        /* \"#utility.yul\":5536:5602   */\n      0xffffffffffffffffffffffffffffffffffffffffffffffffffffffffffffffff\n        /* \"#utility.yul\":5532:5606   */\n      div\n        /* \"#utility.yul\":5529:5530   */\n      dup4\n        /* \"#utility.yul\":5526:5607   */\n      gt\n        /* \"#utility.yul\":5521:5522   */\n      dup3\n        /* \"#utility.yul\":5514:5523   */\n      iszero\n        /* \"#utility.yul\":5507:5524   */\n      iszero\n        /* \"#utility.yul\":5503:5608   */\n      and\n        /* \"#utility.yul\":5500:5502   */\n      iszero\n      tag_139\n      jumpi\n        /* \"#utility.yul\":5611:5629   */\n      tag_140\n      tag_117\n      jump\t// in\n    tag_140:\n        /* \"#utility.yul\":5500:5502   */\n    tag_139:\n        /* \"#utility.yul\":5659:5660   */\n      dup3\n        /* \"#utility.yul\":5656:5657   */\n      dup3\n        /* \"#utility.yul\":5652:5661   */\n      mul\n        /* \"#utility.yul\":5641:5661   */\n      swap1\n      pop\n        /* \"#utility.yul\":5367:5667   */\n      swap3\n      swap2\n      pop\n      pop\n      jump\t// out\n        /* \"#utility.yul\":5673:5769   */\n    tag_96:\n      0x00\n        /* \"#utility.yul\":5739:5763   */\n      tag_142\n        /* \"#utility.yul\":5757:5762   */\n      dup3\n        /* \"#utility.yul\":5739:5763   */\n      tag_143\n      jump\t// in\n    tag_142:\n        /* \"#utility.yul\":5728:5763   */\n      swap1\n      pop\n        /* \"#utility.yul\":5718:5769   */\n      swap2\n      swap1\n      pop\n      jump\t// out\n        /* \"#utility.yul\":5775:5851   */\n    tag_126:\n      0x00\n        /* \"#utility.yul\":5840:5845   */\n      dup2\n        /* \"#utility.yul\":5829:5845   */\n      swap1\n      pop\n        /* \"#utility.yul\":5819:5851   */\n      swap2\n      swap1\n      pop\n      jump\t// out\n        /* \"#utility.yul\":5857:5983   */\n    tag_143:\n      0x00\n        /* \"#utility.yul\":5934:5976   */\n      0xffffffffffffffffffffffffffffffffffffffff\n        /* \"#utility.yul\":5927:5932   */\n      dup3\n        /* \"#utility.yul\":5923:5977   */\n      and\n        /* \"#utility.yul\":5912:5977   */\n      swap1\n      pop\n        /* \"#utility.yul\":5902:5983   */\n      swap2\n      swap1\n      pop\n      jump\t// out\n        /* \"#utility.yul\":5989:6066   */\n    tag_104:\n      0x00\n        /* \"#utility.yul\":6055:6060   */\n      dup2\n        /* \"#utility.yul\":6044:6060   */\n      swap1\n      pop\n        /* \"#utility.yul\":6034:6066   */\n      swap2\n      swap1\n      pop\n      jump\t// out\n        /* \"#utility.yul\":6072:6177   */\n    tag_147:\n      0x00\n        /* \"#utility.yul\":6148:6170   */\n      0xffffffffffffffffffff\n        /* \"#utility.yul\":6141:6146   */\n      dup3\n        /* \"#utility.yul\":6137:6171   */\n      and\n        /* \"#utility.yul\":6126:6171   */\n      swap1\n      pop\n        /* \"#utility.yul\":6116:6177   */\n      swap2\n      swap1\n      pop\n      jump\t// out\n        /* \"#utility.yul\":6183:6363   */\n    tag_117:\n        /* \"#utility.yul\":6231:6308   */\n      0x4e487b7100000000000000000000000000000000000000000000000000000000\n        /* \"#utility.yul\":6228:6229   */\n      0x00\n        /* \"#utility.yul\":6221:6309   */\n      mstore\n        /* \"#utility.yul\":6328:6332   */\n      0x11\n        /* \"#utility.yul\":6325:6326   */\n      0x04\n        /* \"#utility.yul\":6318:6333   */\n      mstore\n        /* \"#utility.yul\":6352:6356   */\n      0x24\n        /* \"#utility.yul\":6349:6350   */\n      0x00\n        /* \"#utility.yul\":6342:6357   */\n      revert\n        /* \"#utility.yul\":6369:6549   */\n    tag_123:\n        /* \"#utility.yul\":6417:6494   */\n      0x4e487b7100000000000000000000000000000000000000000000000000000000\n        /* \"#utility.yul\":6414:6415   */\n      0x00\n        /* \"#utility.yul\":6407:6495   */\n      mstore\n        /* \"#utility.yul\":6514:6518   */\n      0x12\n        /* \"#utility.yul\":6511:6512   */\n      0x04\n        /* \"#utility.yul\":6504:6519   */\n      mstore\n        /* \"#utility.yul\":6538:6542   */\n      0x24\n        /* \"#utility.yul\":6535:6536   */\n      0x00\n        /* \"#utility.yul\":6528:6543   */\n      revert\n        /* \"#utility.yul\":6555:6677   */\n    tag_64:\n        /* \"#utility.yul\":6628:6652   */\n      tag_152\n        /* \"#utility.yul\":6646:6651   */\n      dup2\n        /* \"#utility.yul\":6628:6652   */\n      tag_96\n      jump\t// in\n    tag_152:\n        /* \"#utility.yul\":6621:6626   */\n      dup2\n        /* \"#utility.yul\":6618:6653   */\n      eq\n        /* \"#utility.yul\":6608:6610   */\n      tag_153\n      jumpi\n        /* \"#utility.yul\":6667:6668   */\n      0x00\n        /* \"#utility.yul\":6664:6665   */\n      dup1\n        /* \"#utility.yul\":6657:6669   */\n      revert\n        /* \"#utility.yul\":6608:6610   */\n    tag_153:\n        /* \"#utility.yul\":6598:6677   */\n      pop\n      jump\t// out\n        /* \"#utility.yul\":6683:6803   */\n    tag_68:\n        /* \"#utility.yul\":6755:6778   */\n      tag_155\n        /* \"#utility.yul\":6772:6777   */\n      dup2\n        /* \"#utility.yul\":6755:6778   */\n      tag_126\n      jump\t// in\n    tag_155:\n        /* \"#utility.yul\":6748:6753   */\n      dup2\n        /* \"#utility.yul\":6745:6779   */\n      eq\n        /* \"#utility.yul\":6735:6737   */\n      tag_156\n      jumpi\n        /* \"#utility.yul\":6793:6794   */\n      0x00\n        /* \"#utility.yul\":6790:6791   */\n      dup1\n        /* \"#utility.yul\":6783:6795   */\n      revert\n        /* \"#utility.yul\":6735:6737   */\n    tag_156:\n        /* \"#utility.yul\":6725:6803   */\n      pop\n      jump\t// out\n        /* \"#utility.yul\":6809:6931   */\n    tag_72:\n        /* \"#utility.yul\":6882:6906   */\n      tag_158\n        /* \"#utility.yul\":6900:6905   */\n      dup2\n        /* \"#utility.yul\":6882:6906   */\n      tag_104\n      jump\t// in\n    tag_158:\n        /* \"#utility.yul\":6875:6880   */\n      dup2\n        /* \"#utility.yul\":6872:6907   */\n      eq\n        /* \"#utility.yul\":6862:6864   */\n      tag_159\n      jumpi\n        /* \"#utility.yul\":6921:6922   */\n      0x00\n        /* \"#utility.yul\":6918:6919   */\n      dup1\n        /* \"#utility.yul\":6911:6923   */\n      revert\n        /* \"#utility.yul\":6862:6864   */\n    tag_159:\n        /* \"#utility.yul\":6852:6931   */\n      pop\n      jump\t// out\n        /* \"#utility.yul\":6937:7057   */\n    tag_79:\n        /* \"#utility.yul\":7009:7032   */\n      tag_161\n        /* \"#utility.yul\":7026:7031   */\n      dup2\n        /* \"#utility.yul\":7009:7032   */\n      tag_147\n      jump\t// in\n    tag_161:\n        /* \"#utility.yul\":7002:7007   */\n      dup2\n        /* \"#utility.yul\":6999:7033   */\n      eq\n        /* \"#utility.yul\":6989:6991   */\n      tag_162\n      jumpi\n        /* \"#utility.yul\":7047:7048   */\n      0x00\n        /* \"#utility.yul\":7044:7045   */\n      dup1\n        /* \"#utility.yul\":7037:7049   */\n      revert\n        /* \"#utility.yul\":6989:6991   */\n    tag_162:\n        /* \"#utility.yul\":6979:7057   */\n      pop\n      jump\t// out\n\n    auxdata: 0xa2646970667358221220ae9ad1c86dc36590803ddd9bd6df50c4d96469b8693a166d27d1d8d5584aee7864736f6c63430008000033\n}\n",
				"bytecode": {
					"linkReferences": {},
					"object": "60806040526802b5e3af16b188000060005534801561001d57600080fd5b506108bc8061002d6000396000f3fe60806040526004361061004a5760003560e01c8063098de8201461004f5780633ccfd60b1461007a5780633e47d6f314610091578063b60d4288146100ce578063dc0d3dff146100d8575b600080fd5b34801561005b57600080fd5b50610064610115565b604051610071919061054c565b60405180910390f35b34801561008657600080fd5b5061008f61011b565b005b34801561009d57600080fd5b506100b860048036038101906100b391906103ea565b610142565b6040516100c5919061054c565b60405180910390f35b6100d661015a565b005b3480156100e457600080fd5b506100ff60048036038101906100fa9190610413565b610250565b60405161010c9190610511565b60405180910390f35b60005481565b60005b60018054905081101561013f576001816101389190610578565b905061011e565b50565b60026020528060005260406000206000915090505481565b6000546101663461028f565b10156101a7576040517f08c379a000000000000000000000000000000000000000000000000000000000815260040161019e9061052c565b60405180910390fd5b6001339080600181540180825580915050600190039060005260206000200160009091909190916101000a81548173ffffffffffffffffffffffffffffffffffffffff021916908373ffffffffffffffffffffffffffffffffffffffff16021790555034600260003373ffffffffffffffffffffffffffffffffffffffff1673ffffffffffffffffffffffffffffffffffffffff16815260200190815260200160002081905550565b6001818154811061026057600080fd5b906000526020600020016000915054906101000a900473ffffffffffffffffffffffffffffffffffffffff1681565b60008061029a6102c9565b90506000670de0b6b3a764000084836102b39190610716565b6102bd91906105ce565b90508092505050919050565b600080735f4ec3df9cbd43714fe2740f5e3616155c5b8419905060008173ffffffffffffffffffffffffffffffffffffffff1663feaf968c6040518163ffffffff1660e01b815260040160a06040518083038186803b15801561032b57600080fd5b505afa15801561033f573d6000803e3d6000fd5b505050506040513d601f19601f82011682018060405250810190610363919061043c565b5050509150506402540be4008161037a91906105ff565b9250505090565b6000813590506103908161082a565b92915050565b6000815190506103a581610841565b92915050565b6000813590506103ba81610858565b92915050565b6000815190506103cf81610858565b92915050565b6000815190506103e48161086f565b92915050565b6000602082840312156103fc57600080fd5b600061040a84828501610381565b91505092915050565b60006020828403121561042557600080fd5b6000610433848285016103ab565b91505092915050565b600080600080600060a0868803121561045457600080fd5b6000610462888289016103d5565b955050602061047388828901610396565b9450506040610484888289016103c0565b9350506060610495888289016103c0565b92505060806104a6888289016103d5565b9150509295509295909350565b6104bc81610770565b82525050565b60006104cf601a83610567565b91507f446964206e6f742073656e6420656e6f756768206d6f6e6579730000000000006000830152602082019050919050565b61050b816107ac565b82525050565b600060208201905061052660008301846104b3565b92915050565b60006020820190508181036000830152610545816104c2565b9050919050565b60006020820190506105616000830184610502565b92915050565b600082825260208201905092915050565b6000610583826107ac565b915061058e836107ac565b9250827fffffffffffffffffffffffffffffffffffffffffffffffffffffffffffffffff038211156105c3576105c26107cc565b5b828201905092915050565b60006105d9826107ac565b91506105e4836107ac565b9250826105f4576105f36107fb565b5b828204905092915050565b600061060a82610782565b915061061583610782565b9250827f7fffffffffffffffffffffffffffffffffffffffffffffffffffffffffffffff0482116000841360008413161615610654576106536107cc565b5b817f80000000000000000000000000000000000000000000000000000000000000000583126000841260008413161615610691576106906107cc565b5b827f800000000000000000000000000000000000000000000000000000000000000005821260008413600084121616156106ce576106cd6107cc565b5b827f7fffffffffffffffffffffffffffffffffffffffffffffffffffffffffffffff058212600084126000841216161561070b5761070a6107cc565b5b828202905092915050565b6000610721826107ac565b915061072c836107ac565b9250817fffffffffffffffffffffffffffffffffffffffffffffffffffffffffffffffff0483118215151615610765576107646107cc565b5b828202905092915050565b600061077b8261078c565b9050919050565b6000819050919050565b600073ffffffffffffffffffffffffffffffffffffffff82169050919050565b6000819050919050565b600069ffffffffffffffffffff82169050919050565b7f4e487b7100000000000000000000000000000000000000000000000000000000600052601160045260246000fd5b7f4e487b7100000000000000000000000000000000000000000000000000000000600052601260045260246000fd5b61083381610770565b811461083e57600080fd5b50565b61084a81610782565b811461085557600080fd5b50565b610861816107ac565b811461086c57600080fd5b50565b610878816107b6565b811461088357600080fd5b5056fea2646970667358221220ae9ad1c86dc36590803ddd9bd6df50c4d96469b8693a166d27d1d8d5584aee7864736f6c63430008000033",
					"opcodes": "PUSH1 0x80 PUSH1 0x40 MSTORE PUSH9 0x2B5E3AF16B1880000 PUSH1 0x0 SSTORE CALLVALUE DUP1 ISZERO PUSH2 0x1D JUMPI PUSH1 0x0 DUP1 REVERT JUMPDEST POP PUSH2 0x8BC DUP1 PUSH2 0x2D PUSH1 0x0 CODECOPY PUSH1 0x0 RETURN INVALID PUSH1 0x80 PUSH1 0x40 MSTORE PUSH1 0x4 CALLDATASIZE LT PUSH2 0x4A JUMPI PUSH1 0x0 CALLDATALOAD PUSH1 0xE0 SHR DUP1 PUSH4 0x98DE820 EQ PUSH2 0x4F JUMPI DUP1 PUSH4 0x3CCFD60B EQ PUSH2 0x7A JUMPI DUP1 PUSH4 0x3E47D6F3 EQ PUSH2 0x91 JUMPI DUP1 PUSH4 0xB60D4288 EQ PUSH2 0xCE JUMPI DUP1 PUSH4 0xDC0D3DFF EQ PUSH2 0xD8 JUMPI JUMPDEST PUSH1 0x0 DUP1 REVERT JUMPDEST CALLVALUE DUP1 ISZERO PUSH2 0x5B JUMPI PUSH1 0x0 DUP1 REVERT JUMPDEST POP PUSH2 0x64 PUSH2 0x115 JUMP JUMPDEST PUSH1 0x40 MLOAD PUSH2 0x71 SWAP2 SWAP1 PUSH2 0x54C JUMP JUMPDEST PUSH1 0x40 MLOAD DUP1 SWAP2 SUB SWAP1 RETURN JUMPDEST CALLVALUE DUP1 ISZERO PUSH2 0x86 JUMPI PUSH1 0x0 DUP1 REVERT JUMPDEST POP PUSH2 0x8F PUSH2 0x11B JUMP JUMPDEST STOP JUMPDEST CALLVALUE DUP1 ISZERO PUSH2 0x9D JUMPI PUSH1 0x0 DUP1 REVERT JUMPDEST POP PUSH2 0xB8 PUSH1 0x4 DUP1 CALLDATASIZE SUB DUP2 ADD SWAP1 PUSH2 0xB3 SWAP2 SWAP1 PUSH2 0x3EA JUMP JUMPDEST PUSH2 0x142 JUMP JUMPDEST PUSH1 0x40 MLOAD PUSH2 0xC5 SWAP2 SWAP1 PUSH2 0x54C JUMP JUMPDEST PUSH1 0x40 MLOAD DUP1 SWAP2 SUB SWAP1 RETURN JUMPDEST PUSH2 0xD6 PUSH2 0x15A JUMP JUMPDEST STOP JUMPDEST CALLVALUE DUP1 ISZERO PUSH2 0xE4 JUMPI PUSH1 0x0 DUP1 REVERT JUMPDEST POP PUSH2 0xFF PUSH1 0x4 DUP1 CALLDATASIZE SUB DUP2 ADD SWAP1 PUSH2 0xFA SWAP2 SWAP1 PUSH2 0x413 JUMP JUMPDEST PUSH2 0x250 JUMP JUMPDEST PUSH1 0x40 MLOAD PUSH2 0x10C SWAP2 SWAP1 PUSH2 0x511 JUMP JUMPDEST PUSH1 0x40 MLOAD DUP1 SWAP2 SUB SWAP1 RETURN JUMPDEST PUSH1 0x0 SLOAD DUP2 JUMP JUMPDEST PUSH1 0x0 JUMPDEST PUSH1 0x1 DUP1 SLOAD SWAP1 POP DUP2 LT ISZERO PUSH2 0x13F JUMPI PUSH1 0x1 DUP2 PUSH2 0x138 SWAP2 SWAP1 PUSH2 0x578 JUMP JUMPDEST SWAP1 POP PUSH2 0x11E JUMP JUMPDEST POP JUMP JUMPDEST PUSH1 0x2 PUSH1 0x20 MSTORE DUP1 PUSH1 0x0 MSTORE PUSH1 0x40 PUSH1 0x0 KECCAK256 PUSH1 0x0 SWAP2 POP SWAP1 POP SLOAD DUP2 JUMP JUMPDEST PUSH1 0x0 SLOAD PUSH2 0x166 CALLVALUE PUSH2 0x28F JUMP JUMPDEST LT ISZERO PUSH2 0x1A7 JUMPI PUSH1 0x40 MLOAD PUSH32 0x8C379A000000000000000000000000000000000000000000000000000000000 DUP2 MSTORE PUSH1 0x4 ADD PUSH2 0x19E SWAP1 PUSH2 0x52C JUMP JUMPDEST PUSH1 0x40 MLOAD DUP1 SWAP2 SUB SWAP1 REVERT JUMPDEST PUSH1 0x1 CALLER SWAP1 DUP1 PUSH1 0x1 DUP2 SLOAD ADD DUP1 DUP3 SSTORE DUP1 SWAP2 POP POP PUSH1 0x1 SWAP1 SUB SWAP1 PUSH1 0x0 MSTORE PUSH1 0x20 PUSH1 0x0 KECCAK256 ADD PUSH1 0x0 SWAP1 SWAP2 SWAP1 SWAP2 SWAP1 SWAP2 PUSH2 0x100 EXP DUP2 SLOAD DUP2 PUSH20 0xFFFFFFFFFFFFFFFFFFFFFFFFFFFFFFFFFFFFFFFF MUL NOT AND SWAP1 DUP4 PUSH20 0xFFFFFFFFFFFFFFFFFFFFFFFFFFFFFFFFFFFFFFFF AND MUL OR SWAP1 SSTORE POP CALLVALUE PUSH1 0x2 PUSH1 0x0 CALLER PUSH20 0xFFFFFFFFFFFFFFFFFFFFFFFFFFFFFFFFFFFFFFFF AND PUSH20 0xFFFFFFFFFFFFFFFFFFFFFFFFFFFFFFFFFFFFFFFF AND DUP2 MSTORE PUSH1 0x20 ADD SWAP1 DUP2 MSTORE PUSH1 0x20 ADD PUSH1 0x0 KECCAK256 DUP2 SWAP1 SSTORE POP JUMP JUMPDEST PUSH1 0x1 DUP2 DUP2 SLOAD DUP2 LT PUSH2 0x260 JUMPI PUSH1 0x0 DUP1 REVERT JUMPDEST SWAP1 PUSH1 0x0 MSTORE PUSH1 0x20 PUSH1 0x0 KECCAK256 ADD PUSH1 0x0 SWAP2 POP SLOAD SWAP1 PUSH2 0x100 EXP SWAP1 DIV PUSH20 0xFFFFFFFFFFFFFFFFFFFFFFFFFFFFFFFFFFFFFFFF AND DUP2 JUMP JUMPDEST PUSH1 0x0 DUP1 PUSH2 0x29A PUSH2 0x2C9 JUMP JUMPDEST SWAP1 POP PUSH1 0x0 PUSH8 0xDE0B6B3A7640000 DUP5 DUP4 PUSH2 0x2B3 SWAP2 SWAP1 PUSH2 0x716 JUMP JUMPDEST PUSH2 0x2BD SWAP2 SWAP1 PUSH2 0x5CE JUMP JUMPDEST SWAP1 POP DUP1 SWAP3 POP POP POP SWAP2 SWAP1 POP JUMP JUMPDEST PUSH1 0x0 DUP1 PUSH20 0x5F4EC3DF9CBD43714FE2740F5E3616155C5B8419 SWAP1 POP PUSH1 0x0 DUP2 PUSH20 0xFFFFFFFFFFFFFFFFFFFFFFFFFFFFFFFFFFFFFFFF AND PUSH4 0xFEAF968C PUSH1 0x40 MLOAD DUP2 PUSH4 0xFFFFFFFF AND PUSH1 0xE0 SHL DUP2 MSTORE PUSH1 0x4 ADD PUSH1 0xA0 PUSH1 0x40 MLOAD DUP1 DUP4 SUB DUP2 DUP7 DUP1 EXTCODESIZE ISZERO DUP1 ISZERO PUSH2 0x32B JUMPI PUSH1 0x0 DUP1 REVERT JUMPDEST POP GAS STATICCALL ISZERO DUP1 ISZERO PUSH2 0x33F JUMPI RETURNDATASIZE PUSH1 0x0 DUP1 RETURNDATACOPY RETURNDATASIZE PUSH1 0x0 REVERT JUMPDEST POP POP POP POP PUSH1 0x40 MLOAD RETURNDATASIZE PUSH1 0x1F NOT PUSH1 0x1F DUP3 ADD AND DUP3 ADD DUP1 PUSH1 0x40 MSTORE POP DUP2 ADD SWAP1 PUSH2 0x363 SWAP2 SWAP1 PUSH2 0x43C JUMP JUMPDEST POP POP POP SWAP2 POP POP PUSH5 0x2540BE400 DUP2 PUSH2 0x37A SWAP2 SWAP1 PUSH2 0x5FF JUMP JUMPDEST SWAP3 POP POP POP SWAP1 JUMP JUMPDEST PUSH1 0x0 DUP2 CALLDATALOAD SWAP1 POP PUSH2 0x390 DUP2 PUSH2 0x82A JUMP JUMPDEST SWAP3 SWAP2 POP POP JUMP JUMPDEST PUSH1 0x0 DUP2 MLOAD SWAP1 POP PUSH2 0x3A5 DUP2 PUSH2 0x841 JUMP JUMPDEST SWAP3 SWAP2 POP POP JUMP JUMPDEST PUSH1 0x0 DUP2 CALLDATALOAD SWAP1 POP PUSH2 0x3BA DUP2 PUSH2 0x858 JUMP JUMPDEST SWAP3 SWAP2 POP POP JUMP JUMPDEST PUSH1 0x0 DUP2 MLOAD SWAP1 POP PUSH2 0x3CF DUP2 PUSH2 0x858 JUMP JUMPDEST SWAP3 SWAP2 POP POP JUMP JUMPDEST PUSH1 0x0 DUP2 MLOAD SWAP1 POP PUSH2 0x3E4 DUP2 PUSH2 0x86F JUMP JUMPDEST SWAP3 SWAP2 POP POP JUMP JUMPDEST PUSH1 0x0 PUSH1 0x20 DUP3 DUP5 SUB SLT ISZERO PUSH2 0x3FC JUMPI PUSH1 0x0 DUP1 REVERT JUMPDEST PUSH1 0x0 PUSH2 0x40A DUP5 DUP3 DUP6 ADD PUSH2 0x381 JUMP JUMPDEST SWAP2 POP POP SWAP3 SWAP2 POP POP JUMP JUMPDEST PUSH1 0x0 PUSH1 0x20 DUP3 DUP5 SUB SLT ISZERO PUSH2 0x425 JUMPI PUSH1 0x0 DUP1 REVERT JUMPDEST PUSH1 0x0 PUSH2 0x433 DUP5 DUP3 DUP6 ADD PUSH2 0x3AB JUMP JUMPDEST SWAP2 POP POP SWAP3 SWAP2 POP POP JUMP JUMPDEST PUSH1 0x0 DUP1 PUSH1 0x0 DUP1 PUSH1 0x0 PUSH1 0xA0 DUP7 DUP9 SUB SLT ISZERO PUSH2 0x454 JUMPI PUSH1 0x0 DUP1 REVERT JUMPDEST PUSH1 0x0 PUSH2 0x462 DUP9 DUP3 DUP10 ADD PUSH2 0x3D5 JUMP JUMPDEST SWAP6 POP POP PUSH1 0x20 PUSH2 0x473 DUP9 DUP3 DUP10 ADD PUSH2 0x396 JUMP JUMPDEST SWAP5 POP POP PUSH1 0x40 PUSH2 0x484 DUP9 DUP3 DUP10 ADD PUSH2 0x3C0 JUMP JUMPDEST SWAP4 POP POP PUSH1 0x60 PUSH2 0x495 DUP9 DUP3 DUP10 ADD PUSH2 0x3C0 JUMP JUMPDEST SWAP3 POP POP PUSH1 0x80 PUSH2 0x4A6 DUP9 DUP3 DUP10 ADD PUSH2 0x3D5 JUMP JUMPDEST SWAP2 POP POP SWAP3 SWAP6 POP SWAP3 SWAP6 SWAP1 SWAP4 POP JUMP JUMPDEST PUSH2 0x4BC DUP2 PUSH2 0x770 JUMP JUMPDEST DUP3 MSTORE POP POP JUMP JUMPDEST PUSH1 0x0 PUSH2 0x4CF PUSH1 0x1A DUP4 PUSH2 0x567 JUMP JUMPDEST SWAP2 POP PUSH32 0x446964206E6F742073656E6420656E6F756768206D6F6E657973000000000000 PUSH1 0x0 DUP4 ADD MSTORE PUSH1 0x20 DUP3 ADD SWAP1 POP SWAP2 SWAP1 POP JUMP JUMPDEST PUSH2 0x50B DUP2 PUSH2 0x7AC JUMP JUMPDEST DUP3 MSTORE POP POP JUMP JUMPDEST PUSH1 0x0 PUSH1 0x20 DUP3 ADD SWAP1 POP PUSH2 0x526 PUSH1 0x0 DUP4 ADD DUP5 PUSH2 0x4B3 JUMP JUMPDEST SWAP3 SWAP2 POP POP JUMP JUMPDEST PUSH1 0x0 PUSH1 0x20 DUP3 ADD SWAP1 POP DUP2 DUP2 SUB PUSH1 0x0 DUP4 ADD MSTORE PUSH2 0x545 DUP2 PUSH2 0x4C2 JUMP JUMPDEST SWAP1 POP SWAP2 SWAP1 POP JUMP JUMPDEST PUSH1 0x0 PUSH1 0x20 DUP3 ADD SWAP1 POP PUSH2 0x561 PUSH1 0x0 DUP4 ADD DUP5 PUSH2 0x502 JUMP JUMPDEST SWAP3 SWAP2 POP POP JUMP JUMPDEST PUSH1 0x0 DUP3 DUP3 MSTORE PUSH1 0x20 DUP3 ADD SWAP1 POP SWAP3 SWAP2 POP POP JUMP JUMPDEST PUSH1 0x0 PUSH2 0x583 DUP3 PUSH2 0x7AC JUMP JUMPDEST SWAP2 POP PUSH2 0x58E DUP4 PUSH2 0x7AC JUMP JUMPDEST SWAP3 POP DUP3 PUSH32 0xFFFFFFFFFFFFFFFFFFFFFFFFFFFFFFFFFFFFFFFFFFFFFFFFFFFFFFFFFFFFFFFF SUB DUP3 GT ISZERO PUSH2 0x5C3 JUMPI PUSH2 0x5C2 PUSH2 0x7CC JUMP JUMPDEST JUMPDEST DUP3 DUP3 ADD SWAP1 POP SWAP3 SWAP2 POP POP JUMP JUMPDEST PUSH1 0x0 PUSH2 0x5D9 DUP3 PUSH2 0x7AC JUMP JUMPDEST SWAP2 POP PUSH2 0x5E4 DUP4 PUSH2 0x7AC JUMP JUMPDEST SWAP3 POP DUP3 PUSH2 0x5F4 JUMPI PUSH2 0x5F3 PUSH2 0x7FB JUMP JUMPDEST JUMPDEST DUP3 DUP3 DIV SWAP1 POP SWAP3 SWAP2 POP POP JUMP JUMPDEST PUSH1 0x0 PUSH2 0x60A DUP3 PUSH2 0x782 JUMP JUMPDEST SWAP2 POP PUSH2 0x615 DUP4 PUSH2 0x782 JUMP JUMPDEST SWAP3 POP DUP3 PUSH32 0x7FFFFFFFFFFFFFFFFFFFFFFFFFFFFFFFFFFFFFFFFFFFFFFFFFFFFFFFFFFFFFFF DIV DUP3 GT PUSH1 0x0 DUP5 SGT PUSH1 0x0 DUP5 SGT AND AND ISZERO PUSH2 0x654 JUMPI PUSH2 0x653 PUSH2 0x7CC JUMP JUMPDEST JUMPDEST DUP2 PUSH32 0x8000000000000000000000000000000000000000000000000000000000000000 SDIV DUP4 SLT PUSH1 0x0 DUP5 SLT PUSH1 0x0 DUP5 SGT AND AND ISZERO PUSH2 0x691 JUMPI PUSH2 0x690 PUSH2 0x7CC JUMP JUMPDEST JUMPDEST DUP3 PUSH32 0x8000000000000000000000000000000000000000000000000000000000000000 SDIV DUP3 SLT PUSH1 0x0 DUP5 SGT PUSH1 0x0 DUP5 SLT AND AND ISZERO PUSH2 0x6CE JUMPI PUSH2 0x6CD PUSH2 0x7CC JUMP JUMPDEST JUMPDEST DUP3 PUSH32 0x7FFFFFFFFFFFFFFFFFFFFFFFFFFFFFFFFFFFFFFFFFFFFFFFFFFFFFFFFFFFFFFF SDIV DUP3 SLT PUSH1 0x0 DUP5 SLT PUSH1 0x0 DUP5 SLT AND AND ISZERO PUSH2 0x70B JUMPI PUSH2 0x70A PUSH2 0x7CC JUMP JUMPDEST JUMPDEST DUP3 DUP3 MUL SWAP1 POP SWAP3 SWAP2 POP POP JUMP JUMPDEST PUSH1 0x0 PUSH2 0x721 DUP3 PUSH2 0x7AC JUMP JUMPDEST SWAP2 POP PUSH2 0x72C DUP4 PUSH2 0x7AC JUMP JUMPDEST SWAP3 POP DUP2 PUSH32 0xFFFFFFFFFFFFFFFFFFFFFFFFFFFFFFFFFFFFFFFFFFFFFFFFFFFFFFFFFFFFFFFF DIV DUP4 GT DUP3 ISZERO ISZERO AND ISZERO PUSH2 0x765 JUMPI PUSH2 0x764 PUSH2 0x7CC JUMP JUMPDEST JUMPDEST DUP3 DUP3 MUL SWAP1 POP SWAP3 SWAP2 POP POP JUMP JUMPDEST PUSH1 0x0 PUSH2 0x77B DUP3 PUSH2 0x78C JUMP JUMPDEST SWAP1 POP SWAP2 SWAP1 POP JUMP JUMPDEST PUSH1 0x0 DUP2 SWAP1 POP SWAP2 SWAP1 POP JUMP JUMPDEST PUSH1 0x0 PUSH20 0xFFFFFFFFFFFFFFFFFFFFFFFFFFFFFFFFFFFFFFFF DUP3 AND SWAP1 POP SWAP2 SWAP1 POP JUMP JUMPDEST PUSH1 0x0 DUP2 SWAP1 POP SWAP2 SWAP1 POP JUMP JUMPDEST PUSH1 0x0 PUSH10 0xFFFFFFFFFFFFFFFFFFFF DUP3 AND SWAP1 POP SWAP2 SWAP1 POP JUMP JUMPDEST PUSH32 0x4E487B7100000000000000000000000000000000000000000000000000000000 PUSH1 0x0 MSTORE PUSH1 0x11 PUSH1 0x4 MSTORE PUSH1 0x24 PUSH1 0x0 REVERT JUMPDEST PUSH32 0x4E487B7100000000000000000000000000000000000000000000000000000000 PUSH1 0x0 MSTORE PUSH1 0x12 PUSH1 0x4 MSTORE PUSH1 0x24 PUSH1 0x0 REVERT JUMPDEST PUSH2 0x833 DUP2 PUSH2 0x770 JUMP JUMPDEST DUP2 EQ PUSH2 0x83E JUMPI PUSH1 0x0 DUP1 REVERT JUMPDEST POP JUMP JUMPDEST PUSH2 0x84A DUP2 PUSH2 0x782 JUMP JUMPDEST DUP2 EQ PUSH2 0x855 JUMPI PUSH1 0x0 DUP1 REVERT JUMPDEST POP JUMP JUMPDEST PUSH2 0x861 DUP2 PUSH2 0x7AC JUMP JUMPDEST DUP2 EQ PUSH2 0x86C JUMPI PUSH1 0x0 DUP1 REVERT JUMPDEST POP JUMP JUMPDEST PUSH2 0x878 DUP2 PUSH2 0x7B6 JUMP JUMPDEST DUP2 EQ PUSH2 0x883 JUMPI PUSH1 0x0 DUP1 REVERT JUMPDEST POP JUMP INVALID LOG2 PUSH5 0x6970667358 0x22 SLT KECCAK256 0xAE SWAP11 0xD1 0xC8 PUSH14 0xC36590803DDD9BD6DF50C4D96469 0xB8 PUSH10 0x3A166D27D1D8D5584AEE PUSH25 0x64736F6C634300080000330000000000000000000000000000 "
				},
				"gasEstimates": {
					"creation": {
						"codeDepositCost": "447200",
						"executionCost": "20486",
						"totalCost": "467686"
					},
					"external": {
						"addressToAmountFunded(address)": "1536",
						"fund()": "infinite",
						"funders(uint256)": "2422",
						"minimumUsd()": "1107",
						"withdraw()": "infinite"
					}
				},
				"methodIdentifiers": {
					"addressToAmountFunded(address)": "3e47d6f3",
					"fund()": "b60d4288",
					"funders(uint256)": "dc0d3dff",
					"minimumUsd()": "098de820",
					"withdraw()": "3ccfd60b"
				}
			},
			"storageLayout": {
				"storage": [
					{
						"astId": 56,
						"contract": "contracts/FundMe.sol:FundMe",
						"label": "minimumUsd",
						"offset": 0,
						"slot": "0",
						"type": "t_uint256"
					},
					{
						"astId": 59,
						"contract": "contracts/FundMe.sol:FundMe",
						"label": "funders",
						"offset": 0,
						"slot": "1",
						"type": "t_array(t_address)dyn_storage"
					},
					{
						"astId": 63,
						"contract": "contracts/FundMe.sol:FundMe",
						"label": "addressToAmountFunded",
						"offset": 0,
						"slot": "2",
						"type": "t_mapping(t_address,t_uint256)"
					}
				],
				"types": {
					"t_address": {
						"encoding": "inplace",
						"label": "address",
						"numberOfBytes": "20"
					},
					"t_array(t_address)dyn_storage": {
						"base": "t_address",
						"encoding": "dynamic_array",
						"label": "address[]",
						"numberOfBytes": "32"
					},
					"t_mapping(t_address,t_uint256)": {
						"encoding": "mapping",
						"key": "t_address",
						"label": "mapping(address => uint256)",
						"numberOfBytes": "32",
						"value": "t_uint256"
					},
					"t_uint256": {
						"encoding": "inplace",
						"label": "uint256",
						"numberOfBytes": "32"
					}
				}
			},
			"userdoc": {
				"kind": "user",
				"methods": {},
				"version": 1
			}
		}
	}
}