{
	"contracts/FundMe.sol": {
		"FundMe": {
			"abi": [
				{
					"inputs": [
						{
							"internalType": "address",
							"name": "",
							"type": "address"
						}
					],
					"name": "addressToAmountFunded",
					"outputs": [
						{
							"internalType": "uint256",
							"name": "",
							"type": "uint256"
						}
					],
					"stateMutability": "view",
					"type": "function"
				},
				{
					"inputs": [],
					"name": "fund",
					"outputs": [],
					"stateMutability": "payable",
					"type": "function"
				},
				{
					"inputs": [
						{
							"internalType": "uint256",
							"name": "",
							"type": "uint256"
						}
					],
					"name": "funders",
					"outputs": [
						{
							"internalType": "address",
							"name": "",
							"type": "address"
						}
					],
					"stateMutability": "view",
					"type": "function"
				},
				{
					"inputs": [],
					"name": "minimumUsd",
					"outputs": [
						{
							"internalType": "uint256",
							"name": "",
							"type": "uint256"
						}
					],
					"stateMutability": "view",
					"type": "function"
				}
			],
			"devdoc": {
				"kind": "dev",
				"methods": {},
				"version": 1
			},
			"evm": {
				"assembly": "    /* \"contracts/FundMe.sol\":137:609  contract FundMe {... */\n  mstore(0x40, 0x80)\n    /* \"contracts/FundMe.sol\":226:235  50 * 1e18 */\n  0x02b5e3af16b1880000\n    /* \"contracts/FundMe.sol\":198:235  uint256 public minimumUsd = 50 * 1e18 */\n  0x00\n  sstore\n    /* \"contracts/FundMe.sol\":137:609  contract FundMe {... */\n  callvalue\n  dup1\n  iszero\n  tag_1\n  jumpi\n  0x00\n  dup1\n  revert\ntag_1:\n  pop\n  dataSize(sub_0)\n  dup1\n  dataOffset(sub_0)\n  0x00\n  codecopy\n  0x00\n  return\nstop\n\nsub_0: assembly {\n        /* \"contracts/FundMe.sol\":137:609  contract FundMe {... */\n      mstore(0x40, 0x80)\n      jumpi(tag_1, lt(calldatasize, 0x04))\n      shr(0xe0, calldataload(0x00))\n      dup1\n      0x098de820\n      eq\n      tag_2\n      jumpi\n      dup1\n      0x3e47d6f3\n      eq\n      tag_3\n      jumpi\n      dup1\n      0xb60d4288\n      eq\n      tag_4\n      jumpi\n      dup1\n      0xdc0d3dff\n      eq\n      tag_5\n      jumpi\n    tag_1:\n      0x00\n      dup1\n      revert\n        /* \"contracts/FundMe.sol\":198:235  uint256 public minimumUsd = 50 * 1e18 */\n    tag_2:\n      callvalue\n      dup1\n      iszero\n      tag_6\n      jumpi\n      0x00\n      dup1\n      revert\n    tag_6:\n      pop\n      tag_7\n      tag_8\n      jump\t// in\n    tag_7:\n      mload(0x40)\n      tag_9\n      swap2\n      swap1\n      tag_10\n      jump\t// in\n    tag_9:\n      mload(0x40)\n      dup1\n      swap2\n      sub\n      swap1\n      return\n        /* \"contracts/FundMe.sol\":272:328  mapping(address => uint256) public addressToAmountFunded */\n    tag_3:\n      callvalue\n      dup1\n      iszero\n      tag_11\n      jumpi\n      0x00\n      dup1\n      revert\n    tag_11:\n      pop\n      tag_12\n      0x04\n      dup1\n      calldatasize\n      sub\n      dup2\n      add\n      swap1\n      tag_13\n      swap2\n      swap1\n      tag_14\n      jump\t// in\n    tag_13:\n      tag_15\n      jump\t// in\n    tag_12:\n      mload(0x40)\n      tag_16\n      swap2\n      swap1\n      tag_10\n      jump\t// in\n    tag_16:\n      mload(0x40)\n      dup1\n      swap2\n      sub\n      swap1\n      return\n        /* \"contracts/FundMe.sol\":335:563  function fund() public payable {... */\n    tag_4:\n      tag_17\n      tag_18\n      jump\t// in\n    tag_17:\n      stop\n        /* \"contracts/FundMe.sol\":242:266  address[] public funders */\n    tag_5:\n      callvalue\n      dup1\n      iszero\n      tag_19\n      jumpi\n      0x00\n      dup1\n      revert\n    tag_19:\n      pop\n      tag_20\n      0x04\n      dup1\n      calldatasize\n      sub\n      dup2\n      add\n      swap1\n      tag_21\n      swap2\n      swap1\n      tag_22\n      jump\t// in\n    tag_21:\n      tag_23\n      jump\t// in\n    tag_20:\n      mload(0x40)\n      tag_24\n      swap2\n      swap1\n      tag_25\n      jump\t// in\n    tag_24:\n      mload(0x40)\n      dup1\n      swap2\n      sub\n      swap1\n      return\n        /* \"contracts/FundMe.sol\":198:235  uint256 public minimumUsd = 50 * 1e18 */\n    tag_8:\n      sload(0x00)\n      dup2\n      jump\t// out\n        /* \"contracts/FundMe.sol\":272:328  mapping(address => uint256) public addressToAmountFunded */\n    tag_15:\n      mstore(0x20, 0x02)\n      dup1\n      0x00\n      mstore\n      keccak256(0x00, 0x40)\n      0x00\n      swap2\n      pop\n      swap1\n      pop\n      sload\n      dup2\n      jump\t// out\n        /* \"contracts/FundMe.sol\":335:563  function fund() public payable {... */\n    tag_18:\n        /* \"contracts/FundMe.sol\":426:436  minimumUsd */\n      sload(0x00)\n        /* \"contracts/FundMe.sol\":393:422  msg.value.getConversionRate() */\n      tag_27\n        /* \"contracts/FundMe.sol\":393:402  msg.value */\n      callvalue\n        /* \"contracts/FundMe.sol\":393:420  msg.value.getConversionRate */\n      tag_28\n        /* \"contracts/FundMe.sol\":393:422  msg.value.getConversionRate() */\n      jump\t// in\n    tag_27:\n        /* \"contracts/FundMe.sol\":393:436  msg.value.getConversionRate() >= minimumUsd */\n      lt\n      iszero\n        /* \"contracts/FundMe.sol\":385:467  require(msg.value.getConversionRate() >= minimumUsd, \"Did not send enough moneys\") */\n      tag_29\n      jumpi\n      mload(0x40)\n      0x08c379a000000000000000000000000000000000000000000000000000000000\n      dup2\n      mstore\n      0x04\n      add\n      tag_30\n      swap1\n      tag_31\n      jump\t// in\n    tag_30:\n      mload(0x40)\n      dup1\n      swap2\n      sub\n      swap1\n      revert\n    tag_29:\n        /* \"contracts/FundMe.sol\":477:484  funders */\n      0x01\n        /* \"contracts/FundMe.sol\":490:500  msg.sender */\n      caller\n        /* \"contracts/FundMe.sol\":477:501  funders.push(msg.sender) */\n      swap1\n      dup1\n      0x01\n      dup2\n      sload\n      add\n      dup1\n      dup3\n      sstore\n      dup1\n      swap2\n      pop\n      pop\n      0x01\n      swap1\n      sub\n      swap1\n      0x00\n      mstore\n      keccak256(0x00, 0x20)\n      add\n      0x00\n      swap1\n      swap2\n      swap1\n      swap2\n      swap1\n      swap2\n      0x0100\n      exp\n      dup2\n      sload\n      dup2\n      0xffffffffffffffffffffffffffffffffffffffff\n      mul\n      not\n      and\n      swap1\n      dup4\n      0xffffffffffffffffffffffffffffffffffffffff\n      and\n      mul\n      or\n      swap1\n      sstore\n      pop\n        /* \"contracts/FundMe.sol\":547:556  msg.value */\n      callvalue\n        /* \"contracts/FundMe.sol\":511:532  addressToAmountFunded */\n      0x02\n        /* \"contracts/FundMe.sol\":511:544  addressToAmountFunded[msg.sender] */\n      0x00\n        /* \"contracts/FundMe.sol\":533:543  msg.sender */\n      caller\n        /* \"contracts/FundMe.sol\":511:544  addressToAmountFunded[msg.sender] */\n      0xffffffffffffffffffffffffffffffffffffffff\n      and\n      0xffffffffffffffffffffffffffffffffffffffff\n      and\n      dup2\n      mstore\n      0x20\n      add\n      swap1\n      dup2\n      mstore\n      0x20\n      add\n      0x00\n      keccak256\n        /* \"contracts/FundMe.sol\":511:556  addressToAmountFunded[msg.sender] = msg.value */\n      dup2\n      swap1\n      sstore\n      pop\n        /* \"contracts/FundMe.sol\":335:563  function fund() public payable {... */\n      jump\t// out\n        /* \"contracts/FundMe.sol\":242:266  address[] public funders */\n    tag_23:\n      0x01\n      dup2\n      dup2\n      sload\n      dup2\n      lt\n      tag_33\n      jumpi\n      0x00\n      dup1\n      revert\n    tag_33:\n      swap1\n      0x00\n      mstore\n      keccak256(0x00, 0x20)\n      add\n      0x00\n      swap2\n      pop\n      sload\n      swap1\n      0x0100\n      exp\n      swap1\n      div\n      0xffffffffffffffffffffffffffffffffffffffff\n      and\n      dup2\n      jump\t// out\n        /* \"contracts/PriceConverter.sol\":647:868  function getConversionRate(uint256 ethAmount) internal view returns (uint256) {... */\n    tag_28:\n        /* \"contracts/PriceConverter.sol\":716:723  uint256 */\n      0x00\n        /* \"contracts/PriceConverter.sol\":736:752  uint256 ethPrice */\n      dup1\n        /* \"contracts/PriceConverter.sol\":755:765  getPrice() */\n      tag_36\n        /* \"contracts/PriceConverter.sol\":755:763  getPrice */\n      tag_37\n        /* \"contracts/PriceConverter.sol\":755:765  getPrice() */\n      jump\t// in\n    tag_36:\n        /* \"contracts/PriceConverter.sol\":736:765  uint256 ethPrice = getPrice() */\n      swap1\n      pop\n        /* \"contracts/PriceConverter.sol\":775:798  uint256  ethAmountInUsd */\n      0x00\n        /* \"contracts/PriceConverter.sol\":826:830  1e18 */\n      0x0de0b6b3a7640000\n        /* \"contracts/PriceConverter.sol\":813:822  ethAmount */\n      dup5\n        /* \"contracts/PriceConverter.sol\":802:810  ethPrice */\n      dup4\n        /* \"contracts/PriceConverter.sol\":802:822  ethPrice * ethAmount */\n      tag_38\n      swap2\n      swap1\n      tag_39\n      jump\t// in\n    tag_38:\n        /* \"contracts/PriceConverter.sol\":801:830  (ethPrice * ethAmount) / 1e18 */\n      tag_40\n      swap2\n      swap1\n      tag_41\n      jump\t// in\n    tag_40:\n        /* \"contracts/PriceConverter.sol\":775:830  uint256  ethAmountInUsd = (ethPrice * ethAmount) / 1e18 */\n      swap1\n      pop\n        /* \"contracts/PriceConverter.sol\":847:861  ethAmountInUsd */\n      dup1\n        /* \"contracts/PriceConverter.sol\":840:861  return ethAmountInUsd */\n      swap3\n      pop\n      pop\n      pop\n        /* \"contracts/PriceConverter.sol\":647:868  function getConversionRate(uint256 ethAmount) internal view returns (uint256) {... */\n      swap2\n      swap1\n      pop\n      jump\t// out\n        /* \"contracts/PriceConverter.sol\":130:429  function getPrice() internal view returns(uint256){... */\n    tag_37:\n        /* \"contracts/PriceConverter.sol\":172:179  uint256 */\n      0x00\n        /* \"contracts/PriceConverter.sol\":225:256  AggregatorV3Interface priceFeed */\n      dup1\n        /* \"contracts/PriceConverter.sol\":281:323  0x5f4eC3Df9cbd43714FE2740f5E3616155c5b8419 */\n      0x5f4ec3df9cbd43714fe2740f5e3616155c5b8419\n        /* \"contracts/PriceConverter.sol\":225:324  AggregatorV3Interface priceFeed = AggregatorV3Interface(0x5f4eC3Df9cbd43714FE2740f5E3616155c5b8419) */\n      swap1\n      pop\n        /* \"contracts/PriceConverter.sol\":336:348  int256 price */\n      0x00\n        /* \"contracts/PriceConverter.sol\":355:364  priceFeed */\n      dup2\n        /* \"contracts/PriceConverter.sol\":355:380  priceFeed.latestRoundData */\n      0xffffffffffffffffffffffffffffffffffffffff\n      and\n      0xfeaf968c\n        /* \"contracts/PriceConverter.sol\":355:382  priceFeed.latestRoundData() */\n      mload(0x40)\n      dup2\n      0xffffffff\n      and\n      0xe0\n      shl\n      dup2\n      mstore\n      0x04\n      add\n      0xa0\n      mload(0x40)\n      dup1\n      dup4\n      sub\n      dup2\n      dup7\n      dup1\n      extcodesize\n      iszero\n      dup1\n      iszero\n      tag_43\n      jumpi\n      0x00\n      dup1\n      revert\n    tag_43:\n      pop\n      gas\n      staticcall\n      iszero\n      dup1\n      iszero\n      tag_45\n      jumpi\n      returndatasize\n      0x00\n      dup1\n      returndatacopy\n      revert(0x00, returndatasize)\n    tag_45:\n      pop\n      pop\n      pop\n      pop\n      mload(0x40)\n      returndatasize\n      not(0x1f)\n      0x1f\n      dup3\n      add\n      and\n      dup3\n      add\n      dup1\n      0x40\n      mstore\n      pop\n      dup2\n      add\n      swap1\n      tag_46\n      swap2\n      swap1\n      tag_47\n      jump\t// in\n    tag_46:\n        /* \"contracts/PriceConverter.sol\":334:382  (,int256 price,,,) = priceFeed.latestRoundData() */\n      pop\n      pop\n      pop\n      swap2\n      pop\n      pop\n        /* \"contracts/PriceConverter.sol\":416:420  1e10 */\n      0x02540be400\n        /* \"contracts/PriceConverter.sol\":408:413  price */\n      dup2\n        /* \"contracts/PriceConverter.sol\":408:420  price * 1e10 */\n      tag_48\n      swap2\n      swap1\n      tag_49\n      jump\t// in\n    tag_48:\n        /* \"contracts/PriceConverter.sol\":393:421  return uint256(price * 1e10) */\n      swap3\n      pop\n      pop\n      pop\n        /* \"contracts/PriceConverter.sol\":130:429  function getPrice() internal view returns(uint256){... */\n      swap1\n      jump\t// out\n        /* \"#utility.yul\":7:146   */\n    tag_51:\n      0x00\n        /* \"#utility.yul\":91:97   */\n      dup2\n        /* \"#utility.yul\":78:98   */\n      calldataload\n        /* \"#utility.yul\":69:98   */\n      swap1\n      pop\n        /* \"#utility.yul\":107:140   */\n      tag_53\n        /* \"#utility.yul\":134:139   */\n      dup2\n        /* \"#utility.yul\":107:140   */\n      tag_54\n      jump\t// in\n    tag_53:\n        /* \"#utility.yul\":59:146   */\n      swap3\n      swap2\n      pop\n      pop\n      jump\t// out\n        /* \"#utility.yul\":152:293   */\n    tag_55:\n      0x00\n        /* \"#utility.yul\":239:245   */\n      dup2\n        /* \"#utility.yul\":233:246   */\n      mload\n        /* \"#utility.yul\":224:246   */\n      swap1\n      pop\n        /* \"#utility.yul\":255:287   */\n      tag_57\n        /* \"#utility.yul\":281:286   */\n      dup2\n        /* \"#utility.yul\":255:287   */\n      tag_58\n      jump\t// in\n    tag_57:\n        /* \"#utility.yul\":214:293   */\n      swap3\n      swap2\n      pop\n      pop\n      jump\t// out\n        /* \"#utility.yul\":299:438   */\n    tag_59:\n      0x00\n        /* \"#utility.yul\":383:389   */\n      dup2\n        /* \"#utility.yul\":370:390   */\n      calldataload\n        /* \"#utility.yul\":361:390   */\n      swap1\n      pop\n        /* \"#utility.yul\":399:432   */\n      tag_61\n        /* \"#utility.yul\":426:431   */\n      dup2\n        /* \"#utility.yul\":399:432   */\n      tag_62\n      jump\t// in\n    tag_61:\n        /* \"#utility.yul\":351:438   */\n      swap3\n      swap2\n      pop\n      pop\n      jump\t// out\n        /* \"#utility.yul\":444:587   */\n    tag_63:\n      0x00\n        /* \"#utility.yul\":532:538   */\n      dup2\n        /* \"#utility.yul\":526:539   */\n      mload\n        /* \"#utility.yul\":517:539   */\n      swap1\n      pop\n        /* \"#utility.yul\":548:581   */\n      tag_65\n        /* \"#utility.yul\":575:580   */\n      dup2\n        /* \"#utility.yul\":548:581   */\n      tag_62\n      jump\t// in\n    tag_65:\n        /* \"#utility.yul\":507:587   */\n      swap3\n      swap2\n      pop\n      pop\n      jump\t// out\n        /* \"#utility.yul\":593:734   */\n    tag_66:\n      0x00\n        /* \"#utility.yul\":680:686   */\n      dup2\n        /* \"#utility.yul\":674:687   */\n      mload\n        /* \"#utility.yul\":665:687   */\n      swap1\n      pop\n        /* \"#utility.yul\":696:728   */\n      tag_68\n        /* \"#utility.yul\":722:727   */\n      dup2\n        /* \"#utility.yul\":696:728   */\n      tag_69\n      jump\t// in\n    tag_68:\n        /* \"#utility.yul\":655:734   */\n      swap3\n      swap2\n      pop\n      pop\n      jump\t// out\n        /* \"#utility.yul\":740:1002   */\n    tag_14:\n      0x00\n        /* \"#utility.yul\":848:850   */\n      0x20\n        /* \"#utility.yul\":836:845   */\n      dup3\n        /* \"#utility.yul\":827:834   */\n      dup5\n        /* \"#utility.yul\":823:846   */\n      sub\n        /* \"#utility.yul\":819:851   */\n      slt\n        /* \"#utility.yul\":816:818   */\n      iszero\n      tag_71\n      jumpi\n        /* \"#utility.yul\":864:865   */\n      0x00\n        /* \"#utility.yul\":861:862   */\n      dup1\n        /* \"#utility.yul\":854:866   */\n      revert\n        /* \"#utility.yul\":816:818   */\n    tag_71:\n        /* \"#utility.yul\":907:908   */\n      0x00\n        /* \"#utility.yul\":932:985   */\n      tag_72\n        /* \"#utility.yul\":977:984   */\n      dup5\n        /* \"#utility.yul\":968:974   */\n      dup3\n        /* \"#utility.yul\":957:966   */\n      dup6\n        /* \"#utility.yul\":953:975   */\n      add\n        /* \"#utility.yul\":932:985   */\n      tag_51\n      jump\t// in\n    tag_72:\n        /* \"#utility.yul\":922:985   */\n      swap2\n      pop\n        /* \"#utility.yul\":878:995   */\n      pop\n        /* \"#utility.yul\":806:1002   */\n      swap3\n      swap2\n      pop\n      pop\n      jump\t// out\n        /* \"#utility.yul\":1008:1270   */\n    tag_22:\n      0x00\n        /* \"#utility.yul\":1116:1118   */\n      0x20\n        /* \"#utility.yul\":1104:1113   */\n      dup3\n        /* \"#utility.yul\":1095:1102   */\n      dup5\n        /* \"#utility.yul\":1091:1114   */\n      sub\n        /* \"#utility.yul\":1087:1119   */\n      slt\n        /* \"#utility.yul\":1084:1086   */\n      iszero\n      tag_74\n      jumpi\n        /* \"#utility.yul\":1132:1133   */\n      0x00\n        /* \"#utility.yul\":1129:1130   */\n      dup1\n        /* \"#utility.yul\":1122:1134   */\n      revert\n        /* \"#utility.yul\":1084:1086   */\n    tag_74:\n        /* \"#utility.yul\":1175:1176   */\n      0x00\n        /* \"#utility.yul\":1200:1253   */\n      tag_75\n        /* \"#utility.yul\":1245:1252   */\n      dup5\n        /* \"#utility.yul\":1236:1242   */\n      dup3\n        /* \"#utility.yul\":1225:1234   */\n      dup6\n        /* \"#utility.yul\":1221:1243   */\n      add\n        /* \"#utility.yul\":1200:1253   */\n      tag_59\n      jump\t// in\n    tag_75:\n        /* \"#utility.yul\":1190:1253   */\n      swap2\n      pop\n        /* \"#utility.yul\":1146:1263   */\n      pop\n        /* \"#utility.yul\":1074:1270   */\n      swap3\n      swap2\n      pop\n      pop\n      jump\t// out\n        /* \"#utility.yul\":1276:2180   */\n    tag_47:\n      0x00\n      dup1\n      0x00\n      dup1\n      0x00\n        /* \"#utility.yul\":1460:1463   */\n      0xa0\n        /* \"#utility.yul\":1448:1457   */\n      dup7\n        /* \"#utility.yul\":1439:1446   */\n      dup9\n        /* \"#utility.yul\":1435:1458   */\n      sub\n        /* \"#utility.yul\":1431:1464   */\n      slt\n        /* \"#utility.yul\":1428:1430   */\n      iszero\n      tag_77\n      jumpi\n        /* \"#utility.yul\":1477:1478   */\n      0x00\n        /* \"#utility.yul\":1474:1475   */\n      dup1\n        /* \"#utility.yul\":1467:1479   */\n      revert\n        /* \"#utility.yul\":1428:1430   */\n    tag_77:\n        /* \"#utility.yul\":1520:1521   */\n      0x00\n        /* \"#utility.yul\":1545:1608   */\n      tag_78\n        /* \"#utility.yul\":1600:1607   */\n      dup9\n        /* \"#utility.yul\":1591:1597   */\n      dup3\n        /* \"#utility.yul\":1580:1589   */\n      dup10\n        /* \"#utility.yul\":1576:1598   */\n      add\n        /* \"#utility.yul\":1545:1608   */\n      tag_66\n      jump\t// in\n    tag_78:\n        /* \"#utility.yul\":1535:1608   */\n      swap6\n      pop\n        /* \"#utility.yul\":1491:1618   */\n      pop\n        /* \"#utility.yul\":1657:1659   */\n      0x20\n        /* \"#utility.yul\":1683:1746   */\n      tag_79\n        /* \"#utility.yul\":1738:1745   */\n      dup9\n        /* \"#utility.yul\":1729:1735   */\n      dup3\n        /* \"#utility.yul\":1718:1727   */\n      dup10\n        /* \"#utility.yul\":1714:1736   */\n      add\n        /* \"#utility.yul\":1683:1746   */\n      tag_55\n      jump\t// in\n    tag_79:\n        /* \"#utility.yul\":1673:1746   */\n      swap5\n      pop\n        /* \"#utility.yul\":1628:1756   */\n      pop\n        /* \"#utility.yul\":1795:1797   */\n      0x40\n        /* \"#utility.yul\":1821:1885   */\n      tag_80\n        /* \"#utility.yul\":1877:1884   */\n      dup9\n        /* \"#utility.yul\":1868:1874   */\n      dup3\n        /* \"#utility.yul\":1857:1866   */\n      dup10\n        /* \"#utility.yul\":1853:1875   */\n      add\n        /* \"#utility.yul\":1821:1885   */\n      tag_63\n      jump\t// in\n    tag_80:\n        /* \"#utility.yul\":1811:1885   */\n      swap4\n      pop\n        /* \"#utility.yul\":1766:1895   */\n      pop\n        /* \"#utility.yul\":1934:1936   */\n      0x60\n        /* \"#utility.yul\":1960:2024   */\n      tag_81\n        /* \"#utility.yul\":2016:2023   */\n      dup9\n        /* \"#utility.yul\":2007:2013   */\n      dup3\n        /* \"#utility.yul\":1996:2005   */\n      dup10\n        /* \"#utility.yul\":1992:2014   */\n      add\n        /* \"#utility.yul\":1960:2024   */\n      tag_63\n      jump\t// in\n    tag_81:\n        /* \"#utility.yul\":1950:2024   */\n      swap3\n      pop\n        /* \"#utility.yul\":1905:2034   */\n      pop\n        /* \"#utility.yul\":2073:2076   */\n      0x80\n        /* \"#utility.yul\":2100:2163   */\n      tag_82\n        /* \"#utility.yul\":2155:2162   */\n      dup9\n        /* \"#utility.yul\":2146:2152   */\n      dup3\n        /* \"#utility.yul\":2135:2144   */\n      dup10\n        /* \"#utility.yul\":2131:2153   */\n      add\n        /* \"#utility.yul\":2100:2163   */\n      tag_66\n      jump\t// in\n    tag_82:\n        /* \"#utility.yul\":2090:2163   */\n      swap2\n      pop\n        /* \"#utility.yul\":2044:2173   */\n      pop\n        /* \"#utility.yul\":1418:2180   */\n      swap3\n      swap6\n      pop\n      swap3\n      swap6\n      swap1\n      swap4\n      pop\n      jump\t// out\n        /* \"#utility.yul\":2186:2304   */\n    tag_83:\n        /* \"#utility.yul\":2273:2297   */\n      tag_85\n        /* \"#utility.yul\":2291:2296   */\n      dup2\n        /* \"#utility.yul\":2273:2297   */\n      tag_86\n      jump\t// in\n    tag_85:\n        /* \"#utility.yul\":2268:2271   */\n      dup3\n        /* \"#utility.yul\":2261:2298   */\n      mstore\n        /* \"#utility.yul\":2251:2304   */\n      pop\n      pop\n      jump\t// out\n        /* \"#utility.yul\":2310:2634   */\n    tag_87:\n      0x00\n        /* \"#utility.yul\":2473:2540   */\n      tag_89\n        /* \"#utility.yul\":2537:2539   */\n      0x1a\n        /* \"#utility.yul\":2532:2535   */\n      dup4\n        /* \"#utility.yul\":2473:2540   */\n      tag_90\n      jump\t// in\n    tag_89:\n        /* \"#utility.yul\":2466:2540   */\n      swap2\n      pop\n        /* \"#utility.yul\":2570:2598   */\n      0x446964206e6f742073656e6420656e6f756768206d6f6e657973000000000000\n        /* \"#utility.yul\":2566:2567   */\n      0x00\n        /* \"#utility.yul\":2561:2564   */\n      dup4\n        /* \"#utility.yul\":2557:2568   */\n      add\n        /* \"#utility.yul\":2550:2599   */\n      mstore\n        /* \"#utility.yul\":2625:2627   */\n      0x20\n        /* \"#utility.yul\":2620:2623   */\n      dup3\n        /* \"#utility.yul\":2616:2628   */\n      add\n        /* \"#utility.yul\":2609:2628   */\n      swap1\n      pop\n        /* \"#utility.yul\":2456:2634   */\n      swap2\n      swap1\n      pop\n      jump\t// out\n        /* \"#utility.yul\":2640:2758   */\n    tag_91:\n        /* \"#utility.yul\":2727:2751   */\n      tag_93\n        /* \"#utility.yul\":2745:2750   */\n      dup2\n        /* \"#utility.yul\":2727:2751   */\n      tag_94\n      jump\t// in\n    tag_93:\n        /* \"#utility.yul\":2722:2725   */\n      dup3\n        /* \"#utility.yul\":2715:2752   */\n      mstore\n        /* \"#utility.yul\":2705:2758   */\n      pop\n      pop\n      jump\t// out\n        /* \"#utility.yul\":2764:2986   */\n    tag_25:\n      0x00\n        /* \"#utility.yul\":2895:2897   */\n      0x20\n        /* \"#utility.yul\":2884:2893   */\n      dup3\n        /* \"#utility.yul\":2880:2898   */\n      add\n        /* \"#utility.yul\":2872:2898   */\n      swap1\n      pop\n        /* \"#utility.yul\":2908:2979   */\n      tag_96\n        /* \"#utility.yul\":2976:2977   */\n      0x00\n        /* \"#utility.yul\":2965:2974   */\n      dup4\n        /* \"#utility.yul\":2961:2978   */\n      add\n        /* \"#utility.yul\":2952:2958   */\n      dup5\n        /* \"#utility.yul\":2908:2979   */\n      tag_83\n      jump\t// in\n    tag_96:\n        /* \"#utility.yul\":2862:2986   */\n      swap3\n      swap2\n      pop\n      pop\n      jump\t// out\n        /* \"#utility.yul\":2992:3411   */\n    tag_31:\n      0x00\n        /* \"#utility.yul\":3196:3198   */\n      0x20\n        /* \"#utility.yul\":3185:3194   */\n      dup3\n        /* \"#utility.yul\":3181:3199   */\n      add\n        /* \"#utility.yul\":3173:3199   */\n      swap1\n      pop\n        /* \"#utility.yul\":3245:3254   */\n      dup2\n        /* \"#utility.yul\":3239:3243   */\n      dup2\n        /* \"#utility.yul\":3235:3255   */\n      sub\n        /* \"#utility.yul\":3231:3232   */\n      0x00\n        /* \"#utility.yul\":3220:3229   */\n      dup4\n        /* \"#utility.yul\":3216:3233   */\n      add\n        /* \"#utility.yul\":3209:3256   */\n      mstore\n        /* \"#utility.yul\":3273:3404   */\n      tag_98\n        /* \"#utility.yul\":3399:3403   */\n      dup2\n        /* \"#utility.yul\":3273:3404   */\n      tag_87\n      jump\t// in\n    tag_98:\n        /* \"#utility.yul\":3265:3404   */\n      swap1\n      pop\n        /* \"#utility.yul\":3163:3411   */\n      swap2\n      swap1\n      pop\n      jump\t// out\n        /* \"#utility.yul\":3417:3639   */\n    tag_10:\n      0x00\n        /* \"#utility.yul\":3548:3550   */\n      0x20\n        /* \"#utility.yul\":3537:3546   */\n      dup3\n        /* \"#utility.yul\":3533:3551   */\n      add\n        /* \"#utility.yul\":3525:3551   */\n      swap1\n      pop\n        /* \"#utility.yul\":3561:3632   */\n      tag_100\n        /* \"#utility.yul\":3629:3630   */\n      0x00\n        /* \"#utility.yul\":3618:3627   */\n      dup4\n        /* \"#utility.yul\":3614:3631   */\n      add\n        /* \"#utility.yul\":3605:3611   */\n      dup5\n        /* \"#utility.yul\":3561:3632   */\n      tag_91\n      jump\t// in\n    tag_100:\n        /* \"#utility.yul\":3515:3639   */\n      swap3\n      swap2\n      pop\n      pop\n      jump\t// out\n        /* \"#utility.yul\":3645:3814   */\n    tag_90:\n      0x00\n        /* \"#utility.yul\":3763:3769   */\n      dup3\n        /* \"#utility.yul\":3758:3761   */\n      dup3\n        /* \"#utility.yul\":3751:3770   */\n      mstore\n        /* \"#utility.yul\":3803:3807   */\n      0x20\n        /* \"#utility.yul\":3798:3801   */\n      dup3\n        /* \"#utility.yul\":3794:3808   */\n      add\n        /* \"#utility.yul\":3779:3808   */\n      swap1\n      pop\n        /* \"#utility.yul\":3741:3814   */\n      swap3\n      swap2\n      pop\n      pop\n      jump\t// out\n        /* \"#utility.yul\":3820:4005   */\n    tag_41:\n      0x00\n        /* \"#utility.yul\":3877:3897   */\n      tag_103\n        /* \"#utility.yul\":3895:3896   */\n      dup3\n        /* \"#utility.yul\":3877:3897   */\n      tag_94\n      jump\t// in\n    tag_103:\n        /* \"#utility.yul\":3872:3897   */\n      swap2\n      pop\n        /* \"#utility.yul\":3911:3931   */\n      tag_104\n        /* \"#utility.yul\":3929:3930   */\n      dup4\n        /* \"#utility.yul\":3911:3931   */\n      tag_94\n      jump\t// in\n    tag_104:\n        /* \"#utility.yul\":3906:3931   */\n      swap3\n      pop\n        /* \"#utility.yul\":3950:3951   */\n      dup3\n        /* \"#utility.yul\":3940:3942   */\n      tag_105\n      jumpi\n        /* \"#utility.yul\":3955:3973   */\n      tag_106\n      tag_107\n      jump\t// in\n    tag_106:\n        /* \"#utility.yul\":3940:3942   */\n    tag_105:\n        /* \"#utility.yul\":3997:3998   */\n      dup3\n        /* \"#utility.yul\":3994:3995   */\n      dup3\n        /* \"#utility.yul\":3990:3999   */\n      div\n        /* \"#utility.yul\":3985:3999   */\n      swap1\n      pop\n        /* \"#utility.yul\":3862:4005   */\n      swap3\n      swap2\n      pop\n      pop\n      jump\t// out\n        /* \"#utility.yul\":4011:5002   */\n    tag_49:\n      0x00\n        /* \"#utility.yul\":4073:4092   */\n      tag_109\n        /* \"#utility.yul\":4090:4091   */\n      dup3\n        /* \"#utility.yul\":4073:4092   */\n      tag_110\n      jump\t// in\n    tag_109:\n        /* \"#utility.yul\":4068:4092   */\n      swap2\n      pop\n        /* \"#utility.yul\":4106:4125   */\n      tag_111\n        /* \"#utility.yul\":4123:4124   */\n      dup4\n        /* \"#utility.yul\":4106:4125   */\n      tag_110\n      jump\t// in\n    tag_111:\n        /* \"#utility.yul\":4101:4125   */\n      swap3\n      pop\n        /* \"#utility.yul\":4307:4308   */\n      dup3\n        /* \"#utility.yul\":4239:4305   */\n      0x7fffffffffffffffffffffffffffffffffffffffffffffffffffffffffffffff\n        /* \"#utility.yul\":4235:4309   */\n      div\n        /* \"#utility.yul\":4232:4233   */\n      dup3\n        /* \"#utility.yul\":4229:4310   */\n      gt\n        /* \"#utility.yul\":4224:4225   */\n      0x00\n        /* \"#utility.yul\":4221:4222   */\n      dup5\n        /* \"#utility.yul\":4217:4226   */\n      sgt\n        /* \"#utility.yul\":4213:4214   */\n      0x00\n        /* \"#utility.yul\":4210:4211   */\n      dup5\n        /* \"#utility.yul\":4206:4215   */\n      sgt\n        /* \"#utility.yul\":4202:4227   */\n      and\n        /* \"#utility.yul\":4198:4311   */\n      and\n        /* \"#utility.yul\":4195:4197   */\n      iszero\n      tag_112\n      jumpi\n        /* \"#utility.yul\":4314:4332   */\n      tag_113\n      tag_114\n      jump\t// in\n    tag_113:\n        /* \"#utility.yul\":4195:4197   */\n    tag_112:\n        /* \"#utility.yul\":4518:4519   */\n      dup2\n        /* \"#utility.yul\":4450:4516   */\n      0x8000000000000000000000000000000000000000000000000000000000000000\n        /* \"#utility.yul\":4445:4520   */\n      sdiv\n        /* \"#utility.yul\":4442:4443   */\n      dup4\n        /* \"#utility.yul\":4438:4521   */\n      slt\n        /* \"#utility.yul\":4433:4434   */\n      0x00\n        /* \"#utility.yul\":4430:4431   */\n      dup5\n        /* \"#utility.yul\":4426:4435   */\n      slt\n        /* \"#utility.yul\":4422:4423   */\n      0x00\n        /* \"#utility.yul\":4419:4420   */\n      dup5\n        /* \"#utility.yul\":4415:4424   */\n      sgt\n        /* \"#utility.yul\":4411:4436   */\n      and\n        /* \"#utility.yul\":4407:4522   */\n      and\n        /* \"#utility.yul\":4404:4406   */\n      iszero\n      tag_115\n      jumpi\n        /* \"#utility.yul\":4525:4543   */\n      tag_116\n      tag_114\n      jump\t// in\n    tag_116:\n        /* \"#utility.yul\":4404:4406   */\n    tag_115:\n        /* \"#utility.yul\":4729:4730   */\n      dup3\n        /* \"#utility.yul\":4661:4727   */\n      0x8000000000000000000000000000000000000000000000000000000000000000\n        /* \"#utility.yul\":4656:4731   */\n      sdiv\n        /* \"#utility.yul\":4653:4654   */\n      dup3\n        /* \"#utility.yul\":4649:4732   */\n      slt\n        /* \"#utility.yul\":4644:4645   */\n      0x00\n        /* \"#utility.yul\":4641:4642   */\n      dup5\n        /* \"#utility.yul\":4637:4646   */\n      sgt\n        /* \"#utility.yul\":4633:4634   */\n      0x00\n        /* \"#utility.yul\":4630:4631   */\n      dup5\n        /* \"#utility.yul\":4626:4635   */\n      slt\n        /* \"#utility.yul\":4622:4647   */\n      and\n        /* \"#utility.yul\":4618:4733   */\n      and\n        /* \"#utility.yul\":4615:4617   */\n      iszero\n      tag_117\n      jumpi\n        /* \"#utility.yul\":4736:4754   */\n      tag_118\n      tag_114\n      jump\t// in\n    tag_118:\n        /* \"#utility.yul\":4615:4617   */\n    tag_117:\n        /* \"#utility.yul\":4939:4940   */\n      dup3\n        /* \"#utility.yul\":4871:4937   */\n      0x7fffffffffffffffffffffffffffffffffffffffffffffffffffffffffffffff\n        /* \"#utility.yul\":4866:4941   */\n      sdiv\n        /* \"#utility.yul\":4863:4864   */\n      dup3\n        /* \"#utility.yul\":4859:4942   */\n      slt\n        /* \"#utility.yul\":4854:4855   */\n      0x00\n        /* \"#utility.yul\":4851:4852   */\n      dup5\n        /* \"#utility.yul\":4847:4856   */\n      slt\n        /* \"#utility.yul\":4843:4844   */\n      0x00\n        /* \"#utility.yul\":4840:4841   */\n      dup5\n        /* \"#utility.yul\":4836:4845   */\n      slt\n        /* \"#utility.yul\":4832:4857   */\n      and\n        /* \"#utility.yul\":4828:4943   */\n      and\n        /* \"#utility.yul\":4825:4827   */\n      iszero\n      tag_119\n      jumpi\n        /* \"#utility.yul\":4946:4964   */\n      tag_120\n      tag_114\n      jump\t// in\n    tag_120:\n        /* \"#utility.yul\":4825:4827   */\n    tag_119:\n        /* \"#utility.yul\":4994:4995   */\n      dup3\n        /* \"#utility.yul\":4991:4992   */\n      dup3\n        /* \"#utility.yul\":4987:4996   */\n      mul\n        /* \"#utility.yul\":4976:4996   */\n      swap1\n      pop\n        /* \"#utility.yul\":4058:5002   */\n      swap3\n      swap2\n      pop\n      pop\n      jump\t// out\n        /* \"#utility.yul\":5008:5356   */\n    tag_39:\n      0x00\n        /* \"#utility.yul\":5071:5091   */\n      tag_122\n        /* \"#utility.yul\":5089:5090   */\n      dup3\n        /* \"#utility.yul\":5071:5091   */\n      tag_94\n      jump\t// in\n    tag_122:\n        /* \"#utility.yul\":5066:5091   */\n      swap2\n      pop\n        /* \"#utility.yul\":5105:5125   */\n      tag_123\n        /* \"#utility.yul\":5123:5124   */\n      dup4\n        /* \"#utility.yul\":5105:5125   */\n      tag_94\n      jump\t// in\n    tag_123:\n        /* \"#utility.yul\":5100:5125   */\n      swap3\n      pop\n        /* \"#utility.yul\":5293:5294   */\n      dup2\n        /* \"#utility.yul\":5225:5291   */\n      0xffffffffffffffffffffffffffffffffffffffffffffffffffffffffffffffff\n        /* \"#utility.yul\":5221:5295   */\n      div\n        /* \"#utility.yul\":5218:5219   */\n      dup4\n        /* \"#utility.yul\":5215:5296   */\n      gt\n        /* \"#utility.yul\":5210:5211   */\n      dup3\n        /* \"#utility.yul\":5203:5212   */\n      iszero\n        /* \"#utility.yul\":5196:5213   */\n      iszero\n        /* \"#utility.yul\":5192:5297   */\n      and\n        /* \"#utility.yul\":5189:5191   */\n      iszero\n      tag_124\n      jumpi\n        /* \"#utility.yul\":5300:5318   */\n      tag_125\n      tag_114\n      jump\t// in\n    tag_125:\n        /* \"#utility.yul\":5189:5191   */\n    tag_124:\n        /* \"#utility.yul\":5348:5349   */\n      dup3\n        /* \"#utility.yul\":5345:5346   */\n      dup3\n        /* \"#utility.yul\":5341:5350   */\n      mul\n        /* \"#utility.yul\":5330:5350   */\n      swap1\n      pop\n        /* \"#utility.yul\":5056:5356   */\n      swap3\n      swap2\n      pop\n      pop\n      jump\t// out\n        /* \"#utility.yul\":5362:5458   */\n    tag_86:\n      0x00\n        /* \"#utility.yul\":5428:5452   */\n      tag_127\n        /* \"#utility.yul\":5446:5451   */\n      dup3\n        /* \"#utility.yul\":5428:5452   */\n      tag_128\n      jump\t// in\n    tag_127:\n        /* \"#utility.yul\":5417:5452   */\n      swap1\n      pop\n        /* \"#utility.yul\":5407:5458   */\n      swap2\n      swap1\n      pop\n      jump\t// out\n        /* \"#utility.yul\":5464:5540   */\n    tag_110:\n      0x00\n        /* \"#utility.yul\":5529:5534   */\n      dup2\n        /* \"#utility.yul\":5518:5534   */\n      swap1\n      pop\n        /* \"#utility.yul\":5508:5540   */\n      swap2\n      swap1\n      pop\n      jump\t// out\n        /* \"#utility.yul\":5546:5672   */\n    tag_128:\n      0x00\n        /* \"#utility.yul\":5623:5665   */\n      0xffffffffffffffffffffffffffffffffffffffff\n        /* \"#utility.yul\":5616:5621   */\n      dup3\n        /* \"#utility.yul\":5612:5666   */\n      and\n        /* \"#utility.yul\":5601:5666   */\n      swap1\n      pop\n        /* \"#utility.yul\":5591:5672   */\n      swap2\n      swap1\n      pop\n      jump\t// out\n        /* \"#utility.yul\":5678:5755   */\n    tag_94:\n      0x00\n        /* \"#utility.yul\":5744:5749   */\n      dup2\n        /* \"#utility.yul\":5733:5749   */\n      swap1\n      pop\n        /* \"#utility.yul\":5723:5755   */\n      swap2\n      swap1\n      pop\n      jump\t// out\n        /* \"#utility.yul\":5761:5866   */\n    tag_132:\n      0x00\n        /* \"#utility.yul\":5837:5859   */\n      0xffffffffffffffffffff\n        /* \"#utility.yul\":5830:5835   */\n      dup3\n        /* \"#utility.yul\":5826:5860   */\n      and\n        /* \"#utility.yul\":5815:5860   */\n      swap1\n      pop\n        /* \"#utility.yul\":5805:5866   */\n      swap2\n      swap1\n      pop\n      jump\t// out\n        /* \"#utility.yul\":5872:6052   */\n    tag_114:\n        /* \"#utility.yul\":5920:5997   */\n      0x4e487b7100000000000000000000000000000000000000000000000000000000\n        /* \"#utility.yul\":5917:5918   */\n      0x00\n        /* \"#utility.yul\":5910:5998   */\n      mstore\n        /* \"#utility.yul\":6017:6021   */\n      0x11\n        /* \"#utility.yul\":6014:6015   */\n      0x04\n        /* \"#utility.yul\":6007:6022   */\n      mstore\n        /* \"#utility.yul\":6041:6045   */\n      0x24\n        /* \"#utility.yul\":6038:6039   */\n      0x00\n        /* \"#utility.yul\":6031:6046   */\n      revert\n        /* \"#utility.yul\":6058:6238   */\n    tag_107:\n        /* \"#utility.yul\":6106:6183   */\n      0x4e487b7100000000000000000000000000000000000000000000000000000000\n        /* \"#utility.yul\":6103:6104   */\n      0x00\n        /* \"#utility.yul\":6096:6184   */\n      mstore\n        /* \"#utility.yul\":6203:6207   */\n      0x12\n        /* \"#utility.yul\":6200:6201   */\n      0x04\n        /* \"#utility.yul\":6193:6208   */\n      mstore\n        /* \"#utility.yul\":6227:6231   */\n      0x24\n        /* \"#utility.yul\":6224:6225   */\n      0x00\n        /* \"#utility.yul\":6217:6232   */\n      revert\n        /* \"#utility.yul\":6244:6366   */\n    tag_54:\n        /* \"#utility.yul\":6317:6341   */\n      tag_137\n        /* \"#utility.yul\":6335:6340   */\n      dup2\n        /* \"#utility.yul\":6317:6341   */\n      tag_86\n      jump\t// in\n    tag_137:\n        /* \"#utility.yul\":6310:6315   */\n      dup2\n        /* \"#utility.yul\":6307:6342   */\n      eq\n        /* \"#utility.yul\":6297:6299   */\n      tag_138\n      jumpi\n        /* \"#utility.yul\":6356:6357   */\n      0x00\n        /* \"#utility.yul\":6353:6354   */\n      dup1\n        /* \"#utility.yul\":6346:6358   */\n      revert\n        /* \"#utility.yul\":6297:6299   */\n    tag_138:\n        /* \"#utility.yul\":6287:6366   */\n      pop\n      jump\t// out\n        /* \"#utility.yul\":6372:6492   */\n    tag_58:\n        /* \"#utility.yul\":6444:6467   */\n      tag_140\n        /* \"#utility.yul\":6461:6466   */\n      dup2\n        /* \"#utility.yul\":6444:6467   */\n      tag_110\n      jump\t// in\n    tag_140:\n        /* \"#utility.yul\":6437:6442   */\n      dup2\n        /* \"#utility.yul\":6434:6468   */\n      eq\n        /* \"#utility.yul\":6424:6426   */\n      tag_141\n      jumpi\n        /* \"#utility.yul\":6482:6483   */\n      0x00\n        /* \"#utility.yul\":6479:6480   */\n      dup1\n        /* \"#utility.yul\":6472:6484   */\n      revert\n        /* \"#utility.yul\":6424:6426   */\n    tag_141:\n        /* \"#utility.yul\":6414:6492   */\n      pop\n      jump\t// out\n        /* \"#utility.yul\":6498:6620   */\n    tag_62:\n        /* \"#utility.yul\":6571:6595   */\n      tag_143\n        /* \"#utility.yul\":6589:6594   */\n      dup2\n        /* \"#utility.yul\":6571:6595   */\n      tag_94\n      jump\t// in\n    tag_143:\n        /* \"#utility.yul\":6564:6569   */\n      dup2\n        /* \"#utility.yul\":6561:6596   */\n      eq\n        /* \"#utility.yul\":6551:6553   */\n      tag_144\n      jumpi\n        /* \"#utility.yul\":6610:6611   */\n      0x00\n        /* \"#utility.yul\":6607:6608   */\n      dup1\n        /* \"#utility.yul\":6600:6612   */\n      revert\n        /* \"#utility.yul\":6551:6553   */\n    tag_144:\n        /* \"#utility.yul\":6541:6620   */\n      pop\n      jump\t// out\n        /* \"#utility.yul\":6626:6746   */\n    tag_69:\n        /* \"#utility.yul\":6698:6721   */\n      tag_146\n        /* \"#utility.yul\":6715:6720   */\n      dup2\n        /* \"#utility.yul\":6698:6721   */\n      tag_132\n      jump\t// in\n    tag_146:\n        /* \"#utility.yul\":6691:6696   */\n      dup2\n        /* \"#utility.yul\":6688:6722   */\n      eq\n        /* \"#utility.yul\":6678:6680   */\n      tag_147\n      jumpi\n        /* \"#utility.yul\":6736:6737   */\n      0x00\n        /* \"#utility.yul\":6733:6734   */\n      dup1\n        /* \"#utility.yul\":6726:6738   */\n      revert\n        /* \"#utility.yul\":6678:6680   */\n    tag_147:\n        /* \"#utility.yul\":6668:6746   */\n      pop\n      jump\t// out\n\n    auxdata: 0xa2646970667358221220a0af3098c3f8dee7d4b5bdc0bdfefe809565dc4b23a6459e46319ac6304b5d2664736f6c63430008000033\n}\n",
				"bytecode": {
					"linkReferences": {},
					"object": "60806040526802b5e3af16b188000060005534801561001d57600080fd5b5061081d8061002d6000396000f3fe60806040526004361061003f5760003560e01c8063098de820146100445780633e47d6f31461006f578063b60d4288146100ac578063dc0d3dff146100b6575b600080fd5b34801561005057600080fd5b506100596100f3565b6040516100669190610503565b60405180910390f35b34801561007b57600080fd5b50610096600480360381019061009191906103a1565b6100f9565b6040516100a39190610503565b60405180910390f35b6100b4610111565b005b3480156100c257600080fd5b506100dd60048036038101906100d891906103ca565b610207565b6040516100ea91906104c8565b60405180910390f35b60005481565b60026020528060005260406000206000915090505481565b60005461011d34610246565b101561015e576040517f08c379a0000000000000000000000000000000000000000000000000000000008152600401610155906104e3565b60405180910390fd5b6001339080600181540180825580915050600190039060005260206000200160009091909190916101000a81548173ffffffffffffffffffffffffffffffffffffffff021916908373ffffffffffffffffffffffffffffffffffffffff16021790555034600260003373ffffffffffffffffffffffffffffffffffffffff1673ffffffffffffffffffffffffffffffffffffffff16815260200190815260200160002081905550565b6001818154811061021757600080fd5b906000526020600020016000915054906101000a900473ffffffffffffffffffffffffffffffffffffffff1681565b600080610251610280565b90506000670de0b6b3a7640000848361026a9190610677565b610274919061052f565b90508092505050919050565b600080735f4ec3df9cbd43714fe2740f5e3616155c5b8419905060008173ffffffffffffffffffffffffffffffffffffffff1663feaf968c6040518163ffffffff1660e01b815260040160a06040518083038186803b1580156102e257600080fd5b505afa1580156102f6573d6000803e3d6000fd5b505050506040513d601f19601f8201168201806040525081019061031a91906103f3565b5050509150506402540be400816103319190610560565b9250505090565b6000813590506103478161078b565b92915050565b60008151905061035c816107a2565b92915050565b600081359050610371816107b9565b92915050565b600081519050610386816107b9565b92915050565b60008151905061039b816107d0565b92915050565b6000602082840312156103b357600080fd5b60006103c184828501610338565b91505092915050565b6000602082840312156103dc57600080fd5b60006103ea84828501610362565b91505092915050565b600080600080600060a0868803121561040b57600080fd5b60006104198882890161038c565b955050602061042a8882890161034d565b945050604061043b88828901610377565b935050606061044c88828901610377565b925050608061045d8882890161038c565b9150509295509295909350565b610473816106d1565b82525050565b6000610486601a8361051e565b91507f446964206e6f742073656e6420656e6f756768206d6f6e6579730000000000006000830152602082019050919050565b6104c28161070d565b82525050565b60006020820190506104dd600083018461046a565b92915050565b600060208201905081810360008301526104fc81610479565b9050919050565b600060208201905061051860008301846104b9565b92915050565b600082825260208201905092915050565b600061053a8261070d565b91506105458361070d565b9250826105555761055461075c565b5b828204905092915050565b600061056b826106e3565b9150610576836106e3565b9250827f7fffffffffffffffffffffffffffffffffffffffffffffffffffffffffffffff04821160008413600084131616156105b5576105b461072d565b5b817f800000000000000000000000000000000000000000000000000000000000000005831260008412600084131616156105f2576105f161072d565b5b827f8000000000000000000000000000000000000000000000000000000000000000058212600084136000841216161561062f5761062e61072d565b5b827f7fffffffffffffffffffffffffffffffffffffffffffffffffffffffffffffff058212600084126000841216161561066c5761066b61072d565b5b828202905092915050565b60006106828261070d565b915061068d8361070d565b9250817fffffffffffffffffffffffffffffffffffffffffffffffffffffffffffffffff04831182151516156106c6576106c561072d565b5b828202905092915050565b60006106dc826106ed565b9050919050565b6000819050919050565b600073ffffffffffffffffffffffffffffffffffffffff82169050919050565b6000819050919050565b600069ffffffffffffffffffff82169050919050565b7f4e487b7100000000000000000000000000000000000000000000000000000000600052601160045260246000fd5b7f4e487b7100000000000000000000000000000000000000000000000000000000600052601260045260246000fd5b610794816106d1565b811461079f57600080fd5b50565b6107ab816106e3565b81146107b657600080fd5b50565b6107c28161070d565b81146107cd57600080fd5b50565b6107d981610717565b81146107e457600080fd5b5056fea2646970667358221220a0af3098c3f8dee7d4b5bdc0bdfefe809565dc4b23a6459e46319ac6304b5d2664736f6c63430008000033",
					"opcodes": "PUSH1 0x80 PUSH1 0x40 MSTORE PUSH9 0x2B5E3AF16B1880000 PUSH1 0x0 SSTORE CALLVALUE DUP1 ISZERO PUSH2 0x1D JUMPI PUSH1 0x0 DUP1 REVERT JUMPDEST POP PUSH2 0x81D DUP1 PUSH2 0x2D PUSH1 0x0 CODECOPY PUSH1 0x0 RETURN INVALID PUSH1 0x80 PUSH1 0x40 MSTORE PUSH1 0x4 CALLDATASIZE LT PUSH2 0x3F JUMPI PUSH1 0x0 CALLDATALOAD PUSH1 0xE0 SHR DUP1 PUSH4 0x98DE820 EQ PUSH2 0x44 JUMPI DUP1 PUSH4 0x3E47D6F3 EQ PUSH2 0x6F JUMPI DUP1 PUSH4 0xB60D4288 EQ PUSH2 0xAC JUMPI DUP1 PUSH4 0xDC0D3DFF EQ PUSH2 0xB6 JUMPI JUMPDEST PUSH1 0x0 DUP1 REVERT JUMPDEST CALLVALUE DUP1 ISZERO PUSH2 0x50 JUMPI PUSH1 0x0 DUP1 REVERT JUMPDEST POP PUSH2 0x59 PUSH2 0xF3 JUMP JUMPDEST PUSH1 0x40 MLOAD PUSH2 0x66 SWAP2 SWAP1 PUSH2 0x503 JUMP JUMPDEST PUSH1 0x40 MLOAD DUP1 SWAP2 SUB SWAP1 RETURN JUMPDEST CALLVALUE DUP1 ISZERO PUSH2 0x7B JUMPI PUSH1 0x0 DUP1 REVERT JUMPDEST POP PUSH2 0x96 PUSH1 0x4 DUP1 CALLDATASIZE SUB DUP2 ADD SWAP1 PUSH2 0x91 SWAP2 SWAP1 PUSH2 0x3A1 JUMP JUMPDEST PUSH2 0xF9 JUMP JUMPDEST PUSH1 0x40 MLOAD PUSH2 0xA3 SWAP2 SWAP1 PUSH2 0x503 JUMP JUMPDEST PUSH1 0x40 MLOAD DUP1 SWAP2 SUB SWAP1 RETURN JUMPDEST PUSH2 0xB4 PUSH2 0x111 JUMP JUMPDEST STOP JUMPDEST CALLVALUE DUP1 ISZERO PUSH2 0xC2 JUMPI PUSH1 0x0 DUP1 REVERT JUMPDEST POP PUSH2 0xDD PUSH1 0x4 DUP1 CALLDATASIZE SUB DUP2 ADD SWAP1 PUSH2 0xD8 SWAP2 SWAP1 PUSH2 0x3CA JUMP JUMPDEST PUSH2 0x207 JUMP JUMPDEST PUSH1 0x40 MLOAD PUSH2 0xEA SWAP2 SWAP1 PUSH2 0x4C8 JUMP JUMPDEST PUSH1 0x40 MLOAD DUP1 SWAP2 SUB SWAP1 RETURN JUMPDEST PUSH1 0x0 SLOAD DUP2 JUMP JUMPDEST PUSH1 0x2 PUSH1 0x20 MSTORE DUP1 PUSH1 0x0 MSTORE PUSH1 0x40 PUSH1 0x0 KECCAK256 PUSH1 0x0 SWAP2 POP SWAP1 POP SLOAD DUP2 JUMP JUMPDEST PUSH1 0x0 SLOAD PUSH2 0x11D CALLVALUE PUSH2 0x246 JUMP JUMPDEST LT ISZERO PUSH2 0x15E JUMPI PUSH1 0x40 MLOAD PUSH32 0x8C379A000000000000000000000000000000000000000000000000000000000 DUP2 MSTORE PUSH1 0x4 ADD PUSH2 0x155 SWAP1 PUSH2 0x4E3 JUMP JUMPDEST PUSH1 0x40 MLOAD DUP1 SWAP2 SUB SWAP1 REVERT JUMPDEST PUSH1 0x1 CALLER SWAP1 DUP1 PUSH1 0x1 DUP2 SLOAD ADD DUP1 DUP3 SSTORE DUP1 SWAP2 POP POP PUSH1 0x1 SWAP1 SUB SWAP1 PUSH1 0x0 MSTORE PUSH1 0x20 PUSH1 0x0 KECCAK256 ADD PUSH1 0x0 SWAP1 SWAP2 SWAP1 SWAP2 SWAP1 SWAP2 PUSH2 0x100 EXP DUP2 SLOAD DUP2 PUSH20 0xFFFFFFFFFFFFFFFFFFFFFFFFFFFFFFFFFFFFFFFF MUL NOT AND SWAP1 DUP4 PUSH20 0xFFFFFFFFFFFFFFFFFFFFFFFFFFFFFFFFFFFFFFFF AND MUL OR SWAP1 SSTORE POP CALLVALUE PUSH1 0x2 PUSH1 0x0 CALLER PUSH20 0xFFFFFFFFFFFFFFFFFFFFFFFFFFFFFFFFFFFFFFFF AND PUSH20 0xFFFFFFFFFFFFFFFFFFFFFFFFFFFFFFFFFFFFFFFF AND DUP2 MSTORE PUSH1 0x20 ADD SWAP1 DUP2 MSTORE PUSH1 0x20 ADD PUSH1 0x0 KECCAK256 DUP2 SWAP1 SSTORE POP JUMP JUMPDEST PUSH1 0x1 DUP2 DUP2 SLOAD DUP2 LT PUSH2 0x217 JUMPI PUSH1 0x0 DUP1 REVERT JUMPDEST SWAP1 PUSH1 0x0 MSTORE PUSH1 0x20 PUSH1 0x0 KECCAK256 ADD PUSH1 0x0 SWAP2 POP SLOAD SWAP1 PUSH2 0x100 EXP SWAP1 DIV PUSH20 0xFFFFFFFFFFFFFFFFFFFFFFFFFFFFFFFFFFFFFFFF AND DUP2 JUMP JUMPDEST PUSH1 0x0 DUP1 PUSH2 0x251 PUSH2 0x280 JUMP JUMPDEST SWAP1 POP PUSH1 0x0 PUSH8 0xDE0B6B3A7640000 DUP5 DUP4 PUSH2 0x26A SWAP2 SWAP1 PUSH2 0x677 JUMP JUMPDEST PUSH2 0x274 SWAP2 SWAP1 PUSH2 0x52F JUMP JUMPDEST SWAP1 POP DUP1 SWAP3 POP POP POP SWAP2 SWAP1 POP JUMP JUMPDEST PUSH1 0x0 DUP1 PUSH20 0x5F4EC3DF9CBD43714FE2740F5E3616155C5B8419 SWAP1 POP PUSH1 0x0 DUP2 PUSH20 0xFFFFFFFFFFFFFFFFFFFFFFFFFFFFFFFFFFFFFFFF AND PUSH4 0xFEAF968C PUSH1 0x40 MLOAD DUP2 PUSH4 0xFFFFFFFF AND PUSH1 0xE0 SHL DUP2 MSTORE PUSH1 0x4 ADD PUSH1 0xA0 PUSH1 0x40 MLOAD DUP1 DUP4 SUB DUP2 DUP7 DUP1 EXTCODESIZE ISZERO DUP1 ISZERO PUSH2 0x2E2 JUMPI PUSH1 0x0 DUP1 REVERT JUMPDEST POP GAS STATICCALL ISZERO DUP1 ISZERO PUSH2 0x2F6 JUMPI RETURNDATASIZE PUSH1 0x0 DUP1 RETURNDATACOPY RETURNDATASIZE PUSH1 0x0 REVERT JUMPDEST POP POP POP POP PUSH1 0x40 MLOAD RETURNDATASIZE PUSH1 0x1F NOT PUSH1 0x1F DUP3 ADD AND DUP3 ADD DUP1 PUSH1 0x40 MSTORE POP DUP2 ADD SWAP1 PUSH2 0x31A SWAP2 SWAP1 PUSH2 0x3F3 JUMP JUMPDEST POP POP POP SWAP2 POP POP PUSH5 0x2540BE400 DUP2 PUSH2 0x331 SWAP2 SWAP1 PUSH2 0x560 JUMP JUMPDEST SWAP3 POP POP POP SWAP1 JUMP JUMPDEST PUSH1 0x0 DUP2 CALLDATALOAD SWAP1 POP PUSH2 0x347 DUP2 PUSH2 0x78B JUMP JUMPDEST SWAP3 SWAP2 POP POP JUMP JUMPDEST PUSH1 0x0 DUP2 MLOAD SWAP1 POP PUSH2 0x35C DUP2 PUSH2 0x7A2 JUMP JUMPDEST SWAP3 SWAP2 POP POP JUMP JUMPDEST PUSH1 0x0 DUP2 CALLDATALOAD SWAP1 POP PUSH2 0x371 DUP2 PUSH2 0x7B9 JUMP JUMPDEST SWAP3 SWAP2 POP POP JUMP JUMPDEST PUSH1 0x0 DUP2 MLOAD SWAP1 POP PUSH2 0x386 DUP2 PUSH2 0x7B9 JUMP JUMPDEST SWAP3 SWAP2 POP POP JUMP JUMPDEST PUSH1 0x0 DUP2 MLOAD SWAP1 POP PUSH2 0x39B DUP2 PUSH2 0x7D0 JUMP JUMPDEST SWAP3 SWAP2 POP POP JUMP JUMPDEST PUSH1 0x0 PUSH1 0x20 DUP3 DUP5 SUB SLT ISZERO PUSH2 0x3B3 JUMPI PUSH1 0x0 DUP1 REVERT JUMPDEST PUSH1 0x0 PUSH2 0x3C1 DUP5 DUP3 DUP6 ADD PUSH2 0x338 JUMP JUMPDEST SWAP2 POP POP SWAP3 SWAP2 POP POP JUMP JUMPDEST PUSH1 0x0 PUSH1 0x20 DUP3 DUP5 SUB SLT ISZERO PUSH2 0x3DC JUMPI PUSH1 0x0 DUP1 REVERT JUMPDEST PUSH1 0x0 PUSH2 0x3EA DUP5 DUP3 DUP6 ADD PUSH2 0x362 JUMP JUMPDEST SWAP2 POP POP SWAP3 SWAP2 POP POP JUMP JUMPDEST PUSH1 0x0 DUP1 PUSH1 0x0 DUP1 PUSH1 0x0 PUSH1 0xA0 DUP7 DUP9 SUB SLT ISZERO PUSH2 0x40B JUMPI PUSH1 0x0 DUP1 REVERT JUMPDEST PUSH1 0x0 PUSH2 0x419 DUP9 DUP3 DUP10 ADD PUSH2 0x38C JUMP JUMPDEST SWAP6 POP POP PUSH1 0x20 PUSH2 0x42A DUP9 DUP3 DUP10 ADD PUSH2 0x34D JUMP JUMPDEST SWAP5 POP POP PUSH1 0x40 PUSH2 0x43B DUP9 DUP3 DUP10 ADD PUSH2 0x377 JUMP JUMPDEST SWAP4 POP POP PUSH1 0x60 PUSH2 0x44C DUP9 DUP3 DUP10 ADD PUSH2 0x377 JUMP JUMPDEST SWAP3 POP POP PUSH1 0x80 PUSH2 0x45D DUP9 DUP3 DUP10 ADD PUSH2 0x38C JUMP JUMPDEST SWAP2 POP POP SWAP3 SWAP6 POP SWAP3 SWAP6 SWAP1 SWAP4 POP JUMP JUMPDEST PUSH2 0x473 DUP2 PUSH2 0x6D1 JUMP JUMPDEST DUP3 MSTORE POP POP JUMP JUMPDEST PUSH1 0x0 PUSH2 0x486 PUSH1 0x1A DUP4 PUSH2 0x51E JUMP JUMPDEST SWAP2 POP PUSH32 0x446964206E6F742073656E6420656E6F756768206D6F6E657973000000000000 PUSH1 0x0 DUP4 ADD MSTORE PUSH1 0x20 DUP3 ADD SWAP1 POP SWAP2 SWAP1 POP JUMP JUMPDEST PUSH2 0x4C2 DUP2 PUSH2 0x70D JUMP JUMPDEST DUP3 MSTORE POP POP JUMP JUMPDEST PUSH1 0x0 PUSH1 0x20 DUP3 ADD SWAP1 POP PUSH2 0x4DD PUSH1 0x0 DUP4 ADD DUP5 PUSH2 0x46A JUMP JUMPDEST SWAP3 SWAP2 POP POP JUMP JUMPDEST PUSH1 0x0 PUSH1 0x20 DUP3 ADD SWAP1 POP DUP2 DUP2 SUB PUSH1 0x0 DUP4 ADD MSTORE PUSH2 0x4FC DUP2 PUSH2 0x479 JUMP JUMPDEST SWAP1 POP SWAP2 SWAP1 POP JUMP JUMPDEST PUSH1 0x0 PUSH1 0x20 DUP3 ADD SWAP1 POP PUSH2 0x518 PUSH1 0x0 DUP4 ADD DUP5 PUSH2 0x4B9 JUMP JUMPDEST SWAP3 SWAP2 POP POP JUMP JUMPDEST PUSH1 0x0 DUP3 DUP3 MSTORE PUSH1 0x20 DUP3 ADD SWAP1 POP SWAP3 SWAP2 POP POP JUMP JUMPDEST PUSH1 0x0 PUSH2 0x53A DUP3 PUSH2 0x70D JUMP JUMPDEST SWAP2 POP PUSH2 0x545 DUP4 PUSH2 0x70D JUMP JUMPDEST SWAP3 POP DUP3 PUSH2 0x555 JUMPI PUSH2 0x554 PUSH2 0x75C JUMP JUMPDEST JUMPDEST DUP3 DUP3 DIV SWAP1 POP SWAP3 SWAP2 POP POP JUMP JUMPDEST PUSH1 0x0 PUSH2 0x56B DUP3 PUSH2 0x6E3 JUMP JUMPDEST SWAP2 POP PUSH2 0x576 DUP4 PUSH2 0x6E3 JUMP JUMPDEST SWAP3 POP DUP3 PUSH32 0x7FFFFFFFFFFFFFFFFFFFFFFFFFFFFFFFFFFFFFFFFFFFFFFFFFFFFFFFFFFFFFFF DIV DUP3 GT PUSH1 0x0 DUP5 SGT PUSH1 0x0 DUP5 SGT AND AND ISZERO PUSH2 0x5B5 JUMPI PUSH2 0x5B4 PUSH2 0x72D JUMP JUMPDEST JUMPDEST DUP2 PUSH32 0x8000000000000000000000000000000000000000000000000000000000000000 SDIV DUP4 SLT PUSH1 0x0 DUP5 SLT PUSH1 0x0 DUP5 SGT AND AND ISZERO PUSH2 0x5F2 JUMPI PUSH2 0x5F1 PUSH2 0x72D JUMP JUMPDEST JUMPDEST DUP3 PUSH32 0x8000000000000000000000000000000000000000000000000000000000000000 SDIV DUP3 SLT PUSH1 0x0 DUP5 SGT PUSH1 0x0 DUP5 SLT AND AND ISZERO PUSH2 0x62F JUMPI PUSH2 0x62E PUSH2 0x72D JUMP JUMPDEST JUMPDEST DUP3 PUSH32 0x7FFFFFFFFFFFFFFFFFFFFFFFFFFFFFFFFFFFFFFFFFFFFFFFFFFFFFFFFFFFFFFF SDIV DUP3 SLT PUSH1 0x0 DUP5 SLT PUSH1 0x0 DUP5 SLT AND AND ISZERO PUSH2 0x66C JUMPI PUSH2 0x66B PUSH2 0x72D JUMP JUMPDEST JUMPDEST DUP3 DUP3 MUL SWAP1 POP SWAP3 SWAP2 POP POP JUMP JUMPDEST PUSH1 0x0 PUSH2 0x682 DUP3 PUSH2 0x70D JUMP JUMPDEST SWAP2 POP PUSH2 0x68D DUP4 PUSH2 0x70D JUMP JUMPDEST SWAP3 POP DUP2 PUSH32 0xFFFFFFFFFFFFFFFFFFFFFFFFFFFFFFFFFFFFFFFFFFFFFFFFFFFFFFFFFFFFFFFF DIV DUP4 GT DUP3 ISZERO ISZERO AND ISZERO PUSH2 0x6C6 JUMPI PUSH2 0x6C5 PUSH2 0x72D JUMP JUMPDEST JUMPDEST DUP3 DUP3 MUL SWAP1 POP SWAP3 SWAP2 POP POP JUMP JUMPDEST PUSH1 0x0 PUSH2 0x6DC DUP3 PUSH2 0x6ED JUMP JUMPDEST SWAP1 POP SWAP2 SWAP1 POP JUMP JUMPDEST PUSH1 0x0 DUP2 SWAP1 POP SWAP2 SWAP1 POP JUMP JUMPDEST PUSH1 0x0 PUSH20 0xFFFFFFFFFFFFFFFFFFFFFFFFFFFFFFFFFFFFFFFF DUP3 AND SWAP1 POP SWAP2 SWAP1 POP JUMP JUMPDEST PUSH1 0x0 DUP2 SWAP1 POP SWAP2 SWAP1 POP JUMP JUMPDEST PUSH1 0x0 PUSH10 0xFFFFFFFFFFFFFFFFFFFF DUP3 AND SWAP1 POP SWAP2 SWAP1 POP JUMP JUMPDEST PUSH32 0x4E487B7100000000000000000000000000000000000000000000000000000000 PUSH1 0x0 MSTORE PUSH1 0x11 PUSH1 0x4 MSTORE PUSH1 0x24 PUSH1 0x0 REVERT JUMPDEST PUSH32 0x4E487B7100000000000000000000000000000000000000000000000000000000 PUSH1 0x0 MSTORE PUSH1 0x12 PUSH1 0x4 MSTORE PUSH1 0x24 PUSH1 0x0 REVERT JUMPDEST PUSH2 0x794 DUP2 PUSH2 0x6D1 JUMP JUMPDEST DUP2 EQ PUSH2 0x79F JUMPI PUSH1 0x0 DUP1 REVERT JUMPDEST POP JUMP JUMPDEST PUSH2 0x7AB DUP2 PUSH2 0x6E3 JUMP JUMPDEST DUP2 EQ PUSH2 0x7B6 JUMPI PUSH1 0x0 DUP1 REVERT JUMPDEST POP JUMP JUMPDEST PUSH2 0x7C2 DUP2 PUSH2 0x70D JUMP JUMPDEST DUP2 EQ PUSH2 0x7CD JUMPI PUSH1 0x0 DUP1 REVERT JUMPDEST POP JUMP JUMPDEST PUSH2 0x7D9 DUP2 PUSH2 0x717 JUMP JUMPDEST DUP2 EQ PUSH2 0x7E4 JUMPI PUSH1 0x0 DUP1 REVERT JUMPDEST POP JUMP INVALID LOG2 PUSH5 0x6970667358 0x22 SLT KECCAK256 LOG0 0xAF ADDRESS SWAP9 0xC3 0xF8 0xDE 0xE7 0xD4 0xB5 0xBD 0xC0 0xBD INVALID INVALID DUP1 SWAP6 PUSH6 0xDC4B23A6459E CHAINID BALANCE SWAP11 0xC6 ADDRESS 0x4B 0x5D 0x26 PUSH5 0x736F6C6343 STOP ADDMOD STOP STOP CALLER "
				},
				"gasEstimates": {
					"creation": {
						"codeDepositCost": "415400",
						"executionCost": "20455",
						"totalCost": "435855"
					},
					"external": {
						"addressToAmountFunded(address)": "1514",
						"fund()": "infinite",
						"funders(uint256)": "2400",
						"minimumUsd()": "1107"
					}
				},
				"methodIdentifiers": {
					"addressToAmountFunded(address)": "3e47d6f3",
					"fund()": "b60d4288",
					"funders(uint256)": "dc0d3dff",
					"minimumUsd()": "098de820"
				}
			},
			"storageLayout": {
				"storage": [
					{
						"astId": 56,
						"contract": "contracts/FundMe.sol:FundMe",
						"label": "minimumUsd",
						"offset": 0,
						"slot": "0",
						"type": "t_uint256"
					},
					{
						"astId": 59,
						"contract": "contracts/FundMe.sol:FundMe",
						"label": "funders",
						"offset": 0,
						"slot": "1",
						"type": "t_array(t_address)dyn_storage"
					},
					{
						"astId": 63,
						"contract": "contracts/FundMe.sol:FundMe",
						"label": "addressToAmountFunded",
						"offset": 0,
						"slot": "2",
						"type": "t_mapping(t_address,t_uint256)"
					}
				],
				"types": {
					"t_address": {
						"encoding": "inplace",
						"label": "address",
						"numberOfBytes": "20"
					},
					"t_array(t_address)dyn_storage": {
						"base": "t_address",
						"encoding": "dynamic_array",
						"label": "address[]",
						"numberOfBytes": "32"
					},
					"t_mapping(t_address,t_uint256)": {
						"encoding": "mapping",
						"key": "t_address",
						"label": "mapping(address => uint256)",
						"numberOfBytes": "32",
						"value": "t_uint256"
					},
					"t_uint256": {
						"encoding": "inplace",
						"label": "uint256",
						"numberOfBytes": "32"
					}
				}
			},
			"userdoc": {
				"kind": "user",
				"methods": {},
				"version": 1
			}
		}
	}
}