{
	"contracts/FundMe.sol": {
		"FundMe": {
			"abi": [
				{
					"inputs": [
						{
							"internalType": "address",
							"name": "",
							"type": "address"
						}
					],
					"name": "addressToAmountFunded",
					"outputs": [
						{
							"internalType": "uint256",
							"name": "",
							"type": "uint256"
						}
					],
					"stateMutability": "view",
					"type": "function"
				},
				{
					"inputs": [],
					"name": "fund",
					"outputs": [],
					"stateMutability": "payable",
					"type": "function"
				},
				{
					"inputs": [
						{
							"internalType": "uint256",
							"name": "",
							"type": "uint256"
						}
					],
					"name": "funders",
					"outputs": [
						{
							"internalType": "address",
							"name": "",
							"type": "address"
						}
					],
					"stateMutability": "view",
					"type": "function"
				},
				{
					"inputs": [
						{
							"internalType": "uint256",
							"name": "ethAmount",
							"type": "uint256"
						}
					],
					"name": "getConversionRate",
					"outputs": [
						{
							"internalType": "uint256",
							"name": "",
							"type": "uint256"
						}
					],
					"stateMutability": "view",
					"type": "function"
				},
				{
					"inputs": [],
					"name": "getPrice",
					"outputs": [
						{
							"internalType": "uint256",
							"name": "",
							"type": "uint256"
						}
					],
					"stateMutability": "view",
					"type": "function"
				},
				{
					"inputs": [],
					"name": "getVersion",
					"outputs": [
						{
							"internalType": "uint256",
							"name": "",
							"type": "uint256"
						}
					],
					"stateMutability": "view",
					"type": "function"
				},
				{
					"inputs": [],
					"name": "minimumUsd",
					"outputs": [
						{
							"internalType": "uint256",
							"name": "",
							"type": "uint256"
						}
					],
					"stateMutability": "view",
					"type": "function"
				}
			],
			"devdoc": {
				"kind": "dev",
				"methods": {},
				"version": 1
			},
			"evm": {
				"assembly": "    /* \"contracts/FundMe.sol\":182:1313  contract FundMe {... */\n  mstore(0x40, 0x80)\n    /* \"contracts/FundMe.sol\":233:242  50 * 1e18 */\n  0x02b5e3af16b1880000\n    /* \"contracts/FundMe.sol\":205:242  uint256 public minimumUsd = 50 * 1e18 */\n  0x00\n  sstore\n    /* \"contracts/FundMe.sol\":182:1313  contract FundMe {... */\n  callvalue\n  dup1\n  iszero\n  tag_1\n  jumpi\n  0x00\n  dup1\n  revert\ntag_1:\n  pop\n  dataSize(sub_0)\n  dup1\n  dataOffset(sub_0)\n  0x00\n  codecopy\n  0x00\n  return\nstop\n\nsub_0: assembly {\n        /* \"contracts/FundMe.sol\":182:1313  contract FundMe {... */\n      mstore(0x40, 0x80)\n      jumpi(tag_1, lt(calldatasize, 0x04))\n      shr(0xe0, calldataload(0x00))\n      dup1\n      0x6e5b6b28\n      gt\n      tag_9\n      jumpi\n      dup1\n      0x6e5b6b28\n      eq\n      tag_5\n      jumpi\n      dup1\n      0x98d5fdca\n      eq\n      tag_6\n      jumpi\n      dup1\n      0xb60d4288\n      eq\n      tag_7\n      jumpi\n      dup1\n      0xdc0d3dff\n      eq\n      tag_8\n      jumpi\n      jump(tag_1)\n    tag_9:\n      dup1\n      0x098de820\n      eq\n      tag_2\n      jumpi\n      dup1\n      0x0d8e6e2c\n      eq\n      tag_3\n      jumpi\n      dup1\n      0x3e47d6f3\n      eq\n      tag_4\n      jumpi\n    tag_1:\n      0x00\n      dup1\n      revert\n        /* \"contracts/FundMe.sol\":205:242  uint256 public minimumUsd = 50 * 1e18 */\n    tag_2:\n      callvalue\n      dup1\n      iszero\n      tag_10\n      jumpi\n      0x00\n      dup1\n      revert\n    tag_10:\n      pop\n      tag_11\n      tag_12\n      jump\t// in\n    tag_11:\n      mload(0x40)\n      tag_13\n      swap2\n      swap1\n      tag_14\n      jump\t// in\n    tag_13:\n      mload(0x40)\n      dup1\n      swap2\n      sub\n      swap1\n      return\n        /* \"contracts/FundMe.sol\":843:1047  function getVersion() public view returns (uint256) {... */\n    tag_3:\n      callvalue\n      dup1\n      iszero\n      tag_15\n      jumpi\n      0x00\n      dup1\n      revert\n    tag_15:\n      pop\n      tag_16\n      tag_17\n      jump\t// in\n    tag_16:\n      mload(0x40)\n      tag_18\n      swap2\n      swap1\n      tag_14\n      jump\t// in\n    tag_18:\n      mload(0x40)\n      dup1\n      swap2\n      sub\n      swap1\n      return\n        /* \"contracts/FundMe.sol\":279:335  mapping(address => uint256) public addressToAmountFunded */\n    tag_4:\n      callvalue\n      dup1\n      iszero\n      tag_19\n      jumpi\n      0x00\n      dup1\n      revert\n    tag_19:\n      pop\n      tag_20\n      0x04\n      dup1\n      calldatasize\n      sub\n      dup2\n      add\n      swap1\n      tag_21\n      swap2\n      swap1\n      tag_22\n      jump\t// in\n    tag_21:\n      tag_23\n      jump\t// in\n    tag_20:\n      mload(0x40)\n      tag_24\n      swap2\n      swap1\n      tag_14\n      jump\t// in\n    tag_24:\n      mload(0x40)\n      dup1\n      swap2\n      sub\n      swap1\n      return\n        /* \"contracts/FundMe.sol\":1053:1272  function getConversionRate(uint256 ethAmount) public view returns (uint256) {... */\n    tag_5:\n      callvalue\n      dup1\n      iszero\n      tag_25\n      jumpi\n      0x00\n      dup1\n      revert\n    tag_25:\n      pop\n      tag_26\n      0x04\n      dup1\n      calldatasize\n      sub\n      dup2\n      add\n      swap1\n      tag_27\n      swap2\n      swap1\n      tag_28\n      jump\t// in\n    tag_27:\n      tag_29\n      jump\t// in\n    tag_26:\n      mload(0x40)\n      tag_30\n      swap2\n      swap1\n      tag_14\n      jump\t// in\n    tag_30:\n      mload(0x40)\n      dup1\n      swap2\n      sub\n      swap1\n      return\n        /* \"contracts/FundMe.sol\":540:837  function getPrice() public view returns(uint256){... */\n    tag_6:\n      callvalue\n      dup1\n      iszero\n      tag_31\n      jumpi\n      0x00\n      dup1\n      revert\n    tag_31:\n      pop\n      tag_32\n      tag_33\n      jump\t// in\n    tag_32:\n      mload(0x40)\n      tag_34\n      swap2\n      swap1\n      tag_14\n      jump\t// in\n    tag_34:\n      mload(0x40)\n      dup1\n      swap2\n      sub\n      swap1\n      return\n        /* \"contracts/FundMe.sol\":342:535  function fund() public payable {... */\n    tag_7:\n      tag_35\n      tag_36\n      jump\t// in\n    tag_35:\n      stop\n        /* \"contracts/FundMe.sol\":249:273  address[] public funders */\n    tag_8:\n      callvalue\n      dup1\n      iszero\n      tag_37\n      jumpi\n      0x00\n      dup1\n      revert\n    tag_37:\n      pop\n      tag_38\n      0x04\n      dup1\n      calldatasize\n      sub\n      dup2\n      add\n      swap1\n      tag_39\n      swap2\n      swap1\n      tag_28\n      jump\t// in\n    tag_39:\n      tag_40\n      jump\t// in\n    tag_38:\n      mload(0x40)\n      tag_41\n      swap2\n      swap1\n      tag_42\n      jump\t// in\n    tag_41:\n      mload(0x40)\n      dup1\n      swap2\n      sub\n      swap1\n      return\n        /* \"contracts/FundMe.sol\":205:242  uint256 public minimumUsd = 50 * 1e18 */\n    tag_12:\n      sload(0x00)\n      dup2\n      jump\t// out\n        /* \"contracts/FundMe.sol\":843:1047  function getVersion() public view returns (uint256) {... */\n    tag_17:\n        /* \"contracts/FundMe.sol\":886:893  uint256 */\n      0x00\n        /* \"contracts/FundMe.sol\":905:936  AggregatorV3Interface priceFeed */\n      dup1\n        /* \"contracts/FundMe.sol\":961:1003  0x5f4eC3Df9cbd43714FE2740f5E3616155c5b8419 */\n      0x5f4ec3df9cbd43714fe2740f5e3616155c5b8419\n        /* \"contracts/FundMe.sol\":905:1004  AggregatorV3Interface priceFeed = AggregatorV3Interface(0x5f4eC3Df9cbd43714FE2740f5E3616155c5b8419) */\n      swap1\n      pop\n        /* \"contracts/FundMe.sol\":1021:1030  priceFeed */\n      dup1\n        /* \"contracts/FundMe.sol\":1021:1038  priceFeed.version */\n      0xffffffffffffffffffffffffffffffffffffffff\n      and\n      0x54fd4d50\n        /* \"contracts/FundMe.sol\":1021:1040  priceFeed.version() */\n      mload(0x40)\n      dup2\n      0xffffffff\n      and\n      0xe0\n      shl\n      dup2\n      mstore\n      0x04\n      add\n      0x20\n      mload(0x40)\n      dup1\n      dup4\n      sub\n      dup2\n      dup7\n      dup1\n      extcodesize\n      iszero\n      dup1\n      iszero\n      tag_44\n      jumpi\n      0x00\n      dup1\n      revert\n    tag_44:\n      pop\n      gas\n      staticcall\n      iszero\n      dup1\n      iszero\n      tag_46\n      jumpi\n      returndatasize\n      0x00\n      dup1\n      returndatacopy\n      revert(0x00, returndatasize)\n    tag_46:\n      pop\n      pop\n      pop\n      pop\n      mload(0x40)\n      returndatasize\n      not(0x1f)\n      0x1f\n      dup3\n      add\n      and\n      dup3\n      add\n      dup1\n      0x40\n      mstore\n      pop\n      dup2\n      add\n      swap1\n      tag_47\n      swap2\n      swap1\n      tag_48\n      jump\t// in\n    tag_47:\n        /* \"contracts/FundMe.sol\":1014:1040  return priceFeed.version() */\n      swap2\n      pop\n      pop\n        /* \"contracts/FundMe.sol\":843:1047  function getVersion() public view returns (uint256) {... */\n      swap1\n      jump\t// out\n        /* \"contracts/FundMe.sol\":279:335  mapping(address => uint256) public addressToAmountFunded */\n    tag_23:\n      mstore(0x20, 0x02)\n      dup1\n      0x00\n      mstore\n      keccak256(0x00, 0x40)\n      0x00\n      swap2\n      pop\n      swap1\n      pop\n      sload\n      dup2\n      jump\t// out\n        /* \"contracts/FundMe.sol\":1053:1272  function getConversionRate(uint256 ethAmount) public view returns (uint256) {... */\n    tag_29:\n        /* \"contracts/FundMe.sol\":1120:1127  uint256 */\n      0x00\n        /* \"contracts/FundMe.sol\":1140:1156  uint256 ethPrice */\n      dup1\n        /* \"contracts/FundMe.sol\":1159:1169  getPrice() */\n      tag_50\n        /* \"contracts/FundMe.sol\":1159:1167  getPrice */\n      tag_33\n        /* \"contracts/FundMe.sol\":1159:1169  getPrice() */\n      jump\t// in\n    tag_50:\n        /* \"contracts/FundMe.sol\":1140:1169  uint256 ethPrice = getPrice() */\n      swap1\n      pop\n        /* \"contracts/FundMe.sol\":1179:1202  uint256  ethAmountInUsd */\n      0x00\n        /* \"contracts/FundMe.sol\":1230:1234  1e18 */\n      0x0de0b6b3a7640000\n        /* \"contracts/FundMe.sol\":1217:1226  ethAmount */\n      dup5\n        /* \"contracts/FundMe.sol\":1206:1214  ethPrice */\n      dup4\n        /* \"contracts/FundMe.sol\":1206:1226  ethPrice * ethAmount */\n      tag_51\n      swap2\n      swap1\n      tag_52\n      jump\t// in\n    tag_51:\n        /* \"contracts/FundMe.sol\":1205:1234  (ethPrice * ethAmount) / 1e18 */\n      tag_53\n      swap2\n      swap1\n      tag_54\n      jump\t// in\n    tag_53:\n        /* \"contracts/FundMe.sol\":1179:1234  uint256  ethAmountInUsd = (ethPrice * ethAmount) / 1e18 */\n      swap1\n      pop\n        /* \"contracts/FundMe.sol\":1251:1265  ethAmountInUsd */\n      dup1\n        /* \"contracts/FundMe.sol\":1244:1265  return ethAmountInUsd */\n      swap3\n      pop\n      pop\n      pop\n        /* \"contracts/FundMe.sol\":1053:1272  function getConversionRate(uint256 ethAmount) public view returns (uint256) {... */\n      swap2\n      swap1\n      pop\n      jump\t// out\n        /* \"contracts/FundMe.sol\":540:837  function getPrice() public view returns(uint256){... */\n    tag_33:\n        /* \"contracts/FundMe.sol\":580:587  uint256 */\n      0x00\n        /* \"contracts/FundMe.sol\":633:664  AggregatorV3Interface priceFeed */\n      dup1\n        /* \"contracts/FundMe.sol\":689:731  0x5f4eC3Df9cbd43714FE2740f5E3616155c5b8419 */\n      0x5f4ec3df9cbd43714fe2740f5e3616155c5b8419\n        /* \"contracts/FundMe.sol\":633:732  AggregatorV3Interface priceFeed = AggregatorV3Interface(0x5f4eC3Df9cbd43714FE2740f5E3616155c5b8419) */\n      swap1\n      pop\n        /* \"contracts/FundMe.sol\":744:756  int256 price */\n      0x00\n        /* \"contracts/FundMe.sol\":763:772  priceFeed */\n      dup2\n        /* \"contracts/FundMe.sol\":763:788  priceFeed.latestRoundData */\n      0xffffffffffffffffffffffffffffffffffffffff\n      and\n      0xfeaf968c\n        /* \"contracts/FundMe.sol\":763:790  priceFeed.latestRoundData() */\n      mload(0x40)\n      dup2\n      0xffffffff\n      and\n      0xe0\n      shl\n      dup2\n      mstore\n      0x04\n      add\n      0xa0\n      mload(0x40)\n      dup1\n      dup4\n      sub\n      dup2\n      dup7\n      dup1\n      extcodesize\n      iszero\n      dup1\n      iszero\n      tag_56\n      jumpi\n      0x00\n      dup1\n      revert\n    tag_56:\n      pop\n      gas\n      staticcall\n      iszero\n      dup1\n      iszero\n      tag_58\n      jumpi\n      returndatasize\n      0x00\n      dup1\n      returndatacopy\n      revert(0x00, returndatasize)\n    tag_58:\n      pop\n      pop\n      pop\n      pop\n      mload(0x40)\n      returndatasize\n      not(0x1f)\n      0x1f\n      dup3\n      add\n      and\n      dup3\n      add\n      dup1\n      0x40\n      mstore\n      pop\n      dup2\n      add\n      swap1\n      tag_59\n      swap2\n      swap1\n      tag_60\n      jump\t// in\n    tag_59:\n        /* \"contracts/FundMe.sol\":742:790  (,int256 price,,,) = priceFeed.latestRoundData() */\n      pop\n      pop\n      pop\n      swap2\n      pop\n      pop\n        /* \"contracts/FundMe.sol\":824:828  1e10 */\n      0x02540be400\n        /* \"contracts/FundMe.sol\":816:821  price */\n      dup2\n        /* \"contracts/FundMe.sol\":816:828  price * 1e10 */\n      tag_61\n      swap2\n      swap1\n      tag_62\n      jump\t// in\n    tag_61:\n        /* \"contracts/FundMe.sol\":801:829  return uint256(price * 1e10) */\n      swap3\n      pop\n      pop\n      pop\n        /* \"contracts/FundMe.sol\":540:837  function getPrice() public view returns(uint256){... */\n      swap1\n      jump\t// out\n        /* \"contracts/FundMe.sol\":342:535  function fund() public payable {... */\n    tag_36:\n        /* \"contracts/FundMe.sol\":404:408  1e18 */\n      0x0de0b6b3a7640000\n        /* \"contracts/FundMe.sol\":391:400  msg.value */\n      callvalue\n        /* \"contracts/FundMe.sol\":391:408  msg.value >= 1e18 */\n      lt\n      iszero\n        /* \"contracts/FundMe.sol\":383:439  require(msg.value >= 1e18, \"Did not send enough moneys\") */\n      tag_64\n      jumpi\n      mload(0x40)\n      0x08c379a000000000000000000000000000000000000000000000000000000000\n      dup2\n      mstore\n      0x04\n      add\n      tag_65\n      swap1\n      tag_66\n      jump\t// in\n    tag_65:\n      mload(0x40)\n      dup1\n      swap2\n      sub\n      swap1\n      revert\n    tag_64:\n        /* \"contracts/FundMe.sol\":449:456  funders */\n      0x01\n        /* \"contracts/FundMe.sol\":462:472  msg.sender */\n      caller\n        /* \"contracts/FundMe.sol\":449:473  funders.push(msg.sender) */\n      swap1\n      dup1\n      0x01\n      dup2\n      sload\n      add\n      dup1\n      dup3\n      sstore\n      dup1\n      swap2\n      pop\n      pop\n      0x01\n      swap1\n      sub\n      swap1\n      0x00\n      mstore\n      keccak256(0x00, 0x20)\n      add\n      0x00\n      swap1\n      swap2\n      swap1\n      swap2\n      swap1\n      swap2\n      0x0100\n      exp\n      dup2\n      sload\n      dup2\n      0xffffffffffffffffffffffffffffffffffffffff\n      mul\n      not\n      and\n      swap1\n      dup4\n      0xffffffffffffffffffffffffffffffffffffffff\n      and\n      mul\n      or\n      swap1\n      sstore\n      pop\n        /* \"contracts/FundMe.sol\":519:528  msg.value */\n      callvalue\n        /* \"contracts/FundMe.sol\":483:504  addressToAmountFunded */\n      0x02\n        /* \"contracts/FundMe.sol\":483:516  addressToAmountFunded[msg.sender] */\n      0x00\n        /* \"contracts/FundMe.sol\":505:515  msg.sender */\n      caller\n        /* \"contracts/FundMe.sol\":483:516  addressToAmountFunded[msg.sender] */\n      0xffffffffffffffffffffffffffffffffffffffff\n      and\n      0xffffffffffffffffffffffffffffffffffffffff\n      and\n      dup2\n      mstore\n      0x20\n      add\n      swap1\n      dup2\n      mstore\n      0x20\n      add\n      0x00\n      keccak256\n        /* \"contracts/FundMe.sol\":483:528  addressToAmountFunded[msg.sender] = msg.value */\n      dup2\n      swap1\n      sstore\n      pop\n        /* \"contracts/FundMe.sol\":342:535  function fund() public payable {... */\n      jump\t// out\n        /* \"contracts/FundMe.sol\":249:273  address[] public funders */\n    tag_40:\n      0x01\n      dup2\n      dup2\n      sload\n      dup2\n      lt\n      tag_68\n      jumpi\n      0x00\n      dup1\n      revert\n    tag_68:\n      swap1\n      0x00\n      mstore\n      keccak256(0x00, 0x20)\n      add\n      0x00\n      swap2\n      pop\n      sload\n      swap1\n      0x0100\n      exp\n      swap1\n      div\n      0xffffffffffffffffffffffffffffffffffffffff\n      and\n      dup2\n      jump\t// out\n        /* \"#utility.yul\":7:146   */\n    tag_71:\n      0x00\n        /* \"#utility.yul\":91:97   */\n      dup2\n        /* \"#utility.yul\":78:98   */\n      calldataload\n        /* \"#utility.yul\":69:98   */\n      swap1\n      pop\n        /* \"#utility.yul\":107:140   */\n      tag_73\n        /* \"#utility.yul\":134:139   */\n      dup2\n        /* \"#utility.yul\":107:140   */\n      tag_74\n      jump\t// in\n    tag_73:\n        /* \"#utility.yul\":59:146   */\n      swap3\n      swap2\n      pop\n      pop\n      jump\t// out\n        /* \"#utility.yul\":152:293   */\n    tag_75:\n      0x00\n        /* \"#utility.yul\":239:245   */\n      dup2\n        /* \"#utility.yul\":233:246   */\n      mload\n        /* \"#utility.yul\":224:246   */\n      swap1\n      pop\n        /* \"#utility.yul\":255:287   */\n      tag_77\n        /* \"#utility.yul\":281:286   */\n      dup2\n        /* \"#utility.yul\":255:287   */\n      tag_78\n      jump\t// in\n    tag_77:\n        /* \"#utility.yul\":214:293   */\n      swap3\n      swap2\n      pop\n      pop\n      jump\t// out\n        /* \"#utility.yul\":299:438   */\n    tag_79:\n      0x00\n        /* \"#utility.yul\":383:389   */\n      dup2\n        /* \"#utility.yul\":370:390   */\n      calldataload\n        /* \"#utility.yul\":361:390   */\n      swap1\n      pop\n        /* \"#utility.yul\":399:432   */\n      tag_81\n        /* \"#utility.yul\":426:431   */\n      dup2\n        /* \"#utility.yul\":399:432   */\n      tag_82\n      jump\t// in\n    tag_81:\n        /* \"#utility.yul\":351:438   */\n      swap3\n      swap2\n      pop\n      pop\n      jump\t// out\n        /* \"#utility.yul\":444:587   */\n    tag_83:\n      0x00\n        /* \"#utility.yul\":532:538   */\n      dup2\n        /* \"#utility.yul\":526:539   */\n      mload\n        /* \"#utility.yul\":517:539   */\n      swap1\n      pop\n        /* \"#utility.yul\":548:581   */\n      tag_85\n        /* \"#utility.yul\":575:580   */\n      dup2\n        /* \"#utility.yul\":548:581   */\n      tag_82\n      jump\t// in\n    tag_85:\n        /* \"#utility.yul\":507:587   */\n      swap3\n      swap2\n      pop\n      pop\n      jump\t// out\n        /* \"#utility.yul\":593:734   */\n    tag_86:\n      0x00\n        /* \"#utility.yul\":680:686   */\n      dup2\n        /* \"#utility.yul\":674:687   */\n      mload\n        /* \"#utility.yul\":665:687   */\n      swap1\n      pop\n        /* \"#utility.yul\":696:728   */\n      tag_88\n        /* \"#utility.yul\":722:727   */\n      dup2\n        /* \"#utility.yul\":696:728   */\n      tag_89\n      jump\t// in\n    tag_88:\n        /* \"#utility.yul\":655:734   */\n      swap3\n      swap2\n      pop\n      pop\n      jump\t// out\n        /* \"#utility.yul\":740:1002   */\n    tag_22:\n      0x00\n        /* \"#utility.yul\":848:850   */\n      0x20\n        /* \"#utility.yul\":836:845   */\n      dup3\n        /* \"#utility.yul\":827:834   */\n      dup5\n        /* \"#utility.yul\":823:846   */\n      sub\n        /* \"#utility.yul\":819:851   */\n      slt\n        /* \"#utility.yul\":816:818   */\n      iszero\n      tag_91\n      jumpi\n        /* \"#utility.yul\":864:865   */\n      0x00\n        /* \"#utility.yul\":861:862   */\n      dup1\n        /* \"#utility.yul\":854:866   */\n      revert\n        /* \"#utility.yul\":816:818   */\n    tag_91:\n        /* \"#utility.yul\":907:908   */\n      0x00\n        /* \"#utility.yul\":932:985   */\n      tag_92\n        /* \"#utility.yul\":977:984   */\n      dup5\n        /* \"#utility.yul\":968:974   */\n      dup3\n        /* \"#utility.yul\":957:966   */\n      dup6\n        /* \"#utility.yul\":953:975   */\n      add\n        /* \"#utility.yul\":932:985   */\n      tag_71\n      jump\t// in\n    tag_92:\n        /* \"#utility.yul\":922:985   */\n      swap2\n      pop\n        /* \"#utility.yul\":878:995   */\n      pop\n        /* \"#utility.yul\":806:1002   */\n      swap3\n      swap2\n      pop\n      pop\n      jump\t// out\n        /* \"#utility.yul\":1008:1270   */\n    tag_28:\n      0x00\n        /* \"#utility.yul\":1116:1118   */\n      0x20\n        /* \"#utility.yul\":1104:1113   */\n      dup3\n        /* \"#utility.yul\":1095:1102   */\n      dup5\n        /* \"#utility.yul\":1091:1114   */\n      sub\n        /* \"#utility.yul\":1087:1119   */\n      slt\n        /* \"#utility.yul\":1084:1086   */\n      iszero\n      tag_94\n      jumpi\n        /* \"#utility.yul\":1132:1133   */\n      0x00\n        /* \"#utility.yul\":1129:1130   */\n      dup1\n        /* \"#utility.yul\":1122:1134   */\n      revert\n        /* \"#utility.yul\":1084:1086   */\n    tag_94:\n        /* \"#utility.yul\":1175:1176   */\n      0x00\n        /* \"#utility.yul\":1200:1253   */\n      tag_95\n        /* \"#utility.yul\":1245:1252   */\n      dup5\n        /* \"#utility.yul\":1236:1242   */\n      dup3\n        /* \"#utility.yul\":1225:1234   */\n      dup6\n        /* \"#utility.yul\":1221:1243   */\n      add\n        /* \"#utility.yul\":1200:1253   */\n      tag_79\n      jump\t// in\n    tag_95:\n        /* \"#utility.yul\":1190:1253   */\n      swap2\n      pop\n        /* \"#utility.yul\":1146:1263   */\n      pop\n        /* \"#utility.yul\":1074:1270   */\n      swap3\n      swap2\n      pop\n      pop\n      jump\t// out\n        /* \"#utility.yul\":1276:1560   */\n    tag_48:\n      0x00\n        /* \"#utility.yul\":1395:1397   */\n      0x20\n        /* \"#utility.yul\":1383:1392   */\n      dup3\n        /* \"#utility.yul\":1374:1381   */\n      dup5\n        /* \"#utility.yul\":1370:1393   */\n      sub\n        /* \"#utility.yul\":1366:1398   */\n      slt\n        /* \"#utility.yul\":1363:1365   */\n      iszero\n      tag_97\n      jumpi\n        /* \"#utility.yul\":1411:1412   */\n      0x00\n        /* \"#utility.yul\":1408:1409   */\n      dup1\n        /* \"#utility.yul\":1401:1413   */\n      revert\n        /* \"#utility.yul\":1363:1365   */\n    tag_97:\n        /* \"#utility.yul\":1454:1455   */\n      0x00\n        /* \"#utility.yul\":1479:1543   */\n      tag_98\n        /* \"#utility.yul\":1535:1542   */\n      dup5\n        /* \"#utility.yul\":1526:1532   */\n      dup3\n        /* \"#utility.yul\":1515:1524   */\n      dup6\n        /* \"#utility.yul\":1511:1533   */\n      add\n        /* \"#utility.yul\":1479:1543   */\n      tag_83\n      jump\t// in\n    tag_98:\n        /* \"#utility.yul\":1469:1543   */\n      swap2\n      pop\n        /* \"#utility.yul\":1425:1553   */\n      pop\n        /* \"#utility.yul\":1353:1560   */\n      swap3\n      swap2\n      pop\n      pop\n      jump\t// out\n        /* \"#utility.yul\":1566:2470   */\n    tag_60:\n      0x00\n      dup1\n      0x00\n      dup1\n      0x00\n        /* \"#utility.yul\":1750:1753   */\n      0xa0\n        /* \"#utility.yul\":1738:1747   */\n      dup7\n        /* \"#utility.yul\":1729:1736   */\n      dup9\n        /* \"#utility.yul\":1725:1748   */\n      sub\n        /* \"#utility.yul\":1721:1754   */\n      slt\n        /* \"#utility.yul\":1718:1720   */\n      iszero\n      tag_100\n      jumpi\n        /* \"#utility.yul\":1767:1768   */\n      0x00\n        /* \"#utility.yul\":1764:1765   */\n      dup1\n        /* \"#utility.yul\":1757:1769   */\n      revert\n        /* \"#utility.yul\":1718:1720   */\n    tag_100:\n        /* \"#utility.yul\":1810:1811   */\n      0x00\n        /* \"#utility.yul\":1835:1898   */\n      tag_101\n        /* \"#utility.yul\":1890:1897   */\n      dup9\n        /* \"#utility.yul\":1881:1887   */\n      dup3\n        /* \"#utility.yul\":1870:1879   */\n      dup10\n        /* \"#utility.yul\":1866:1888   */\n      add\n        /* \"#utility.yul\":1835:1898   */\n      tag_86\n      jump\t// in\n    tag_101:\n        /* \"#utility.yul\":1825:1898   */\n      swap6\n      pop\n        /* \"#utility.yul\":1781:1908   */\n      pop\n        /* \"#utility.yul\":1947:1949   */\n      0x20\n        /* \"#utility.yul\":1973:2036   */\n      tag_102\n        /* \"#utility.yul\":2028:2035   */\n      dup9\n        /* \"#utility.yul\":2019:2025   */\n      dup3\n        /* \"#utility.yul\":2008:2017   */\n      dup10\n        /* \"#utility.yul\":2004:2026   */\n      add\n        /* \"#utility.yul\":1973:2036   */\n      tag_75\n      jump\t// in\n    tag_102:\n        /* \"#utility.yul\":1963:2036   */\n      swap5\n      pop\n        /* \"#utility.yul\":1918:2046   */\n      pop\n        /* \"#utility.yul\":2085:2087   */\n      0x40\n        /* \"#utility.yul\":2111:2175   */\n      tag_103\n        /* \"#utility.yul\":2167:2174   */\n      dup9\n        /* \"#utility.yul\":2158:2164   */\n      dup3\n        /* \"#utility.yul\":2147:2156   */\n      dup10\n        /* \"#utility.yul\":2143:2165   */\n      add\n        /* \"#utility.yul\":2111:2175   */\n      tag_83\n      jump\t// in\n    tag_103:\n        /* \"#utility.yul\":2101:2175   */\n      swap4\n      pop\n        /* \"#utility.yul\":2056:2185   */\n      pop\n        /* \"#utility.yul\":2224:2226   */\n      0x60\n        /* \"#utility.yul\":2250:2314   */\n      tag_104\n        /* \"#utility.yul\":2306:2313   */\n      dup9\n        /* \"#utility.yul\":2297:2303   */\n      dup3\n        /* \"#utility.yul\":2286:2295   */\n      dup10\n        /* \"#utility.yul\":2282:2304   */\n      add\n        /* \"#utility.yul\":2250:2314   */\n      tag_83\n      jump\t// in\n    tag_104:\n        /* \"#utility.yul\":2240:2314   */\n      swap3\n      pop\n        /* \"#utility.yul\":2195:2324   */\n      pop\n        /* \"#utility.yul\":2363:2366   */\n      0x80\n        /* \"#utility.yul\":2390:2453   */\n      tag_105\n        /* \"#utility.yul\":2445:2452   */\n      dup9\n        /* \"#utility.yul\":2436:2442   */\n      dup3\n        /* \"#utility.yul\":2425:2434   */\n      dup10\n        /* \"#utility.yul\":2421:2443   */\n      add\n        /* \"#utility.yul\":2390:2453   */\n      tag_86\n      jump\t// in\n    tag_105:\n        /* \"#utility.yul\":2380:2453   */\n      swap2\n      pop\n        /* \"#utility.yul\":2334:2463   */\n      pop\n        /* \"#utility.yul\":1708:2470   */\n      swap3\n      swap6\n      pop\n      swap3\n      swap6\n      swap1\n      swap4\n      pop\n      jump\t// out\n        /* \"#utility.yul\":2476:2594   */\n    tag_106:\n        /* \"#utility.yul\":2563:2587   */\n      tag_108\n        /* \"#utility.yul\":2581:2586   */\n      dup2\n        /* \"#utility.yul\":2563:2587   */\n      tag_109\n      jump\t// in\n    tag_108:\n        /* \"#utility.yul\":2558:2561   */\n      dup3\n        /* \"#utility.yul\":2551:2588   */\n      mstore\n        /* \"#utility.yul\":2541:2594   */\n      pop\n      pop\n      jump\t// out\n        /* \"#utility.yul\":2600:2924   */\n    tag_110:\n      0x00\n        /* \"#utility.yul\":2763:2830   */\n      tag_112\n        /* \"#utility.yul\":2827:2829   */\n      0x1a\n        /* \"#utility.yul\":2822:2825   */\n      dup4\n        /* \"#utility.yul\":2763:2830   */\n      tag_113\n      jump\t// in\n    tag_112:\n        /* \"#utility.yul\":2756:2830   */\n      swap2\n      pop\n        /* \"#utility.yul\":2860:2888   */\n      0x446964206e6f742073656e6420656e6f756768206d6f6e657973000000000000\n        /* \"#utility.yul\":2856:2857   */\n      0x00\n        /* \"#utility.yul\":2851:2854   */\n      dup4\n        /* \"#utility.yul\":2847:2858   */\n      add\n        /* \"#utility.yul\":2840:2889   */\n      mstore\n        /* \"#utility.yul\":2915:2917   */\n      0x20\n        /* \"#utility.yul\":2910:2913   */\n      dup3\n        /* \"#utility.yul\":2906:2918   */\n      add\n        /* \"#utility.yul\":2899:2918   */\n      swap1\n      pop\n        /* \"#utility.yul\":2746:2924   */\n      swap2\n      swap1\n      pop\n      jump\t// out\n        /* \"#utility.yul\":2930:3048   */\n    tag_114:\n        /* \"#utility.yul\":3017:3041   */\n      tag_116\n        /* \"#utility.yul\":3035:3040   */\n      dup2\n        /* \"#utility.yul\":3017:3041   */\n      tag_117\n      jump\t// in\n    tag_116:\n        /* \"#utility.yul\":3012:3015   */\n      dup3\n        /* \"#utility.yul\":3005:3042   */\n      mstore\n        /* \"#utility.yul\":2995:3048   */\n      pop\n      pop\n      jump\t// out\n        /* \"#utility.yul\":3054:3276   */\n    tag_42:\n      0x00\n        /* \"#utility.yul\":3185:3187   */\n      0x20\n        /* \"#utility.yul\":3174:3183   */\n      dup3\n        /* \"#utility.yul\":3170:3188   */\n      add\n        /* \"#utility.yul\":3162:3188   */\n      swap1\n      pop\n        /* \"#utility.yul\":3198:3269   */\n      tag_119\n        /* \"#utility.yul\":3266:3267   */\n      0x00\n        /* \"#utility.yul\":3255:3264   */\n      dup4\n        /* \"#utility.yul\":3251:3268   */\n      add\n        /* \"#utility.yul\":3242:3248   */\n      dup5\n        /* \"#utility.yul\":3198:3269   */\n      tag_106\n      jump\t// in\n    tag_119:\n        /* \"#utility.yul\":3152:3276   */\n      swap3\n      swap2\n      pop\n      pop\n      jump\t// out\n        /* \"#utility.yul\":3282:3701   */\n    tag_66:\n      0x00\n        /* \"#utility.yul\":3486:3488   */\n      0x20\n        /* \"#utility.yul\":3475:3484   */\n      dup3\n        /* \"#utility.yul\":3471:3489   */\n      add\n        /* \"#utility.yul\":3463:3489   */\n      swap1\n      pop\n        /* \"#utility.yul\":3535:3544   */\n      dup2\n        /* \"#utility.yul\":3529:3533   */\n      dup2\n        /* \"#utility.yul\":3525:3545   */\n      sub\n        /* \"#utility.yul\":3521:3522   */\n      0x00\n        /* \"#utility.yul\":3510:3519   */\n      dup4\n        /* \"#utility.yul\":3506:3523   */\n      add\n        /* \"#utility.yul\":3499:3546   */\n      mstore\n        /* \"#utility.yul\":3563:3694   */\n      tag_121\n        /* \"#utility.yul\":3689:3693   */\n      dup2\n        /* \"#utility.yul\":3563:3694   */\n      tag_110\n      jump\t// in\n    tag_121:\n        /* \"#utility.yul\":3555:3694   */\n      swap1\n      pop\n        /* \"#utility.yul\":3453:3701   */\n      swap2\n      swap1\n      pop\n      jump\t// out\n        /* \"#utility.yul\":3707:3929   */\n    tag_14:\n      0x00\n        /* \"#utility.yul\":3838:3840   */\n      0x20\n        /* \"#utility.yul\":3827:3836   */\n      dup3\n        /* \"#utility.yul\":3823:3841   */\n      add\n        /* \"#utility.yul\":3815:3841   */\n      swap1\n      pop\n        /* \"#utility.yul\":3851:3922   */\n      tag_123\n        /* \"#utility.yul\":3919:3920   */\n      0x00\n        /* \"#utility.yul\":3908:3917   */\n      dup4\n        /* \"#utility.yul\":3904:3921   */\n      add\n        /* \"#utility.yul\":3895:3901   */\n      dup5\n        /* \"#utility.yul\":3851:3922   */\n      tag_114\n      jump\t// in\n    tag_123:\n        /* \"#utility.yul\":3805:3929   */\n      swap3\n      swap2\n      pop\n      pop\n      jump\t// out\n        /* \"#utility.yul\":3935:4104   */\n    tag_113:\n      0x00\n        /* \"#utility.yul\":4053:4059   */\n      dup3\n        /* \"#utility.yul\":4048:4051   */\n      dup3\n        /* \"#utility.yul\":4041:4060   */\n      mstore\n        /* \"#utility.yul\":4093:4097   */\n      0x20\n        /* \"#utility.yul\":4088:4091   */\n      dup3\n        /* \"#utility.yul\":4084:4098   */\n      add\n        /* \"#utility.yul\":4069:4098   */\n      swap1\n      pop\n        /* \"#utility.yul\":4031:4104   */\n      swap3\n      swap2\n      pop\n      pop\n      jump\t// out\n        /* \"#utility.yul\":4110:4295   */\n    tag_54:\n      0x00\n        /* \"#utility.yul\":4167:4187   */\n      tag_126\n        /* \"#utility.yul\":4185:4186   */\n      dup3\n        /* \"#utility.yul\":4167:4187   */\n      tag_117\n      jump\t// in\n    tag_126:\n        /* \"#utility.yul\":4162:4187   */\n      swap2\n      pop\n        /* \"#utility.yul\":4201:4221   */\n      tag_127\n        /* \"#utility.yul\":4219:4220   */\n      dup4\n        /* \"#utility.yul\":4201:4221   */\n      tag_117\n      jump\t// in\n    tag_127:\n        /* \"#utility.yul\":4196:4221   */\n      swap3\n      pop\n        /* \"#utility.yul\":4240:4241   */\n      dup3\n        /* \"#utility.yul\":4230:4232   */\n      tag_128\n      jumpi\n        /* \"#utility.yul\":4245:4263   */\n      tag_129\n      tag_130\n      jump\t// in\n    tag_129:\n        /* \"#utility.yul\":4230:4232   */\n    tag_128:\n        /* \"#utility.yul\":4287:4288   */\n      dup3\n        /* \"#utility.yul\":4284:4285   */\n      dup3\n        /* \"#utility.yul\":4280:4289   */\n      div\n        /* \"#utility.yul\":4275:4289   */\n      swap1\n      pop\n        /* \"#utility.yul\":4152:4295   */\n      swap3\n      swap2\n      pop\n      pop\n      jump\t// out\n        /* \"#utility.yul\":4301:5292   */\n    tag_62:\n      0x00\n        /* \"#utility.yul\":4363:4382   */\n      tag_132\n        /* \"#utility.yul\":4380:4381   */\n      dup3\n        /* \"#utility.yul\":4363:4382   */\n      tag_133\n      jump\t// in\n    tag_132:\n        /* \"#utility.yul\":4358:4382   */\n      swap2\n      pop\n        /* \"#utility.yul\":4396:4415   */\n      tag_134\n        /* \"#utility.yul\":4413:4414   */\n      dup4\n        /* \"#utility.yul\":4396:4415   */\n      tag_133\n      jump\t// in\n    tag_134:\n        /* \"#utility.yul\":4391:4415   */\n      swap3\n      pop\n        /* \"#utility.yul\":4597:4598   */\n      dup3\n        /* \"#utility.yul\":4529:4595   */\n      0x7fffffffffffffffffffffffffffffffffffffffffffffffffffffffffffffff\n        /* \"#utility.yul\":4525:4599   */\n      div\n        /* \"#utility.yul\":4522:4523   */\n      dup3\n        /* \"#utility.yul\":4519:4600   */\n      gt\n        /* \"#utility.yul\":4514:4515   */\n      0x00\n        /* \"#utility.yul\":4511:4512   */\n      dup5\n        /* \"#utility.yul\":4507:4516   */\n      sgt\n        /* \"#utility.yul\":4503:4504   */\n      0x00\n        /* \"#utility.yul\":4500:4501   */\n      dup5\n        /* \"#utility.yul\":4496:4505   */\n      sgt\n        /* \"#utility.yul\":4492:4517   */\n      and\n        /* \"#utility.yul\":4488:4601   */\n      and\n        /* \"#utility.yul\":4485:4487   */\n      iszero\n      tag_135\n      jumpi\n        /* \"#utility.yul\":4604:4622   */\n      tag_136\n      tag_137\n      jump\t// in\n    tag_136:\n        /* \"#utility.yul\":4485:4487   */\n    tag_135:\n        /* \"#utility.yul\":4808:4809   */\n      dup2\n        /* \"#utility.yul\":4740:4806   */\n      0x8000000000000000000000000000000000000000000000000000000000000000\n        /* \"#utility.yul\":4735:4810   */\n      sdiv\n        /* \"#utility.yul\":4732:4733   */\n      dup4\n        /* \"#utility.yul\":4728:4811   */\n      slt\n        /* \"#utility.yul\":4723:4724   */\n      0x00\n        /* \"#utility.yul\":4720:4721   */\n      dup5\n        /* \"#utility.yul\":4716:4725   */\n      slt\n        /* \"#utility.yul\":4712:4713   */\n      0x00\n        /* \"#utility.yul\":4709:4710   */\n      dup5\n        /* \"#utility.yul\":4705:4714   */\n      sgt\n        /* \"#utility.yul\":4701:4726   */\n      and\n        /* \"#utility.yul\":4697:4812   */\n      and\n        /* \"#utility.yul\":4694:4696   */\n      iszero\n      tag_138\n      jumpi\n        /* \"#utility.yul\":4815:4833   */\n      tag_139\n      tag_137\n      jump\t// in\n    tag_139:\n        /* \"#utility.yul\":4694:4696   */\n    tag_138:\n        /* \"#utility.yul\":5019:5020   */\n      dup3\n        /* \"#utility.yul\":4951:5017   */\n      0x8000000000000000000000000000000000000000000000000000000000000000\n        /* \"#utility.yul\":4946:5021   */\n      sdiv\n        /* \"#utility.yul\":4943:4944   */\n      dup3\n        /* \"#utility.yul\":4939:5022   */\n      slt\n        /* \"#utility.yul\":4934:4935   */\n      0x00\n        /* \"#utility.yul\":4931:4932   */\n      dup5\n        /* \"#utility.yul\":4927:4936   */\n      sgt\n        /* \"#utility.yul\":4923:4924   */\n      0x00\n        /* \"#utility.yul\":4920:4921   */\n      dup5\n        /* \"#utility.yul\":4916:4925   */\n      slt\n        /* \"#utility.yul\":4912:4937   */\n      and\n        /* \"#utility.yul\":4908:5023   */\n      and\n        /* \"#utility.yul\":4905:4907   */\n      iszero\n      tag_140\n      jumpi\n        /* \"#utility.yul\":5026:5044   */\n      tag_141\n      tag_137\n      jump\t// in\n    tag_141:\n        /* \"#utility.yul\":4905:4907   */\n    tag_140:\n        /* \"#utility.yul\":5229:5230   */\n      dup3\n        /* \"#utility.yul\":5161:5227   */\n      0x7fffffffffffffffffffffffffffffffffffffffffffffffffffffffffffffff\n        /* \"#utility.yul\":5156:5231   */\n      sdiv\n        /* \"#utility.yul\":5153:5154   */\n      dup3\n        /* \"#utility.yul\":5149:5232   */\n      slt\n        /* \"#utility.yul\":5144:5145   */\n      0x00\n        /* \"#utility.yul\":5141:5142   */\n      dup5\n        /* \"#utility.yul\":5137:5146   */\n      slt\n        /* \"#utility.yul\":5133:5134   */\n      0x00\n        /* \"#utility.yul\":5130:5131   */\n      dup5\n        /* \"#utility.yul\":5126:5135   */\n      slt\n        /* \"#utility.yul\":5122:5147   */\n      and\n        /* \"#utility.yul\":5118:5233   */\n      and\n        /* \"#utility.yul\":5115:5117   */\n      iszero\n      tag_142\n      jumpi\n        /* \"#utility.yul\":5236:5254   */\n      tag_143\n      tag_137\n      jump\t// in\n    tag_143:\n        /* \"#utility.yul\":5115:5117   */\n    tag_142:\n        /* \"#utility.yul\":5284:5285   */\n      dup3\n        /* \"#utility.yul\":5281:5282   */\n      dup3\n        /* \"#utility.yul\":5277:5286   */\n      mul\n        /* \"#utility.yul\":5266:5286   */\n      swap1\n      pop\n        /* \"#utility.yul\":4348:5292   */\n      swap3\n      swap2\n      pop\n      pop\n      jump\t// out\n        /* \"#utility.yul\":5298:5646   */\n    tag_52:\n      0x00\n        /* \"#utility.yul\":5361:5381   */\n      tag_145\n        /* \"#utility.yul\":5379:5380   */\n      dup3\n        /* \"#utility.yul\":5361:5381   */\n      tag_117\n      jump\t// in\n    tag_145:\n        /* \"#utility.yul\":5356:5381   */\n      swap2\n      pop\n        /* \"#utility.yul\":5395:5415   */\n      tag_146\n        /* \"#utility.yul\":5413:5414   */\n      dup4\n        /* \"#utility.yul\":5395:5415   */\n      tag_117\n      jump\t// in\n    tag_146:\n        /* \"#utility.yul\":5390:5415   */\n      swap3\n      pop\n        /* \"#utility.yul\":5583:5584   */\n      dup2\n        /* \"#utility.yul\":5515:5581   */\n      0xffffffffffffffffffffffffffffffffffffffffffffffffffffffffffffffff\n        /* \"#utility.yul\":5511:5585   */\n      div\n        /* \"#utility.yul\":5508:5509   */\n      dup4\n        /* \"#utility.yul\":5505:5586   */\n      gt\n        /* \"#utility.yul\":5500:5501   */\n      dup3\n        /* \"#utility.yul\":5493:5502   */\n      iszero\n        /* \"#utility.yul\":5486:5503   */\n      iszero\n        /* \"#utility.yul\":5482:5587   */\n      and\n        /* \"#utility.yul\":5479:5481   */\n      iszero\n      tag_147\n      jumpi\n        /* \"#utility.yul\":5590:5608   */\n      tag_148\n      tag_137\n      jump\t// in\n    tag_148:\n        /* \"#utility.yul\":5479:5481   */\n    tag_147:\n        /* \"#utility.yul\":5638:5639   */\n      dup3\n        /* \"#utility.yul\":5635:5636   */\n      dup3\n        /* \"#utility.yul\":5631:5640   */\n      mul\n        /* \"#utility.yul\":5620:5640   */\n      swap1\n      pop\n        /* \"#utility.yul\":5346:5646   */\n      swap3\n      swap2\n      pop\n      pop\n      jump\t// out\n        /* \"#utility.yul\":5652:5748   */\n    tag_109:\n      0x00\n        /* \"#utility.yul\":5718:5742   */\n      tag_150\n        /* \"#utility.yul\":5736:5741   */\n      dup3\n        /* \"#utility.yul\":5718:5742   */\n      tag_151\n      jump\t// in\n    tag_150:\n        /* \"#utility.yul\":5707:5742   */\n      swap1\n      pop\n        /* \"#utility.yul\":5697:5748   */\n      swap2\n      swap1\n      pop\n      jump\t// out\n        /* \"#utility.yul\":5754:5830   */\n    tag_133:\n      0x00\n        /* \"#utility.yul\":5819:5824   */\n      dup2\n        /* \"#utility.yul\":5808:5824   */\n      swap1\n      pop\n        /* \"#utility.yul\":5798:5830   */\n      swap2\n      swap1\n      pop\n      jump\t// out\n        /* \"#utility.yul\":5836:5962   */\n    tag_151:\n      0x00\n        /* \"#utility.yul\":5913:5955   */\n      0xffffffffffffffffffffffffffffffffffffffff\n        /* \"#utility.yul\":5906:5911   */\n      dup3\n        /* \"#utility.yul\":5902:5956   */\n      and\n        /* \"#utility.yul\":5891:5956   */\n      swap1\n      pop\n        /* \"#utility.yul\":5881:5962   */\n      swap2\n      swap1\n      pop\n      jump\t// out\n        /* \"#utility.yul\":5968:6045   */\n    tag_117:\n      0x00\n        /* \"#utility.yul\":6034:6039   */\n      dup2\n        /* \"#utility.yul\":6023:6039   */\n      swap1\n      pop\n        /* \"#utility.yul\":6013:6045   */\n      swap2\n      swap1\n      pop\n      jump\t// out\n        /* \"#utility.yul\":6051:6156   */\n    tag_155:\n      0x00\n        /* \"#utility.yul\":6127:6149   */\n      0xffffffffffffffffffff\n        /* \"#utility.yul\":6120:6125   */\n      dup3\n        /* \"#utility.yul\":6116:6150   */\n      and\n        /* \"#utility.yul\":6105:6150   */\n      swap1\n      pop\n        /* \"#utility.yul\":6095:6156   */\n      swap2\n      swap1\n      pop\n      jump\t// out\n        /* \"#utility.yul\":6162:6342   */\n    tag_137:\n        /* \"#utility.yul\":6210:6287   */\n      0x4e487b7100000000000000000000000000000000000000000000000000000000\n        /* \"#utility.yul\":6207:6208   */\n      0x00\n        /* \"#utility.yul\":6200:6288   */\n      mstore\n        /* \"#utility.yul\":6307:6311   */\n      0x11\n        /* \"#utility.yul\":6304:6305   */\n      0x04\n        /* \"#utility.yul\":6297:6312   */\n      mstore\n        /* \"#utility.yul\":6331:6335   */\n      0x24\n        /* \"#utility.yul\":6328:6329   */\n      0x00\n        /* \"#utility.yul\":6321:6336   */\n      revert\n        /* \"#utility.yul\":6348:6528   */\n    tag_130:\n        /* \"#utility.yul\":6396:6473   */\n      0x4e487b7100000000000000000000000000000000000000000000000000000000\n        /* \"#utility.yul\":6393:6394   */\n      0x00\n        /* \"#utility.yul\":6386:6474   */\n      mstore\n        /* \"#utility.yul\":6493:6497   */\n      0x12\n        /* \"#utility.yul\":6490:6491   */\n      0x04\n        /* \"#utility.yul\":6483:6498   */\n      mstore\n        /* \"#utility.yul\":6517:6521   */\n      0x24\n        /* \"#utility.yul\":6514:6515   */\n      0x00\n        /* \"#utility.yul\":6507:6522   */\n      revert\n        /* \"#utility.yul\":6534:6656   */\n    tag_74:\n        /* \"#utility.yul\":6607:6631   */\n      tag_160\n        /* \"#utility.yul\":6625:6630   */\n      dup2\n        /* \"#utility.yul\":6607:6631   */\n      tag_109\n      jump\t// in\n    tag_160:\n        /* \"#utility.yul\":6600:6605   */\n      dup2\n        /* \"#utility.yul\":6597:6632   */\n      eq\n        /* \"#utility.yul\":6587:6589   */\n      tag_161\n      jumpi\n        /* \"#utility.yul\":6646:6647   */\n      0x00\n        /* \"#utility.yul\":6643:6644   */\n      dup1\n        /* \"#utility.yul\":6636:6648   */\n      revert\n        /* \"#utility.yul\":6587:6589   */\n    tag_161:\n        /* \"#utility.yul\":6577:6656   */\n      pop\n      jump\t// out\n        /* \"#utility.yul\":6662:6782   */\n    tag_78:\n        /* \"#utility.yul\":6734:6757   */\n      tag_163\n        /* \"#utility.yul\":6751:6756   */\n      dup2\n        /* \"#utility.yul\":6734:6757   */\n      tag_133\n      jump\t// in\n    tag_163:\n        /* \"#utility.yul\":6727:6732   */\n      dup2\n        /* \"#utility.yul\":6724:6758   */\n      eq\n        /* \"#utility.yul\":6714:6716   */\n      tag_164\n      jumpi\n        /* \"#utility.yul\":6772:6773   */\n      0x00\n        /* \"#utility.yul\":6769:6770   */\n      dup1\n        /* \"#utility.yul\":6762:6774   */\n      revert\n        /* \"#utility.yul\":6714:6716   */\n    tag_164:\n        /* \"#utility.yul\":6704:6782   */\n      pop\n      jump\t// out\n        /* \"#utility.yul\":6788:6910   */\n    tag_82:\n        /* \"#utility.yul\":6861:6885   */\n      tag_166\n        /* \"#utility.yul\":6879:6884   */\n      dup2\n        /* \"#utility.yul\":6861:6885   */\n      tag_117\n      jump\t// in\n    tag_166:\n        /* \"#utility.yul\":6854:6859   */\n      dup2\n        /* \"#utility.yul\":6851:6886   */\n      eq\n        /* \"#utility.yul\":6841:6843   */\n      tag_167\n      jumpi\n        /* \"#utility.yul\":6900:6901   */\n      0x00\n        /* \"#utility.yul\":6897:6898   */\n      dup1\n        /* \"#utility.yul\":6890:6902   */\n      revert\n        /* \"#utility.yul\":6841:6843   */\n    tag_167:\n        /* \"#utility.yul\":6831:6910   */\n      pop\n      jump\t// out\n        /* \"#utility.yul\":6916:7036   */\n    tag_89:\n        /* \"#utility.yul\":6988:7011   */\n      tag_169\n        /* \"#utility.yul\":7005:7010   */\n      dup2\n        /* \"#utility.yul\":6988:7011   */\n      tag_155\n      jump\t// in\n    tag_169:\n        /* \"#utility.yul\":6981:6986   */\n      dup2\n        /* \"#utility.yul\":6978:7012   */\n      eq\n        /* \"#utility.yul\":6968:6970   */\n      tag_170\n      jumpi\n        /* \"#utility.yul\":7026:7027   */\n      0x00\n        /* \"#utility.yul\":7023:7024   */\n      dup1\n        /* \"#utility.yul\":7016:7028   */\n      revert\n        /* \"#utility.yul\":6968:6970   */\n    tag_170:\n        /* \"#utility.yul\":6958:7036   */\n      pop\n      jump\t// out\n\n    auxdata: 0xa2646970667358221220d7305c4202c21b6aedbf59e1162d3fa04be24cb6b2326bcc42cde0a3b7298c9b64736f6c63430008000033\n}\n",
				"bytecode": {
					"linkReferences": {},
					"object": "60806040526802b5e3af16b188000060005534801561001d57600080fd5b506109a68061002d6000396000f3fe6080604052600436106100705760003560e01c80636e5b6b281161004e5780636e5b6b281461010857806398d5fdca14610145578063b60d428814610170578063dc0d3dff1461017a57610070565b8063098de820146100755780630d8e6e2c146100a05780633e47d6f3146100cb575b600080fd5b34801561008157600080fd5b5061008a6101b7565b604051610097919061068c565b60405180910390f35b3480156100ac57600080fd5b506100b56101bd565b6040516100c2919061068c565b60405180910390f35b3480156100d757600080fd5b506100f260048036038101906100ed9190610501565b61025b565b6040516100ff919061068c565b60405180910390f35b34801561011457600080fd5b5061012f600480360381019061012a919061052a565b610273565b60405161013c919061068c565b60405180910390f35b34801561015157600080fd5b5061015a6102ad565b604051610167919061068c565b60405180910390f35b610178610365565b005b34801561018657600080fd5b506101a1600480360381019061019c919061052a565b610459565b6040516101ae9190610651565b60405180910390f35b60005481565b600080735f4ec3df9cbd43714fe2740f5e3616155c5b841990508073ffffffffffffffffffffffffffffffffffffffff166354fd4d506040518163ffffffff1660e01b815260040160206040518083038186803b15801561021d57600080fd5b505afa158015610231573d6000803e3d6000fd5b505050506040513d601f19601f820116820180604052508101906102559190610553565b91505090565b60026020528060005260406000206000915090505481565b60008061027e6102ad565b90506000670de0b6b3a764000084836102979190610800565b6102a191906106b8565b90508092505050919050565b600080735f4ec3df9cbd43714fe2740f5e3616155c5b8419905060008173ffffffffffffffffffffffffffffffffffffffff1663feaf968c6040518163ffffffff1660e01b815260040160a06040518083038186803b15801561030f57600080fd5b505afa158015610323573d6000803e3d6000fd5b505050506040513d601f19601f82011682018060405250810190610347919061057c565b5050509150506402540be4008161035e91906106e9565b9250505090565b670de0b6b3a76400003410156103b0576040517f08c379a00000000000000000000000000000000000000000000000000000000081526004016103a79061066c565b60405180910390fd5b6001339080600181540180825580915050600190039060005260206000200160009091909190916101000a81548173ffffffffffffffffffffffffffffffffffffffff021916908373ffffffffffffffffffffffffffffffffffffffff16021790555034600260003373ffffffffffffffffffffffffffffffffffffffff1673ffffffffffffffffffffffffffffffffffffffff16815260200190815260200160002081905550565b6001818154811061046957600080fd5b906000526020600020016000915054906101000a900473ffffffffffffffffffffffffffffffffffffffff1681565b6000813590506104a781610914565b92915050565b6000815190506104bc8161092b565b92915050565b6000813590506104d181610942565b92915050565b6000815190506104e681610942565b92915050565b6000815190506104fb81610959565b92915050565b60006020828403121561051357600080fd5b600061052184828501610498565b91505092915050565b60006020828403121561053c57600080fd5b600061054a848285016104c2565b91505092915050565b60006020828403121561056557600080fd5b6000610573848285016104d7565b91505092915050565b600080600080600060a0868803121561059457600080fd5b60006105a2888289016104ec565b95505060206105b3888289016104ad565b94505060406105c4888289016104d7565b93505060606105d5888289016104d7565b92505060806105e6888289016104ec565b9150509295509295909350565b6105fc8161085a565b82525050565b600061060f601a836106a7565b91507f446964206e6f742073656e6420656e6f756768206d6f6e6579730000000000006000830152602082019050919050565b61064b81610896565b82525050565b600060208201905061066660008301846105f3565b92915050565b6000602082019050818103600083015261068581610602565b9050919050565b60006020820190506106a16000830184610642565b92915050565b600082825260208201905092915050565b60006106c382610896565b91506106ce83610896565b9250826106de576106dd6108e5565b5b828204905092915050565b60006106f48261086c565b91506106ff8361086c565b9250827f7fffffffffffffffffffffffffffffffffffffffffffffffffffffffffffffff048211600084136000841316161561073e5761073d6108b6565b5b817f8000000000000000000000000000000000000000000000000000000000000000058312600084126000841316161561077b5761077a6108b6565b5b827f800000000000000000000000000000000000000000000000000000000000000005821260008413600084121616156107b8576107b76108b6565b5b827f7fffffffffffffffffffffffffffffffffffffffffffffffffffffffffffffff05821260008412600084121616156107f5576107f46108b6565b5b828202905092915050565b600061080b82610896565b915061081683610896565b9250817fffffffffffffffffffffffffffffffffffffffffffffffffffffffffffffffff048311821515161561084f5761084e6108b6565b5b828202905092915050565b600061086582610876565b9050919050565b6000819050919050565b600073ffffffffffffffffffffffffffffffffffffffff82169050919050565b6000819050919050565b600069ffffffffffffffffffff82169050919050565b7f4e487b7100000000000000000000000000000000000000000000000000000000600052601160045260246000fd5b7f4e487b7100000000000000000000000000000000000000000000000000000000600052601260045260246000fd5b61091d8161085a565b811461092857600080fd5b50565b6109348161086c565b811461093f57600080fd5b50565b61094b81610896565b811461095657600080fd5b50565b610962816108a0565b811461096d57600080fd5b5056fea2646970667358221220d7305c4202c21b6aedbf59e1162d3fa04be24cb6b2326bcc42cde0a3b7298c9b64736f6c63430008000033",
					"opcodes": "PUSH1 0x80 PUSH1 0x40 MSTORE PUSH9 0x2B5E3AF16B1880000 PUSH1 0x0 SSTORE CALLVALUE DUP1 ISZERO PUSH2 0x1D JUMPI PUSH1 0x0 DUP1 REVERT JUMPDEST POP PUSH2 0x9A6 DUP1 PUSH2 0x2D PUSH1 0x0 CODECOPY PUSH1 0x0 RETURN INVALID PUSH1 0x80 PUSH1 0x40 MSTORE PUSH1 0x4 CALLDATASIZE LT PUSH2 0x70 JUMPI PUSH1 0x0 CALLDATALOAD PUSH1 0xE0 SHR DUP1 PUSH4 0x6E5B6B28 GT PUSH2 0x4E JUMPI DUP1 PUSH4 0x6E5B6B28 EQ PUSH2 0x108 JUMPI DUP1 PUSH4 0x98D5FDCA EQ PUSH2 0x145 JUMPI DUP1 PUSH4 0xB60D4288 EQ PUSH2 0x170 JUMPI DUP1 PUSH4 0xDC0D3DFF EQ PUSH2 0x17A JUMPI PUSH2 0x70 JUMP JUMPDEST DUP1 PUSH4 0x98DE820 EQ PUSH2 0x75 JUMPI DUP1 PUSH4 0xD8E6E2C EQ PUSH2 0xA0 JUMPI DUP1 PUSH4 0x3E47D6F3 EQ PUSH2 0xCB JUMPI JUMPDEST PUSH1 0x0 DUP1 REVERT JUMPDEST CALLVALUE DUP1 ISZERO PUSH2 0x81 JUMPI PUSH1 0x0 DUP1 REVERT JUMPDEST POP PUSH2 0x8A PUSH2 0x1B7 JUMP JUMPDEST PUSH1 0x40 MLOAD PUSH2 0x97 SWAP2 SWAP1 PUSH2 0x68C JUMP JUMPDEST PUSH1 0x40 MLOAD DUP1 SWAP2 SUB SWAP1 RETURN JUMPDEST CALLVALUE DUP1 ISZERO PUSH2 0xAC JUMPI PUSH1 0x0 DUP1 REVERT JUMPDEST POP PUSH2 0xB5 PUSH2 0x1BD JUMP JUMPDEST PUSH1 0x40 MLOAD PUSH2 0xC2 SWAP2 SWAP1 PUSH2 0x68C JUMP JUMPDEST PUSH1 0x40 MLOAD DUP1 SWAP2 SUB SWAP1 RETURN JUMPDEST CALLVALUE DUP1 ISZERO PUSH2 0xD7 JUMPI PUSH1 0x0 DUP1 REVERT JUMPDEST POP PUSH2 0xF2 PUSH1 0x4 DUP1 CALLDATASIZE SUB DUP2 ADD SWAP1 PUSH2 0xED SWAP2 SWAP1 PUSH2 0x501 JUMP JUMPDEST PUSH2 0x25B JUMP JUMPDEST PUSH1 0x40 MLOAD PUSH2 0xFF SWAP2 SWAP1 PUSH2 0x68C JUMP JUMPDEST PUSH1 0x40 MLOAD DUP1 SWAP2 SUB SWAP1 RETURN JUMPDEST CALLVALUE DUP1 ISZERO PUSH2 0x114 JUMPI PUSH1 0x0 DUP1 REVERT JUMPDEST POP PUSH2 0x12F PUSH1 0x4 DUP1 CALLDATASIZE SUB DUP2 ADD SWAP1 PUSH2 0x12A SWAP2 SWAP1 PUSH2 0x52A JUMP JUMPDEST PUSH2 0x273 JUMP JUMPDEST PUSH1 0x40 MLOAD PUSH2 0x13C SWAP2 SWAP1 PUSH2 0x68C JUMP JUMPDEST PUSH1 0x40 MLOAD DUP1 SWAP2 SUB SWAP1 RETURN JUMPDEST CALLVALUE DUP1 ISZERO PUSH2 0x151 JUMPI PUSH1 0x0 DUP1 REVERT JUMPDEST POP PUSH2 0x15A PUSH2 0x2AD JUMP JUMPDEST PUSH1 0x40 MLOAD PUSH2 0x167 SWAP2 SWAP1 PUSH2 0x68C JUMP JUMPDEST PUSH1 0x40 MLOAD DUP1 SWAP2 SUB SWAP1 RETURN JUMPDEST PUSH2 0x178 PUSH2 0x365 JUMP JUMPDEST STOP JUMPDEST CALLVALUE DUP1 ISZERO PUSH2 0x186 JUMPI PUSH1 0x0 DUP1 REVERT JUMPDEST POP PUSH2 0x1A1 PUSH1 0x4 DUP1 CALLDATASIZE SUB DUP2 ADD SWAP1 PUSH2 0x19C SWAP2 SWAP1 PUSH2 0x52A JUMP JUMPDEST PUSH2 0x459 JUMP JUMPDEST PUSH1 0x40 MLOAD PUSH2 0x1AE SWAP2 SWAP1 PUSH2 0x651 JUMP JUMPDEST PUSH1 0x40 MLOAD DUP1 SWAP2 SUB SWAP1 RETURN JUMPDEST PUSH1 0x0 SLOAD DUP2 JUMP JUMPDEST PUSH1 0x0 DUP1 PUSH20 0x5F4EC3DF9CBD43714FE2740F5E3616155C5B8419 SWAP1 POP DUP1 PUSH20 0xFFFFFFFFFFFFFFFFFFFFFFFFFFFFFFFFFFFFFFFF AND PUSH4 0x54FD4D50 PUSH1 0x40 MLOAD DUP2 PUSH4 0xFFFFFFFF AND PUSH1 0xE0 SHL DUP2 MSTORE PUSH1 0x4 ADD PUSH1 0x20 PUSH1 0x40 MLOAD DUP1 DUP4 SUB DUP2 DUP7 DUP1 EXTCODESIZE ISZERO DUP1 ISZERO PUSH2 0x21D JUMPI PUSH1 0x0 DUP1 REVERT JUMPDEST POP GAS STATICCALL ISZERO DUP1 ISZERO PUSH2 0x231 JUMPI RETURNDATASIZE PUSH1 0x0 DUP1 RETURNDATACOPY RETURNDATASIZE PUSH1 0x0 REVERT JUMPDEST POP POP POP POP PUSH1 0x40 MLOAD RETURNDATASIZE PUSH1 0x1F NOT PUSH1 0x1F DUP3 ADD AND DUP3 ADD DUP1 PUSH1 0x40 MSTORE POP DUP2 ADD SWAP1 PUSH2 0x255 SWAP2 SWAP1 PUSH2 0x553 JUMP JUMPDEST SWAP2 POP POP SWAP1 JUMP JUMPDEST PUSH1 0x2 PUSH1 0x20 MSTORE DUP1 PUSH1 0x0 MSTORE PUSH1 0x40 PUSH1 0x0 KECCAK256 PUSH1 0x0 SWAP2 POP SWAP1 POP SLOAD DUP2 JUMP JUMPDEST PUSH1 0x0 DUP1 PUSH2 0x27E PUSH2 0x2AD JUMP JUMPDEST SWAP1 POP PUSH1 0x0 PUSH8 0xDE0B6B3A7640000 DUP5 DUP4 PUSH2 0x297 SWAP2 SWAP1 PUSH2 0x800 JUMP JUMPDEST PUSH2 0x2A1 SWAP2 SWAP1 PUSH2 0x6B8 JUMP JUMPDEST SWAP1 POP DUP1 SWAP3 POP POP POP SWAP2 SWAP1 POP JUMP JUMPDEST PUSH1 0x0 DUP1 PUSH20 0x5F4EC3DF9CBD43714FE2740F5E3616155C5B8419 SWAP1 POP PUSH1 0x0 DUP2 PUSH20 0xFFFFFFFFFFFFFFFFFFFFFFFFFFFFFFFFFFFFFFFF AND PUSH4 0xFEAF968C PUSH1 0x40 MLOAD DUP2 PUSH4 0xFFFFFFFF AND PUSH1 0xE0 SHL DUP2 MSTORE PUSH1 0x4 ADD PUSH1 0xA0 PUSH1 0x40 MLOAD DUP1 DUP4 SUB DUP2 DUP7 DUP1 EXTCODESIZE ISZERO DUP1 ISZERO PUSH2 0x30F JUMPI PUSH1 0x0 DUP1 REVERT JUMPDEST POP GAS STATICCALL ISZERO DUP1 ISZERO PUSH2 0x323 JUMPI RETURNDATASIZE PUSH1 0x0 DUP1 RETURNDATACOPY RETURNDATASIZE PUSH1 0x0 REVERT JUMPDEST POP POP POP POP PUSH1 0x40 MLOAD RETURNDATASIZE PUSH1 0x1F NOT PUSH1 0x1F DUP3 ADD AND DUP3 ADD DUP1 PUSH1 0x40 MSTORE POP DUP2 ADD SWAP1 PUSH2 0x347 SWAP2 SWAP1 PUSH2 0x57C JUMP JUMPDEST POP POP POP SWAP2 POP POP PUSH5 0x2540BE400 DUP2 PUSH2 0x35E SWAP2 SWAP1 PUSH2 0x6E9 JUMP JUMPDEST SWAP3 POP POP POP SWAP1 JUMP JUMPDEST PUSH8 0xDE0B6B3A7640000 CALLVALUE LT ISZERO PUSH2 0x3B0 JUMPI PUSH1 0x40 MLOAD PUSH32 0x8C379A000000000000000000000000000000000000000000000000000000000 DUP2 MSTORE PUSH1 0x4 ADD PUSH2 0x3A7 SWAP1 PUSH2 0x66C JUMP JUMPDEST PUSH1 0x40 MLOAD DUP1 SWAP2 SUB SWAP1 REVERT JUMPDEST PUSH1 0x1 CALLER SWAP1 DUP1 PUSH1 0x1 DUP2 SLOAD ADD DUP1 DUP3 SSTORE DUP1 SWAP2 POP POP PUSH1 0x1 SWAP1 SUB SWAP1 PUSH1 0x0 MSTORE PUSH1 0x20 PUSH1 0x0 KECCAK256 ADD PUSH1 0x0 SWAP1 SWAP2 SWAP1 SWAP2 SWAP1 SWAP2 PUSH2 0x100 EXP DUP2 SLOAD DUP2 PUSH20 0xFFFFFFFFFFFFFFFFFFFFFFFFFFFFFFFFFFFFFFFF MUL NOT AND SWAP1 DUP4 PUSH20 0xFFFFFFFFFFFFFFFFFFFFFFFFFFFFFFFFFFFFFFFF AND MUL OR SWAP1 SSTORE POP CALLVALUE PUSH1 0x2 PUSH1 0x0 CALLER PUSH20 0xFFFFFFFFFFFFFFFFFFFFFFFFFFFFFFFFFFFFFFFF AND PUSH20 0xFFFFFFFFFFFFFFFFFFFFFFFFFFFFFFFFFFFFFFFF AND DUP2 MSTORE PUSH1 0x20 ADD SWAP1 DUP2 MSTORE PUSH1 0x20 ADD PUSH1 0x0 KECCAK256 DUP2 SWAP1 SSTORE POP JUMP JUMPDEST PUSH1 0x1 DUP2 DUP2 SLOAD DUP2 LT PUSH2 0x469 JUMPI PUSH1 0x0 DUP1 REVERT JUMPDEST SWAP1 PUSH1 0x0 MSTORE PUSH1 0x20 PUSH1 0x0 KECCAK256 ADD PUSH1 0x0 SWAP2 POP SLOAD SWAP1 PUSH2 0x100 EXP SWAP1 DIV PUSH20 0xFFFFFFFFFFFFFFFFFFFFFFFFFFFFFFFFFFFFFFFF AND DUP2 JUMP JUMPDEST PUSH1 0x0 DUP2 CALLDATALOAD SWAP1 POP PUSH2 0x4A7 DUP2 PUSH2 0x914 JUMP JUMPDEST SWAP3 SWAP2 POP POP JUMP JUMPDEST PUSH1 0x0 DUP2 MLOAD SWAP1 POP PUSH2 0x4BC DUP2 PUSH2 0x92B JUMP JUMPDEST SWAP3 SWAP2 POP POP JUMP JUMPDEST PUSH1 0x0 DUP2 CALLDATALOAD SWAP1 POP PUSH2 0x4D1 DUP2 PUSH2 0x942 JUMP JUMPDEST SWAP3 SWAP2 POP POP JUMP JUMPDEST PUSH1 0x0 DUP2 MLOAD SWAP1 POP PUSH2 0x4E6 DUP2 PUSH2 0x942 JUMP JUMPDEST SWAP3 SWAP2 POP POP JUMP JUMPDEST PUSH1 0x0 DUP2 MLOAD SWAP1 POP PUSH2 0x4FB DUP2 PUSH2 0x959 JUMP JUMPDEST SWAP3 SWAP2 POP POP JUMP JUMPDEST PUSH1 0x0 PUSH1 0x20 DUP3 DUP5 SUB SLT ISZERO PUSH2 0x513 JUMPI PUSH1 0x0 DUP1 REVERT JUMPDEST PUSH1 0x0 PUSH2 0x521 DUP5 DUP3 DUP6 ADD PUSH2 0x498 JUMP JUMPDEST SWAP2 POP POP SWAP3 SWAP2 POP POP JUMP JUMPDEST PUSH1 0x0 PUSH1 0x20 DUP3 DUP5 SUB SLT ISZERO PUSH2 0x53C JUMPI PUSH1 0x0 DUP1 REVERT JUMPDEST PUSH1 0x0 PUSH2 0x54A DUP5 DUP3 DUP6 ADD PUSH2 0x4C2 JUMP JUMPDEST SWAP2 POP POP SWAP3 SWAP2 POP POP JUMP JUMPDEST PUSH1 0x0 PUSH1 0x20 DUP3 DUP5 SUB SLT ISZERO PUSH2 0x565 JUMPI PUSH1 0x0 DUP1 REVERT JUMPDEST PUSH1 0x0 PUSH2 0x573 DUP5 DUP3 DUP6 ADD PUSH2 0x4D7 JUMP JUMPDEST SWAP2 POP POP SWAP3 SWAP2 POP POP JUMP JUMPDEST PUSH1 0x0 DUP1 PUSH1 0x0 DUP1 PUSH1 0x0 PUSH1 0xA0 DUP7 DUP9 SUB SLT ISZERO PUSH2 0x594 JUMPI PUSH1 0x0 DUP1 REVERT JUMPDEST PUSH1 0x0 PUSH2 0x5A2 DUP9 DUP3 DUP10 ADD PUSH2 0x4EC JUMP JUMPDEST SWAP6 POP POP PUSH1 0x20 PUSH2 0x5B3 DUP9 DUP3 DUP10 ADD PUSH2 0x4AD JUMP JUMPDEST SWAP5 POP POP PUSH1 0x40 PUSH2 0x5C4 DUP9 DUP3 DUP10 ADD PUSH2 0x4D7 JUMP JUMPDEST SWAP4 POP POP PUSH1 0x60 PUSH2 0x5D5 DUP9 DUP3 DUP10 ADD PUSH2 0x4D7 JUMP JUMPDEST SWAP3 POP POP PUSH1 0x80 PUSH2 0x5E6 DUP9 DUP3 DUP10 ADD PUSH2 0x4EC JUMP JUMPDEST SWAP2 POP POP SWAP3 SWAP6 POP SWAP3 SWAP6 SWAP1 SWAP4 POP JUMP JUMPDEST PUSH2 0x5FC DUP2 PUSH2 0x85A JUMP JUMPDEST DUP3 MSTORE POP POP JUMP JUMPDEST PUSH1 0x0 PUSH2 0x60F PUSH1 0x1A DUP4 PUSH2 0x6A7 JUMP JUMPDEST SWAP2 POP PUSH32 0x446964206E6F742073656E6420656E6F756768206D6F6E657973000000000000 PUSH1 0x0 DUP4 ADD MSTORE PUSH1 0x20 DUP3 ADD SWAP1 POP SWAP2 SWAP1 POP JUMP JUMPDEST PUSH2 0x64B DUP2 PUSH2 0x896 JUMP JUMPDEST DUP3 MSTORE POP POP JUMP JUMPDEST PUSH1 0x0 PUSH1 0x20 DUP3 ADD SWAP1 POP PUSH2 0x666 PUSH1 0x0 DUP4 ADD DUP5 PUSH2 0x5F3 JUMP JUMPDEST SWAP3 SWAP2 POP POP JUMP JUMPDEST PUSH1 0x0 PUSH1 0x20 DUP3 ADD SWAP1 POP DUP2 DUP2 SUB PUSH1 0x0 DUP4 ADD MSTORE PUSH2 0x685 DUP2 PUSH2 0x602 JUMP JUMPDEST SWAP1 POP SWAP2 SWAP1 POP JUMP JUMPDEST PUSH1 0x0 PUSH1 0x20 DUP3 ADD SWAP1 POP PUSH2 0x6A1 PUSH1 0x0 DUP4 ADD DUP5 PUSH2 0x642 JUMP JUMPDEST SWAP3 SWAP2 POP POP JUMP JUMPDEST PUSH1 0x0 DUP3 DUP3 MSTORE PUSH1 0x20 DUP3 ADD SWAP1 POP SWAP3 SWAP2 POP POP JUMP JUMPDEST PUSH1 0x0 PUSH2 0x6C3 DUP3 PUSH2 0x896 JUMP JUMPDEST SWAP2 POP PUSH2 0x6CE DUP4 PUSH2 0x896 JUMP JUMPDEST SWAP3 POP DUP3 PUSH2 0x6DE JUMPI PUSH2 0x6DD PUSH2 0x8E5 JUMP JUMPDEST JUMPDEST DUP3 DUP3 DIV SWAP1 POP SWAP3 SWAP2 POP POP JUMP JUMPDEST PUSH1 0x0 PUSH2 0x6F4 DUP3 PUSH2 0x86C JUMP JUMPDEST SWAP2 POP PUSH2 0x6FF DUP4 PUSH2 0x86C JUMP JUMPDEST SWAP3 POP DUP3 PUSH32 0x7FFFFFFFFFFFFFFFFFFFFFFFFFFFFFFFFFFFFFFFFFFFFFFFFFFFFFFFFFFFFFFF DIV DUP3 GT PUSH1 0x0 DUP5 SGT PUSH1 0x0 DUP5 SGT AND AND ISZERO PUSH2 0x73E JUMPI PUSH2 0x73D PUSH2 0x8B6 JUMP JUMPDEST JUMPDEST DUP2 PUSH32 0x8000000000000000000000000000000000000000000000000000000000000000 SDIV DUP4 SLT PUSH1 0x0 DUP5 SLT PUSH1 0x0 DUP5 SGT AND AND ISZERO PUSH2 0x77B JUMPI PUSH2 0x77A PUSH2 0x8B6 JUMP JUMPDEST JUMPDEST DUP3 PUSH32 0x8000000000000000000000000000000000000000000000000000000000000000 SDIV DUP3 SLT PUSH1 0x0 DUP5 SGT PUSH1 0x0 DUP5 SLT AND AND ISZERO PUSH2 0x7B8 JUMPI PUSH2 0x7B7 PUSH2 0x8B6 JUMP JUMPDEST JUMPDEST DUP3 PUSH32 0x7FFFFFFFFFFFFFFFFFFFFFFFFFFFFFFFFFFFFFFFFFFFFFFFFFFFFFFFFFFFFFFF SDIV DUP3 SLT PUSH1 0x0 DUP5 SLT PUSH1 0x0 DUP5 SLT AND AND ISZERO PUSH2 0x7F5 JUMPI PUSH2 0x7F4 PUSH2 0x8B6 JUMP JUMPDEST JUMPDEST DUP3 DUP3 MUL SWAP1 POP SWAP3 SWAP2 POP POP JUMP JUMPDEST PUSH1 0x0 PUSH2 0x80B DUP3 PUSH2 0x896 JUMP JUMPDEST SWAP2 POP PUSH2 0x816 DUP4 PUSH2 0x896 JUMP JUMPDEST SWAP3 POP DUP2 PUSH32 0xFFFFFFFFFFFFFFFFFFFFFFFFFFFFFFFFFFFFFFFFFFFFFFFFFFFFFFFFFFFFFFFF DIV DUP4 GT DUP3 ISZERO ISZERO AND ISZERO PUSH2 0x84F JUMPI PUSH2 0x84E PUSH2 0x8B6 JUMP JUMPDEST JUMPDEST DUP3 DUP3 MUL SWAP1 POP SWAP3 SWAP2 POP POP JUMP JUMPDEST PUSH1 0x0 PUSH2 0x865 DUP3 PUSH2 0x876 JUMP JUMPDEST SWAP1 POP SWAP2 SWAP1 POP JUMP JUMPDEST PUSH1 0x0 DUP2 SWAP1 POP SWAP2 SWAP1 POP JUMP JUMPDEST PUSH1 0x0 PUSH20 0xFFFFFFFFFFFFFFFFFFFFFFFFFFFFFFFFFFFFFFFF DUP3 AND SWAP1 POP SWAP2 SWAP1 POP JUMP JUMPDEST PUSH1 0x0 DUP2 SWAP1 POP SWAP2 SWAP1 POP JUMP JUMPDEST PUSH1 0x0 PUSH10 0xFFFFFFFFFFFFFFFFFFFF DUP3 AND SWAP1 POP SWAP2 SWAP1 POP JUMP JUMPDEST PUSH32 0x4E487B7100000000000000000000000000000000000000000000000000000000 PUSH1 0x0 MSTORE PUSH1 0x11 PUSH1 0x4 MSTORE PUSH1 0x24 PUSH1 0x0 REVERT JUMPDEST PUSH32 0x4E487B7100000000000000000000000000000000000000000000000000000000 PUSH1 0x0 MSTORE PUSH1 0x12 PUSH1 0x4 MSTORE PUSH1 0x24 PUSH1 0x0 REVERT JUMPDEST PUSH2 0x91D DUP2 PUSH2 0x85A JUMP JUMPDEST DUP2 EQ PUSH2 0x928 JUMPI PUSH1 0x0 DUP1 REVERT JUMPDEST POP JUMP JUMPDEST PUSH2 0x934 DUP2 PUSH2 0x86C JUMP JUMPDEST DUP2 EQ PUSH2 0x93F JUMPI PUSH1 0x0 DUP1 REVERT JUMPDEST POP JUMP JUMPDEST PUSH2 0x94B DUP2 PUSH2 0x896 JUMP JUMPDEST DUP2 EQ PUSH2 0x956 JUMPI PUSH1 0x0 DUP1 REVERT JUMPDEST POP JUMP JUMPDEST PUSH2 0x962 DUP2 PUSH2 0x8A0 JUMP JUMPDEST DUP2 EQ PUSH2 0x96D JUMPI PUSH1 0x0 DUP1 REVERT JUMPDEST POP JUMP INVALID LOG2 PUSH5 0x6970667358 0x22 SLT KECCAK256 0xD7 ADDRESS 0x5C TIMESTAMP MUL 0xC2 SHL PUSH11 0xEDBF59E1162D3FA04BE24C 0xB6 0xB2 ORIGIN PUSH12 0xCC42CDE0A3B7298C9B64736F PUSH13 0x63430008000033000000000000 "
				},
				"gasEstimates": {
					"creation": {
						"codeDepositCost": "494000",
						"executionCost": "20536",
						"totalCost": "514536"
					},
					"external": {
						"addressToAmountFunded(address)": "1559",
						"fund()": "62069",
						"funders(uint256)": "2422",
						"getConversionRate(uint256)": "infinite",
						"getPrice()": "infinite",
						"getVersion()": "infinite",
						"minimumUsd()": "1130"
					}
				},
				"methodIdentifiers": {
					"addressToAmountFunded(address)": "3e47d6f3",
					"fund()": "b60d4288",
					"funders(uint256)": "dc0d3dff",
					"getConversionRate(uint256)": "6e5b6b28",
					"getPrice()": "98d5fdca",
					"getVersion()": "0d8e6e2c",
					"minimumUsd()": "098de820"
				}
			},
			"storageLayout": {
				"storage": [
					{
						"astId": 53,
						"contract": "contracts/FundMe.sol:FundMe",
						"label": "minimumUsd",
						"offset": 0,
						"slot": "0",
						"type": "t_uint256"
					},
					{
						"astId": 56,
						"contract": "contracts/FundMe.sol:FundMe",
						"label": "funders",
						"offset": 0,
						"slot": "1",
						"type": "t_array(t_address)dyn_storage"
					},
					{
						"astId": 60,
						"contract": "contracts/FundMe.sol:FundMe",
						"label": "addressToAmountFunded",
						"offset": 0,
						"slot": "2",
						"type": "t_mapping(t_address,t_uint256)"
					}
				],
				"types": {
					"t_address": {
						"encoding": "inplace",
						"label": "address",
						"numberOfBytes": "20"
					},
					"t_array(t_address)dyn_storage": {
						"base": "t_address",
						"encoding": "dynamic_array",
						"label": "address[]",
						"numberOfBytes": "32"
					},
					"t_mapping(t_address,t_uint256)": {
						"encoding": "mapping",
						"key": "t_address",
						"label": "mapping(address => uint256)",
						"numberOfBytes": "32",
						"value": "t_uint256"
					},
					"t_uint256": {
						"encoding": "inplace",
						"label": "uint256",
						"numberOfBytes": "32"
					}
				}
			},
			"userdoc": {
				"kind": "user",
				"methods": {},
				"version": 1
			}
		}
	}
}