{
	"contracts/PriceConverter.sol": {
		"PriceConverter": {
			"abi": [
				{
					"inputs": [],
					"name": "getPrice",
					"outputs": [
						{
							"internalType": "uint256",
							"name": "",
							"type": "uint256"
						}
					],
					"stateMutability": "view",
					"type": "function"
				}
			],
			"devdoc": {
				"kind": "dev",
				"methods": {},
				"version": 1
			},
			"evm": {
				"assembly": "    /* \"contracts/PriceConverter.sol\":101:868  library PriceConverter {... */\n  dataSize(sub_0)\n  dataOffset(sub_0)\n  0x0b\n  dup3\n  dup3\n  dup3\n  codecopy\n  dup1\n  mload\n  0x00\n  byte\n  0x73\n  eq\n  tag_1\n  jumpi\n  mstore(0x00, 0x4e487b7100000000000000000000000000000000000000000000000000000000)\n  mstore(0x04, 0x00)\n  revert(0x00, 0x24)\ntag_1:\n  mstore(0x00, address)\n  0x73\n  dup2\n  mstore8\n  dup3\n  dup2\n  return\nstop\n\nsub_0: assembly {\n        /* \"contracts/PriceConverter.sol\":101:868  library PriceConverter {... */\n      eq(address, deployTimeAddress())\n      mstore(0x40, 0x80)\n      jumpi(tag_1, lt(calldatasize, 0x04))\n      shr(0xe0, calldataload(0x00))\n      dup1\n      0x98d5fdca\n      eq\n      tag_2\n      jumpi\n    tag_1:\n      0x00\n      dup1\n      revert\n        /* \"contracts/PriceConverter.sol\":130:427  function getPrice() public view returns(uint256){... */\n    tag_2:\n      tag_3\n      tag_4\n      jump\t// in\n    tag_3:\n      mload(0x40)\n      tag_5\n      swap2\n      swap1\n      tag_6\n      jump\t// in\n    tag_5:\n      mload(0x40)\n      dup1\n      swap2\n      sub\n      swap1\n      return\n    tag_4:\n        /* \"contracts/PriceConverter.sol\":170:177  uint256 */\n      0x00\n        /* \"contracts/PriceConverter.sol\":223:254  AggregatorV3Interface priceFeed */\n      dup1\n        /* \"contracts/PriceConverter.sol\":279:321  0x5f4eC3Df9cbd43714FE2740f5E3616155c5b8419 */\n      0x5f4ec3df9cbd43714fe2740f5e3616155c5b8419\n        /* \"contracts/PriceConverter.sol\":223:322  AggregatorV3Interface priceFeed = AggregatorV3Interface(0x5f4eC3Df9cbd43714FE2740f5E3616155c5b8419) */\n      swap1\n      pop\n        /* \"contracts/PriceConverter.sol\":334:346  int256 price */\n      0x00\n        /* \"contracts/PriceConverter.sol\":353:362  priceFeed */\n      dup2\n        /* \"contracts/PriceConverter.sol\":353:378  priceFeed.latestRoundData */\n      0xffffffffffffffffffffffffffffffffffffffff\n      and\n      0xfeaf968c\n        /* \"contracts/PriceConverter.sol\":353:380  priceFeed.latestRoundData() */\n      mload(0x40)\n      dup2\n      0xffffffff\n      and\n      0xe0\n      shl\n      dup2\n      mstore\n      0x04\n      add\n      0xa0\n      mload(0x40)\n      dup1\n      dup4\n      sub\n      dup2\n      dup7\n      dup1\n      extcodesize\n      iszero\n      dup1\n      iszero\n      tag_8\n      jumpi\n      0x00\n      dup1\n      revert\n    tag_8:\n      pop\n      gas\n      staticcall\n      iszero\n      dup1\n      iszero\n      tag_10\n      jumpi\n      returndatasize\n      0x00\n      dup1\n      returndatacopy\n      revert(0x00, returndatasize)\n    tag_10:\n      pop\n      pop\n      pop\n      pop\n      mload(0x40)\n      returndatasize\n      not(0x1f)\n      0x1f\n      dup3\n      add\n      and\n      dup3\n      add\n      dup1\n      0x40\n      mstore\n      pop\n      dup2\n      add\n      swap1\n      tag_11\n      swap2\n      swap1\n      tag_12\n      jump\t// in\n    tag_11:\n        /* \"contracts/PriceConverter.sol\":332:380  (,int256 price,,,) = priceFeed.latestRoundData() */\n      pop\n      pop\n      pop\n      swap2\n      pop\n      pop\n        /* \"contracts/PriceConverter.sol\":414:418  1e10 */\n      0x02540be400\n        /* \"contracts/PriceConverter.sol\":406:411  price */\n      dup2\n        /* \"contracts/PriceConverter.sol\":406:418  price * 1e10 */\n      tag_13\n      swap2\n      swap1\n      tag_14\n      jump\t// in\n    tag_13:\n        /* \"contracts/PriceConverter.sol\":391:419  return uint256(price * 1e10) */\n      swap3\n      pop\n      pop\n      pop\n        /* \"contracts/PriceConverter.sol\":130:427  function getPrice() public view returns(uint256){... */\n      swap1\n      jump\t// out\n        /* \"#utility.yul\":7:148   */\n    tag_16:\n      0x00\n        /* \"#utility.yul\":94:100   */\n      dup2\n        /* \"#utility.yul\":88:101   */\n      mload\n        /* \"#utility.yul\":79:101   */\n      swap1\n      pop\n        /* \"#utility.yul\":110:142   */\n      tag_18\n        /* \"#utility.yul\":136:141   */\n      dup2\n        /* \"#utility.yul\":110:142   */\n      tag_19\n      jump\t// in\n    tag_18:\n        /* \"#utility.yul\":69:148   */\n      swap3\n      swap2\n      pop\n      pop\n      jump\t// out\n        /* \"#utility.yul\":154:297   */\n    tag_20:\n      0x00\n        /* \"#utility.yul\":242:248   */\n      dup2\n        /* \"#utility.yul\":236:249   */\n      mload\n        /* \"#utility.yul\":227:249   */\n      swap1\n      pop\n        /* \"#utility.yul\":258:291   */\n      tag_22\n        /* \"#utility.yul\":285:290   */\n      dup2\n        /* \"#utility.yul\":258:291   */\n      tag_23\n      jump\t// in\n    tag_22:\n        /* \"#utility.yul\":217:297   */\n      swap3\n      swap2\n      pop\n      pop\n      jump\t// out\n        /* \"#utility.yul\":303:444   */\n    tag_24:\n      0x00\n        /* \"#utility.yul\":390:396   */\n      dup2\n        /* \"#utility.yul\":384:397   */\n      mload\n        /* \"#utility.yul\":375:397   */\n      swap1\n      pop\n        /* \"#utility.yul\":406:438   */\n      tag_26\n        /* \"#utility.yul\":432:437   */\n      dup2\n        /* \"#utility.yul\":406:438   */\n      tag_27\n      jump\t// in\n    tag_26:\n        /* \"#utility.yul\":365:444   */\n      swap3\n      swap2\n      pop\n      pop\n      jump\t// out\n        /* \"#utility.yul\":450:1354   */\n    tag_12:\n      0x00\n      dup1\n      0x00\n      dup1\n      0x00\n        /* \"#utility.yul\":634:637   */\n      0xa0\n        /* \"#utility.yul\":622:631   */\n      dup7\n        /* \"#utility.yul\":613:620   */\n      dup9\n        /* \"#utility.yul\":609:632   */\n      sub\n        /* \"#utility.yul\":605:638   */\n      slt\n        /* \"#utility.yul\":602:604   */\n      iszero\n      tag_29\n      jumpi\n        /* \"#utility.yul\":651:652   */\n      0x00\n        /* \"#utility.yul\":648:649   */\n      dup1\n        /* \"#utility.yul\":641:653   */\n      revert\n        /* \"#utility.yul\":602:604   */\n    tag_29:\n        /* \"#utility.yul\":694:695   */\n      0x00\n        /* \"#utility.yul\":719:782   */\n      tag_30\n        /* \"#utility.yul\":774:781   */\n      dup9\n        /* \"#utility.yul\":765:771   */\n      dup3\n        /* \"#utility.yul\":754:763   */\n      dup10\n        /* \"#utility.yul\":750:772   */\n      add\n        /* \"#utility.yul\":719:782   */\n      tag_24\n      jump\t// in\n    tag_30:\n        /* \"#utility.yul\":709:782   */\n      swap6\n      pop\n        /* \"#utility.yul\":665:792   */\n      pop\n        /* \"#utility.yul\":831:833   */\n      0x20\n        /* \"#utility.yul\":857:920   */\n      tag_31\n        /* \"#utility.yul\":912:919   */\n      dup9\n        /* \"#utility.yul\":903:909   */\n      dup3\n        /* \"#utility.yul\":892:901   */\n      dup10\n        /* \"#utility.yul\":888:910   */\n      add\n        /* \"#utility.yul\":857:920   */\n      tag_16\n      jump\t// in\n    tag_31:\n        /* \"#utility.yul\":847:920   */\n      swap5\n      pop\n        /* \"#utility.yul\":802:930   */\n      pop\n        /* \"#utility.yul\":969:971   */\n      0x40\n        /* \"#utility.yul\":995:1059   */\n      tag_32\n        /* \"#utility.yul\":1051:1058   */\n      dup9\n        /* \"#utility.yul\":1042:1048   */\n      dup3\n        /* \"#utility.yul\":1031:1040   */\n      dup10\n        /* \"#utility.yul\":1027:1049   */\n      add\n        /* \"#utility.yul\":995:1059   */\n      tag_20\n      jump\t// in\n    tag_32:\n        /* \"#utility.yul\":985:1059   */\n      swap4\n      pop\n        /* \"#utility.yul\":940:1069   */\n      pop\n        /* \"#utility.yul\":1108:1110   */\n      0x60\n        /* \"#utility.yul\":1134:1198   */\n      tag_33\n        /* \"#utility.yul\":1190:1197   */\n      dup9\n        /* \"#utility.yul\":1181:1187   */\n      dup3\n        /* \"#utility.yul\":1170:1179   */\n      dup10\n        /* \"#utility.yul\":1166:1188   */\n      add\n        /* \"#utility.yul\":1134:1198   */\n      tag_20\n      jump\t// in\n    tag_33:\n        /* \"#utility.yul\":1124:1198   */\n      swap3\n      pop\n        /* \"#utility.yul\":1079:1208   */\n      pop\n        /* \"#utility.yul\":1247:1250   */\n      0x80\n        /* \"#utility.yul\":1274:1337   */\n      tag_34\n        /* \"#utility.yul\":1329:1336   */\n      dup9\n        /* \"#utility.yul\":1320:1326   */\n      dup3\n        /* \"#utility.yul\":1309:1318   */\n      dup10\n        /* \"#utility.yul\":1305:1327   */\n      add\n        /* \"#utility.yul\":1274:1337   */\n      tag_24\n      jump\t// in\n    tag_34:\n        /* \"#utility.yul\":1264:1337   */\n      swap2\n      pop\n        /* \"#utility.yul\":1218:1347   */\n      pop\n        /* \"#utility.yul\":592:1354   */\n      swap3\n      swap6\n      pop\n      swap3\n      swap6\n      swap1\n      swap4\n      pop\n      jump\t// out\n        /* \"#utility.yul\":1360:1486   */\n    tag_35:\n        /* \"#utility.yul\":1455:1479   */\n      tag_37\n        /* \"#utility.yul\":1473:1478   */\n      dup2\n        /* \"#utility.yul\":1455:1479   */\n      tag_38\n      jump\t// in\n    tag_37:\n        /* \"#utility.yul\":1450:1453   */\n      dup3\n        /* \"#utility.yul\":1443:1480   */\n      mstore\n        /* \"#utility.yul\":1433:1486   */\n      pop\n      pop\n      jump\t// out\n        /* \"#utility.yul\":1492:1730   */\n    tag_6:\n      0x00\n        /* \"#utility.yul\":1631:1633   */\n      0x20\n        /* \"#utility.yul\":1620:1629   */\n      dup3\n        /* \"#utility.yul\":1616:1634   */\n      add\n        /* \"#utility.yul\":1608:1634   */\n      swap1\n      pop\n        /* \"#utility.yul\":1644:1723   */\n      tag_40\n        /* \"#utility.yul\":1720:1721   */\n      0x00\n        /* \"#utility.yul\":1709:1718   */\n      dup4\n        /* \"#utility.yul\":1705:1722   */\n      add\n        /* \"#utility.yul\":1696:1702   */\n      dup5\n        /* \"#utility.yul\":1644:1723   */\n      tag_35\n      jump\t// in\n    tag_40:\n        /* \"#utility.yul\":1598:1730   */\n      swap3\n      swap2\n      pop\n      pop\n      jump\t// out\n        /* \"#utility.yul\":1736:2727   */\n    tag_14:\n      0x00\n        /* \"#utility.yul\":1798:1817   */\n      tag_42\n        /* \"#utility.yul\":1815:1816   */\n      dup3\n        /* \"#utility.yul\":1798:1817   */\n      tag_43\n      jump\t// in\n    tag_42:\n        /* \"#utility.yul\":1793:1817   */\n      swap2\n      pop\n        /* \"#utility.yul\":1831:1850   */\n      tag_44\n        /* \"#utility.yul\":1848:1849   */\n      dup4\n        /* \"#utility.yul\":1831:1850   */\n      tag_43\n      jump\t// in\n    tag_44:\n        /* \"#utility.yul\":1826:1850   */\n      swap3\n      pop\n        /* \"#utility.yul\":2032:2033   */\n      dup3\n        /* \"#utility.yul\":1964:2030   */\n      0x7fffffffffffffffffffffffffffffffffffffffffffffffffffffffffffffff\n        /* \"#utility.yul\":1960:2034   */\n      div\n        /* \"#utility.yul\":1957:1958   */\n      dup3\n        /* \"#utility.yul\":1954:2035   */\n      gt\n        /* \"#utility.yul\":1949:1950   */\n      0x00\n        /* \"#utility.yul\":1946:1947   */\n      dup5\n        /* \"#utility.yul\":1942:1951   */\n      sgt\n        /* \"#utility.yul\":1938:1939   */\n      0x00\n        /* \"#utility.yul\":1935:1936   */\n      dup5\n        /* \"#utility.yul\":1931:1940   */\n      sgt\n        /* \"#utility.yul\":1927:1952   */\n      and\n        /* \"#utility.yul\":1923:2036   */\n      and\n        /* \"#utility.yul\":1920:1922   */\n      iszero\n      tag_45\n      jumpi\n        /* \"#utility.yul\":2039:2057   */\n      tag_46\n      tag_47\n      jump\t// in\n    tag_46:\n        /* \"#utility.yul\":1920:1922   */\n    tag_45:\n        /* \"#utility.yul\":2243:2244   */\n      dup2\n        /* \"#utility.yul\":2175:2241   */\n      0x8000000000000000000000000000000000000000000000000000000000000000\n        /* \"#utility.yul\":2170:2245   */\n      sdiv\n        /* \"#utility.yul\":2167:2168   */\n      dup4\n        /* \"#utility.yul\":2163:2246   */\n      slt\n        /* \"#utility.yul\":2158:2159   */\n      0x00\n        /* \"#utility.yul\":2155:2156   */\n      dup5\n        /* \"#utility.yul\":2151:2160   */\n      slt\n        /* \"#utility.yul\":2147:2148   */\n      0x00\n        /* \"#utility.yul\":2144:2145   */\n      dup5\n        /* \"#utility.yul\":2140:2149   */\n      sgt\n        /* \"#utility.yul\":2136:2161   */\n      and\n        /* \"#utility.yul\":2132:2247   */\n      and\n        /* \"#utility.yul\":2129:2131   */\n      iszero\n      tag_48\n      jumpi\n        /* \"#utility.yul\":2250:2268   */\n      tag_49\n      tag_47\n      jump\t// in\n    tag_49:\n        /* \"#utility.yul\":2129:2131   */\n    tag_48:\n        /* \"#utility.yul\":2454:2455   */\n      dup3\n        /* \"#utility.yul\":2386:2452   */\n      0x8000000000000000000000000000000000000000000000000000000000000000\n        /* \"#utility.yul\":2381:2456   */\n      sdiv\n        /* \"#utility.yul\":2378:2379   */\n      dup3\n        /* \"#utility.yul\":2374:2457   */\n      slt\n        /* \"#utility.yul\":2369:2370   */\n      0x00\n        /* \"#utility.yul\":2366:2367   */\n      dup5\n        /* \"#utility.yul\":2362:2371   */\n      sgt\n        /* \"#utility.yul\":2358:2359   */\n      0x00\n        /* \"#utility.yul\":2355:2356   */\n      dup5\n        /* \"#utility.yul\":2351:2360   */\n      slt\n        /* \"#utility.yul\":2347:2372   */\n      and\n        /* \"#utility.yul\":2343:2458   */\n      and\n        /* \"#utility.yul\":2340:2342   */\n      iszero\n      tag_50\n      jumpi\n        /* \"#utility.yul\":2461:2479   */\n      tag_51\n      tag_47\n      jump\t// in\n    tag_51:\n        /* \"#utility.yul\":2340:2342   */\n    tag_50:\n        /* \"#utility.yul\":2664:2665   */\n      dup3\n        /* \"#utility.yul\":2596:2662   */\n      0x7fffffffffffffffffffffffffffffffffffffffffffffffffffffffffffffff\n        /* \"#utility.yul\":2591:2666   */\n      sdiv\n        /* \"#utility.yul\":2588:2589   */\n      dup3\n        /* \"#utility.yul\":2584:2667   */\n      slt\n        /* \"#utility.yul\":2579:2580   */\n      0x00\n        /* \"#utility.yul\":2576:2577   */\n      dup5\n        /* \"#utility.yul\":2572:2581   */\n      slt\n        /* \"#utility.yul\":2568:2569   */\n      0x00\n        /* \"#utility.yul\":2565:2566   */\n      dup5\n        /* \"#utility.yul\":2561:2570   */\n      slt\n        /* \"#utility.yul\":2557:2582   */\n      and\n        /* \"#utility.yul\":2553:2668   */\n      and\n        /* \"#utility.yul\":2550:2552   */\n      iszero\n      tag_52\n      jumpi\n        /* \"#utility.yul\":2671:2689   */\n      tag_53\n      tag_47\n      jump\t// in\n    tag_53:\n        /* \"#utility.yul\":2550:2552   */\n    tag_52:\n        /* \"#utility.yul\":2719:2720   */\n      dup3\n        /* \"#utility.yul\":2716:2717   */\n      dup3\n        /* \"#utility.yul\":2712:2721   */\n      mul\n        /* \"#utility.yul\":2701:2721   */\n      swap1\n      pop\n        /* \"#utility.yul\":1783:2727   */\n      swap3\n      swap2\n      pop\n      pop\n      jump\t// out\n        /* \"#utility.yul\":2733:2809   */\n    tag_43:\n      0x00\n        /* \"#utility.yul\":2798:2803   */\n      dup2\n        /* \"#utility.yul\":2787:2803   */\n      swap1\n      pop\n        /* \"#utility.yul\":2777:2809   */\n      swap2\n      swap1\n      pop\n      jump\t// out\n        /* \"#utility.yul\":2815:2892   */\n    tag_38:\n      0x00\n        /* \"#utility.yul\":2881:2886   */\n      dup2\n        /* \"#utility.yul\":2870:2886   */\n      swap1\n      pop\n        /* \"#utility.yul\":2860:2892   */\n      swap2\n      swap1\n      pop\n      jump\t// out\n        /* \"#utility.yul\":2898:3003   */\n    tag_56:\n      0x00\n        /* \"#utility.yul\":2974:2996   */\n      0xffffffffffffffffffff\n        /* \"#utility.yul\":2967:2972   */\n      dup3\n        /* \"#utility.yul\":2963:2997   */\n      and\n        /* \"#utility.yul\":2952:2997   */\n      swap1\n      pop\n        /* \"#utility.yul\":2942:3003   */\n      swap2\n      swap1\n      pop\n      jump\t// out\n        /* \"#utility.yul\":3009:3189   */\n    tag_47:\n        /* \"#utility.yul\":3057:3134   */\n      0x4e487b7100000000000000000000000000000000000000000000000000000000\n        /* \"#utility.yul\":3054:3055   */\n      0x00\n        /* \"#utility.yul\":3047:3135   */\n      mstore\n        /* \"#utility.yul\":3154:3158   */\n      0x11\n        /* \"#utility.yul\":3151:3152   */\n      0x04\n        /* \"#utility.yul\":3144:3159   */\n      mstore\n        /* \"#utility.yul\":3178:3182   */\n      0x24\n        /* \"#utility.yul\":3175:3176   */\n      0x00\n        /* \"#utility.yul\":3168:3183   */\n      revert\n        /* \"#utility.yul\":3195:3315   */\n    tag_19:\n        /* \"#utility.yul\":3267:3290   */\n      tag_60\n        /* \"#utility.yul\":3284:3289   */\n      dup2\n        /* \"#utility.yul\":3267:3290   */\n      tag_43\n      jump\t// in\n    tag_60:\n        /* \"#utility.yul\":3260:3265   */\n      dup2\n        /* \"#utility.yul\":3257:3291   */\n      eq\n        /* \"#utility.yul\":3247:3249   */\n      tag_61\n      jumpi\n        /* \"#utility.yul\":3305:3306   */\n      0x00\n        /* \"#utility.yul\":3302:3303   */\n      dup1\n        /* \"#utility.yul\":3295:3307   */\n      revert\n        /* \"#utility.yul\":3247:3249   */\n    tag_61:\n        /* \"#utility.yul\":3237:3315   */\n      pop\n      jump\t// out\n        /* \"#utility.yul\":3321:3443   */\n    tag_23:\n        /* \"#utility.yul\":3394:3418   */\n      tag_63\n        /* \"#utility.yul\":3412:3417   */\n      dup2\n        /* \"#utility.yul\":3394:3418   */\n      tag_38\n      jump\t// in\n    tag_63:\n        /* \"#utility.yul\":3387:3392   */\n      dup2\n        /* \"#utility.yul\":3384:3419   */\n      eq\n        /* \"#utility.yul\":3374:3376   */\n      tag_64\n      jumpi\n        /* \"#utility.yul\":3433:3434   */\n      0x00\n        /* \"#utility.yul\":3430:3431   */\n      dup1\n        /* \"#utility.yul\":3423:3435   */\n      revert\n        /* \"#utility.yul\":3374:3376   */\n    tag_64:\n        /* \"#utility.yul\":3364:3443   */\n      pop\n      jump\t// out\n        /* \"#utility.yul\":3449:3569   */\n    tag_27:\n        /* \"#utility.yul\":3521:3544   */\n      tag_66\n        /* \"#utility.yul\":3538:3543   */\n      dup2\n        /* \"#utility.yul\":3521:3544   */\n      tag_56\n      jump\t// in\n    tag_66:\n        /* \"#utility.yul\":3514:3519   */\n      dup2\n        /* \"#utility.yul\":3511:3545   */\n      eq\n        /* \"#utility.yul\":3501:3503   */\n      tag_67\n      jumpi\n        /* \"#utility.yul\":3559:3560   */\n      0x00\n        /* \"#utility.yul\":3556:3557   */\n      dup1\n        /* \"#utility.yul\":3549:3561   */\n      revert\n        /* \"#utility.yul\":3501:3503   */\n    tag_67:\n        /* \"#utility.yul\":3491:3569   */\n      pop\n      jump\t// out\n\n    auxdata: 0xa26469706673582212200b9c29c1d8fb1b539d674c1a1d9ac023f2535611ae9d51c3d14ecfe2759ad49c64736f6c63430008000033\n}\n",
				"bytecode": {
					"linkReferences": {},
					"object": "6103db610053600b82828239805160001a607314610046577f4e487b7100000000000000000000000000000000000000000000000000000000600052600060045260246000fd5b30600052607381538281f3fe73000000000000000000000000000000000000000030146080604052600436106100355760003560e01c806398d5fdca1461003a575b600080fd5b610042610058565b60405161004f91906101d5565b60405180910390f35b600080735f4ec3df9cbd43714fe2740f5e3616155c5b8419905060008173ffffffffffffffffffffffffffffffffffffffff1663feaf968c6040518163ffffffff1660e01b815260040160a06040518083038186803b1580156100ba57600080fd5b505afa1580156100ce573d6000803e3d6000fd5b505050506040513d601f19601f820116820180604052508101906100f2919061014f565b5050509150506402540be4008161010991906101f0565b9250505090565b60008151905061011f81610360565b92915050565b60008151905061013481610377565b92915050565b6000815190506101498161038e565b92915050565b600080600080600060a0868803121561016757600080fd5b60006101758882890161013a565b955050602061018688828901610110565b945050604061019788828901610125565b93505060606101a888828901610125565b92505060806101b98882890161013a565b9150509295509295909350565b6101cf81610311565b82525050565b60006020820190506101ea60008301846101c6565b92915050565b60006101fb82610307565b915061020683610307565b9250827f7fffffffffffffffffffffffffffffffffffffffffffffffffffffffffffffff048211600084136000841316161561024557610244610331565b5b817f8000000000000000000000000000000000000000000000000000000000000000058312600084126000841316161561028257610281610331565b5b827f800000000000000000000000000000000000000000000000000000000000000005821260008413600084121616156102bf576102be610331565b5b827f7fffffffffffffffffffffffffffffffffffffffffffffffffffffffffffffff05821260008412600084121616156102fc576102fb610331565b5b828202905092915050565b6000819050919050565b6000819050919050565b600069ffffffffffffffffffff82169050919050565b7f4e487b7100000000000000000000000000000000000000000000000000000000600052601160045260246000fd5b61036981610307565b811461037457600080fd5b50565b61038081610311565b811461038b57600080fd5b50565b6103978161031b565b81146103a257600080fd5b5056fea26469706673582212200b9c29c1d8fb1b539d674c1a1d9ac023f2535611ae9d51c3d14ecfe2759ad49c64736f6c63430008000033",
					"opcodes": "PUSH2 0x3DB PUSH2 0x53 PUSH1 0xB DUP3 DUP3 DUP3 CODECOPY DUP1 MLOAD PUSH1 0x0 BYTE PUSH1 0x73 EQ PUSH2 0x46 JUMPI PUSH32 0x4E487B7100000000000000000000000000000000000000000000000000000000 PUSH1 0x0 MSTORE PUSH1 0x0 PUSH1 0x4 MSTORE PUSH1 0x24 PUSH1 0x0 REVERT JUMPDEST ADDRESS PUSH1 0x0 MSTORE PUSH1 0x73 DUP2 MSTORE8 DUP3 DUP2 RETURN INVALID PUSH20 0x0 ADDRESS EQ PUSH1 0x80 PUSH1 0x40 MSTORE PUSH1 0x4 CALLDATASIZE LT PUSH2 0x35 JUMPI PUSH1 0x0 CALLDATALOAD PUSH1 0xE0 SHR DUP1 PUSH4 0x98D5FDCA EQ PUSH2 0x3A JUMPI JUMPDEST PUSH1 0x0 DUP1 REVERT JUMPDEST PUSH2 0x42 PUSH2 0x58 JUMP JUMPDEST PUSH1 0x40 MLOAD PUSH2 0x4F SWAP2 SWAP1 PUSH2 0x1D5 JUMP JUMPDEST PUSH1 0x40 MLOAD DUP1 SWAP2 SUB SWAP1 RETURN JUMPDEST PUSH1 0x0 DUP1 PUSH20 0x5F4EC3DF9CBD43714FE2740F5E3616155C5B8419 SWAP1 POP PUSH1 0x0 DUP2 PUSH20 0xFFFFFFFFFFFFFFFFFFFFFFFFFFFFFFFFFFFFFFFF AND PUSH4 0xFEAF968C PUSH1 0x40 MLOAD DUP2 PUSH4 0xFFFFFFFF AND PUSH1 0xE0 SHL DUP2 MSTORE PUSH1 0x4 ADD PUSH1 0xA0 PUSH1 0x40 MLOAD DUP1 DUP4 SUB DUP2 DUP7 DUP1 EXTCODESIZE ISZERO DUP1 ISZERO PUSH2 0xBA JUMPI PUSH1 0x0 DUP1 REVERT JUMPDEST POP GAS STATICCALL ISZERO DUP1 ISZERO PUSH2 0xCE JUMPI RETURNDATASIZE PUSH1 0x0 DUP1 RETURNDATACOPY RETURNDATASIZE PUSH1 0x0 REVERT JUMPDEST POP POP POP POP PUSH1 0x40 MLOAD RETURNDATASIZE PUSH1 0x1F NOT PUSH1 0x1F DUP3 ADD AND DUP3 ADD DUP1 PUSH1 0x40 MSTORE POP DUP2 ADD SWAP1 PUSH2 0xF2 SWAP2 SWAP1 PUSH2 0x14F JUMP JUMPDEST POP POP POP SWAP2 POP POP PUSH5 0x2540BE400 DUP2 PUSH2 0x109 SWAP2 SWAP1 PUSH2 0x1F0 JUMP JUMPDEST SWAP3 POP POP POP SWAP1 JUMP JUMPDEST PUSH1 0x0 DUP2 MLOAD SWAP1 POP PUSH2 0x11F DUP2 PUSH2 0x360 JUMP JUMPDEST SWAP3 SWAP2 POP POP JUMP JUMPDEST PUSH1 0x0 DUP2 MLOAD SWAP1 POP PUSH2 0x134 DUP2 PUSH2 0x377 JUMP JUMPDEST SWAP3 SWAP2 POP POP JUMP JUMPDEST PUSH1 0x0 DUP2 MLOAD SWAP1 POP PUSH2 0x149 DUP2 PUSH2 0x38E JUMP JUMPDEST SWAP3 SWAP2 POP POP JUMP JUMPDEST PUSH1 0x0 DUP1 PUSH1 0x0 DUP1 PUSH1 0x0 PUSH1 0xA0 DUP7 DUP9 SUB SLT ISZERO PUSH2 0x167 JUMPI PUSH1 0x0 DUP1 REVERT JUMPDEST PUSH1 0x0 PUSH2 0x175 DUP9 DUP3 DUP10 ADD PUSH2 0x13A JUMP JUMPDEST SWAP6 POP POP PUSH1 0x20 PUSH2 0x186 DUP9 DUP3 DUP10 ADD PUSH2 0x110 JUMP JUMPDEST SWAP5 POP POP PUSH1 0x40 PUSH2 0x197 DUP9 DUP3 DUP10 ADD PUSH2 0x125 JUMP JUMPDEST SWAP4 POP POP PUSH1 0x60 PUSH2 0x1A8 DUP9 DUP3 DUP10 ADD PUSH2 0x125 JUMP JUMPDEST SWAP3 POP POP PUSH1 0x80 PUSH2 0x1B9 DUP9 DUP3 DUP10 ADD PUSH2 0x13A JUMP JUMPDEST SWAP2 POP POP SWAP3 SWAP6 POP SWAP3 SWAP6 SWAP1 SWAP4 POP JUMP JUMPDEST PUSH2 0x1CF DUP2 PUSH2 0x311 JUMP JUMPDEST DUP3 MSTORE POP POP JUMP JUMPDEST PUSH1 0x0 PUSH1 0x20 DUP3 ADD SWAP1 POP PUSH2 0x1EA PUSH1 0x0 DUP4 ADD DUP5 PUSH2 0x1C6 JUMP JUMPDEST SWAP3 SWAP2 POP POP JUMP JUMPDEST PUSH1 0x0 PUSH2 0x1FB DUP3 PUSH2 0x307 JUMP JUMPDEST SWAP2 POP PUSH2 0x206 DUP4 PUSH2 0x307 JUMP JUMPDEST SWAP3 POP DUP3 PUSH32 0x7FFFFFFFFFFFFFFFFFFFFFFFFFFFFFFFFFFFFFFFFFFFFFFFFFFFFFFFFFFFFFFF DIV DUP3 GT PUSH1 0x0 DUP5 SGT PUSH1 0x0 DUP5 SGT AND AND ISZERO PUSH2 0x245 JUMPI PUSH2 0x244 PUSH2 0x331 JUMP JUMPDEST JUMPDEST DUP2 PUSH32 0x8000000000000000000000000000000000000000000000000000000000000000 SDIV DUP4 SLT PUSH1 0x0 DUP5 SLT PUSH1 0x0 DUP5 SGT AND AND ISZERO PUSH2 0x282 JUMPI PUSH2 0x281 PUSH2 0x331 JUMP JUMPDEST JUMPDEST DUP3 PUSH32 0x8000000000000000000000000000000000000000000000000000000000000000 SDIV DUP3 SLT PUSH1 0x0 DUP5 SGT PUSH1 0x0 DUP5 SLT AND AND ISZERO PUSH2 0x2BF JUMPI PUSH2 0x2BE PUSH2 0x331 JUMP JUMPDEST JUMPDEST DUP3 PUSH32 0x7FFFFFFFFFFFFFFFFFFFFFFFFFFFFFFFFFFFFFFFFFFFFFFFFFFFFFFFFFFFFFFF SDIV DUP3 SLT PUSH1 0x0 DUP5 SLT PUSH1 0x0 DUP5 SLT AND AND ISZERO PUSH2 0x2FC JUMPI PUSH2 0x2FB PUSH2 0x331 JUMP JUMPDEST JUMPDEST DUP3 DUP3 MUL SWAP1 POP SWAP3 SWAP2 POP POP JUMP JUMPDEST PUSH1 0x0 DUP2 SWAP1 POP SWAP2 SWAP1 POP JUMP JUMPDEST PUSH1 0x0 DUP2 SWAP1 POP SWAP2 SWAP1 POP JUMP JUMPDEST PUSH1 0x0 PUSH10 0xFFFFFFFFFFFFFFFFFFFF DUP3 AND SWAP1 POP SWAP2 SWAP1 POP JUMP JUMPDEST PUSH32 0x4E487B7100000000000000000000000000000000000000000000000000000000 PUSH1 0x0 MSTORE PUSH1 0x11 PUSH1 0x4 MSTORE PUSH1 0x24 PUSH1 0x0 REVERT JUMPDEST PUSH2 0x369 DUP2 PUSH2 0x307 JUMP JUMPDEST DUP2 EQ PUSH2 0x374 JUMPI PUSH1 0x0 DUP1 REVERT JUMPDEST POP JUMP JUMPDEST PUSH2 0x380 DUP2 PUSH2 0x311 JUMP JUMPDEST DUP2 EQ PUSH2 0x38B JUMPI PUSH1 0x0 DUP1 REVERT JUMPDEST POP JUMP JUMPDEST PUSH2 0x397 DUP2 PUSH2 0x31B JUMP JUMPDEST DUP2 EQ PUSH2 0x3A2 JUMPI PUSH1 0x0 DUP1 REVERT JUMPDEST POP JUMP INVALID LOG2 PUSH5 0x6970667358 0x22 SLT KECCAK256 SIGNEXTEND SWAP13 0x29 0xC1 0xD8 0xFB SHL MSTORE8 SWAP14 PUSH8 0x4C1A1D9AC023F253 JUMP GT 0xAE SWAP14 MLOAD 0xC3 0xD1 0x4E 0xCF 0xE2 PUSH22 0x9AD49C64736F6C634300080000330000000000000000 "
				},
				"gasEstimates": {
					"creation": {
						"codeDepositCost": "197400",
						"executionCost": "267",
						"totalCost": "197667"
					},
					"external": {
						"getPrice()": "infinite"
					},
					"internal": {
						"getConversionRate(uint256)": "infinite",
						"getVersion()": "infinite"
					}
				},
				"methodIdentifiers": {
					"getPrice()": "98d5fdca"
				}
			},
			"storageLayout": {
				"storage": [],
				"types": null
			},
			"userdoc": {
				"kind": "user",
				"methods": {},
				"version": 1
			}
		}
	}
}