{
	"contracts/FundMe.sol": {
		"FundMe": {
			"abi": [
				{
					"inputs": [
						{
							"internalType": "address",
							"name": "",
							"type": "address"
						}
					],
					"name": "addressToAmountFunded",
					"outputs": [
						{
							"internalType": "uint256",
							"name": "",
							"type": "uint256"
						}
					],
					"stateMutability": "view",
					"type": "function"
				},
				{
					"inputs": [],
					"name": "fund",
					"outputs": [],
					"stateMutability": "payable",
					"type": "function"
				},
				{
					"inputs": [
						{
							"internalType": "uint256",
							"name": "",
							"type": "uint256"
						}
					],
					"name": "funders",
					"outputs": [
						{
							"internalType": "address",
							"name": "",
							"type": "address"
						}
					],
					"stateMutability": "view",
					"type": "function"
				},
				{
					"inputs": [],
					"name": "minimumUsd",
					"outputs": [
						{
							"internalType": "uint256",
							"name": "",
							"type": "uint256"
						}
					],
					"stateMutability": "view",
					"type": "function"
				},
				{
					"inputs": [],
					"name": "withdraw",
					"outputs": [],
					"stateMutability": "nonpayable",
					"type": "function"
				}
			],
			"devdoc": {
				"kind": "dev",
				"methods": {},
				"version": 1
			},
			"evm": {
				"assembly": "    /* \"contracts/FundMe.sol\":137:1421  contract FundMe {... */\n  mstore(0x40, 0x80)\n    /* \"contracts/FundMe.sol\":226:235  50 * 1e18 */\n  0x02b5e3af16b1880000\n    /* \"contracts/FundMe.sol\":198:235  uint256 public minimumUsd = 50 * 1e18 */\n  0x00\n  sstore\n    /* \"contracts/FundMe.sol\":137:1421  contract FundMe {... */\n  callvalue\n  dup1\n  iszero\n  tag_1\n  jumpi\n  0x00\n  dup1\n  revert\ntag_1:\n  pop\n  dataSize(sub_0)\n  dup1\n  dataOffset(sub_0)\n  0x00\n  codecopy\n  0x00\n  return\nstop\n\nsub_0: assembly {\n        /* \"contracts/FundMe.sol\":137:1421  contract FundMe {... */\n      mstore(0x40, 0x80)\n      jumpi(tag_1, lt(calldatasize, 0x04))\n      shr(0xe0, calldataload(0x00))\n      dup1\n      0x098de820\n      eq\n      tag_2\n      jumpi\n      dup1\n      0x3ccfd60b\n      eq\n      tag_3\n      jumpi\n      dup1\n      0x3e47d6f3\n      eq\n      tag_4\n      jumpi\n      dup1\n      0xb60d4288\n      eq\n      tag_5\n      jumpi\n      dup1\n      0xdc0d3dff\n      eq\n      tag_6\n      jumpi\n    tag_1:\n      0x00\n      dup1\n      revert\n        /* \"contracts/FundMe.sol\":198:235  uint256 public minimumUsd = 50 * 1e18 */\n    tag_2:\n      callvalue\n      dup1\n      iszero\n      tag_7\n      jumpi\n      0x00\n      dup1\n      revert\n    tag_7:\n      pop\n      tag_8\n      tag_9\n      jump\t// in\n    tag_8:\n      mload(0x40)\n      tag_10\n      swap2\n      swap1\n      tag_11\n      jump\t// in\n    tag_10:\n      mload(0x40)\n      dup1\n      swap2\n      sub\n      swap1\n      return\n        /* \"contracts/FundMe.sol\":573:1380  function withdraw() public {... */\n    tag_3:\n      callvalue\n      dup1\n      iszero\n      tag_12\n      jumpi\n      0x00\n      dup1\n      revert\n    tag_12:\n      pop\n      tag_13\n      tag_14\n      jump\t// in\n    tag_13:\n      stop\n        /* \"contracts/FundMe.sol\":272:328  mapping(address => uint256) public addressToAmountFunded */\n    tag_4:\n      callvalue\n      dup1\n      iszero\n      tag_15\n      jumpi\n      0x00\n      dup1\n      revert\n    tag_15:\n      pop\n      tag_16\n      0x04\n      dup1\n      calldatasize\n      sub\n      dup2\n      add\n      swap1\n      tag_17\n      swap2\n      swap1\n      tag_18\n      jump\t// in\n    tag_17:\n      tag_19\n      jump\t// in\n    tag_16:\n      mload(0x40)\n      tag_20\n      swap2\n      swap1\n      tag_11\n      jump\t// in\n    tag_20:\n      mload(0x40)\n      dup1\n      swap2\n      sub\n      swap1\n      return\n        /* \"contracts/FundMe.sol\":335:563  function fund() public payable {... */\n    tag_5:\n      tag_21\n      tag_22\n      jump\t// in\n    tag_21:\n      stop\n        /* \"contracts/FundMe.sol\":242:266  address[] public funders */\n    tag_6:\n      callvalue\n      dup1\n      iszero\n      tag_23\n      jumpi\n      0x00\n      dup1\n      revert\n    tag_23:\n      pop\n      tag_24\n      0x04\n      dup1\n      calldatasize\n      sub\n      dup2\n      add\n      swap1\n      tag_25\n      swap2\n      swap1\n      tag_26\n      jump\t// in\n    tag_25:\n      tag_27\n      jump\t// in\n    tag_24:\n      mload(0x40)\n      tag_28\n      swap2\n      swap1\n      tag_29\n      jump\t// in\n    tag_28:\n      mload(0x40)\n      dup1\n      swap2\n      sub\n      swap1\n      return\n        /* \"contracts/FundMe.sol\":198:235  uint256 public minimumUsd = 50 * 1e18 */\n    tag_9:\n      sload(0x00)\n      dup2\n      jump\t// out\n        /* \"contracts/FundMe.sol\":573:1380  function withdraw() public {... */\n    tag_14:\n        /* \"contracts/FundMe.sol\":669:688  uint256 funderIndex */\n      0x00\n        /* \"contracts/FundMe.sol\":665:864  for(uint256 funderIndex = 0; funderIndex < funders.length; funderIndex = funderIndex +1) {... */\n    tag_31:\n        /* \"contracts/FundMe.sol\":708:715  funders */\n      0x01\n        /* \"contracts/FundMe.sol\":708:722  funders.length */\n      dup1\n      sload\n      swap1\n      pop\n        /* \"contracts/FundMe.sol\":694:705  funderIndex */\n      dup2\n        /* \"contracts/FundMe.sol\":694:722  funderIndex < funders.length */\n      lt\n        /* \"contracts/FundMe.sol\":665:864  for(uint256 funderIndex = 0; funderIndex < funders.length; funderIndex = funderIndex +1) {... */\n      iszero\n      tag_32\n      jumpi\n        /* \"contracts/FundMe.sol\":769:783  address funder */\n      0x00\n        /* \"contracts/FundMe.sol\":786:793  funders */\n      0x01\n        /* \"contracts/FundMe.sol\":794:805  funderIndex */\n      dup3\n        /* \"contracts/FundMe.sol\":786:806  funders[funderIndex] */\n      dup2\n      sload\n      dup2\n      lt\n      tag_34\n      jumpi\n      mstore(0x00, 0x4e487b7100000000000000000000000000000000000000000000000000000000)\n      mstore(0x04, 0x32)\n      revert(0x00, 0x24)\n    tag_34:\n      swap1\n      0x00\n      mstore\n      keccak256(0x00, 0x20)\n      add\n      0x00\n      swap1\n      sload\n      swap1\n      0x0100\n      exp\n      swap1\n      div\n      0xffffffffffffffffffffffffffffffffffffffff\n      and\n        /* \"contracts/FundMe.sol\":769:806  address funder = funders[funderIndex] */\n      swap1\n      pop\n        /* \"contracts/FundMe.sol\":852:853  0 */\n      0x00\n        /* \"contracts/FundMe.sol\":820:841  addressToAmountFunded */\n      0x02\n        /* \"contracts/FundMe.sol\":820:849  addressToAmountFunded[funder] */\n      0x00\n        /* \"contracts/FundMe.sol\":842:848  funder */\n      dup4\n        /* \"contracts/FundMe.sol\":820:849  addressToAmountFunded[funder] */\n      0xffffffffffffffffffffffffffffffffffffffff\n      and\n      0xffffffffffffffffffffffffffffffffffffffff\n      and\n      dup2\n      mstore\n      0x20\n      add\n      swap1\n      dup2\n      mstore\n      0x20\n      add\n      0x00\n      keccak256\n        /* \"contracts/FundMe.sol\":820:853  addressToAmountFunded[funder] = 0 */\n      dup2\n      swap1\n      sstore\n      pop\n        /* \"contracts/FundMe.sol\":665:864  for(uint256 funderIndex = 0; funderIndex < funders.length; funderIndex = funderIndex +1) {... */\n      pop\n        /* \"contracts/FundMe.sol\":751:752  1 */\n      0x01\n        /* \"contracts/FundMe.sol\":738:749  funderIndex */\n      dup2\n        /* \"contracts/FundMe.sol\":738:752  funderIndex +1 */\n      tag_36\n      swap2\n      swap1\n      tag_37\n      jump\t// in\n    tag_36:\n        /* \"contracts/FundMe.sol\":724:752  funderIndex = funderIndex +1 */\n      swap1\n      pop\n        /* \"contracts/FundMe.sol\":665:864  for(uint256 funderIndex = 0; funderIndex < funders.length; funderIndex = funderIndex +1) {... */\n      jump(tag_31)\n    tag_32:\n      pop\n        /* \"contracts/FundMe.sol\":924:925  0 */\n      0x00\n        /* \"contracts/FundMe.sol\":910:926  new address[](0) */\n      0xffffffffffffffff\n      dup2\n      gt\n      iszero\n      tag_38\n      jumpi\n      mstore(0x00, 0x4e487b7100000000000000000000000000000000000000000000000000000000)\n      mstore(0x04, 0x41)\n      revert(0x00, 0x24)\n    tag_38:\n      mload(0x40)\n      swap1\n      dup1\n      dup3\n      mstore\n      dup1\n      0x20\n      mul\n      0x20\n      add\n      dup3\n      add\n      0x40\n      mstore\n      dup1\n      iszero\n      tag_39\n      jumpi\n      dup2\n      0x20\n      add\n      0x20\n      dup3\n      mul\n      dup1\n      calldatasize\n      dup4\n      calldatacopy\n      dup1\n      dup3\n      add\n      swap2\n      pop\n      pop\n      swap1\n      pop\n    tag_39:\n      pop\n        /* \"contracts/FundMe.sol\":900:907  funders */\n      0x01\n        /* \"contracts/FundMe.sol\":900:926  funders = new address[](0) */\n      swap1\n      dup1\n      mload\n      swap1\n      0x20\n      add\n      swap1\n      tag_40\n      swap3\n      swap2\n      swap1\n      tag_41\n      jump\t// in\n    tag_40:\n      pop\n        /* \"contracts/FundMe.sol\":1042:1052  msg.sender */\n      caller\n        /* \"contracts/FundMe.sol\":1034:1062  payable(msg.sender).transfer */\n      0xffffffffffffffffffffffffffffffffffffffff\n      and\n        /* \"contracts/FundMe.sol\":1034:1085  payable(msg.sender).transfer(address(this).balance) */\n      0x08fc\n        /* \"contracts/FundMe.sol\":1063:1084  address(this).balance */\n      selfbalance\n        /* \"contracts/FundMe.sol\":1034:1085  payable(msg.sender).transfer(address(this).balance) */\n      swap1\n      dup2\n      iszero\n      mul\n      swap1\n      mload(0x40)\n      0x00\n      mload(0x40)\n      dup1\n      dup4\n      sub\n      dup2\n      dup6\n      dup9\n      dup9\n      call\n      swap4\n      pop\n      pop\n      pop\n      pop\n      iszero\n      dup1\n      iszero\n      tag_43\n      jumpi\n      returndatasize\n      0x00\n      dup1\n      returndatacopy\n      revert(0x00, returndatasize)\n    tag_43:\n      pop\n        /* \"contracts/FundMe.sol\":1095:1111  bool sendSuccess */\n      0x00\n        /* \"contracts/FundMe.sol\":1122:1132  msg.sender */\n      caller\n        /* \"contracts/FundMe.sol\":1114:1138  payable(msg.sender).send */\n      0xffffffffffffffffffffffffffffffffffffffff\n      and\n        /* \"contracts/FundMe.sol\":1114:1161  payable(msg.sender).send(address(this).balance) */\n      0x08fc\n        /* \"contracts/FundMe.sol\":1139:1160  address(this).balance */\n      selfbalance\n        /* \"contracts/FundMe.sol\":1114:1161  payable(msg.sender).send(address(this).balance) */\n      swap1\n      dup2\n      iszero\n      mul\n      swap1\n      mload(0x40)\n      0x00\n      mload(0x40)\n      dup1\n      dup4\n      sub\n      dup2\n      dup6\n      dup9\n      dup9\n      call\n      swap4\n      pop\n      pop\n      pop\n      pop\n        /* \"contracts/FundMe.sol\":1095:1161  bool sendSuccess = payable(msg.sender).send(address(this).balance) */\n      swap1\n      pop\n        /* \"contracts/FundMe.sol\":1179:1190  sendSuccess */\n      dup1\n        /* \"contracts/FundMe.sol\":1171:1206  require(sendSuccess, \"Send Failed\") */\n      tag_45\n      jumpi\n      mload(0x40)\n      0x08c379a000000000000000000000000000000000000000000000000000000000\n      dup2\n      mstore\n      0x04\n      add\n      tag_46\n      swap1\n      tag_47\n      jump\t// in\n    tag_46:\n      mload(0x40)\n      dup1\n      swap2\n      sub\n      swap1\n      revert\n    tag_45:\n        /* \"contracts/FundMe.sol\":1217:1233  bool callSuccess */\n      0x00\n        /* \"contracts/FundMe.sol\":1247:1257  msg.sender */\n      caller\n        /* \"contracts/FundMe.sol\":1239:1263  payable(msg.sender).call */\n      0xffffffffffffffffffffffffffffffffffffffff\n      and\n        /* \"contracts/FundMe.sol\":1271:1292  address(this).balance */\n      selfbalance\n        /* \"contracts/FundMe.sol\":1239:1297  payable(msg.sender).call{value: address(this).balance}(\"\") */\n      mload(0x40)\n      tag_48\n      swap1\n      tag_49\n      jump\t// in\n    tag_48:\n      0x00\n      mload(0x40)\n      dup1\n      dup4\n      sub\n      dup2\n      dup6\n      dup8\n      gas\n      call\n      swap3\n      pop\n      pop\n      pop\n      returndatasize\n      dup1\n      0x00\n      dup2\n      eq\n      tag_52\n      jumpi\n      mload(0x40)\n      swap2\n      pop\n      and(add(returndatasize, 0x3f), not(0x1f))\n      dup3\n      add\n      0x40\n      mstore\n      returndatasize\n      dup3\n      mstore\n      returndatasize\n      0x00\n      0x20\n      dup5\n      add\n      returndatacopy\n      jump(tag_51)\n    tag_52:\n      0x60\n      swap2\n      pop\n    tag_51:\n      pop\n        /* \"contracts/FundMe.sol\":1216:1297  (bool callSuccess, ) = payable(msg.sender).call{value: address(this).balance}(\"\") */\n      pop\n      swap1\n      pop\n        /* \"contracts/FundMe.sol\":1315:1326  callSuccess */\n      dup1\n        /* \"contracts/FundMe.sol\":1307:1342  require(callSuccess, \"Call Failed\") */\n      tag_53\n      jumpi\n      mload(0x40)\n      0x08c379a000000000000000000000000000000000000000000000000000000000\n      dup2\n      mstore\n      0x04\n      add\n      tag_54\n      swap1\n      tag_55\n      jump\t// in\n    tag_54:\n      mload(0x40)\n      dup1\n      swap2\n      sub\n      swap1\n      revert\n    tag_53:\n        /* \"contracts/FundMe.sol\":573:1380  function withdraw() public {... */\n      pop\n      pop\n      jump\t// out\n        /* \"contracts/FundMe.sol\":272:328  mapping(address => uint256) public addressToAmountFunded */\n    tag_19:\n      mstore(0x20, 0x02)\n      dup1\n      0x00\n      mstore\n      keccak256(0x00, 0x40)\n      0x00\n      swap2\n      pop\n      swap1\n      pop\n      sload\n      dup2\n      jump\t// out\n        /* \"contracts/FundMe.sol\":335:563  function fund() public payable {... */\n    tag_22:\n        /* \"contracts/FundMe.sol\":426:436  minimumUsd */\n      sload(0x00)\n        /* \"contracts/FundMe.sol\":393:422  msg.value.getConversionRate() */\n      tag_57\n        /* \"contracts/FundMe.sol\":393:402  msg.value */\n      callvalue\n        /* \"contracts/FundMe.sol\":393:420  msg.value.getConversionRate */\n      tag_58\n        /* \"contracts/FundMe.sol\":393:422  msg.value.getConversionRate() */\n      jump\t// in\n    tag_57:\n        /* \"contracts/FundMe.sol\":393:436  msg.value.getConversionRate() >= minimumUsd */\n      lt\n      iszero\n        /* \"contracts/FundMe.sol\":385:467  require(msg.value.getConversionRate() >= minimumUsd, \"Did not send enough moneys\") */\n      tag_59\n      jumpi\n      mload(0x40)\n      0x08c379a000000000000000000000000000000000000000000000000000000000\n      dup2\n      mstore\n      0x04\n      add\n      tag_60\n      swap1\n      tag_61\n      jump\t// in\n    tag_60:\n      mload(0x40)\n      dup1\n      swap2\n      sub\n      swap1\n      revert\n    tag_59:\n        /* \"contracts/FundMe.sol\":477:484  funders */\n      0x01\n        /* \"contracts/FundMe.sol\":490:500  msg.sender */\n      caller\n        /* \"contracts/FundMe.sol\":477:501  funders.push(msg.sender) */\n      swap1\n      dup1\n      0x01\n      dup2\n      sload\n      add\n      dup1\n      dup3\n      sstore\n      dup1\n      swap2\n      pop\n      pop\n      0x01\n      swap1\n      sub\n      swap1\n      0x00\n      mstore\n      keccak256(0x00, 0x20)\n      add\n      0x00\n      swap1\n      swap2\n      swap1\n      swap2\n      swap1\n      swap2\n      0x0100\n      exp\n      dup2\n      sload\n      dup2\n      0xffffffffffffffffffffffffffffffffffffffff\n      mul\n      not\n      and\n      swap1\n      dup4\n      0xffffffffffffffffffffffffffffffffffffffff\n      and\n      mul\n      or\n      swap1\n      sstore\n      pop\n        /* \"contracts/FundMe.sol\":547:556  msg.value */\n      callvalue\n        /* \"contracts/FundMe.sol\":511:532  addressToAmountFunded */\n      0x02\n        /* \"contracts/FundMe.sol\":511:544  addressToAmountFunded[msg.sender] */\n      0x00\n        /* \"contracts/FundMe.sol\":533:543  msg.sender */\n      caller\n        /* \"contracts/FundMe.sol\":511:544  addressToAmountFunded[msg.sender] */\n      0xffffffffffffffffffffffffffffffffffffffff\n      and\n      0xffffffffffffffffffffffffffffffffffffffff\n      and\n      dup2\n      mstore\n      0x20\n      add\n      swap1\n      dup2\n      mstore\n      0x20\n      add\n      0x00\n      keccak256\n        /* \"contracts/FundMe.sol\":511:556  addressToAmountFunded[msg.sender] = msg.value */\n      dup2\n      swap1\n      sstore\n      pop\n        /* \"contracts/FundMe.sol\":335:563  function fund() public payable {... */\n      jump\t// out\n        /* \"contracts/FundMe.sol\":242:266  address[] public funders */\n    tag_27:\n      0x01\n      dup2\n      dup2\n      sload\n      dup2\n      lt\n      tag_63\n      jumpi\n      0x00\n      dup1\n      revert\n    tag_63:\n      swap1\n      0x00\n      mstore\n      keccak256(0x00, 0x20)\n      add\n      0x00\n      swap2\n      pop\n      sload\n      swap1\n      0x0100\n      exp\n      swap1\n      div\n      0xffffffffffffffffffffffffffffffffffffffff\n      and\n      dup2\n      jump\t// out\n        /* \"contracts/PriceConverter.sol\":647:868  function getConversionRate(uint256 ethAmount) internal view returns (uint256) {... */\n    tag_58:\n        /* \"contracts/PriceConverter.sol\":716:723  uint256 */\n      0x00\n        /* \"contracts/PriceConverter.sol\":736:752  uint256 ethPrice */\n      dup1\n        /* \"contracts/PriceConverter.sol\":755:765  getPrice() */\n      tag_66\n        /* \"contracts/PriceConverter.sol\":755:763  getPrice */\n      tag_67\n        /* \"contracts/PriceConverter.sol\":755:765  getPrice() */\n      jump\t// in\n    tag_66:\n        /* \"contracts/PriceConverter.sol\":736:765  uint256 ethPrice = getPrice() */\n      swap1\n      pop\n        /* \"contracts/PriceConverter.sol\":775:798  uint256  ethAmountInUsd */\n      0x00\n        /* \"contracts/PriceConverter.sol\":826:830  1e18 */\n      0x0de0b6b3a7640000\n        /* \"contracts/PriceConverter.sol\":813:822  ethAmount */\n      dup5\n        /* \"contracts/PriceConverter.sol\":802:810  ethPrice */\n      dup4\n        /* \"contracts/PriceConverter.sol\":802:822  ethPrice * ethAmount */\n      tag_68\n      swap2\n      swap1\n      tag_69\n      jump\t// in\n    tag_68:\n        /* \"contracts/PriceConverter.sol\":801:830  (ethPrice * ethAmount) / 1e18 */\n      tag_70\n      swap2\n      swap1\n      tag_71\n      jump\t// in\n    tag_70:\n        /* \"contracts/PriceConverter.sol\":775:830  uint256  ethAmountInUsd = (ethPrice * ethAmount) / 1e18 */\n      swap1\n      pop\n        /* \"contracts/PriceConverter.sol\":847:861  ethAmountInUsd */\n      dup1\n        /* \"contracts/PriceConverter.sol\":840:861  return ethAmountInUsd */\n      swap3\n      pop\n      pop\n      pop\n        /* \"contracts/PriceConverter.sol\":647:868  function getConversionRate(uint256 ethAmount) internal view returns (uint256) {... */\n      swap2\n      swap1\n      pop\n      jump\t// out\n        /* \"contracts/PriceConverter.sol\":130:429  function getPrice() internal view returns(uint256){... */\n    tag_67:\n        /* \"contracts/PriceConverter.sol\":172:179  uint256 */\n      0x00\n        /* \"contracts/PriceConverter.sol\":225:256  AggregatorV3Interface priceFeed */\n      dup1\n        /* \"contracts/PriceConverter.sol\":281:323  0x5f4eC3Df9cbd43714FE2740f5E3616155c5b8419 */\n      0x5f4ec3df9cbd43714fe2740f5e3616155c5b8419\n        /* \"contracts/PriceConverter.sol\":225:324  AggregatorV3Interface priceFeed = AggregatorV3Interface(0x5f4eC3Df9cbd43714FE2740f5E3616155c5b8419) */\n      swap1\n      pop\n        /* \"contracts/PriceConverter.sol\":336:348  int256 price */\n      0x00\n        /* \"contracts/PriceConverter.sol\":355:364  priceFeed */\n      dup2\n        /* \"contracts/PriceConverter.sol\":355:380  priceFeed.latestRoundData */\n      0xffffffffffffffffffffffffffffffffffffffff\n      and\n      0xfeaf968c\n        /* \"contracts/PriceConverter.sol\":355:382  priceFeed.latestRoundData() */\n      mload(0x40)\n      dup2\n      0xffffffff\n      and\n      0xe0\n      shl\n      dup2\n      mstore\n      0x04\n      add\n      0xa0\n      mload(0x40)\n      dup1\n      dup4\n      sub\n      dup2\n      dup7\n      dup1\n      extcodesize\n      iszero\n      dup1\n      iszero\n      tag_73\n      jumpi\n      0x00\n      dup1\n      revert\n    tag_73:\n      pop\n      gas\n      staticcall\n      iszero\n      dup1\n      iszero\n      tag_75\n      jumpi\n      returndatasize\n      0x00\n      dup1\n      returndatacopy\n      revert(0x00, returndatasize)\n    tag_75:\n      pop\n      pop\n      pop\n      pop\n      mload(0x40)\n      returndatasize\n      not(0x1f)\n      0x1f\n      dup3\n      add\n      and\n      dup3\n      add\n      dup1\n      0x40\n      mstore\n      pop\n      dup2\n      add\n      swap1\n      tag_76\n      swap2\n      swap1\n      tag_77\n      jump\t// in\n    tag_76:\n        /* \"contracts/PriceConverter.sol\":334:382  (,int256 price,,,) = priceFeed.latestRoundData() */\n      pop\n      pop\n      pop\n      swap2\n      pop\n      pop\n        /* \"contracts/PriceConverter.sol\":416:420  1e10 */\n      0x02540be400\n        /* \"contracts/PriceConverter.sol\":408:413  price */\n      dup2\n        /* \"contracts/PriceConverter.sol\":408:420  price * 1e10 */\n      tag_78\n      swap2\n      swap1\n      tag_79\n      jump\t// in\n    tag_78:\n        /* \"contracts/PriceConverter.sol\":393:421  return uint256(price * 1e10) */\n      swap3\n      pop\n      pop\n      pop\n        /* \"contracts/PriceConverter.sol\":130:429  function getPrice() internal view returns(uint256){... */\n      swap1\n      jump\t// out\n    tag_41:\n      dup3\n      dup1\n      sload\n      dup3\n      dup3\n      sstore\n      swap1\n      0x00\n      mstore\n      keccak256(0x00, 0x20)\n      swap1\n      dup2\n      add\n      swap3\n      dup3\n      iszero\n      tag_80\n      jumpi\n      swap2\n      0x20\n      mul\n      dup3\n      add\n    tag_81:\n      dup3\n      dup2\n      gt\n      iszero\n      tag_82\n      jumpi\n      dup3\n      mload\n      dup3\n      exp(0x0100, 0x00)\n      dup2\n      sload\n      dup2\n      0xffffffffffffffffffffffffffffffffffffffff\n      mul\n      not\n      and\n      swap1\n      dup4\n      0xffffffffffffffffffffffffffffffffffffffff\n      and\n      mul\n      or\n      swap1\n      sstore\n      pop\n      swap2\n      0x20\n      add\n      swap2\n      swap1\n      0x01\n      add\n      swap1\n      jump(tag_81)\n    tag_82:\n    tag_80:\n      pop\n      swap1\n      pop\n      tag_83\n      swap2\n      swap1\n      tag_84\n      jump\t// in\n    tag_83:\n      pop\n      swap1\n      jump\t// out\n    tag_84:\n    tag_85:\n      dup1\n      dup3\n      gt\n      iszero\n      tag_86\n      jumpi\n      0x00\n      dup2\n      0x00\n      swap1\n      sstore\n      pop\n      0x01\n      add\n      jump(tag_85)\n    tag_86:\n      pop\n      swap1\n      jump\t// out\n        /* \"#utility.yul\":7:146   */\n    tag_88:\n      0x00\n        /* \"#utility.yul\":91:97   */\n      dup2\n        /* \"#utility.yul\":78:98   */\n      calldataload\n        /* \"#utility.yul\":69:98   */\n      swap1\n      pop\n        /* \"#utility.yul\":107:140   */\n      tag_90\n        /* \"#utility.yul\":134:139   */\n      dup2\n        /* \"#utility.yul\":107:140   */\n      tag_91\n      jump\t// in\n    tag_90:\n        /* \"#utility.yul\":59:146   */\n      swap3\n      swap2\n      pop\n      pop\n      jump\t// out\n        /* \"#utility.yul\":152:293   */\n    tag_92:\n      0x00\n        /* \"#utility.yul\":239:245   */\n      dup2\n        /* \"#utility.yul\":233:246   */\n      mload\n        /* \"#utility.yul\":224:246   */\n      swap1\n      pop\n        /* \"#utility.yul\":255:287   */\n      tag_94\n        /* \"#utility.yul\":281:286   */\n      dup2\n        /* \"#utility.yul\":255:287   */\n      tag_95\n      jump\t// in\n    tag_94:\n        /* \"#utility.yul\":214:293   */\n      swap3\n      swap2\n      pop\n      pop\n      jump\t// out\n        /* \"#utility.yul\":299:438   */\n    tag_96:\n      0x00\n        /* \"#utility.yul\":383:389   */\n      dup2\n        /* \"#utility.yul\":370:390   */\n      calldataload\n        /* \"#utility.yul\":361:390   */\n      swap1\n      pop\n        /* \"#utility.yul\":399:432   */\n      tag_98\n        /* \"#utility.yul\":426:431   */\n      dup2\n        /* \"#utility.yul\":399:432   */\n      tag_99\n      jump\t// in\n    tag_98:\n        /* \"#utility.yul\":351:438   */\n      swap3\n      swap2\n      pop\n      pop\n      jump\t// out\n        /* \"#utility.yul\":444:587   */\n    tag_100:\n      0x00\n        /* \"#utility.yul\":532:538   */\n      dup2\n        /* \"#utility.yul\":526:539   */\n      mload\n        /* \"#utility.yul\":517:539   */\n      swap1\n      pop\n        /* \"#utility.yul\":548:581   */\n      tag_102\n        /* \"#utility.yul\":575:580   */\n      dup2\n        /* \"#utility.yul\":548:581   */\n      tag_99\n      jump\t// in\n    tag_102:\n        /* \"#utility.yul\":507:587   */\n      swap3\n      swap2\n      pop\n      pop\n      jump\t// out\n        /* \"#utility.yul\":593:734   */\n    tag_103:\n      0x00\n        /* \"#utility.yul\":680:686   */\n      dup2\n        /* \"#utility.yul\":674:687   */\n      mload\n        /* \"#utility.yul\":665:687   */\n      swap1\n      pop\n        /* \"#utility.yul\":696:728   */\n      tag_105\n        /* \"#utility.yul\":722:727   */\n      dup2\n        /* \"#utility.yul\":696:728   */\n      tag_106\n      jump\t// in\n    tag_105:\n        /* \"#utility.yul\":655:734   */\n      swap3\n      swap2\n      pop\n      pop\n      jump\t// out\n        /* \"#utility.yul\":740:1002   */\n    tag_18:\n      0x00\n        /* \"#utility.yul\":848:850   */\n      0x20\n        /* \"#utility.yul\":836:845   */\n      dup3\n        /* \"#utility.yul\":827:834   */\n      dup5\n        /* \"#utility.yul\":823:846   */\n      sub\n        /* \"#utility.yul\":819:851   */\n      slt\n        /* \"#utility.yul\":816:818   */\n      iszero\n      tag_108\n      jumpi\n        /* \"#utility.yul\":864:865   */\n      0x00\n        /* \"#utility.yul\":861:862   */\n      dup1\n        /* \"#utility.yul\":854:866   */\n      revert\n        /* \"#utility.yul\":816:818   */\n    tag_108:\n        /* \"#utility.yul\":907:908   */\n      0x00\n        /* \"#utility.yul\":932:985   */\n      tag_109\n        /* \"#utility.yul\":977:984   */\n      dup5\n        /* \"#utility.yul\":968:974   */\n      dup3\n        /* \"#utility.yul\":957:966   */\n      dup6\n        /* \"#utility.yul\":953:975   */\n      add\n        /* \"#utility.yul\":932:985   */\n      tag_88\n      jump\t// in\n    tag_109:\n        /* \"#utility.yul\":922:985   */\n      swap2\n      pop\n        /* \"#utility.yul\":878:995   */\n      pop\n        /* \"#utility.yul\":806:1002   */\n      swap3\n      swap2\n      pop\n      pop\n      jump\t// out\n        /* \"#utility.yul\":1008:1270   */\n    tag_26:\n      0x00\n        /* \"#utility.yul\":1116:1118   */\n      0x20\n        /* \"#utility.yul\":1104:1113   */\n      dup3\n        /* \"#utility.yul\":1095:1102   */\n      dup5\n        /* \"#utility.yul\":1091:1114   */\n      sub\n        /* \"#utility.yul\":1087:1119   */\n      slt\n        /* \"#utility.yul\":1084:1086   */\n      iszero\n      tag_111\n      jumpi\n        /* \"#utility.yul\":1132:1133   */\n      0x00\n        /* \"#utility.yul\":1129:1130   */\n      dup1\n        /* \"#utility.yul\":1122:1134   */\n      revert\n        /* \"#utility.yul\":1084:1086   */\n    tag_111:\n        /* \"#utility.yul\":1175:1176   */\n      0x00\n        /* \"#utility.yul\":1200:1253   */\n      tag_112\n        /* \"#utility.yul\":1245:1252   */\n      dup5\n        /* \"#utility.yul\":1236:1242   */\n      dup3\n        /* \"#utility.yul\":1225:1234   */\n      dup6\n        /* \"#utility.yul\":1221:1243   */\n      add\n        /* \"#utility.yul\":1200:1253   */\n      tag_96\n      jump\t// in\n    tag_112:\n        /* \"#utility.yul\":1190:1253   */\n      swap2\n      pop\n        /* \"#utility.yul\":1146:1263   */\n      pop\n        /* \"#utility.yul\":1074:1270   */\n      swap3\n      swap2\n      pop\n      pop\n      jump\t// out\n        /* \"#utility.yul\":1276:2180   */\n    tag_77:\n      0x00\n      dup1\n      0x00\n      dup1\n      0x00\n        /* \"#utility.yul\":1460:1463   */\n      0xa0\n        /* \"#utility.yul\":1448:1457   */\n      dup7\n        /* \"#utility.yul\":1439:1446   */\n      dup9\n        /* \"#utility.yul\":1435:1458   */\n      sub\n        /* \"#utility.yul\":1431:1464   */\n      slt\n        /* \"#utility.yul\":1428:1430   */\n      iszero\n      tag_114\n      jumpi\n        /* \"#utility.yul\":1477:1478   */\n      0x00\n        /* \"#utility.yul\":1474:1475   */\n      dup1\n        /* \"#utility.yul\":1467:1479   */\n      revert\n        /* \"#utility.yul\":1428:1430   */\n    tag_114:\n        /* \"#utility.yul\":1520:1521   */\n      0x00\n        /* \"#utility.yul\":1545:1608   */\n      tag_115\n        /* \"#utility.yul\":1600:1607   */\n      dup9\n        /* \"#utility.yul\":1591:1597   */\n      dup3\n        /* \"#utility.yul\":1580:1589   */\n      dup10\n        /* \"#utility.yul\":1576:1598   */\n      add\n        /* \"#utility.yul\":1545:1608   */\n      tag_103\n      jump\t// in\n    tag_115:\n        /* \"#utility.yul\":1535:1608   */\n      swap6\n      pop\n        /* \"#utility.yul\":1491:1618   */\n      pop\n        /* \"#utility.yul\":1657:1659   */\n      0x20\n        /* \"#utility.yul\":1683:1746   */\n      tag_116\n        /* \"#utility.yul\":1738:1745   */\n      dup9\n        /* \"#utility.yul\":1729:1735   */\n      dup3\n        /* \"#utility.yul\":1718:1727   */\n      dup10\n        /* \"#utility.yul\":1714:1736   */\n      add\n        /* \"#utility.yul\":1683:1746   */\n      tag_92\n      jump\t// in\n    tag_116:\n        /* \"#utility.yul\":1673:1746   */\n      swap5\n      pop\n        /* \"#utility.yul\":1628:1756   */\n      pop\n        /* \"#utility.yul\":1795:1797   */\n      0x40\n        /* \"#utility.yul\":1821:1885   */\n      tag_117\n        /* \"#utility.yul\":1877:1884   */\n      dup9\n        /* \"#utility.yul\":1868:1874   */\n      dup3\n        /* \"#utility.yul\":1857:1866   */\n      dup10\n        /* \"#utility.yul\":1853:1875   */\n      add\n        /* \"#utility.yul\":1821:1885   */\n      tag_100\n      jump\t// in\n    tag_117:\n        /* \"#utility.yul\":1811:1885   */\n      swap4\n      pop\n        /* \"#utility.yul\":1766:1895   */\n      pop\n        /* \"#utility.yul\":1934:1936   */\n      0x60\n        /* \"#utility.yul\":1960:2024   */\n      tag_118\n        /* \"#utility.yul\":2016:2023   */\n      dup9\n        /* \"#utility.yul\":2007:2013   */\n      dup3\n        /* \"#utility.yul\":1996:2005   */\n      dup10\n        /* \"#utility.yul\":1992:2014   */\n      add\n        /* \"#utility.yul\":1960:2024   */\n      tag_100\n      jump\t// in\n    tag_118:\n        /* \"#utility.yul\":1950:2024   */\n      swap3\n      pop\n        /* \"#utility.yul\":1905:2034   */\n      pop\n        /* \"#utility.yul\":2073:2076   */\n      0x80\n        /* \"#utility.yul\":2100:2163   */\n      tag_119\n        /* \"#utility.yul\":2155:2162   */\n      dup9\n        /* \"#utility.yul\":2146:2152   */\n      dup3\n        /* \"#utility.yul\":2135:2144   */\n      dup10\n        /* \"#utility.yul\":2131:2153   */\n      add\n        /* \"#utility.yul\":2100:2163   */\n      tag_103\n      jump\t// in\n    tag_119:\n        /* \"#utility.yul\":2090:2163   */\n      swap2\n      pop\n        /* \"#utility.yul\":2044:2173   */\n      pop\n        /* \"#utility.yul\":1418:2180   */\n      swap3\n      swap6\n      pop\n      swap3\n      swap6\n      swap1\n      swap4\n      pop\n      jump\t// out\n        /* \"#utility.yul\":2186:2304   */\n    tag_120:\n        /* \"#utility.yul\":2273:2297   */\n      tag_122\n        /* \"#utility.yul\":2291:2296   */\n      dup2\n        /* \"#utility.yul\":2273:2297   */\n      tag_123\n      jump\t// in\n    tag_122:\n        /* \"#utility.yul\":2268:2271   */\n      dup3\n        /* \"#utility.yul\":2261:2298   */\n      mstore\n        /* \"#utility.yul\":2251:2304   */\n      pop\n      pop\n      jump\t// out\n        /* \"#utility.yul\":2310:2634   */\n    tag_124:\n      0x00\n        /* \"#utility.yul\":2473:2540   */\n      tag_126\n        /* \"#utility.yul\":2537:2539   */\n      0x1a\n        /* \"#utility.yul\":2532:2535   */\n      dup4\n        /* \"#utility.yul\":2473:2540   */\n      tag_127\n      jump\t// in\n    tag_126:\n        /* \"#utility.yul\":2466:2540   */\n      swap2\n      pop\n        /* \"#utility.yul\":2570:2598   */\n      0x446964206e6f742073656e6420656e6f756768206d6f6e657973000000000000\n        /* \"#utility.yul\":2566:2567   */\n      0x00\n        /* \"#utility.yul\":2561:2564   */\n      dup4\n        /* \"#utility.yul\":2557:2568   */\n      add\n        /* \"#utility.yul\":2550:2599   */\n      mstore\n        /* \"#utility.yul\":2625:2627   */\n      0x20\n        /* \"#utility.yul\":2620:2623   */\n      dup3\n        /* \"#utility.yul\":2616:2628   */\n      add\n        /* \"#utility.yul\":2609:2628   */\n      swap1\n      pop\n        /* \"#utility.yul\":2456:2634   */\n      swap2\n      swap1\n      pop\n      jump\t// out\n        /* \"#utility.yul\":2640:2949   */\n    tag_128:\n      0x00\n        /* \"#utility.yul\":2803:2870   */\n      tag_130\n        /* \"#utility.yul\":2867:2869   */\n      0x0b\n        /* \"#utility.yul\":2862:2865   */\n      dup4\n        /* \"#utility.yul\":2803:2870   */\n      tag_127\n      jump\t// in\n    tag_130:\n        /* \"#utility.yul\":2796:2870   */\n      swap2\n      pop\n        /* \"#utility.yul\":2900:2913   */\n      0x53656e64204661696c6564000000000000000000000000000000000000000000\n        /* \"#utility.yul\":2896:2897   */\n      0x00\n        /* \"#utility.yul\":2891:2894   */\n      dup4\n        /* \"#utility.yul\":2887:2898   */\n      add\n        /* \"#utility.yul\":2880:2914   */\n      mstore\n        /* \"#utility.yul\":2940:2942   */\n      0x20\n        /* \"#utility.yul\":2935:2938   */\n      dup3\n        /* \"#utility.yul\":2931:2943   */\n      add\n        /* \"#utility.yul\":2924:2943   */\n      swap1\n      pop\n        /* \"#utility.yul\":2786:2949   */\n      swap2\n      swap1\n      pop\n      jump\t// out\n        /* \"#utility.yul\":2955:3252   */\n    tag_131:\n      0x00\n        /* \"#utility.yul\":3135:3218   */\n      tag_133\n        /* \"#utility.yul\":3216:3217   */\n      0x00\n        /* \"#utility.yul\":3211:3214   */\n      dup4\n        /* \"#utility.yul\":3135:3218   */\n      tag_134\n      jump\t// in\n    tag_133:\n        /* \"#utility.yul\":3128:3218   */\n      swap2\n      pop\n        /* \"#utility.yul\":3244:3245   */\n      0x00\n        /* \"#utility.yul\":3239:3242   */\n      dup3\n        /* \"#utility.yul\":3235:3246   */\n      add\n        /* \"#utility.yul\":3228:3246   */\n      swap1\n      pop\n        /* \"#utility.yul\":3118:3252   */\n      swap2\n      swap1\n      pop\n      jump\t// out\n        /* \"#utility.yul\":3258:3567   */\n    tag_135:\n      0x00\n        /* \"#utility.yul\":3421:3488   */\n      tag_137\n        /* \"#utility.yul\":3485:3487   */\n      0x0b\n        /* \"#utility.yul\":3480:3483   */\n      dup4\n        /* \"#utility.yul\":3421:3488   */\n      tag_127\n      jump\t// in\n    tag_137:\n        /* \"#utility.yul\":3414:3488   */\n      swap2\n      pop\n        /* \"#utility.yul\":3518:3531   */\n      0x43616c6c204661696c6564000000000000000000000000000000000000000000\n        /* \"#utility.yul\":3514:3515   */\n      0x00\n        /* \"#utility.yul\":3509:3512   */\n      dup4\n        /* \"#utility.yul\":3505:3516   */\n      add\n        /* \"#utility.yul\":3498:3532   */\n      mstore\n        /* \"#utility.yul\":3558:3560   */\n      0x20\n        /* \"#utility.yul\":3553:3556   */\n      dup3\n        /* \"#utility.yul\":3549:3561   */\n      add\n        /* \"#utility.yul\":3542:3561   */\n      swap1\n      pop\n        /* \"#utility.yul\":3404:3567   */\n      swap2\n      swap1\n      pop\n      jump\t// out\n        /* \"#utility.yul\":3573:3691   */\n    tag_138:\n        /* \"#utility.yul\":3660:3684   */\n      tag_140\n        /* \"#utility.yul\":3678:3683   */\n      dup2\n        /* \"#utility.yul\":3660:3684   */\n      tag_141\n      jump\t// in\n    tag_140:\n        /* \"#utility.yul\":3655:3658   */\n      dup3\n        /* \"#utility.yul\":3648:3685   */\n      mstore\n        /* \"#utility.yul\":3638:3691   */\n      pop\n      pop\n      jump\t// out\n        /* \"#utility.yul\":3697:4076   */\n    tag_49:\n      0x00\n        /* \"#utility.yul\":3903:4050   */\n      tag_143\n        /* \"#utility.yul\":4046:4049   */\n      dup3\n        /* \"#utility.yul\":3903:4050   */\n      tag_131\n      jump\t// in\n    tag_143:\n        /* \"#utility.yul\":3896:4050   */\n      swap2\n      pop\n        /* \"#utility.yul\":4067:4070   */\n      dup2\n        /* \"#utility.yul\":4060:4070   */\n      swap1\n      pop\n        /* \"#utility.yul\":3885:4076   */\n      swap2\n      swap1\n      pop\n      jump\t// out\n        /* \"#utility.yul\":4082:4304   */\n    tag_29:\n      0x00\n        /* \"#utility.yul\":4213:4215   */\n      0x20\n        /* \"#utility.yul\":4202:4211   */\n      dup3\n        /* \"#utility.yul\":4198:4216   */\n      add\n        /* \"#utility.yul\":4190:4216   */\n      swap1\n      pop\n        /* \"#utility.yul\":4226:4297   */\n      tag_145\n        /* \"#utility.yul\":4294:4295   */\n      0x00\n        /* \"#utility.yul\":4283:4292   */\n      dup4\n        /* \"#utility.yul\":4279:4296   */\n      add\n        /* \"#utility.yul\":4270:4276   */\n      dup5\n        /* \"#utility.yul\":4226:4297   */\n      tag_120\n      jump\t// in\n    tag_145:\n        /* \"#utility.yul\":4180:4304   */\n      swap3\n      swap2\n      pop\n      pop\n      jump\t// out\n        /* \"#utility.yul\":4310:4729   */\n    tag_61:\n      0x00\n        /* \"#utility.yul\":4514:4516   */\n      0x20\n        /* \"#utility.yul\":4503:4512   */\n      dup3\n        /* \"#utility.yul\":4499:4517   */\n      add\n        /* \"#utility.yul\":4491:4517   */\n      swap1\n      pop\n        /* \"#utility.yul\":4563:4572   */\n      dup2\n        /* \"#utility.yul\":4557:4561   */\n      dup2\n        /* \"#utility.yul\":4553:4573   */\n      sub\n        /* \"#utility.yul\":4549:4550   */\n      0x00\n        /* \"#utility.yul\":4538:4547   */\n      dup4\n        /* \"#utility.yul\":4534:4551   */\n      add\n        /* \"#utility.yul\":4527:4574   */\n      mstore\n        /* \"#utility.yul\":4591:4722   */\n      tag_147\n        /* \"#utility.yul\":4717:4721   */\n      dup2\n        /* \"#utility.yul\":4591:4722   */\n      tag_124\n      jump\t// in\n    tag_147:\n        /* \"#utility.yul\":4583:4722   */\n      swap1\n      pop\n        /* \"#utility.yul\":4481:4729   */\n      swap2\n      swap1\n      pop\n      jump\t// out\n        /* \"#utility.yul\":4735:5154   */\n    tag_47:\n      0x00\n        /* \"#utility.yul\":4939:4941   */\n      0x20\n        /* \"#utility.yul\":4928:4937   */\n      dup3\n        /* \"#utility.yul\":4924:4942   */\n      add\n        /* \"#utility.yul\":4916:4942   */\n      swap1\n      pop\n        /* \"#utility.yul\":4988:4997   */\n      dup2\n        /* \"#utility.yul\":4982:4986   */\n      dup2\n        /* \"#utility.yul\":4978:4998   */\n      sub\n        /* \"#utility.yul\":4974:4975   */\n      0x00\n        /* \"#utility.yul\":4963:4972   */\n      dup4\n        /* \"#utility.yul\":4959:4976   */\n      add\n        /* \"#utility.yul\":4952:4999   */\n      mstore\n        /* \"#utility.yul\":5016:5147   */\n      tag_149\n        /* \"#utility.yul\":5142:5146   */\n      dup2\n        /* \"#utility.yul\":5016:5147   */\n      tag_128\n      jump\t// in\n    tag_149:\n        /* \"#utility.yul\":5008:5147   */\n      swap1\n      pop\n        /* \"#utility.yul\":4906:5154   */\n      swap2\n      swap1\n      pop\n      jump\t// out\n        /* \"#utility.yul\":5160:5579   */\n    tag_55:\n      0x00\n        /* \"#utility.yul\":5364:5366   */\n      0x20\n        /* \"#utility.yul\":5353:5362   */\n      dup3\n        /* \"#utility.yul\":5349:5367   */\n      add\n        /* \"#utility.yul\":5341:5367   */\n      swap1\n      pop\n        /* \"#utility.yul\":5413:5422   */\n      dup2\n        /* \"#utility.yul\":5407:5411   */\n      dup2\n        /* \"#utility.yul\":5403:5423   */\n      sub\n        /* \"#utility.yul\":5399:5400   */\n      0x00\n        /* \"#utility.yul\":5388:5397   */\n      dup4\n        /* \"#utility.yul\":5384:5401   */\n      add\n        /* \"#utility.yul\":5377:5424   */\n      mstore\n        /* \"#utility.yul\":5441:5572   */\n      tag_151\n        /* \"#utility.yul\":5567:5571   */\n      dup2\n        /* \"#utility.yul\":5441:5572   */\n      tag_135\n      jump\t// in\n    tag_151:\n        /* \"#utility.yul\":5433:5572   */\n      swap1\n      pop\n        /* \"#utility.yul\":5331:5579   */\n      swap2\n      swap1\n      pop\n      jump\t// out\n        /* \"#utility.yul\":5585:5807   */\n    tag_11:\n      0x00\n        /* \"#utility.yul\":5716:5718   */\n      0x20\n        /* \"#utility.yul\":5705:5714   */\n      dup3\n        /* \"#utility.yul\":5701:5719   */\n      add\n        /* \"#utility.yul\":5693:5719   */\n      swap1\n      pop\n        /* \"#utility.yul\":5729:5800   */\n      tag_153\n        /* \"#utility.yul\":5797:5798   */\n      0x00\n        /* \"#utility.yul\":5786:5795   */\n      dup4\n        /* \"#utility.yul\":5782:5799   */\n      add\n        /* \"#utility.yul\":5773:5779   */\n      dup5\n        /* \"#utility.yul\":5729:5800   */\n      tag_138\n      jump\t// in\n    tag_153:\n        /* \"#utility.yul\":5683:5807   */\n      swap3\n      swap2\n      pop\n      pop\n      jump\t// out\n        /* \"#utility.yul\":5813:5960   */\n    tag_134:\n      0x00\n        /* \"#utility.yul\":5951:5954   */\n      dup2\n        /* \"#utility.yul\":5936:5954   */\n      swap1\n      pop\n        /* \"#utility.yul\":5926:5960   */\n      swap3\n      swap2\n      pop\n      pop\n      jump\t// out\n        /* \"#utility.yul\":5966:6135   */\n    tag_127:\n      0x00\n        /* \"#utility.yul\":6084:6090   */\n      dup3\n        /* \"#utility.yul\":6079:6082   */\n      dup3\n        /* \"#utility.yul\":6072:6091   */\n      mstore\n        /* \"#utility.yul\":6124:6128   */\n      0x20\n        /* \"#utility.yul\":6119:6122   */\n      dup3\n        /* \"#utility.yul\":6115:6129   */\n      add\n        /* \"#utility.yul\":6100:6129   */\n      swap1\n      pop\n        /* \"#utility.yul\":6062:6135   */\n      swap3\n      swap2\n      pop\n      pop\n      jump\t// out\n        /* \"#utility.yul\":6141:6446   */\n    tag_37:\n      0x00\n        /* \"#utility.yul\":6200:6220   */\n      tag_157\n        /* \"#utility.yul\":6218:6219   */\n      dup3\n        /* \"#utility.yul\":6200:6220   */\n      tag_141\n      jump\t// in\n    tag_157:\n        /* \"#utility.yul\":6195:6220   */\n      swap2\n      pop\n        /* \"#utility.yul\":6234:6254   */\n      tag_158\n        /* \"#utility.yul\":6252:6253   */\n      dup4\n        /* \"#utility.yul\":6234:6254   */\n      tag_141\n      jump\t// in\n    tag_158:\n        /* \"#utility.yul\":6229:6254   */\n      swap3\n      pop\n        /* \"#utility.yul\":6388:6389   */\n      dup3\n        /* \"#utility.yul\":6320:6386   */\n      0xffffffffffffffffffffffffffffffffffffffffffffffffffffffffffffffff\n        /* \"#utility.yul\":6316:6390   */\n      sub\n        /* \"#utility.yul\":6313:6314   */\n      dup3\n        /* \"#utility.yul\":6310:6391   */\n      gt\n        /* \"#utility.yul\":6307:6309   */\n      iszero\n      tag_159\n      jumpi\n        /* \"#utility.yul\":6394:6412   */\n      tag_160\n      tag_161\n      jump\t// in\n    tag_160:\n        /* \"#utility.yul\":6307:6309   */\n    tag_159:\n        /* \"#utility.yul\":6438:6439   */\n      dup3\n        /* \"#utility.yul\":6435:6436   */\n      dup3\n        /* \"#utility.yul\":6431:6440   */\n      add\n        /* \"#utility.yul\":6424:6440   */\n      swap1\n      pop\n        /* \"#utility.yul\":6185:6446   */\n      swap3\n      swap2\n      pop\n      pop\n      jump\t// out\n        /* \"#utility.yul\":6452:6637   */\n    tag_71:\n      0x00\n        /* \"#utility.yul\":6509:6529   */\n      tag_163\n        /* \"#utility.yul\":6527:6528   */\n      dup3\n        /* \"#utility.yul\":6509:6529   */\n      tag_141\n      jump\t// in\n    tag_163:\n        /* \"#utility.yul\":6504:6529   */\n      swap2\n      pop\n        /* \"#utility.yul\":6543:6563   */\n      tag_164\n        /* \"#utility.yul\":6561:6562   */\n      dup4\n        /* \"#utility.yul\":6543:6563   */\n      tag_141\n      jump\t// in\n    tag_164:\n        /* \"#utility.yul\":6538:6563   */\n      swap3\n      pop\n        /* \"#utility.yul\":6582:6583   */\n      dup3\n        /* \"#utility.yul\":6572:6574   */\n      tag_165\n      jumpi\n        /* \"#utility.yul\":6587:6605   */\n      tag_166\n      tag_167\n      jump\t// in\n    tag_166:\n        /* \"#utility.yul\":6572:6574   */\n    tag_165:\n        /* \"#utility.yul\":6629:6630   */\n      dup3\n        /* \"#utility.yul\":6626:6627   */\n      dup3\n        /* \"#utility.yul\":6622:6631   */\n      div\n        /* \"#utility.yul\":6617:6631   */\n      swap1\n      pop\n        /* \"#utility.yul\":6494:6637   */\n      swap3\n      swap2\n      pop\n      pop\n      jump\t// out\n        /* \"#utility.yul\":6643:7634   */\n    tag_79:\n      0x00\n        /* \"#utility.yul\":6705:6724   */\n      tag_169\n        /* \"#utility.yul\":6722:6723   */\n      dup3\n        /* \"#utility.yul\":6705:6724   */\n      tag_170\n      jump\t// in\n    tag_169:\n        /* \"#utility.yul\":6700:6724   */\n      swap2\n      pop\n        /* \"#utility.yul\":6738:6757   */\n      tag_171\n        /* \"#utility.yul\":6755:6756   */\n      dup4\n        /* \"#utility.yul\":6738:6757   */\n      tag_170\n      jump\t// in\n    tag_171:\n        /* \"#utility.yul\":6733:6757   */\n      swap3\n      pop\n        /* \"#utility.yul\":6939:6940   */\n      dup3\n        /* \"#utility.yul\":6871:6937   */\n      0x7fffffffffffffffffffffffffffffffffffffffffffffffffffffffffffffff\n        /* \"#utility.yul\":6867:6941   */\n      div\n        /* \"#utility.yul\":6864:6865   */\n      dup3\n        /* \"#utility.yul\":6861:6942   */\n      gt\n        /* \"#utility.yul\":6856:6857   */\n      0x00\n        /* \"#utility.yul\":6853:6854   */\n      dup5\n        /* \"#utility.yul\":6849:6858   */\n      sgt\n        /* \"#utility.yul\":6845:6846   */\n      0x00\n        /* \"#utility.yul\":6842:6843   */\n      dup5\n        /* \"#utility.yul\":6838:6847   */\n      sgt\n        /* \"#utility.yul\":6834:6859   */\n      and\n        /* \"#utility.yul\":6830:6943   */\n      and\n        /* \"#utility.yul\":6827:6829   */\n      iszero\n      tag_172\n      jumpi\n        /* \"#utility.yul\":6946:6964   */\n      tag_173\n      tag_161\n      jump\t// in\n    tag_173:\n        /* \"#utility.yul\":6827:6829   */\n    tag_172:\n        /* \"#utility.yul\":7150:7151   */\n      dup2\n        /* \"#utility.yul\":7082:7148   */\n      0x8000000000000000000000000000000000000000000000000000000000000000\n        /* \"#utility.yul\":7077:7152   */\n      sdiv\n        /* \"#utility.yul\":7074:7075   */\n      dup4\n        /* \"#utility.yul\":7070:7153   */\n      slt\n        /* \"#utility.yul\":7065:7066   */\n      0x00\n        /* \"#utility.yul\":7062:7063   */\n      dup5\n        /* \"#utility.yul\":7058:7067   */\n      slt\n        /* \"#utility.yul\":7054:7055   */\n      0x00\n        /* \"#utility.yul\":7051:7052   */\n      dup5\n        /* \"#utility.yul\":7047:7056   */\n      sgt\n        /* \"#utility.yul\":7043:7068   */\n      and\n        /* \"#utility.yul\":7039:7154   */\n      and\n        /* \"#utility.yul\":7036:7038   */\n      iszero\n      tag_174\n      jumpi\n        /* \"#utility.yul\":7157:7175   */\n      tag_175\n      tag_161\n      jump\t// in\n    tag_175:\n        /* \"#utility.yul\":7036:7038   */\n    tag_174:\n        /* \"#utility.yul\":7361:7362   */\n      dup3\n        /* \"#utility.yul\":7293:7359   */\n      0x8000000000000000000000000000000000000000000000000000000000000000\n        /* \"#utility.yul\":7288:7363   */\n      sdiv\n        /* \"#utility.yul\":7285:7286   */\n      dup3\n        /* \"#utility.yul\":7281:7364   */\n      slt\n        /* \"#utility.yul\":7276:7277   */\n      0x00\n        /* \"#utility.yul\":7273:7274   */\n      dup5\n        /* \"#utility.yul\":7269:7278   */\n      sgt\n        /* \"#utility.yul\":7265:7266   */\n      0x00\n        /* \"#utility.yul\":7262:7263   */\n      dup5\n        /* \"#utility.yul\":7258:7267   */\n      slt\n        /* \"#utility.yul\":7254:7279   */\n      and\n        /* \"#utility.yul\":7250:7365   */\n      and\n        /* \"#utility.yul\":7247:7249   */\n      iszero\n      tag_176\n      jumpi\n        /* \"#utility.yul\":7368:7386   */\n      tag_177\n      tag_161\n      jump\t// in\n    tag_177:\n        /* \"#utility.yul\":7247:7249   */\n    tag_176:\n        /* \"#utility.yul\":7571:7572   */\n      dup3\n        /* \"#utility.yul\":7503:7569   */\n      0x7fffffffffffffffffffffffffffffffffffffffffffffffffffffffffffffff\n        /* \"#utility.yul\":7498:7573   */\n      sdiv\n        /* \"#utility.yul\":7495:7496   */\n      dup3\n        /* \"#utility.yul\":7491:7574   */\n      slt\n        /* \"#utility.yul\":7486:7487   */\n      0x00\n        /* \"#utility.yul\":7483:7484   */\n      dup5\n        /* \"#utility.yul\":7479:7488   */\n      slt\n        /* \"#utility.yul\":7475:7476   */\n      0x00\n        /* \"#utility.yul\":7472:7473   */\n      dup5\n        /* \"#utility.yul\":7468:7477   */\n      slt\n        /* \"#utility.yul\":7464:7489   */\n      and\n        /* \"#utility.yul\":7460:7575   */\n      and\n        /* \"#utility.yul\":7457:7459   */\n      iszero\n      tag_178\n      jumpi\n        /* \"#utility.yul\":7578:7596   */\n      tag_179\n      tag_161\n      jump\t// in\n    tag_179:\n        /* \"#utility.yul\":7457:7459   */\n    tag_178:\n        /* \"#utility.yul\":7626:7627   */\n      dup3\n        /* \"#utility.yul\":7623:7624   */\n      dup3\n        /* \"#utility.yul\":7619:7628   */\n      mul\n        /* \"#utility.yul\":7608:7628   */\n      swap1\n      pop\n        /* \"#utility.yul\":6690:7634   */\n      swap3\n      swap2\n      pop\n      pop\n      jump\t// out\n        /* \"#utility.yul\":7640:7988   */\n    tag_69:\n      0x00\n        /* \"#utility.yul\":7703:7723   */\n      tag_181\n        /* \"#utility.yul\":7721:7722   */\n      dup3\n        /* \"#utility.yul\":7703:7723   */\n      tag_141\n      jump\t// in\n    tag_181:\n        /* \"#utility.yul\":7698:7723   */\n      swap2\n      pop\n        /* \"#utility.yul\":7737:7757   */\n      tag_182\n        /* \"#utility.yul\":7755:7756   */\n      dup4\n        /* \"#utility.yul\":7737:7757   */\n      tag_141\n      jump\t// in\n    tag_182:\n        /* \"#utility.yul\":7732:7757   */\n      swap3\n      pop\n        /* \"#utility.yul\":7925:7926   */\n      dup2\n        /* \"#utility.yul\":7857:7923   */\n      0xffffffffffffffffffffffffffffffffffffffffffffffffffffffffffffffff\n        /* \"#utility.yul\":7853:7927   */\n      div\n        /* \"#utility.yul\":7850:7851   */\n      dup4\n        /* \"#utility.yul\":7847:7928   */\n      gt\n        /* \"#utility.yul\":7842:7843   */\n      dup3\n        /* \"#utility.yul\":7835:7844   */\n      iszero\n        /* \"#utility.yul\":7828:7845   */\n      iszero\n        /* \"#utility.yul\":7824:7929   */\n      and\n        /* \"#utility.yul\":7821:7823   */\n      iszero\n      tag_183\n      jumpi\n        /* \"#utility.yul\":7932:7950   */\n      tag_184\n      tag_161\n      jump\t// in\n    tag_184:\n        /* \"#utility.yul\":7821:7823   */\n    tag_183:\n        /* \"#utility.yul\":7980:7981   */\n      dup3\n        /* \"#utility.yul\":7977:7978   */\n      dup3\n        /* \"#utility.yul\":7973:7982   */\n      mul\n        /* \"#utility.yul\":7962:7982   */\n      swap1\n      pop\n        /* \"#utility.yul\":7688:7988   */\n      swap3\n      swap2\n      pop\n      pop\n      jump\t// out\n        /* \"#utility.yul\":7994:8090   */\n    tag_123:\n      0x00\n        /* \"#utility.yul\":8060:8084   */\n      tag_186\n        /* \"#utility.yul\":8078:8083   */\n      dup3\n        /* \"#utility.yul\":8060:8084   */\n      tag_187\n      jump\t// in\n    tag_186:\n        /* \"#utility.yul\":8049:8084   */\n      swap1\n      pop\n        /* \"#utility.yul\":8039:8090   */\n      swap2\n      swap1\n      pop\n      jump\t// out\n        /* \"#utility.yul\":8096:8172   */\n    tag_170:\n      0x00\n        /* \"#utility.yul\":8161:8166   */\n      dup2\n        /* \"#utility.yul\":8150:8166   */\n      swap1\n      pop\n        /* \"#utility.yul\":8140:8172   */\n      swap2\n      swap1\n      pop\n      jump\t// out\n        /* \"#utility.yul\":8178:8304   */\n    tag_187:\n      0x00\n        /* \"#utility.yul\":8255:8297   */\n      0xffffffffffffffffffffffffffffffffffffffff\n        /* \"#utility.yul\":8248:8253   */\n      dup3\n        /* \"#utility.yul\":8244:8298   */\n      and\n        /* \"#utility.yul\":8233:8298   */\n      swap1\n      pop\n        /* \"#utility.yul\":8223:8304   */\n      swap2\n      swap1\n      pop\n      jump\t// out\n        /* \"#utility.yul\":8310:8387   */\n    tag_141:\n      0x00\n        /* \"#utility.yul\":8376:8381   */\n      dup2\n        /* \"#utility.yul\":8365:8381   */\n      swap1\n      pop\n        /* \"#utility.yul\":8355:8387   */\n      swap2\n      swap1\n      pop\n      jump\t// out\n        /* \"#utility.yul\":8393:8498   */\n    tag_191:\n      0x00\n        /* \"#utility.yul\":8469:8491   */\n      0xffffffffffffffffffff\n        /* \"#utility.yul\":8462:8467   */\n      dup3\n        /* \"#utility.yul\":8458:8492   */\n      and\n        /* \"#utility.yul\":8447:8492   */\n      swap1\n      pop\n        /* \"#utility.yul\":8437:8498   */\n      swap2\n      swap1\n      pop\n      jump\t// out\n        /* \"#utility.yul\":8504:8684   */\n    tag_161:\n        /* \"#utility.yul\":8552:8629   */\n      0x4e487b7100000000000000000000000000000000000000000000000000000000\n        /* \"#utility.yul\":8549:8550   */\n      0x00\n        /* \"#utility.yul\":8542:8630   */\n      mstore\n        /* \"#utility.yul\":8649:8653   */\n      0x11\n        /* \"#utility.yul\":8646:8647   */\n      0x04\n        /* \"#utility.yul\":8639:8654   */\n      mstore\n        /* \"#utility.yul\":8673:8677   */\n      0x24\n        /* \"#utility.yul\":8670:8671   */\n      0x00\n        /* \"#utility.yul\":8663:8678   */\n      revert\n        /* \"#utility.yul\":8690:8870   */\n    tag_167:\n        /* \"#utility.yul\":8738:8815   */\n      0x4e487b7100000000000000000000000000000000000000000000000000000000\n        /* \"#utility.yul\":8735:8736   */\n      0x00\n        /* \"#utility.yul\":8728:8816   */\n      mstore\n        /* \"#utility.yul\":8835:8839   */\n      0x12\n        /* \"#utility.yul\":8832:8833   */\n      0x04\n        /* \"#utility.yul\":8825:8840   */\n      mstore\n        /* \"#utility.yul\":8859:8863   */\n      0x24\n        /* \"#utility.yul\":8856:8857   */\n      0x00\n        /* \"#utility.yul\":8849:8864   */\n      revert\n        /* \"#utility.yul\":8876:8998   */\n    tag_91:\n        /* \"#utility.yul\":8949:8973   */\n      tag_196\n        /* \"#utility.yul\":8967:8972   */\n      dup2\n        /* \"#utility.yul\":8949:8973   */\n      tag_123\n      jump\t// in\n    tag_196:\n        /* \"#utility.yul\":8942:8947   */\n      dup2\n        /* \"#utility.yul\":8939:8974   */\n      eq\n        /* \"#utility.yul\":8929:8931   */\n      tag_197\n      jumpi\n        /* \"#utility.yul\":8988:8989   */\n      0x00\n        /* \"#utility.yul\":8985:8986   */\n      dup1\n        /* \"#utility.yul\":8978:8990   */\n      revert\n        /* \"#utility.yul\":8929:8931   */\n    tag_197:\n        /* \"#utility.yul\":8919:8998   */\n      pop\n      jump\t// out\n        /* \"#utility.yul\":9004:9124   */\n    tag_95:\n        /* \"#utility.yul\":9076:9099   */\n      tag_199\n        /* \"#utility.yul\":9093:9098   */\n      dup2\n        /* \"#utility.yul\":9076:9099   */\n      tag_170\n      jump\t// in\n    tag_199:\n        /* \"#utility.yul\":9069:9074   */\n      dup2\n        /* \"#utility.yul\":9066:9100   */\n      eq\n        /* \"#utility.yul\":9056:9058   */\n      tag_200\n      jumpi\n        /* \"#utility.yul\":9114:9115   */\n      0x00\n        /* \"#utility.yul\":9111:9112   */\n      dup1\n        /* \"#utility.yul\":9104:9116   */\n      revert\n        /* \"#utility.yul\":9056:9058   */\n    tag_200:\n        /* \"#utility.yul\":9046:9124   */\n      pop\n      jump\t// out\n        /* \"#utility.yul\":9130:9252   */\n    tag_99:\n        /* \"#utility.yul\":9203:9227   */\n      tag_202\n        /* \"#utility.yul\":9221:9226   */\n      dup2\n        /* \"#utility.yul\":9203:9227   */\n      tag_141\n      jump\t// in\n    tag_202:\n        /* \"#utility.yul\":9196:9201   */\n      dup2\n        /* \"#utility.yul\":9193:9228   */\n      eq\n        /* \"#utility.yul\":9183:9185   */\n      tag_203\n      jumpi\n        /* \"#utility.yul\":9242:9243   */\n      0x00\n        /* \"#utility.yul\":9239:9240   */\n      dup1\n        /* \"#utility.yul\":9232:9244   */\n      revert\n        /* \"#utility.yul\":9183:9185   */\n    tag_203:\n        /* \"#utility.yul\":9173:9252   */\n      pop\n      jump\t// out\n        /* \"#utility.yul\":9258:9378   */\n    tag_106:\n        /* \"#utility.yul\":9330:9353   */\n      tag_205\n        /* \"#utility.yul\":9347:9352   */\n      dup2\n        /* \"#utility.yul\":9330:9353   */\n      tag_191\n      jump\t// in\n    tag_205:\n        /* \"#utility.yul\":9323:9328   */\n      dup2\n        /* \"#utility.yul\":9320:9354   */\n      eq\n        /* \"#utility.yul\":9310:9312   */\n      tag_206\n      jumpi\n        /* \"#utility.yul\":9368:9369   */\n      0x00\n        /* \"#utility.yul\":9365:9366   */\n      dup1\n        /* \"#utility.yul\":9358:9370   */\n      revert\n        /* \"#utility.yul\":9310:9312   */\n    tag_206:\n        /* \"#utility.yul\":9300:9378   */\n      pop\n      jump\t// out\n\n    auxdata: 0xa264697066735822122045f592e0a1b69732e7058d292ebecf44792d51a84735b4d46b9cb3ecfaba85d764736f6c63430008000033\n}\n",
				"bytecode": {
					"linkReferences": {},
					"object": "60806040526802b5e3af16b188000060005534801561001d57600080fd5b50610d008061002d6000396000f3fe60806040526004361061004a5760003560e01c8063098de8201461004f5780633ccfd60b1461007a5780633e47d6f314610091578063b60d4288146100ce578063dc0d3dff146100d8575b600080fd5b34801561005b57600080fd5b50610064610115565b6040516100719190610985565b60405180910390f35b34801561008657600080fd5b5061008f61011b565b005b34801561009d57600080fd5b506100b860048036038101906100b39190610734565b6103e5565b6040516100c59190610985565b60405180910390f35b6100d66103fd565b005b3480156100e457600080fd5b506100ff60048036038101906100fa919061075d565b6104f3565b60405161010c919061090a565b60405180910390f35b60005481565b60005b6001805490508110156101ee57600060018281548110610167577f4e487b7100000000000000000000000000000000000000000000000000000000600052603260045260246000fd5b9060005260206000200160009054906101000a900473ffffffffffffffffffffffffffffffffffffffff1690506000600260008373ffffffffffffffffffffffffffffffffffffffff1673ffffffffffffffffffffffffffffffffffffffff16815260200190815260200160002081905550506001816101e791906109bc565b905061011e565b50600067ffffffffffffffff811115610230577f4e487b7100000000000000000000000000000000000000000000000000000000600052604160045260246000fd5b60405190808252806020026020018201604052801561025e5781602001602082028036833780820191505090505b5060019080519060200190610274929190610624565b503373ffffffffffffffffffffffffffffffffffffffff166108fc479081150290604051600060405180830381858888f193505050501580156102bb573d6000803e3d6000fd5b5060003373ffffffffffffffffffffffffffffffffffffffff166108fc479081150290604051600060405180830381858888f19350505050905080610335576040517f08c379a000000000000000000000000000000000000000000000000000000000815260040161032c90610945565b60405180910390fd5b60003373ffffffffffffffffffffffffffffffffffffffff164760405161035b906108f5565b60006040518083038185875af1925050503d8060008114610398576040519150601f19603f3d011682016040523d82523d6000602084013e61039d565b606091505b50509050806103e1576040517f08c379a00000000000000000000000000000000000000000000000000000000081526004016103d890610965565b60405180910390fd5b5050565b60026020528060005260406000206000915090505481565b60005461040934610532565b101561044a576040517f08c379a000000000000000000000000000000000000000000000000000000000815260040161044190610925565b60405180910390fd5b6001339080600181540180825580915050600190039060005260206000200160009091909190916101000a81548173ffffffffffffffffffffffffffffffffffffffff021916908373ffffffffffffffffffffffffffffffffffffffff16021790555034600260003373ffffffffffffffffffffffffffffffffffffffff1673ffffffffffffffffffffffffffffffffffffffff16815260200190815260200160002081905550565b6001818154811061050357600080fd5b906000526020600020016000915054906101000a900473ffffffffffffffffffffffffffffffffffffffff1681565b60008061053d61056c565b90506000670de0b6b3a764000084836105569190610b5a565b6105609190610a12565b90508092505050919050565b600080735f4ec3df9cbd43714fe2740f5e3616155c5b8419905060008173ffffffffffffffffffffffffffffffffffffffff1663feaf968c6040518163ffffffff1660e01b815260040160a06040518083038186803b1580156105ce57600080fd5b505afa1580156105e2573d6000803e3d6000fd5b505050506040513d601f19601f820116820180604052508101906106069190610786565b5050509150506402540be4008161061d9190610a43565b9250505090565b82805482825590600052602060002090810192821561069d579160200282015b8281111561069c5782518260006101000a81548173ffffffffffffffffffffffffffffffffffffffff021916908373ffffffffffffffffffffffffffffffffffffffff16021790555091602001919060010190610644565b5b5090506106aa91906106ae565b5090565b5b808211156106c75760008160009055506001016106af565b5090565b6000813590506106da81610c6e565b92915050565b6000815190506106ef81610c85565b92915050565b60008135905061070481610c9c565b92915050565b60008151905061071981610c9c565b92915050565b60008151905061072e81610cb3565b92915050565b60006020828403121561074657600080fd5b6000610754848285016106cb565b91505092915050565b60006020828403121561076f57600080fd5b600061077d848285016106f5565b91505092915050565b600080600080600060a0868803121561079e57600080fd5b60006107ac8882890161071f565b95505060206107bd888289016106e0565b94505060406107ce8882890161070a565b93505060606107df8882890161070a565b92505060806107f08882890161071f565b9150509295509295909350565b61080681610bb4565b82525050565b6000610819601a836109ab565b91507f446964206e6f742073656e6420656e6f756768206d6f6e6579730000000000006000830152602082019050919050565b6000610859600b836109ab565b91507f53656e64204661696c65640000000000000000000000000000000000000000006000830152602082019050919050565b60006108996000836109a0565b9150600082019050919050565b60006108b3600b836109ab565b91507f43616c6c204661696c65640000000000000000000000000000000000000000006000830152602082019050919050565b6108ef81610bf0565b82525050565b60006109008261088c565b9150819050919050565b600060208201905061091f60008301846107fd565b92915050565b6000602082019050818103600083015261093e8161080c565b9050919050565b6000602082019050818103600083015261095e8161084c565b9050919050565b6000602082019050818103600083015261097e816108a6565b9050919050565b600060208201905061099a60008301846108e6565b92915050565b600081905092915050565b600082825260208201905092915050565b60006109c782610bf0565b91506109d283610bf0565b9250827fffffffffffffffffffffffffffffffffffffffffffffffffffffffffffffffff03821115610a0757610a06610c10565b5b828201905092915050565b6000610a1d82610bf0565b9150610a2883610bf0565b925082610a3857610a37610c3f565b5b828204905092915050565b6000610a4e82610bc6565b9150610a5983610bc6565b9250827f7fffffffffffffffffffffffffffffffffffffffffffffffffffffffffffffff0482116000841360008413161615610a9857610a97610c10565b5b817f80000000000000000000000000000000000000000000000000000000000000000583126000841260008413161615610ad557610ad4610c10565b5b827f80000000000000000000000000000000000000000000000000000000000000000582126000841360008412161615610b1257610b11610c10565b5b827f7fffffffffffffffffffffffffffffffffffffffffffffffffffffffffffffff0582126000841260008412161615610b4f57610b4e610c10565b5b828202905092915050565b6000610b6582610bf0565b9150610b7083610bf0565b9250817fffffffffffffffffffffffffffffffffffffffffffffffffffffffffffffffff0483118215151615610ba957610ba8610c10565b5b828202905092915050565b6000610bbf82610bd0565b9050919050565b6000819050919050565b600073ffffffffffffffffffffffffffffffffffffffff82169050919050565b6000819050919050565b600069ffffffffffffffffffff82169050919050565b7f4e487b7100000000000000000000000000000000000000000000000000000000600052601160045260246000fd5b7f4e487b7100000000000000000000000000000000000000000000000000000000600052601260045260246000fd5b610c7781610bb4565b8114610c8257600080fd5b50565b610c8e81610bc6565b8114610c9957600080fd5b50565b610ca581610bf0565b8114610cb057600080fd5b50565b610cbc81610bfa565b8114610cc757600080fd5b5056fea264697066735822122045f592e0a1b69732e7058d292ebecf44792d51a84735b4d46b9cb3ecfaba85d764736f6c63430008000033",
					"opcodes": "PUSH1 0x80 PUSH1 0x40 MSTORE PUSH9 0x2B5E3AF16B1880000 PUSH1 0x0 SSTORE CALLVALUE DUP1 ISZERO PUSH2 0x1D JUMPI PUSH1 0x0 DUP1 REVERT JUMPDEST POP PUSH2 0xD00 DUP1 PUSH2 0x2D PUSH1 0x0 CODECOPY PUSH1 0x0 RETURN INVALID PUSH1 0x80 PUSH1 0x40 MSTORE PUSH1 0x4 CALLDATASIZE LT PUSH2 0x4A JUMPI PUSH1 0x0 CALLDATALOAD PUSH1 0xE0 SHR DUP1 PUSH4 0x98DE820 EQ PUSH2 0x4F JUMPI DUP1 PUSH4 0x3CCFD60B EQ PUSH2 0x7A JUMPI DUP1 PUSH4 0x3E47D6F3 EQ PUSH2 0x91 JUMPI DUP1 PUSH4 0xB60D4288 EQ PUSH2 0xCE JUMPI DUP1 PUSH4 0xDC0D3DFF EQ PUSH2 0xD8 JUMPI JUMPDEST PUSH1 0x0 DUP1 REVERT JUMPDEST CALLVALUE DUP1 ISZERO PUSH2 0x5B JUMPI PUSH1 0x0 DUP1 REVERT JUMPDEST POP PUSH2 0x64 PUSH2 0x115 JUMP JUMPDEST PUSH1 0x40 MLOAD PUSH2 0x71 SWAP2 SWAP1 PUSH2 0x985 JUMP JUMPDEST PUSH1 0x40 MLOAD DUP1 SWAP2 SUB SWAP1 RETURN JUMPDEST CALLVALUE DUP1 ISZERO PUSH2 0x86 JUMPI PUSH1 0x0 DUP1 REVERT JUMPDEST POP PUSH2 0x8F PUSH2 0x11B JUMP JUMPDEST STOP JUMPDEST CALLVALUE DUP1 ISZERO PUSH2 0x9D JUMPI PUSH1 0x0 DUP1 REVERT JUMPDEST POP PUSH2 0xB8 PUSH1 0x4 DUP1 CALLDATASIZE SUB DUP2 ADD SWAP1 PUSH2 0xB3 SWAP2 SWAP1 PUSH2 0x734 JUMP JUMPDEST PUSH2 0x3E5 JUMP JUMPDEST PUSH1 0x40 MLOAD PUSH2 0xC5 SWAP2 SWAP1 PUSH2 0x985 JUMP JUMPDEST PUSH1 0x40 MLOAD DUP1 SWAP2 SUB SWAP1 RETURN JUMPDEST PUSH2 0xD6 PUSH2 0x3FD JUMP JUMPDEST STOP JUMPDEST CALLVALUE DUP1 ISZERO PUSH2 0xE4 JUMPI PUSH1 0x0 DUP1 REVERT JUMPDEST POP PUSH2 0xFF PUSH1 0x4 DUP1 CALLDATASIZE SUB DUP2 ADD SWAP1 PUSH2 0xFA SWAP2 SWAP1 PUSH2 0x75D JUMP JUMPDEST PUSH2 0x4F3 JUMP JUMPDEST PUSH1 0x40 MLOAD PUSH2 0x10C SWAP2 SWAP1 PUSH2 0x90A JUMP JUMPDEST PUSH1 0x40 MLOAD DUP1 SWAP2 SUB SWAP1 RETURN JUMPDEST PUSH1 0x0 SLOAD DUP2 JUMP JUMPDEST PUSH1 0x0 JUMPDEST PUSH1 0x1 DUP1 SLOAD SWAP1 POP DUP2 LT ISZERO PUSH2 0x1EE JUMPI PUSH1 0x0 PUSH1 0x1 DUP3 DUP2 SLOAD DUP2 LT PUSH2 0x167 JUMPI PUSH32 0x4E487B7100000000000000000000000000000000000000000000000000000000 PUSH1 0x0 MSTORE PUSH1 0x32 PUSH1 0x4 MSTORE PUSH1 0x24 PUSH1 0x0 REVERT JUMPDEST SWAP1 PUSH1 0x0 MSTORE PUSH1 0x20 PUSH1 0x0 KECCAK256 ADD PUSH1 0x0 SWAP1 SLOAD SWAP1 PUSH2 0x100 EXP SWAP1 DIV PUSH20 0xFFFFFFFFFFFFFFFFFFFFFFFFFFFFFFFFFFFFFFFF AND SWAP1 POP PUSH1 0x0 PUSH1 0x2 PUSH1 0x0 DUP4 PUSH20 0xFFFFFFFFFFFFFFFFFFFFFFFFFFFFFFFFFFFFFFFF AND PUSH20 0xFFFFFFFFFFFFFFFFFFFFFFFFFFFFFFFFFFFFFFFF AND DUP2 MSTORE PUSH1 0x20 ADD SWAP1 DUP2 MSTORE PUSH1 0x20 ADD PUSH1 0x0 KECCAK256 DUP2 SWAP1 SSTORE POP POP PUSH1 0x1 DUP2 PUSH2 0x1E7 SWAP2 SWAP1 PUSH2 0x9BC JUMP JUMPDEST SWAP1 POP PUSH2 0x11E JUMP JUMPDEST POP PUSH1 0x0 PUSH8 0xFFFFFFFFFFFFFFFF DUP2 GT ISZERO PUSH2 0x230 JUMPI PUSH32 0x4E487B7100000000000000000000000000000000000000000000000000000000 PUSH1 0x0 MSTORE PUSH1 0x41 PUSH1 0x4 MSTORE PUSH1 0x24 PUSH1 0x0 REVERT JUMPDEST PUSH1 0x40 MLOAD SWAP1 DUP1 DUP3 MSTORE DUP1 PUSH1 0x20 MUL PUSH1 0x20 ADD DUP3 ADD PUSH1 0x40 MSTORE DUP1 ISZERO PUSH2 0x25E JUMPI DUP2 PUSH1 0x20 ADD PUSH1 0x20 DUP3 MUL DUP1 CALLDATASIZE DUP4 CALLDATACOPY DUP1 DUP3 ADD SWAP2 POP POP SWAP1 POP JUMPDEST POP PUSH1 0x1 SWAP1 DUP1 MLOAD SWAP1 PUSH1 0x20 ADD SWAP1 PUSH2 0x274 SWAP3 SWAP2 SWAP1 PUSH2 0x624 JUMP JUMPDEST POP CALLER PUSH20 0xFFFFFFFFFFFFFFFFFFFFFFFFFFFFFFFFFFFFFFFF AND PUSH2 0x8FC SELFBALANCE SWAP1 DUP2 ISZERO MUL SWAP1 PUSH1 0x40 MLOAD PUSH1 0x0 PUSH1 0x40 MLOAD DUP1 DUP4 SUB DUP2 DUP6 DUP9 DUP9 CALL SWAP4 POP POP POP POP ISZERO DUP1 ISZERO PUSH2 0x2BB JUMPI RETURNDATASIZE PUSH1 0x0 DUP1 RETURNDATACOPY RETURNDATASIZE PUSH1 0x0 REVERT JUMPDEST POP PUSH1 0x0 CALLER PUSH20 0xFFFFFFFFFFFFFFFFFFFFFFFFFFFFFFFFFFFFFFFF AND PUSH2 0x8FC SELFBALANCE SWAP1 DUP2 ISZERO MUL SWAP1 PUSH1 0x40 MLOAD PUSH1 0x0 PUSH1 0x40 MLOAD DUP1 DUP4 SUB DUP2 DUP6 DUP9 DUP9 CALL SWAP4 POP POP POP POP SWAP1 POP DUP1 PUSH2 0x335 JUMPI PUSH1 0x40 MLOAD PUSH32 0x8C379A000000000000000000000000000000000000000000000000000000000 DUP2 MSTORE PUSH1 0x4 ADD PUSH2 0x32C SWAP1 PUSH2 0x945 JUMP JUMPDEST PUSH1 0x40 MLOAD DUP1 SWAP2 SUB SWAP1 REVERT JUMPDEST PUSH1 0x0 CALLER PUSH20 0xFFFFFFFFFFFFFFFFFFFFFFFFFFFFFFFFFFFFFFFF AND SELFBALANCE PUSH1 0x40 MLOAD PUSH2 0x35B SWAP1 PUSH2 0x8F5 JUMP JUMPDEST PUSH1 0x0 PUSH1 0x40 MLOAD DUP1 DUP4 SUB DUP2 DUP6 DUP8 GAS CALL SWAP3 POP POP POP RETURNDATASIZE DUP1 PUSH1 0x0 DUP2 EQ PUSH2 0x398 JUMPI PUSH1 0x40 MLOAD SWAP2 POP PUSH1 0x1F NOT PUSH1 0x3F RETURNDATASIZE ADD AND DUP3 ADD PUSH1 0x40 MSTORE RETURNDATASIZE DUP3 MSTORE RETURNDATASIZE PUSH1 0x0 PUSH1 0x20 DUP5 ADD RETURNDATACOPY PUSH2 0x39D JUMP JUMPDEST PUSH1 0x60 SWAP2 POP JUMPDEST POP POP SWAP1 POP DUP1 PUSH2 0x3E1 JUMPI PUSH1 0x40 MLOAD PUSH32 0x8C379A000000000000000000000000000000000000000000000000000000000 DUP2 MSTORE PUSH1 0x4 ADD PUSH2 0x3D8 SWAP1 PUSH2 0x965 JUMP JUMPDEST PUSH1 0x40 MLOAD DUP1 SWAP2 SUB SWAP1 REVERT JUMPDEST POP POP JUMP JUMPDEST PUSH1 0x2 PUSH1 0x20 MSTORE DUP1 PUSH1 0x0 MSTORE PUSH1 0x40 PUSH1 0x0 KECCAK256 PUSH1 0x0 SWAP2 POP SWAP1 POP SLOAD DUP2 JUMP JUMPDEST PUSH1 0x0 SLOAD PUSH2 0x409 CALLVALUE PUSH2 0x532 JUMP JUMPDEST LT ISZERO PUSH2 0x44A JUMPI PUSH1 0x40 MLOAD PUSH32 0x8C379A000000000000000000000000000000000000000000000000000000000 DUP2 MSTORE PUSH1 0x4 ADD PUSH2 0x441 SWAP1 PUSH2 0x925 JUMP JUMPDEST PUSH1 0x40 MLOAD DUP1 SWAP2 SUB SWAP1 REVERT JUMPDEST PUSH1 0x1 CALLER SWAP1 DUP1 PUSH1 0x1 DUP2 SLOAD ADD DUP1 DUP3 SSTORE DUP1 SWAP2 POP POP PUSH1 0x1 SWAP1 SUB SWAP1 PUSH1 0x0 MSTORE PUSH1 0x20 PUSH1 0x0 KECCAK256 ADD PUSH1 0x0 SWAP1 SWAP2 SWAP1 SWAP2 SWAP1 SWAP2 PUSH2 0x100 EXP DUP2 SLOAD DUP2 PUSH20 0xFFFFFFFFFFFFFFFFFFFFFFFFFFFFFFFFFFFFFFFF MUL NOT AND SWAP1 DUP4 PUSH20 0xFFFFFFFFFFFFFFFFFFFFFFFFFFFFFFFFFFFFFFFF AND MUL OR SWAP1 SSTORE POP CALLVALUE PUSH1 0x2 PUSH1 0x0 CALLER PUSH20 0xFFFFFFFFFFFFFFFFFFFFFFFFFFFFFFFFFFFFFFFF AND PUSH20 0xFFFFFFFFFFFFFFFFFFFFFFFFFFFFFFFFFFFFFFFF AND DUP2 MSTORE PUSH1 0x20 ADD SWAP1 DUP2 MSTORE PUSH1 0x20 ADD PUSH1 0x0 KECCAK256 DUP2 SWAP1 SSTORE POP JUMP JUMPDEST PUSH1 0x1 DUP2 DUP2 SLOAD DUP2 LT PUSH2 0x503 JUMPI PUSH1 0x0 DUP1 REVERT JUMPDEST SWAP1 PUSH1 0x0 MSTORE PUSH1 0x20 PUSH1 0x0 KECCAK256 ADD PUSH1 0x0 SWAP2 POP SLOAD SWAP1 PUSH2 0x100 EXP SWAP1 DIV PUSH20 0xFFFFFFFFFFFFFFFFFFFFFFFFFFFFFFFFFFFFFFFF AND DUP2 JUMP JUMPDEST PUSH1 0x0 DUP1 PUSH2 0x53D PUSH2 0x56C JUMP JUMPDEST SWAP1 POP PUSH1 0x0 PUSH8 0xDE0B6B3A7640000 DUP5 DUP4 PUSH2 0x556 SWAP2 SWAP1 PUSH2 0xB5A JUMP JUMPDEST PUSH2 0x560 SWAP2 SWAP1 PUSH2 0xA12 JUMP JUMPDEST SWAP1 POP DUP1 SWAP3 POP POP POP SWAP2 SWAP1 POP JUMP JUMPDEST PUSH1 0x0 DUP1 PUSH20 0x5F4EC3DF9CBD43714FE2740F5E3616155C5B8419 SWAP1 POP PUSH1 0x0 DUP2 PUSH20 0xFFFFFFFFFFFFFFFFFFFFFFFFFFFFFFFFFFFFFFFF AND PUSH4 0xFEAF968C PUSH1 0x40 MLOAD DUP2 PUSH4 0xFFFFFFFF AND PUSH1 0xE0 SHL DUP2 MSTORE PUSH1 0x4 ADD PUSH1 0xA0 PUSH1 0x40 MLOAD DUP1 DUP4 SUB DUP2 DUP7 DUP1 EXTCODESIZE ISZERO DUP1 ISZERO PUSH2 0x5CE JUMPI PUSH1 0x0 DUP1 REVERT JUMPDEST POP GAS STATICCALL ISZERO DUP1 ISZERO PUSH2 0x5E2 JUMPI RETURNDATASIZE PUSH1 0x0 DUP1 RETURNDATACOPY RETURNDATASIZE PUSH1 0x0 REVERT JUMPDEST POP POP POP POP PUSH1 0x40 MLOAD RETURNDATASIZE PUSH1 0x1F NOT PUSH1 0x1F DUP3 ADD AND DUP3 ADD DUP1 PUSH1 0x40 MSTORE POP DUP2 ADD SWAP1 PUSH2 0x606 SWAP2 SWAP1 PUSH2 0x786 JUMP JUMPDEST POP POP POP SWAP2 POP POP PUSH5 0x2540BE400 DUP2 PUSH2 0x61D SWAP2 SWAP1 PUSH2 0xA43 JUMP JUMPDEST SWAP3 POP POP POP SWAP1 JUMP JUMPDEST DUP3 DUP1 SLOAD DUP3 DUP3 SSTORE SWAP1 PUSH1 0x0 MSTORE PUSH1 0x20 PUSH1 0x0 KECCAK256 SWAP1 DUP2 ADD SWAP3 DUP3 ISZERO PUSH2 0x69D JUMPI SWAP2 PUSH1 0x20 MUL DUP3 ADD JUMPDEST DUP3 DUP2 GT ISZERO PUSH2 0x69C JUMPI DUP3 MLOAD DUP3 PUSH1 0x0 PUSH2 0x100 EXP DUP2 SLOAD DUP2 PUSH20 0xFFFFFFFFFFFFFFFFFFFFFFFFFFFFFFFFFFFFFFFF MUL NOT AND SWAP1 DUP4 PUSH20 0xFFFFFFFFFFFFFFFFFFFFFFFFFFFFFFFFFFFFFFFF AND MUL OR SWAP1 SSTORE POP SWAP2 PUSH1 0x20 ADD SWAP2 SWAP1 PUSH1 0x1 ADD SWAP1 PUSH2 0x644 JUMP JUMPDEST JUMPDEST POP SWAP1 POP PUSH2 0x6AA SWAP2 SWAP1 PUSH2 0x6AE JUMP JUMPDEST POP SWAP1 JUMP JUMPDEST JUMPDEST DUP1 DUP3 GT ISZERO PUSH2 0x6C7 JUMPI PUSH1 0x0 DUP2 PUSH1 0x0 SWAP1 SSTORE POP PUSH1 0x1 ADD PUSH2 0x6AF JUMP JUMPDEST POP SWAP1 JUMP JUMPDEST PUSH1 0x0 DUP2 CALLDATALOAD SWAP1 POP PUSH2 0x6DA DUP2 PUSH2 0xC6E JUMP JUMPDEST SWAP3 SWAP2 POP POP JUMP JUMPDEST PUSH1 0x0 DUP2 MLOAD SWAP1 POP PUSH2 0x6EF DUP2 PUSH2 0xC85 JUMP JUMPDEST SWAP3 SWAP2 POP POP JUMP JUMPDEST PUSH1 0x0 DUP2 CALLDATALOAD SWAP1 POP PUSH2 0x704 DUP2 PUSH2 0xC9C JUMP JUMPDEST SWAP3 SWAP2 POP POP JUMP JUMPDEST PUSH1 0x0 DUP2 MLOAD SWAP1 POP PUSH2 0x719 DUP2 PUSH2 0xC9C JUMP JUMPDEST SWAP3 SWAP2 POP POP JUMP JUMPDEST PUSH1 0x0 DUP2 MLOAD SWAP1 POP PUSH2 0x72E DUP2 PUSH2 0xCB3 JUMP JUMPDEST SWAP3 SWAP2 POP POP JUMP JUMPDEST PUSH1 0x0 PUSH1 0x20 DUP3 DUP5 SUB SLT ISZERO PUSH2 0x746 JUMPI PUSH1 0x0 DUP1 REVERT JUMPDEST PUSH1 0x0 PUSH2 0x754 DUP5 DUP3 DUP6 ADD PUSH2 0x6CB JUMP JUMPDEST SWAP2 POP POP SWAP3 SWAP2 POP POP JUMP JUMPDEST PUSH1 0x0 PUSH1 0x20 DUP3 DUP5 SUB SLT ISZERO PUSH2 0x76F JUMPI PUSH1 0x0 DUP1 REVERT JUMPDEST PUSH1 0x0 PUSH2 0x77D DUP5 DUP3 DUP6 ADD PUSH2 0x6F5 JUMP JUMPDEST SWAP2 POP POP SWAP3 SWAP2 POP POP JUMP JUMPDEST PUSH1 0x0 DUP1 PUSH1 0x0 DUP1 PUSH1 0x0 PUSH1 0xA0 DUP7 DUP9 SUB SLT ISZERO PUSH2 0x79E JUMPI PUSH1 0x0 DUP1 REVERT JUMPDEST PUSH1 0x0 PUSH2 0x7AC DUP9 DUP3 DUP10 ADD PUSH2 0x71F JUMP JUMPDEST SWAP6 POP POP PUSH1 0x20 PUSH2 0x7BD DUP9 DUP3 DUP10 ADD PUSH2 0x6E0 JUMP JUMPDEST SWAP5 POP POP PUSH1 0x40 PUSH2 0x7CE DUP9 DUP3 DUP10 ADD PUSH2 0x70A JUMP JUMPDEST SWAP4 POP POP PUSH1 0x60 PUSH2 0x7DF DUP9 DUP3 DUP10 ADD PUSH2 0x70A JUMP JUMPDEST SWAP3 POP POP PUSH1 0x80 PUSH2 0x7F0 DUP9 DUP3 DUP10 ADD PUSH2 0x71F JUMP JUMPDEST SWAP2 POP POP SWAP3 SWAP6 POP SWAP3 SWAP6 SWAP1 SWAP4 POP JUMP JUMPDEST PUSH2 0x806 DUP2 PUSH2 0xBB4 JUMP JUMPDEST DUP3 MSTORE POP POP JUMP JUMPDEST PUSH1 0x0 PUSH2 0x819 PUSH1 0x1A DUP4 PUSH2 0x9AB JUMP JUMPDEST SWAP2 POP PUSH32 0x446964206E6F742073656E6420656E6F756768206D6F6E657973000000000000 PUSH1 0x0 DUP4 ADD MSTORE PUSH1 0x20 DUP3 ADD SWAP1 POP SWAP2 SWAP1 POP JUMP JUMPDEST PUSH1 0x0 PUSH2 0x859 PUSH1 0xB DUP4 PUSH2 0x9AB JUMP JUMPDEST SWAP2 POP PUSH32 0x53656E64204661696C6564000000000000000000000000000000000000000000 PUSH1 0x0 DUP4 ADD MSTORE PUSH1 0x20 DUP3 ADD SWAP1 POP SWAP2 SWAP1 POP JUMP JUMPDEST PUSH1 0x0 PUSH2 0x899 PUSH1 0x0 DUP4 PUSH2 0x9A0 JUMP JUMPDEST SWAP2 POP PUSH1 0x0 DUP3 ADD SWAP1 POP SWAP2 SWAP1 POP JUMP JUMPDEST PUSH1 0x0 PUSH2 0x8B3 PUSH1 0xB DUP4 PUSH2 0x9AB JUMP JUMPDEST SWAP2 POP PUSH32 0x43616C6C204661696C6564000000000000000000000000000000000000000000 PUSH1 0x0 DUP4 ADD MSTORE PUSH1 0x20 DUP3 ADD SWAP1 POP SWAP2 SWAP1 POP JUMP JUMPDEST PUSH2 0x8EF DUP2 PUSH2 0xBF0 JUMP JUMPDEST DUP3 MSTORE POP POP JUMP JUMPDEST PUSH1 0x0 PUSH2 0x900 DUP3 PUSH2 0x88C JUMP JUMPDEST SWAP2 POP DUP2 SWAP1 POP SWAP2 SWAP1 POP JUMP JUMPDEST PUSH1 0x0 PUSH1 0x20 DUP3 ADD SWAP1 POP PUSH2 0x91F PUSH1 0x0 DUP4 ADD DUP5 PUSH2 0x7FD JUMP JUMPDEST SWAP3 SWAP2 POP POP JUMP JUMPDEST PUSH1 0x0 PUSH1 0x20 DUP3 ADD SWAP1 POP DUP2 DUP2 SUB PUSH1 0x0 DUP4 ADD MSTORE PUSH2 0x93E DUP2 PUSH2 0x80C JUMP JUMPDEST SWAP1 POP SWAP2 SWAP1 POP JUMP JUMPDEST PUSH1 0x0 PUSH1 0x20 DUP3 ADD SWAP1 POP DUP2 DUP2 SUB PUSH1 0x0 DUP4 ADD MSTORE PUSH2 0x95E DUP2 PUSH2 0x84C JUMP JUMPDEST SWAP1 POP SWAP2 SWAP1 POP JUMP JUMPDEST PUSH1 0x0 PUSH1 0x20 DUP3 ADD SWAP1 POP DUP2 DUP2 SUB PUSH1 0x0 DUP4 ADD MSTORE PUSH2 0x97E DUP2 PUSH2 0x8A6 JUMP JUMPDEST SWAP1 POP SWAP2 SWAP1 POP JUMP JUMPDEST PUSH1 0x0 PUSH1 0x20 DUP3 ADD SWAP1 POP PUSH2 0x99A PUSH1 0x0 DUP4 ADD DUP5 PUSH2 0x8E6 JUMP JUMPDEST SWAP3 SWAP2 POP POP JUMP JUMPDEST PUSH1 0x0 DUP2 SWAP1 POP SWAP3 SWAP2 POP POP JUMP JUMPDEST PUSH1 0x0 DUP3 DUP3 MSTORE PUSH1 0x20 DUP3 ADD SWAP1 POP SWAP3 SWAP2 POP POP JUMP JUMPDEST PUSH1 0x0 PUSH2 0x9C7 DUP3 PUSH2 0xBF0 JUMP JUMPDEST SWAP2 POP PUSH2 0x9D2 DUP4 PUSH2 0xBF0 JUMP JUMPDEST SWAP3 POP DUP3 PUSH32 0xFFFFFFFFFFFFFFFFFFFFFFFFFFFFFFFFFFFFFFFFFFFFFFFFFFFFFFFFFFFFFFFF SUB DUP3 GT ISZERO PUSH2 0xA07 JUMPI PUSH2 0xA06 PUSH2 0xC10 JUMP JUMPDEST JUMPDEST DUP3 DUP3 ADD SWAP1 POP SWAP3 SWAP2 POP POP JUMP JUMPDEST PUSH1 0x0 PUSH2 0xA1D DUP3 PUSH2 0xBF0 JUMP JUMPDEST SWAP2 POP PUSH2 0xA28 DUP4 PUSH2 0xBF0 JUMP JUMPDEST SWAP3 POP DUP3 PUSH2 0xA38 JUMPI PUSH2 0xA37 PUSH2 0xC3F JUMP JUMPDEST JUMPDEST DUP3 DUP3 DIV SWAP1 POP SWAP3 SWAP2 POP POP JUMP JUMPDEST PUSH1 0x0 PUSH2 0xA4E DUP3 PUSH2 0xBC6 JUMP JUMPDEST SWAP2 POP PUSH2 0xA59 DUP4 PUSH2 0xBC6 JUMP JUMPDEST SWAP3 POP DUP3 PUSH32 0x7FFFFFFFFFFFFFFFFFFFFFFFFFFFFFFFFFFFFFFFFFFFFFFFFFFFFFFFFFFFFFFF DIV DUP3 GT PUSH1 0x0 DUP5 SGT PUSH1 0x0 DUP5 SGT AND AND ISZERO PUSH2 0xA98 JUMPI PUSH2 0xA97 PUSH2 0xC10 JUMP JUMPDEST JUMPDEST DUP2 PUSH32 0x8000000000000000000000000000000000000000000000000000000000000000 SDIV DUP4 SLT PUSH1 0x0 DUP5 SLT PUSH1 0x0 DUP5 SGT AND AND ISZERO PUSH2 0xAD5 JUMPI PUSH2 0xAD4 PUSH2 0xC10 JUMP JUMPDEST JUMPDEST DUP3 PUSH32 0x8000000000000000000000000000000000000000000000000000000000000000 SDIV DUP3 SLT PUSH1 0x0 DUP5 SGT PUSH1 0x0 DUP5 SLT AND AND ISZERO PUSH2 0xB12 JUMPI PUSH2 0xB11 PUSH2 0xC10 JUMP JUMPDEST JUMPDEST DUP3 PUSH32 0x7FFFFFFFFFFFFFFFFFFFFFFFFFFFFFFFFFFFFFFFFFFFFFFFFFFFFFFFFFFFFFFF SDIV DUP3 SLT PUSH1 0x0 DUP5 SLT PUSH1 0x0 DUP5 SLT AND AND ISZERO PUSH2 0xB4F JUMPI PUSH2 0xB4E PUSH2 0xC10 JUMP JUMPDEST JUMPDEST DUP3 DUP3 MUL SWAP1 POP SWAP3 SWAP2 POP POP JUMP JUMPDEST PUSH1 0x0 PUSH2 0xB65 DUP3 PUSH2 0xBF0 JUMP JUMPDEST SWAP2 POP PUSH2 0xB70 DUP4 PUSH2 0xBF0 JUMP JUMPDEST SWAP3 POP DUP2 PUSH32 0xFFFFFFFFFFFFFFFFFFFFFFFFFFFFFFFFFFFFFFFFFFFFFFFFFFFFFFFFFFFFFFFF DIV DUP4 GT DUP3 ISZERO ISZERO AND ISZERO PUSH2 0xBA9 JUMPI PUSH2 0xBA8 PUSH2 0xC10 JUMP JUMPDEST JUMPDEST DUP3 DUP3 MUL SWAP1 POP SWAP3 SWAP2 POP POP JUMP JUMPDEST PUSH1 0x0 PUSH2 0xBBF DUP3 PUSH2 0xBD0 JUMP JUMPDEST SWAP1 POP SWAP2 SWAP1 POP JUMP JUMPDEST PUSH1 0x0 DUP2 SWAP1 POP SWAP2 SWAP1 POP JUMP JUMPDEST PUSH1 0x0 PUSH20 0xFFFFFFFFFFFFFFFFFFFFFFFFFFFFFFFFFFFFFFFF DUP3 AND SWAP1 POP SWAP2 SWAP1 POP JUMP JUMPDEST PUSH1 0x0 DUP2 SWAP1 POP SWAP2 SWAP1 POP JUMP JUMPDEST PUSH1 0x0 PUSH10 0xFFFFFFFFFFFFFFFFFFFF DUP3 AND SWAP1 POP SWAP2 SWAP1 POP JUMP JUMPDEST PUSH32 0x4E487B7100000000000000000000000000000000000000000000000000000000 PUSH1 0x0 MSTORE PUSH1 0x11 PUSH1 0x4 MSTORE PUSH1 0x24 PUSH1 0x0 REVERT JUMPDEST PUSH32 0x4E487B7100000000000000000000000000000000000000000000000000000000 PUSH1 0x0 MSTORE PUSH1 0x12 PUSH1 0x4 MSTORE PUSH1 0x24 PUSH1 0x0 REVERT JUMPDEST PUSH2 0xC77 DUP2 PUSH2 0xBB4 JUMP JUMPDEST DUP2 EQ PUSH2 0xC82 JUMPI PUSH1 0x0 DUP1 REVERT JUMPDEST POP JUMP JUMPDEST PUSH2 0xC8E DUP2 PUSH2 0xBC6 JUMP JUMPDEST DUP2 EQ PUSH2 0xC99 JUMPI PUSH1 0x0 DUP1 REVERT JUMPDEST POP JUMP JUMPDEST PUSH2 0xCA5 DUP2 PUSH2 0xBF0 JUMP JUMPDEST DUP2 EQ PUSH2 0xCB0 JUMPI PUSH1 0x0 DUP1 REVERT JUMPDEST POP JUMP JUMPDEST PUSH2 0xCBC DUP2 PUSH2 0xBFA JUMP JUMPDEST DUP2 EQ PUSH2 0xCC7 JUMPI PUSH1 0x0 DUP1 REVERT JUMPDEST POP JUMP INVALID LOG2 PUSH5 0x6970667358 0x22 SLT KECCAK256 GASLIMIT CREATE2 SWAP3 0xE0 LOG1 0xB6 SWAP8 ORIGIN 0xE7 SDIV DUP14 0x29 0x2E 0xBE 0xCF DIFFICULTY PUSH26 0x2D51A84735B4D46B9CB3ECFABA85D764736F6C63430008000033 "
				},
				"gasEstimates": {
					"creation": {
						"codeDepositCost": "665600",
						"executionCost": "20702",
						"totalCost": "686302"
					},
					"external": {
						"addressToAmountFunded(address)": "1536",
						"fund()": "infinite",
						"funders(uint256)": "2422",
						"minimumUsd()": "1107",
						"withdraw()": "infinite"
					}
				},
				"methodIdentifiers": {
					"addressToAmountFunded(address)": "3e47d6f3",
					"fund()": "b60d4288",
					"funders(uint256)": "dc0d3dff",
					"minimumUsd()": "098de820",
					"withdraw()": "3ccfd60b"
				}
			},
			"storageLayout": {
				"storage": [
					{
						"astId": 56,
						"contract": "contracts/FundMe.sol:FundMe",
						"label": "minimumUsd",
						"offset": 0,
						"slot": "0",
						"type": "t_uint256"
					},
					{
						"astId": 59,
						"contract": "contracts/FundMe.sol:FundMe",
						"label": "funders",
						"offset": 0,
						"slot": "1",
						"type": "t_array(t_address)dyn_storage"
					},
					{
						"astId": 63,
						"contract": "contracts/FundMe.sol:FundMe",
						"label": "addressToAmountFunded",
						"offset": 0,
						"slot": "2",
						"type": "t_mapping(t_address,t_uint256)"
					}
				],
				"types": {
					"t_address": {
						"encoding": "inplace",
						"label": "address",
						"numberOfBytes": "20"
					},
					"t_array(t_address)dyn_storage": {
						"base": "t_address",
						"encoding": "dynamic_array",
						"label": "address[]",
						"numberOfBytes": "32"
					},
					"t_mapping(t_address,t_uint256)": {
						"encoding": "mapping",
						"key": "t_address",
						"label": "mapping(address => uint256)",
						"numberOfBytes": "32",
						"value": "t_uint256"
					},
					"t_uint256": {
						"encoding": "inplace",
						"label": "uint256",
						"numberOfBytes": "32"
					}
				}
			},
			"userdoc": {
				"kind": "user",
				"methods": {},
				"version": 1
			}
		}
	}
}