{
	"contracts/FundMe.sol": {
		"FundMe": {
			"abi": [
				{
					"inputs": [
						{
							"internalType": "address",
							"name": "",
							"type": "address"
						}
					],
					"name": "addressToAmountFunded",
					"outputs": [
						{
							"internalType": "uint256",
							"name": "",
							"type": "uint256"
						}
					],
					"stateMutability": "view",
					"type": "function"
				},
				{
					"inputs": [],
					"name": "fund",
					"outputs": [],
					"stateMutability": "payable",
					"type": "function"
				},
				{
					"inputs": [
						{
							"internalType": "uint256",
							"name": "",
							"type": "uint256"
						}
					],
					"name": "funders",
					"outputs": [
						{
							"internalType": "address",
							"name": "",
							"type": "address"
						}
					],
					"stateMutability": "view",
					"type": "function"
				},
				{
					"inputs": [],
					"name": "getPrice",
					"outputs": [
						{
							"internalType": "uint256",
							"name": "",
							"type": "uint256"
						}
					],
					"stateMutability": "view",
					"type": "function"
				},
				{
					"inputs": [],
					"name": "minimumUsd",
					"outputs": [
						{
							"internalType": "uint256",
							"name": "",
							"type": "uint256"
						}
					],
					"stateMutability": "view",
					"type": "function"
				}
			],
			"devdoc": {
				"kind": "dev",
				"methods": {},
				"version": 1
			},
			"evm": {
				"assembly": "    /* \"contracts/FundMe.sol\":182:1317  contract FundMe {... */\n  mstore(0x40, 0x80)\n    /* \"contracts/FundMe.sol\":233:242  50 * 1e18 */\n  0x02b5e3af16b1880000\n    /* \"contracts/FundMe.sol\":205:242  uint256 public minimumUsd = 50 * 1e18 */\n  0x00\n  sstore\n    /* \"contracts/FundMe.sol\":182:1317  contract FundMe {... */\n  callvalue\n  dup1\n  iszero\n  tag_1\n  jumpi\n  0x00\n  dup1\n  revert\ntag_1:\n  pop\n  dataSize(sub_0)\n  dup1\n  dataOffset(sub_0)\n  0x00\n  codecopy\n  0x00\n  return\nstop\n\nsub_0: assembly {\n        /* \"contracts/FundMe.sol\":182:1317  contract FundMe {... */\n      mstore(0x40, 0x80)\n      jumpi(tag_1, lt(calldatasize, 0x04))\n      shr(0xe0, calldataload(0x00))\n      dup1\n      0x098de820\n      eq\n      tag_2\n      jumpi\n      dup1\n      0x3e47d6f3\n      eq\n      tag_3\n      jumpi\n      dup1\n      0x98d5fdca\n      eq\n      tag_4\n      jumpi\n      dup1\n      0xb60d4288\n      eq\n      tag_5\n      jumpi\n      dup1\n      0xdc0d3dff\n      eq\n      tag_6\n      jumpi\n    tag_1:\n      0x00\n      dup1\n      revert\n        /* \"contracts/FundMe.sol\":205:242  uint256 public minimumUsd = 50 * 1e18 */\n    tag_2:\n      callvalue\n      dup1\n      iszero\n      tag_7\n      jumpi\n      0x00\n      dup1\n      revert\n    tag_7:\n      pop\n      tag_8\n      tag_9\n      jump\t// in\n    tag_8:\n      mload(0x40)\n      tag_10\n      swap2\n      swap1\n      tag_11\n      jump\t// in\n    tag_10:\n      mload(0x40)\n      dup1\n      swap2\n      sub\n      swap1\n      return\n        /* \"contracts/FundMe.sol\":279:335  mapping(address => uint256) public addressToAmountFunded */\n    tag_3:\n      callvalue\n      dup1\n      iszero\n      tag_12\n      jumpi\n      0x00\n      dup1\n      revert\n    tag_12:\n      pop\n      tag_13\n      0x04\n      dup1\n      calldatasize\n      sub\n      dup2\n      add\n      swap1\n      tag_14\n      swap2\n      swap1\n      tag_15\n      jump\t// in\n    tag_14:\n      tag_16\n      jump\t// in\n    tag_13:\n      mload(0x40)\n      tag_17\n      swap2\n      swap1\n      tag_11\n      jump\t// in\n    tag_17:\n      mload(0x40)\n      dup1\n      swap2\n      sub\n      swap1\n      return\n        /* \"contracts/FundMe.sol\":540:837  function getPrice() public view returns(uint256){... */\n    tag_4:\n      callvalue\n      dup1\n      iszero\n      tag_18\n      jumpi\n      0x00\n      dup1\n      revert\n    tag_18:\n      pop\n      tag_19\n      tag_20\n      jump\t// in\n    tag_19:\n      mload(0x40)\n      tag_21\n      swap2\n      swap1\n      tag_11\n      jump\t// in\n    tag_21:\n      mload(0x40)\n      dup1\n      swap2\n      sub\n      swap1\n      return\n        /* \"contracts/FundMe.sol\":342:535  function fund() public payable {... */\n    tag_5:\n      tag_22\n      tag_23\n      jump\t// in\n    tag_22:\n      stop\n        /* \"contracts/FundMe.sol\":249:273  address[] public funders */\n    tag_6:\n      callvalue\n      dup1\n      iszero\n      tag_24\n      jumpi\n      0x00\n      dup1\n      revert\n    tag_24:\n      pop\n      tag_25\n      0x04\n      dup1\n      calldatasize\n      sub\n      dup2\n      add\n      swap1\n      tag_26\n      swap2\n      swap1\n      tag_27\n      jump\t// in\n    tag_26:\n      tag_28\n      jump\t// in\n    tag_25:\n      mload(0x40)\n      tag_29\n      swap2\n      swap1\n      tag_30\n      jump\t// in\n    tag_29:\n      mload(0x40)\n      dup1\n      swap2\n      sub\n      swap1\n      return\n        /* \"contracts/FundMe.sol\":205:242  uint256 public minimumUsd = 50 * 1e18 */\n    tag_9:\n      sload(0x00)\n      dup2\n      jump\t// out\n        /* \"contracts/FundMe.sol\":279:335  mapping(address => uint256) public addressToAmountFunded */\n    tag_16:\n      mstore(0x20, 0x02)\n      dup1\n      0x00\n      mstore\n      keccak256(0x00, 0x40)\n      0x00\n      swap2\n      pop\n      swap1\n      pop\n      sload\n      dup2\n      jump\t// out\n        /* \"contracts/FundMe.sol\":540:837  function getPrice() public view returns(uint256){... */\n    tag_20:\n        /* \"contracts/FundMe.sol\":580:587  uint256 */\n      0x00\n        /* \"contracts/FundMe.sol\":633:664  AggregatorV3Interface priceFeed */\n      dup1\n        /* \"contracts/FundMe.sol\":689:731  0x5f4eC3Df9cbd43714FE2740f5E3616155c5b8419 */\n      0x5f4ec3df9cbd43714fe2740f5e3616155c5b8419\n        /* \"contracts/FundMe.sol\":633:732  AggregatorV3Interface priceFeed = AggregatorV3Interface(0x5f4eC3Df9cbd43714FE2740f5E3616155c5b8419) */\n      swap1\n      pop\n        /* \"contracts/FundMe.sol\":744:756  int256 price */\n      0x00\n        /* \"contracts/FundMe.sol\":763:772  priceFeed */\n      dup2\n        /* \"contracts/FundMe.sol\":763:788  priceFeed.latestRoundData */\n      0xffffffffffffffffffffffffffffffffffffffff\n      and\n      0xfeaf968c\n        /* \"contracts/FundMe.sol\":763:790  priceFeed.latestRoundData() */\n      mload(0x40)\n      dup2\n      0xffffffff\n      and\n      0xe0\n      shl\n      dup2\n      mstore\n      0x04\n      add\n      0xa0\n      mload(0x40)\n      dup1\n      dup4\n      sub\n      dup2\n      dup7\n      dup1\n      extcodesize\n      iszero\n      dup1\n      iszero\n      tag_32\n      jumpi\n      0x00\n      dup1\n      revert\n    tag_32:\n      pop\n      gas\n      staticcall\n      iszero\n      dup1\n      iszero\n      tag_34\n      jumpi\n      returndatasize\n      0x00\n      dup1\n      returndatacopy\n      revert(0x00, returndatasize)\n    tag_34:\n      pop\n      pop\n      pop\n      pop\n      mload(0x40)\n      returndatasize\n      not(0x1f)\n      0x1f\n      dup3\n      add\n      and\n      dup3\n      add\n      dup1\n      0x40\n      mstore\n      pop\n      dup2\n      add\n      swap1\n      tag_35\n      swap2\n      swap1\n      tag_36\n      jump\t// in\n    tag_35:\n        /* \"contracts/FundMe.sol\":742:790  (,int256 price,,,) = priceFeed.latestRoundData() */\n      pop\n      pop\n      pop\n      swap2\n      pop\n      pop\n        /* \"contracts/FundMe.sol\":824:828  1e10 */\n      0x02540be400\n        /* \"contracts/FundMe.sol\":816:821  price */\n      dup2\n        /* \"contracts/FundMe.sol\":816:828  price * 1e10 */\n      tag_37\n      swap2\n      swap1\n      tag_38\n      jump\t// in\n    tag_37:\n        /* \"contracts/FundMe.sol\":801:829  return uint256(price * 1e10) */\n      swap3\n      pop\n      pop\n      pop\n        /* \"contracts/FundMe.sol\":540:837  function getPrice() public view returns(uint256){... */\n      swap1\n      jump\t// out\n        /* \"contracts/FundMe.sol\":342:535  function fund() public payable {... */\n    tag_23:\n        /* \"contracts/FundMe.sol\":404:408  1e18 */\n      0x0de0b6b3a7640000\n        /* \"contracts/FundMe.sol\":391:400  msg.value */\n      callvalue\n        /* \"contracts/FundMe.sol\":391:408  msg.value >= 1e18 */\n      lt\n      iszero\n        /* \"contracts/FundMe.sol\":383:439  require(msg.value >= 1e18, \"Did not send enough moneys\") */\n      tag_40\n      jumpi\n      mload(0x40)\n      0x08c379a000000000000000000000000000000000000000000000000000000000\n      dup2\n      mstore\n      0x04\n      add\n      tag_41\n      swap1\n      tag_42\n      jump\t// in\n    tag_41:\n      mload(0x40)\n      dup1\n      swap2\n      sub\n      swap1\n      revert\n    tag_40:\n        /* \"contracts/FundMe.sol\":449:456  funders */\n      0x01\n        /* \"contracts/FundMe.sol\":462:472  msg.sender */\n      caller\n        /* \"contracts/FundMe.sol\":449:473  funders.push(msg.sender) */\n      swap1\n      dup1\n      0x01\n      dup2\n      sload\n      add\n      dup1\n      dup3\n      sstore\n      dup1\n      swap2\n      pop\n      pop\n      0x01\n      swap1\n      sub\n      swap1\n      0x00\n      mstore\n      keccak256(0x00, 0x20)\n      add\n      0x00\n      swap1\n      swap2\n      swap1\n      swap2\n      swap1\n      swap2\n      0x0100\n      exp\n      dup2\n      sload\n      dup2\n      0xffffffffffffffffffffffffffffffffffffffff\n      mul\n      not\n      and\n      swap1\n      dup4\n      0xffffffffffffffffffffffffffffffffffffffff\n      and\n      mul\n      or\n      swap1\n      sstore\n      pop\n        /* \"contracts/FundMe.sol\":519:528  msg.value */\n      callvalue\n        /* \"contracts/FundMe.sol\":483:504  addressToAmountFunded */\n      0x02\n        /* \"contracts/FundMe.sol\":483:516  addressToAmountFunded[msg.sender] */\n      0x00\n        /* \"contracts/FundMe.sol\":505:515  msg.sender */\n      caller\n        /* \"contracts/FundMe.sol\":483:516  addressToAmountFunded[msg.sender] */\n      0xffffffffffffffffffffffffffffffffffffffff\n      and\n      0xffffffffffffffffffffffffffffffffffffffff\n      and\n      dup2\n      mstore\n      0x20\n      add\n      swap1\n      dup2\n      mstore\n      0x20\n      add\n      0x00\n      keccak256\n        /* \"contracts/FundMe.sol\":483:528  addressToAmountFunded[msg.sender] = msg.value */\n      dup2\n      swap1\n      sstore\n      pop\n        /* \"contracts/FundMe.sol\":342:535  function fund() public payable {... */\n      jump\t// out\n        /* \"contracts/FundMe.sol\":249:273  address[] public funders */\n    tag_28:\n      0x01\n      dup2\n      dup2\n      sload\n      dup2\n      lt\n      tag_44\n      jumpi\n      0x00\n      dup1\n      revert\n    tag_44:\n      swap1\n      0x00\n      mstore\n      keccak256(0x00, 0x20)\n      add\n      0x00\n      swap2\n      pop\n      sload\n      swap1\n      0x0100\n      exp\n      swap1\n      div\n      0xffffffffffffffffffffffffffffffffffffffff\n      and\n      dup2\n      jump\t// out\n        /* \"#utility.yul\":7:146   */\n    tag_47:\n      0x00\n        /* \"#utility.yul\":91:97   */\n      dup2\n        /* \"#utility.yul\":78:98   */\n      calldataload\n        /* \"#utility.yul\":69:98   */\n      swap1\n      pop\n        /* \"#utility.yul\":107:140   */\n      tag_49\n        /* \"#utility.yul\":134:139   */\n      dup2\n        /* \"#utility.yul\":107:140   */\n      tag_50\n      jump\t// in\n    tag_49:\n        /* \"#utility.yul\":59:146   */\n      swap3\n      swap2\n      pop\n      pop\n      jump\t// out\n        /* \"#utility.yul\":152:293   */\n    tag_51:\n      0x00\n        /* \"#utility.yul\":239:245   */\n      dup2\n        /* \"#utility.yul\":233:246   */\n      mload\n        /* \"#utility.yul\":224:246   */\n      swap1\n      pop\n        /* \"#utility.yul\":255:287   */\n      tag_53\n        /* \"#utility.yul\":281:286   */\n      dup2\n        /* \"#utility.yul\":255:287   */\n      tag_54\n      jump\t// in\n    tag_53:\n        /* \"#utility.yul\":214:293   */\n      swap3\n      swap2\n      pop\n      pop\n      jump\t// out\n        /* \"#utility.yul\":299:438   */\n    tag_55:\n      0x00\n        /* \"#utility.yul\":383:389   */\n      dup2\n        /* \"#utility.yul\":370:390   */\n      calldataload\n        /* \"#utility.yul\":361:390   */\n      swap1\n      pop\n        /* \"#utility.yul\":399:432   */\n      tag_57\n        /* \"#utility.yul\":426:431   */\n      dup2\n        /* \"#utility.yul\":399:432   */\n      tag_58\n      jump\t// in\n    tag_57:\n        /* \"#utility.yul\":351:438   */\n      swap3\n      swap2\n      pop\n      pop\n      jump\t// out\n        /* \"#utility.yul\":444:587   */\n    tag_59:\n      0x00\n        /* \"#utility.yul\":532:538   */\n      dup2\n        /* \"#utility.yul\":526:539   */\n      mload\n        /* \"#utility.yul\":517:539   */\n      swap1\n      pop\n        /* \"#utility.yul\":548:581   */\n      tag_61\n        /* \"#utility.yul\":575:580   */\n      dup2\n        /* \"#utility.yul\":548:581   */\n      tag_58\n      jump\t// in\n    tag_61:\n        /* \"#utility.yul\":507:587   */\n      swap3\n      swap2\n      pop\n      pop\n      jump\t// out\n        /* \"#utility.yul\":593:734   */\n    tag_62:\n      0x00\n        /* \"#utility.yul\":680:686   */\n      dup2\n        /* \"#utility.yul\":674:687   */\n      mload\n        /* \"#utility.yul\":665:687   */\n      swap1\n      pop\n        /* \"#utility.yul\":696:728   */\n      tag_64\n        /* \"#utility.yul\":722:727   */\n      dup2\n        /* \"#utility.yul\":696:728   */\n      tag_65\n      jump\t// in\n    tag_64:\n        /* \"#utility.yul\":655:734   */\n      swap3\n      swap2\n      pop\n      pop\n      jump\t// out\n        /* \"#utility.yul\":740:1002   */\n    tag_15:\n      0x00\n        /* \"#utility.yul\":848:850   */\n      0x20\n        /* \"#utility.yul\":836:845   */\n      dup3\n        /* \"#utility.yul\":827:834   */\n      dup5\n        /* \"#utility.yul\":823:846   */\n      sub\n        /* \"#utility.yul\":819:851   */\n      slt\n        /* \"#utility.yul\":816:818   */\n      iszero\n      tag_67\n      jumpi\n        /* \"#utility.yul\":864:865   */\n      0x00\n        /* \"#utility.yul\":861:862   */\n      dup1\n        /* \"#utility.yul\":854:866   */\n      revert\n        /* \"#utility.yul\":816:818   */\n    tag_67:\n        /* \"#utility.yul\":907:908   */\n      0x00\n        /* \"#utility.yul\":932:985   */\n      tag_68\n        /* \"#utility.yul\":977:984   */\n      dup5\n        /* \"#utility.yul\":968:974   */\n      dup3\n        /* \"#utility.yul\":957:966   */\n      dup6\n        /* \"#utility.yul\":953:975   */\n      add\n        /* \"#utility.yul\":932:985   */\n      tag_47\n      jump\t// in\n    tag_68:\n        /* \"#utility.yul\":922:985   */\n      swap2\n      pop\n        /* \"#utility.yul\":878:995   */\n      pop\n        /* \"#utility.yul\":806:1002   */\n      swap3\n      swap2\n      pop\n      pop\n      jump\t// out\n        /* \"#utility.yul\":1008:1270   */\n    tag_27:\n      0x00\n        /* \"#utility.yul\":1116:1118   */\n      0x20\n        /* \"#utility.yul\":1104:1113   */\n      dup3\n        /* \"#utility.yul\":1095:1102   */\n      dup5\n        /* \"#utility.yul\":1091:1114   */\n      sub\n        /* \"#utility.yul\":1087:1119   */\n      slt\n        /* \"#utility.yul\":1084:1086   */\n      iszero\n      tag_70\n      jumpi\n        /* \"#utility.yul\":1132:1133   */\n      0x00\n        /* \"#utility.yul\":1129:1130   */\n      dup1\n        /* \"#utility.yul\":1122:1134   */\n      revert\n        /* \"#utility.yul\":1084:1086   */\n    tag_70:\n        /* \"#utility.yul\":1175:1176   */\n      0x00\n        /* \"#utility.yul\":1200:1253   */\n      tag_71\n        /* \"#utility.yul\":1245:1252   */\n      dup5\n        /* \"#utility.yul\":1236:1242   */\n      dup3\n        /* \"#utility.yul\":1225:1234   */\n      dup6\n        /* \"#utility.yul\":1221:1243   */\n      add\n        /* \"#utility.yul\":1200:1253   */\n      tag_55\n      jump\t// in\n    tag_71:\n        /* \"#utility.yul\":1190:1253   */\n      swap2\n      pop\n        /* \"#utility.yul\":1146:1263   */\n      pop\n        /* \"#utility.yul\":1074:1270   */\n      swap3\n      swap2\n      pop\n      pop\n      jump\t// out\n        /* \"#utility.yul\":1276:2180   */\n    tag_36:\n      0x00\n      dup1\n      0x00\n      dup1\n      0x00\n        /* \"#utility.yul\":1460:1463   */\n      0xa0\n        /* \"#utility.yul\":1448:1457   */\n      dup7\n        /* \"#utility.yul\":1439:1446   */\n      dup9\n        /* \"#utility.yul\":1435:1458   */\n      sub\n        /* \"#utility.yul\":1431:1464   */\n      slt\n        /* \"#utility.yul\":1428:1430   */\n      iszero\n      tag_73\n      jumpi\n        /* \"#utility.yul\":1477:1478   */\n      0x00\n        /* \"#utility.yul\":1474:1475   */\n      dup1\n        /* \"#utility.yul\":1467:1479   */\n      revert\n        /* \"#utility.yul\":1428:1430   */\n    tag_73:\n        /* \"#utility.yul\":1520:1521   */\n      0x00\n        /* \"#utility.yul\":1545:1608   */\n      tag_74\n        /* \"#utility.yul\":1600:1607   */\n      dup9\n        /* \"#utility.yul\":1591:1597   */\n      dup3\n        /* \"#utility.yul\":1580:1589   */\n      dup10\n        /* \"#utility.yul\":1576:1598   */\n      add\n        /* \"#utility.yul\":1545:1608   */\n      tag_62\n      jump\t// in\n    tag_74:\n        /* \"#utility.yul\":1535:1608   */\n      swap6\n      pop\n        /* \"#utility.yul\":1491:1618   */\n      pop\n        /* \"#utility.yul\":1657:1659   */\n      0x20\n        /* \"#utility.yul\":1683:1746   */\n      tag_75\n        /* \"#utility.yul\":1738:1745   */\n      dup9\n        /* \"#utility.yul\":1729:1735   */\n      dup3\n        /* \"#utility.yul\":1718:1727   */\n      dup10\n        /* \"#utility.yul\":1714:1736   */\n      add\n        /* \"#utility.yul\":1683:1746   */\n      tag_51\n      jump\t// in\n    tag_75:\n        /* \"#utility.yul\":1673:1746   */\n      swap5\n      pop\n        /* \"#utility.yul\":1628:1756   */\n      pop\n        /* \"#utility.yul\":1795:1797   */\n      0x40\n        /* \"#utility.yul\":1821:1885   */\n      tag_76\n        /* \"#utility.yul\":1877:1884   */\n      dup9\n        /* \"#utility.yul\":1868:1874   */\n      dup3\n        /* \"#utility.yul\":1857:1866   */\n      dup10\n        /* \"#utility.yul\":1853:1875   */\n      add\n        /* \"#utility.yul\":1821:1885   */\n      tag_59\n      jump\t// in\n    tag_76:\n        /* \"#utility.yul\":1811:1885   */\n      swap4\n      pop\n        /* \"#utility.yul\":1766:1895   */\n      pop\n        /* \"#utility.yul\":1934:1936   */\n      0x60\n        /* \"#utility.yul\":1960:2024   */\n      tag_77\n        /* \"#utility.yul\":2016:2023   */\n      dup9\n        /* \"#utility.yul\":2007:2013   */\n      dup3\n        /* \"#utility.yul\":1996:2005   */\n      dup10\n        /* \"#utility.yul\":1992:2014   */\n      add\n        /* \"#utility.yul\":1960:2024   */\n      tag_59\n      jump\t// in\n    tag_77:\n        /* \"#utility.yul\":1950:2024   */\n      swap3\n      pop\n        /* \"#utility.yul\":1905:2034   */\n      pop\n        /* \"#utility.yul\":2073:2076   */\n      0x80\n        /* \"#utility.yul\":2100:2163   */\n      tag_78\n        /* \"#utility.yul\":2155:2162   */\n      dup9\n        /* \"#utility.yul\":2146:2152   */\n      dup3\n        /* \"#utility.yul\":2135:2144   */\n      dup10\n        /* \"#utility.yul\":2131:2153   */\n      add\n        /* \"#utility.yul\":2100:2163   */\n      tag_62\n      jump\t// in\n    tag_78:\n        /* \"#utility.yul\":2090:2163   */\n      swap2\n      pop\n        /* \"#utility.yul\":2044:2173   */\n      pop\n        /* \"#utility.yul\":1418:2180   */\n      swap3\n      swap6\n      pop\n      swap3\n      swap6\n      swap1\n      swap4\n      pop\n      jump\t// out\n        /* \"#utility.yul\":2186:2304   */\n    tag_79:\n        /* \"#utility.yul\":2273:2297   */\n      tag_81\n        /* \"#utility.yul\":2291:2296   */\n      dup2\n        /* \"#utility.yul\":2273:2297   */\n      tag_82\n      jump\t// in\n    tag_81:\n        /* \"#utility.yul\":2268:2271   */\n      dup3\n        /* \"#utility.yul\":2261:2298   */\n      mstore\n        /* \"#utility.yul\":2251:2304   */\n      pop\n      pop\n      jump\t// out\n        /* \"#utility.yul\":2310:2634   */\n    tag_83:\n      0x00\n        /* \"#utility.yul\":2473:2540   */\n      tag_85\n        /* \"#utility.yul\":2537:2539   */\n      0x1a\n        /* \"#utility.yul\":2532:2535   */\n      dup4\n        /* \"#utility.yul\":2473:2540   */\n      tag_86\n      jump\t// in\n    tag_85:\n        /* \"#utility.yul\":2466:2540   */\n      swap2\n      pop\n        /* \"#utility.yul\":2570:2598   */\n      0x446964206e6f742073656e6420656e6f756768206d6f6e657973000000000000\n        /* \"#utility.yul\":2566:2567   */\n      0x00\n        /* \"#utility.yul\":2561:2564   */\n      dup4\n        /* \"#utility.yul\":2557:2568   */\n      add\n        /* \"#utility.yul\":2550:2599   */\n      mstore\n        /* \"#utility.yul\":2625:2627   */\n      0x20\n        /* \"#utility.yul\":2620:2623   */\n      dup3\n        /* \"#utility.yul\":2616:2628   */\n      add\n        /* \"#utility.yul\":2609:2628   */\n      swap1\n      pop\n        /* \"#utility.yul\":2456:2634   */\n      swap2\n      swap1\n      pop\n      jump\t// out\n        /* \"#utility.yul\":2640:2758   */\n    tag_87:\n        /* \"#utility.yul\":2727:2751   */\n      tag_89\n        /* \"#utility.yul\":2745:2750   */\n      dup2\n        /* \"#utility.yul\":2727:2751   */\n      tag_90\n      jump\t// in\n    tag_89:\n        /* \"#utility.yul\":2722:2725   */\n      dup3\n        /* \"#utility.yul\":2715:2752   */\n      mstore\n        /* \"#utility.yul\":2705:2758   */\n      pop\n      pop\n      jump\t// out\n        /* \"#utility.yul\":2764:2986   */\n    tag_30:\n      0x00\n        /* \"#utility.yul\":2895:2897   */\n      0x20\n        /* \"#utility.yul\":2884:2893   */\n      dup3\n        /* \"#utility.yul\":2880:2898   */\n      add\n        /* \"#utility.yul\":2872:2898   */\n      swap1\n      pop\n        /* \"#utility.yul\":2908:2979   */\n      tag_92\n        /* \"#utility.yul\":2976:2977   */\n      0x00\n        /* \"#utility.yul\":2965:2974   */\n      dup4\n        /* \"#utility.yul\":2961:2978   */\n      add\n        /* \"#utility.yul\":2952:2958   */\n      dup5\n        /* \"#utility.yul\":2908:2979   */\n      tag_79\n      jump\t// in\n    tag_92:\n        /* \"#utility.yul\":2862:2986   */\n      swap3\n      swap2\n      pop\n      pop\n      jump\t// out\n        /* \"#utility.yul\":2992:3411   */\n    tag_42:\n      0x00\n        /* \"#utility.yul\":3196:3198   */\n      0x20\n        /* \"#utility.yul\":3185:3194   */\n      dup3\n        /* \"#utility.yul\":3181:3199   */\n      add\n        /* \"#utility.yul\":3173:3199   */\n      swap1\n      pop\n        /* \"#utility.yul\":3245:3254   */\n      dup2\n        /* \"#utility.yul\":3239:3243   */\n      dup2\n        /* \"#utility.yul\":3235:3255   */\n      sub\n        /* \"#utility.yul\":3231:3232   */\n      0x00\n        /* \"#utility.yul\":3220:3229   */\n      dup4\n        /* \"#utility.yul\":3216:3233   */\n      add\n        /* \"#utility.yul\":3209:3256   */\n      mstore\n        /* \"#utility.yul\":3273:3404   */\n      tag_94\n        /* \"#utility.yul\":3399:3403   */\n      dup2\n        /* \"#utility.yul\":3273:3404   */\n      tag_83\n      jump\t// in\n    tag_94:\n        /* \"#utility.yul\":3265:3404   */\n      swap1\n      pop\n        /* \"#utility.yul\":3163:3411   */\n      swap2\n      swap1\n      pop\n      jump\t// out\n        /* \"#utility.yul\":3417:3639   */\n    tag_11:\n      0x00\n        /* \"#utility.yul\":3548:3550   */\n      0x20\n        /* \"#utility.yul\":3537:3546   */\n      dup3\n        /* \"#utility.yul\":3533:3551   */\n      add\n        /* \"#utility.yul\":3525:3551   */\n      swap1\n      pop\n        /* \"#utility.yul\":3561:3632   */\n      tag_96\n        /* \"#utility.yul\":3629:3630   */\n      0x00\n        /* \"#utility.yul\":3618:3627   */\n      dup4\n        /* \"#utility.yul\":3614:3631   */\n      add\n        /* \"#utility.yul\":3605:3611   */\n      dup5\n        /* \"#utility.yul\":3561:3632   */\n      tag_87\n      jump\t// in\n    tag_96:\n        /* \"#utility.yul\":3515:3639   */\n      swap3\n      swap2\n      pop\n      pop\n      jump\t// out\n        /* \"#utility.yul\":3645:3814   */\n    tag_86:\n      0x00\n        /* \"#utility.yul\":3763:3769   */\n      dup3\n        /* \"#utility.yul\":3758:3761   */\n      dup3\n        /* \"#utility.yul\":3751:3770   */\n      mstore\n        /* \"#utility.yul\":3803:3807   */\n      0x20\n        /* \"#utility.yul\":3798:3801   */\n      dup3\n        /* \"#utility.yul\":3794:3808   */\n      add\n        /* \"#utility.yul\":3779:3808   */\n      swap1\n      pop\n        /* \"#utility.yul\":3741:3814   */\n      swap3\n      swap2\n      pop\n      pop\n      jump\t// out\n        /* \"#utility.yul\":3820:4811   */\n    tag_38:\n      0x00\n        /* \"#utility.yul\":3882:3901   */\n      tag_99\n        /* \"#utility.yul\":3899:3900   */\n      dup3\n        /* \"#utility.yul\":3882:3901   */\n      tag_100\n      jump\t// in\n    tag_99:\n        /* \"#utility.yul\":3877:3901   */\n      swap2\n      pop\n        /* \"#utility.yul\":3915:3934   */\n      tag_101\n        /* \"#utility.yul\":3932:3933   */\n      dup4\n        /* \"#utility.yul\":3915:3934   */\n      tag_100\n      jump\t// in\n    tag_101:\n        /* \"#utility.yul\":3910:3934   */\n      swap3\n      pop\n        /* \"#utility.yul\":4116:4117   */\n      dup3\n        /* \"#utility.yul\":4048:4114   */\n      0x7fffffffffffffffffffffffffffffffffffffffffffffffffffffffffffffff\n        /* \"#utility.yul\":4044:4118   */\n      div\n        /* \"#utility.yul\":4041:4042   */\n      dup3\n        /* \"#utility.yul\":4038:4119   */\n      gt\n        /* \"#utility.yul\":4033:4034   */\n      0x00\n        /* \"#utility.yul\":4030:4031   */\n      dup5\n        /* \"#utility.yul\":4026:4035   */\n      sgt\n        /* \"#utility.yul\":4022:4023   */\n      0x00\n        /* \"#utility.yul\":4019:4020   */\n      dup5\n        /* \"#utility.yul\":4015:4024   */\n      sgt\n        /* \"#utility.yul\":4011:4036   */\n      and\n        /* \"#utility.yul\":4007:4120   */\n      and\n        /* \"#utility.yul\":4004:4006   */\n      iszero\n      tag_102\n      jumpi\n        /* \"#utility.yul\":4123:4141   */\n      tag_103\n      tag_104\n      jump\t// in\n    tag_103:\n        /* \"#utility.yul\":4004:4006   */\n    tag_102:\n        /* \"#utility.yul\":4327:4328   */\n      dup2\n        /* \"#utility.yul\":4259:4325   */\n      0x8000000000000000000000000000000000000000000000000000000000000000\n        /* \"#utility.yul\":4254:4329   */\n      sdiv\n        /* \"#utility.yul\":4251:4252   */\n      dup4\n        /* \"#utility.yul\":4247:4330   */\n      slt\n        /* \"#utility.yul\":4242:4243   */\n      0x00\n        /* \"#utility.yul\":4239:4240   */\n      dup5\n        /* \"#utility.yul\":4235:4244   */\n      slt\n        /* \"#utility.yul\":4231:4232   */\n      0x00\n        /* \"#utility.yul\":4228:4229   */\n      dup5\n        /* \"#utility.yul\":4224:4233   */\n      sgt\n        /* \"#utility.yul\":4220:4245   */\n      and\n        /* \"#utility.yul\":4216:4331   */\n      and\n        /* \"#utility.yul\":4213:4215   */\n      iszero\n      tag_105\n      jumpi\n        /* \"#utility.yul\":4334:4352   */\n      tag_106\n      tag_104\n      jump\t// in\n    tag_106:\n        /* \"#utility.yul\":4213:4215   */\n    tag_105:\n        /* \"#utility.yul\":4538:4539   */\n      dup3\n        /* \"#utility.yul\":4470:4536   */\n      0x8000000000000000000000000000000000000000000000000000000000000000\n        /* \"#utility.yul\":4465:4540   */\n      sdiv\n        /* \"#utility.yul\":4462:4463   */\n      dup3\n        /* \"#utility.yul\":4458:4541   */\n      slt\n        /* \"#utility.yul\":4453:4454   */\n      0x00\n        /* \"#utility.yul\":4450:4451   */\n      dup5\n        /* \"#utility.yul\":4446:4455   */\n      sgt\n        /* \"#utility.yul\":4442:4443   */\n      0x00\n        /* \"#utility.yul\":4439:4440   */\n      dup5\n        /* \"#utility.yul\":4435:4444   */\n      slt\n        /* \"#utility.yul\":4431:4456   */\n      and\n        /* \"#utility.yul\":4427:4542   */\n      and\n        /* \"#utility.yul\":4424:4426   */\n      iszero\n      tag_107\n      jumpi\n        /* \"#utility.yul\":4545:4563   */\n      tag_108\n      tag_104\n      jump\t// in\n    tag_108:\n        /* \"#utility.yul\":4424:4426   */\n    tag_107:\n        /* \"#utility.yul\":4748:4749   */\n      dup3\n        /* \"#utility.yul\":4680:4746   */\n      0x7fffffffffffffffffffffffffffffffffffffffffffffffffffffffffffffff\n        /* \"#utility.yul\":4675:4750   */\n      sdiv\n        /* \"#utility.yul\":4672:4673   */\n      dup3\n        /* \"#utility.yul\":4668:4751   */\n      slt\n        /* \"#utility.yul\":4663:4664   */\n      0x00\n        /* \"#utility.yul\":4660:4661   */\n      dup5\n        /* \"#utility.yul\":4656:4665   */\n      slt\n        /* \"#utility.yul\":4652:4653   */\n      0x00\n        /* \"#utility.yul\":4649:4650   */\n      dup5\n        /* \"#utility.yul\":4645:4654   */\n      slt\n        /* \"#utility.yul\":4641:4666   */\n      and\n        /* \"#utility.yul\":4637:4752   */\n      and\n        /* \"#utility.yul\":4634:4636   */\n      iszero\n      tag_109\n      jumpi\n        /* \"#utility.yul\":4755:4773   */\n      tag_110\n      tag_104\n      jump\t// in\n    tag_110:\n        /* \"#utility.yul\":4634:4636   */\n    tag_109:\n        /* \"#utility.yul\":4803:4804   */\n      dup3\n        /* \"#utility.yul\":4800:4801   */\n      dup3\n        /* \"#utility.yul\":4796:4805   */\n      mul\n        /* \"#utility.yul\":4785:4805   */\n      swap1\n      pop\n        /* \"#utility.yul\":3867:4811   */\n      swap3\n      swap2\n      pop\n      pop\n      jump\t// out\n        /* \"#utility.yul\":4817:4913   */\n    tag_82:\n      0x00\n        /* \"#utility.yul\":4883:4907   */\n      tag_112\n        /* \"#utility.yul\":4901:4906   */\n      dup3\n        /* \"#utility.yul\":4883:4907   */\n      tag_113\n      jump\t// in\n    tag_112:\n        /* \"#utility.yul\":4872:4907   */\n      swap1\n      pop\n        /* \"#utility.yul\":4862:4913   */\n      swap2\n      swap1\n      pop\n      jump\t// out\n        /* \"#utility.yul\":4919:4995   */\n    tag_100:\n      0x00\n        /* \"#utility.yul\":4984:4989   */\n      dup2\n        /* \"#utility.yul\":4973:4989   */\n      swap1\n      pop\n        /* \"#utility.yul\":4963:4995   */\n      swap2\n      swap1\n      pop\n      jump\t// out\n        /* \"#utility.yul\":5001:5127   */\n    tag_113:\n      0x00\n        /* \"#utility.yul\":5078:5120   */\n      0xffffffffffffffffffffffffffffffffffffffff\n        /* \"#utility.yul\":5071:5076   */\n      dup3\n        /* \"#utility.yul\":5067:5121   */\n      and\n        /* \"#utility.yul\":5056:5121   */\n      swap1\n      pop\n        /* \"#utility.yul\":5046:5127   */\n      swap2\n      swap1\n      pop\n      jump\t// out\n        /* \"#utility.yul\":5133:5210   */\n    tag_90:\n      0x00\n        /* \"#utility.yul\":5199:5204   */\n      dup2\n        /* \"#utility.yul\":5188:5204   */\n      swap1\n      pop\n        /* \"#utility.yul\":5178:5210   */\n      swap2\n      swap1\n      pop\n      jump\t// out\n        /* \"#utility.yul\":5216:5321   */\n    tag_117:\n      0x00\n        /* \"#utility.yul\":5292:5314   */\n      0xffffffffffffffffffff\n        /* \"#utility.yul\":5285:5290   */\n      dup3\n        /* \"#utility.yul\":5281:5315   */\n      and\n        /* \"#utility.yul\":5270:5315   */\n      swap1\n      pop\n        /* \"#utility.yul\":5260:5321   */\n      swap2\n      swap1\n      pop\n      jump\t// out\n        /* \"#utility.yul\":5327:5507   */\n    tag_104:\n        /* \"#utility.yul\":5375:5452   */\n      0x4e487b7100000000000000000000000000000000000000000000000000000000\n        /* \"#utility.yul\":5372:5373   */\n      0x00\n        /* \"#utility.yul\":5365:5453   */\n      mstore\n        /* \"#utility.yul\":5472:5476   */\n      0x11\n        /* \"#utility.yul\":5469:5470   */\n      0x04\n        /* \"#utility.yul\":5462:5477   */\n      mstore\n        /* \"#utility.yul\":5496:5500   */\n      0x24\n        /* \"#utility.yul\":5493:5494   */\n      0x00\n        /* \"#utility.yul\":5486:5501   */\n      revert\n        /* \"#utility.yul\":5513:5635   */\n    tag_50:\n        /* \"#utility.yul\":5586:5610   */\n      tag_121\n        /* \"#utility.yul\":5604:5609   */\n      dup2\n        /* \"#utility.yul\":5586:5610   */\n      tag_82\n      jump\t// in\n    tag_121:\n        /* \"#utility.yul\":5579:5584   */\n      dup2\n        /* \"#utility.yul\":5576:5611   */\n      eq\n        /* \"#utility.yul\":5566:5568   */\n      tag_122\n      jumpi\n        /* \"#utility.yul\":5625:5626   */\n      0x00\n        /* \"#utility.yul\":5622:5623   */\n      dup1\n        /* \"#utility.yul\":5615:5627   */\n      revert\n        /* \"#utility.yul\":5566:5568   */\n    tag_122:\n        /* \"#utility.yul\":5556:5635   */\n      pop\n      jump\t// out\n        /* \"#utility.yul\":5641:5761   */\n    tag_54:\n        /* \"#utility.yul\":5713:5736   */\n      tag_124\n        /* \"#utility.yul\":5730:5735   */\n      dup2\n        /* \"#utility.yul\":5713:5736   */\n      tag_100\n      jump\t// in\n    tag_124:\n        /* \"#utility.yul\":5706:5711   */\n      dup2\n        /* \"#utility.yul\":5703:5737   */\n      eq\n        /* \"#utility.yul\":5693:5695   */\n      tag_125\n      jumpi\n        /* \"#utility.yul\":5751:5752   */\n      0x00\n        /* \"#utility.yul\":5748:5749   */\n      dup1\n        /* \"#utility.yul\":5741:5753   */\n      revert\n        /* \"#utility.yul\":5693:5695   */\n    tag_125:\n        /* \"#utility.yul\":5683:5761   */\n      pop\n      jump\t// out\n        /* \"#utility.yul\":5767:5889   */\n    tag_58:\n        /* \"#utility.yul\":5840:5864   */\n      tag_127\n        /* \"#utility.yul\":5858:5863   */\n      dup2\n        /* \"#utility.yul\":5840:5864   */\n      tag_90\n      jump\t// in\n    tag_127:\n        /* \"#utility.yul\":5833:5838   */\n      dup2\n        /* \"#utility.yul\":5830:5865   */\n      eq\n        /* \"#utility.yul\":5820:5822   */\n      tag_128\n      jumpi\n        /* \"#utility.yul\":5879:5880   */\n      0x00\n        /* \"#utility.yul\":5876:5877   */\n      dup1\n        /* \"#utility.yul\":5869:5881   */\n      revert\n        /* \"#utility.yul\":5820:5822   */\n    tag_128:\n        /* \"#utility.yul\":5810:5889   */\n      pop\n      jump\t// out\n        /* \"#utility.yul\":5895:6015   */\n    tag_65:\n        /* \"#utility.yul\":5967:5990   */\n      tag_130\n        /* \"#utility.yul\":5984:5989   */\n      dup2\n        /* \"#utility.yul\":5967:5990   */\n      tag_117\n      jump\t// in\n    tag_130:\n        /* \"#utility.yul\":5960:5965   */\n      dup2\n        /* \"#utility.yul\":5957:5991   */\n      eq\n        /* \"#utility.yul\":5947:5949   */\n      tag_131\n      jumpi\n        /* \"#utility.yul\":6005:6006   */\n      0x00\n        /* \"#utility.yul\":6002:6003   */\n      dup1\n        /* \"#utility.yul\":5995:6007   */\n      revert\n        /* \"#utility.yul\":5947:5949   */\n    tag_131:\n        /* \"#utility.yul\":5937:6015   */\n      pop\n      jump\t// out\n\n    auxdata: 0xa2646970667358221220896986192c6bb2d91ee0922dd10c3679c15301c1b20a9cfbd04b6f31ce80d17464736f6c63430008000033\n}\n",
				"bytecode": {
					"linkReferences": {},
					"object": "60806040526802b5e3af16b188000060005534801561001d57600080fd5b5061075d8061002d6000396000f3fe60806040526004361061004a5760003560e01c8063098de8201461004f5780633e47d6f31461007a57806398d5fdca146100b7578063b60d4288146100e2578063dc0d3dff146100ec575b600080fd5b34801561005b57600080fd5b50610064610129565b60405161007191906104fd565b60405180910390f35b34801561008657600080fd5b506100a1600480360381019061009c919061039b565b61012f565b6040516100ae91906104fd565b60405180910390f35b3480156100c357600080fd5b506100cc610147565b6040516100d991906104fd565b60405180910390f35b6100ea6101ff565b005b3480156100f857600080fd5b50610113600480360381019061010e91906103c4565b6102f3565b60405161012091906104c2565b60405180910390f35b60005481565b60026020528060005260406000206000915090505481565b600080735f4ec3df9cbd43714fe2740f5e3616155c5b8419905060008173ffffffffffffffffffffffffffffffffffffffff1663feaf968c6040518163ffffffff1660e01b815260040160a06040518083038186803b1580156101a957600080fd5b505afa1580156101bd573d6000803e3d6000fd5b505050506040513d601f19601f820116820180604052508101906101e191906103ed565b5050509150506402540be400816101f89190610529565b9250505090565b670de0b6b3a764000034101561024a576040517f08c379a0000000000000000000000000000000000000000000000000000000008152600401610241906104dd565b60405180910390fd5b6001339080600181540180825580915050600190039060005260206000200160009091909190916101000a81548173ffffffffffffffffffffffffffffffffffffffff021916908373ffffffffffffffffffffffffffffffffffffffff16021790555034600260003373ffffffffffffffffffffffffffffffffffffffff1673ffffffffffffffffffffffffffffffffffffffff16815260200190815260200160002081905550565b6001818154811061030357600080fd5b906000526020600020016000915054906101000a900473ffffffffffffffffffffffffffffffffffffffff1681565b600081359050610341816106cb565b92915050565b600081519050610356816106e2565b92915050565b60008135905061036b816106f9565b92915050565b600081519050610380816106f9565b92915050565b60008151905061039581610710565b92915050565b6000602082840312156103ad57600080fd5b60006103bb84828501610332565b91505092915050565b6000602082840312156103d657600080fd5b60006103e48482850161035c565b91505092915050565b600080600080600060a0868803121561040557600080fd5b600061041388828901610386565b955050602061042488828901610347565b945050604061043588828901610371565b935050606061044688828901610371565b925050608061045788828901610386565b9150509295509295909350565b61046d81610640565b82525050565b6000610480601a83610518565b91507f446964206e6f742073656e6420656e6f756768206d6f6e6579730000000000006000830152602082019050919050565b6104bc8161067c565b82525050565b60006020820190506104d76000830184610464565b92915050565b600060208201905081810360008301526104f681610473565b9050919050565b600060208201905061051260008301846104b3565b92915050565b600082825260208201905092915050565b600061053482610652565b915061053f83610652565b9250827f7fffffffffffffffffffffffffffffffffffffffffffffffffffffffffffffff048211600084136000841316161561057e5761057d61069c565b5b817f800000000000000000000000000000000000000000000000000000000000000005831260008412600084131616156105bb576105ba61069c565b5b827f800000000000000000000000000000000000000000000000000000000000000005821260008413600084121616156105f8576105f761069c565b5b827f7fffffffffffffffffffffffffffffffffffffffffffffffffffffffffffffff05821260008412600084121616156106355761063461069c565b5b828202905092915050565b600061064b8261065c565b9050919050565b6000819050919050565b600073ffffffffffffffffffffffffffffffffffffffff82169050919050565b6000819050919050565b600069ffffffffffffffffffff82169050919050565b7f4e487b7100000000000000000000000000000000000000000000000000000000600052601160045260246000fd5b6106d481610640565b81146106df57600080fd5b50565b6106eb81610652565b81146106f657600080fd5b50565b6107028161067c565b811461070d57600080fd5b50565b61071981610686565b811461072457600080fd5b5056fea2646970667358221220896986192c6bb2d91ee0922dd10c3679c15301c1b20a9cfbd04b6f31ce80d17464736f6c63430008000033",
					"opcodes": "PUSH1 0x80 PUSH1 0x40 MSTORE PUSH9 0x2B5E3AF16B1880000 PUSH1 0x0 SSTORE CALLVALUE DUP1 ISZERO PUSH2 0x1D JUMPI PUSH1 0x0 DUP1 REVERT JUMPDEST POP PUSH2 0x75D DUP1 PUSH2 0x2D PUSH1 0x0 CODECOPY PUSH1 0x0 RETURN INVALID PUSH1 0x80 PUSH1 0x40 MSTORE PUSH1 0x4 CALLDATASIZE LT PUSH2 0x4A JUMPI PUSH1 0x0 CALLDATALOAD PUSH1 0xE0 SHR DUP1 PUSH4 0x98DE820 EQ PUSH2 0x4F JUMPI DUP1 PUSH4 0x3E47D6F3 EQ PUSH2 0x7A JUMPI DUP1 PUSH4 0x98D5FDCA EQ PUSH2 0xB7 JUMPI DUP1 PUSH4 0xB60D4288 EQ PUSH2 0xE2 JUMPI DUP1 PUSH4 0xDC0D3DFF EQ PUSH2 0xEC JUMPI JUMPDEST PUSH1 0x0 DUP1 REVERT JUMPDEST CALLVALUE DUP1 ISZERO PUSH2 0x5B JUMPI PUSH1 0x0 DUP1 REVERT JUMPDEST POP PUSH2 0x64 PUSH2 0x129 JUMP JUMPDEST PUSH1 0x40 MLOAD PUSH2 0x71 SWAP2 SWAP1 PUSH2 0x4FD JUMP JUMPDEST PUSH1 0x40 MLOAD DUP1 SWAP2 SUB SWAP1 RETURN JUMPDEST CALLVALUE DUP1 ISZERO PUSH2 0x86 JUMPI PUSH1 0x0 DUP1 REVERT JUMPDEST POP PUSH2 0xA1 PUSH1 0x4 DUP1 CALLDATASIZE SUB DUP2 ADD SWAP1 PUSH2 0x9C SWAP2 SWAP1 PUSH2 0x39B JUMP JUMPDEST PUSH2 0x12F JUMP JUMPDEST PUSH1 0x40 MLOAD PUSH2 0xAE SWAP2 SWAP1 PUSH2 0x4FD JUMP JUMPDEST PUSH1 0x40 MLOAD DUP1 SWAP2 SUB SWAP1 RETURN JUMPDEST CALLVALUE DUP1 ISZERO PUSH2 0xC3 JUMPI PUSH1 0x0 DUP1 REVERT JUMPDEST POP PUSH2 0xCC PUSH2 0x147 JUMP JUMPDEST PUSH1 0x40 MLOAD PUSH2 0xD9 SWAP2 SWAP1 PUSH2 0x4FD JUMP JUMPDEST PUSH1 0x40 MLOAD DUP1 SWAP2 SUB SWAP1 RETURN JUMPDEST PUSH2 0xEA PUSH2 0x1FF JUMP JUMPDEST STOP JUMPDEST CALLVALUE DUP1 ISZERO PUSH2 0xF8 JUMPI PUSH1 0x0 DUP1 REVERT JUMPDEST POP PUSH2 0x113 PUSH1 0x4 DUP1 CALLDATASIZE SUB DUP2 ADD SWAP1 PUSH2 0x10E SWAP2 SWAP1 PUSH2 0x3C4 JUMP JUMPDEST PUSH2 0x2F3 JUMP JUMPDEST PUSH1 0x40 MLOAD PUSH2 0x120 SWAP2 SWAP1 PUSH2 0x4C2 JUMP JUMPDEST PUSH1 0x40 MLOAD DUP1 SWAP2 SUB SWAP1 RETURN JUMPDEST PUSH1 0x0 SLOAD DUP2 JUMP JUMPDEST PUSH1 0x2 PUSH1 0x20 MSTORE DUP1 PUSH1 0x0 MSTORE PUSH1 0x40 PUSH1 0x0 KECCAK256 PUSH1 0x0 SWAP2 POP SWAP1 POP SLOAD DUP2 JUMP JUMPDEST PUSH1 0x0 DUP1 PUSH20 0x5F4EC3DF9CBD43714FE2740F5E3616155C5B8419 SWAP1 POP PUSH1 0x0 DUP2 PUSH20 0xFFFFFFFFFFFFFFFFFFFFFFFFFFFFFFFFFFFFFFFF AND PUSH4 0xFEAF968C PUSH1 0x40 MLOAD DUP2 PUSH4 0xFFFFFFFF AND PUSH1 0xE0 SHL DUP2 MSTORE PUSH1 0x4 ADD PUSH1 0xA0 PUSH1 0x40 MLOAD DUP1 DUP4 SUB DUP2 DUP7 DUP1 EXTCODESIZE ISZERO DUP1 ISZERO PUSH2 0x1A9 JUMPI PUSH1 0x0 DUP1 REVERT JUMPDEST POP GAS STATICCALL ISZERO DUP1 ISZERO PUSH2 0x1BD JUMPI RETURNDATASIZE PUSH1 0x0 DUP1 RETURNDATACOPY RETURNDATASIZE PUSH1 0x0 REVERT JUMPDEST POP POP POP POP PUSH1 0x40 MLOAD RETURNDATASIZE PUSH1 0x1F NOT PUSH1 0x1F DUP3 ADD AND DUP3 ADD DUP1 PUSH1 0x40 MSTORE POP DUP2 ADD SWAP1 PUSH2 0x1E1 SWAP2 SWAP1 PUSH2 0x3ED JUMP JUMPDEST POP POP POP SWAP2 POP POP PUSH5 0x2540BE400 DUP2 PUSH2 0x1F8 SWAP2 SWAP1 PUSH2 0x529 JUMP JUMPDEST SWAP3 POP POP POP SWAP1 JUMP JUMPDEST PUSH8 0xDE0B6B3A7640000 CALLVALUE LT ISZERO PUSH2 0x24A JUMPI PUSH1 0x40 MLOAD PUSH32 0x8C379A000000000000000000000000000000000000000000000000000000000 DUP2 MSTORE PUSH1 0x4 ADD PUSH2 0x241 SWAP1 PUSH2 0x4DD JUMP JUMPDEST PUSH1 0x40 MLOAD DUP1 SWAP2 SUB SWAP1 REVERT JUMPDEST PUSH1 0x1 CALLER SWAP1 DUP1 PUSH1 0x1 DUP2 SLOAD ADD DUP1 DUP3 SSTORE DUP1 SWAP2 POP POP PUSH1 0x1 SWAP1 SUB SWAP1 PUSH1 0x0 MSTORE PUSH1 0x20 PUSH1 0x0 KECCAK256 ADD PUSH1 0x0 SWAP1 SWAP2 SWAP1 SWAP2 SWAP1 SWAP2 PUSH2 0x100 EXP DUP2 SLOAD DUP2 PUSH20 0xFFFFFFFFFFFFFFFFFFFFFFFFFFFFFFFFFFFFFFFF MUL NOT AND SWAP1 DUP4 PUSH20 0xFFFFFFFFFFFFFFFFFFFFFFFFFFFFFFFFFFFFFFFF AND MUL OR SWAP1 SSTORE POP CALLVALUE PUSH1 0x2 PUSH1 0x0 CALLER PUSH20 0xFFFFFFFFFFFFFFFFFFFFFFFFFFFFFFFFFFFFFFFF AND PUSH20 0xFFFFFFFFFFFFFFFFFFFFFFFFFFFFFFFFFFFFFFFF AND DUP2 MSTORE PUSH1 0x20 ADD SWAP1 DUP2 MSTORE PUSH1 0x20 ADD PUSH1 0x0 KECCAK256 DUP2 SWAP1 SSTORE POP JUMP JUMPDEST PUSH1 0x1 DUP2 DUP2 SLOAD DUP2 LT PUSH2 0x303 JUMPI PUSH1 0x0 DUP1 REVERT JUMPDEST SWAP1 PUSH1 0x0 MSTORE PUSH1 0x20 PUSH1 0x0 KECCAK256 ADD PUSH1 0x0 SWAP2 POP SLOAD SWAP1 PUSH2 0x100 EXP SWAP1 DIV PUSH20 0xFFFFFFFFFFFFFFFFFFFFFFFFFFFFFFFFFFFFFFFF AND DUP2 JUMP JUMPDEST PUSH1 0x0 DUP2 CALLDATALOAD SWAP1 POP PUSH2 0x341 DUP2 PUSH2 0x6CB JUMP JUMPDEST SWAP3 SWAP2 POP POP JUMP JUMPDEST PUSH1 0x0 DUP2 MLOAD SWAP1 POP PUSH2 0x356 DUP2 PUSH2 0x6E2 JUMP JUMPDEST SWAP3 SWAP2 POP POP JUMP JUMPDEST PUSH1 0x0 DUP2 CALLDATALOAD SWAP1 POP PUSH2 0x36B DUP2 PUSH2 0x6F9 JUMP JUMPDEST SWAP3 SWAP2 POP POP JUMP JUMPDEST PUSH1 0x0 DUP2 MLOAD SWAP1 POP PUSH2 0x380 DUP2 PUSH2 0x6F9 JUMP JUMPDEST SWAP3 SWAP2 POP POP JUMP JUMPDEST PUSH1 0x0 DUP2 MLOAD SWAP1 POP PUSH2 0x395 DUP2 PUSH2 0x710 JUMP JUMPDEST SWAP3 SWAP2 POP POP JUMP JUMPDEST PUSH1 0x0 PUSH1 0x20 DUP3 DUP5 SUB SLT ISZERO PUSH2 0x3AD JUMPI PUSH1 0x0 DUP1 REVERT JUMPDEST PUSH1 0x0 PUSH2 0x3BB DUP5 DUP3 DUP6 ADD PUSH2 0x332 JUMP JUMPDEST SWAP2 POP POP SWAP3 SWAP2 POP POP JUMP JUMPDEST PUSH1 0x0 PUSH1 0x20 DUP3 DUP5 SUB SLT ISZERO PUSH2 0x3D6 JUMPI PUSH1 0x0 DUP1 REVERT JUMPDEST PUSH1 0x0 PUSH2 0x3E4 DUP5 DUP3 DUP6 ADD PUSH2 0x35C JUMP JUMPDEST SWAP2 POP POP SWAP3 SWAP2 POP POP JUMP JUMPDEST PUSH1 0x0 DUP1 PUSH1 0x0 DUP1 PUSH1 0x0 PUSH1 0xA0 DUP7 DUP9 SUB SLT ISZERO PUSH2 0x405 JUMPI PUSH1 0x0 DUP1 REVERT JUMPDEST PUSH1 0x0 PUSH2 0x413 DUP9 DUP3 DUP10 ADD PUSH2 0x386 JUMP JUMPDEST SWAP6 POP POP PUSH1 0x20 PUSH2 0x424 DUP9 DUP3 DUP10 ADD PUSH2 0x347 JUMP JUMPDEST SWAP5 POP POP PUSH1 0x40 PUSH2 0x435 DUP9 DUP3 DUP10 ADD PUSH2 0x371 JUMP JUMPDEST SWAP4 POP POP PUSH1 0x60 PUSH2 0x446 DUP9 DUP3 DUP10 ADD PUSH2 0x371 JUMP JUMPDEST SWAP3 POP POP PUSH1 0x80 PUSH2 0x457 DUP9 DUP3 DUP10 ADD PUSH2 0x386 JUMP JUMPDEST SWAP2 POP POP SWAP3 SWAP6 POP SWAP3 SWAP6 SWAP1 SWAP4 POP JUMP JUMPDEST PUSH2 0x46D DUP2 PUSH2 0x640 JUMP JUMPDEST DUP3 MSTORE POP POP JUMP JUMPDEST PUSH1 0x0 PUSH2 0x480 PUSH1 0x1A DUP4 PUSH2 0x518 JUMP JUMPDEST SWAP2 POP PUSH32 0x446964206E6F742073656E6420656E6F756768206D6F6E657973000000000000 PUSH1 0x0 DUP4 ADD MSTORE PUSH1 0x20 DUP3 ADD SWAP1 POP SWAP2 SWAP1 POP JUMP JUMPDEST PUSH2 0x4BC DUP2 PUSH2 0x67C JUMP JUMPDEST DUP3 MSTORE POP POP JUMP JUMPDEST PUSH1 0x0 PUSH1 0x20 DUP3 ADD SWAP1 POP PUSH2 0x4D7 PUSH1 0x0 DUP4 ADD DUP5 PUSH2 0x464 JUMP JUMPDEST SWAP3 SWAP2 POP POP JUMP JUMPDEST PUSH1 0x0 PUSH1 0x20 DUP3 ADD SWAP1 POP DUP2 DUP2 SUB PUSH1 0x0 DUP4 ADD MSTORE PUSH2 0x4F6 DUP2 PUSH2 0x473 JUMP JUMPDEST SWAP1 POP SWAP2 SWAP1 POP JUMP JUMPDEST PUSH1 0x0 PUSH1 0x20 DUP3 ADD SWAP1 POP PUSH2 0x512 PUSH1 0x0 DUP4 ADD DUP5 PUSH2 0x4B3 JUMP JUMPDEST SWAP3 SWAP2 POP POP JUMP JUMPDEST PUSH1 0x0 DUP3 DUP3 MSTORE PUSH1 0x20 DUP3 ADD SWAP1 POP SWAP3 SWAP2 POP POP JUMP JUMPDEST PUSH1 0x0 PUSH2 0x534 DUP3 PUSH2 0x652 JUMP JUMPDEST SWAP2 POP PUSH2 0x53F DUP4 PUSH2 0x652 JUMP JUMPDEST SWAP3 POP DUP3 PUSH32 0x7FFFFFFFFFFFFFFFFFFFFFFFFFFFFFFFFFFFFFFFFFFFFFFFFFFFFFFFFFFFFFFF DIV DUP3 GT PUSH1 0x0 DUP5 SGT PUSH1 0x0 DUP5 SGT AND AND ISZERO PUSH2 0x57E JUMPI PUSH2 0x57D PUSH2 0x69C JUMP JUMPDEST JUMPDEST DUP2 PUSH32 0x8000000000000000000000000000000000000000000000000000000000000000 SDIV DUP4 SLT PUSH1 0x0 DUP5 SLT PUSH1 0x0 DUP5 SGT AND AND ISZERO PUSH2 0x5BB JUMPI PUSH2 0x5BA PUSH2 0x69C JUMP JUMPDEST JUMPDEST DUP3 PUSH32 0x8000000000000000000000000000000000000000000000000000000000000000 SDIV DUP3 SLT PUSH1 0x0 DUP5 SGT PUSH1 0x0 DUP5 SLT AND AND ISZERO PUSH2 0x5F8 JUMPI PUSH2 0x5F7 PUSH2 0x69C JUMP JUMPDEST JUMPDEST DUP3 PUSH32 0x7FFFFFFFFFFFFFFFFFFFFFFFFFFFFFFFFFFFFFFFFFFFFFFFFFFFFFFFFFFFFFFF SDIV DUP3 SLT PUSH1 0x0 DUP5 SLT PUSH1 0x0 DUP5 SLT AND AND ISZERO PUSH2 0x635 JUMPI PUSH2 0x634 PUSH2 0x69C JUMP JUMPDEST JUMPDEST DUP3 DUP3 MUL SWAP1 POP SWAP3 SWAP2 POP POP JUMP JUMPDEST PUSH1 0x0 PUSH2 0x64B DUP3 PUSH2 0x65C JUMP JUMPDEST SWAP1 POP SWAP2 SWAP1 POP JUMP JUMPDEST PUSH1 0x0 DUP2 SWAP1 POP SWAP2 SWAP1 POP JUMP JUMPDEST PUSH1 0x0 PUSH20 0xFFFFFFFFFFFFFFFFFFFFFFFFFFFFFFFFFFFFFFFF DUP3 AND SWAP1 POP SWAP2 SWAP1 POP JUMP JUMPDEST PUSH1 0x0 DUP2 SWAP1 POP SWAP2 SWAP1 POP JUMP JUMPDEST PUSH1 0x0 PUSH10 0xFFFFFFFFFFFFFFFFFFFF DUP3 AND SWAP1 POP SWAP2 SWAP1 POP JUMP JUMPDEST PUSH32 0x4E487B7100000000000000000000000000000000000000000000000000000000 PUSH1 0x0 MSTORE PUSH1 0x11 PUSH1 0x4 MSTORE PUSH1 0x24 PUSH1 0x0 REVERT JUMPDEST PUSH2 0x6D4 DUP2 PUSH2 0x640 JUMP JUMPDEST DUP2 EQ PUSH2 0x6DF JUMPI PUSH1 0x0 DUP1 REVERT JUMPDEST POP JUMP JUMPDEST PUSH2 0x6EB DUP2 PUSH2 0x652 JUMP JUMPDEST DUP2 EQ PUSH2 0x6F6 JUMPI PUSH1 0x0 DUP1 REVERT JUMPDEST POP JUMP JUMPDEST PUSH2 0x702 DUP2 PUSH2 0x67C JUMP JUMPDEST DUP2 EQ PUSH2 0x70D JUMPI PUSH1 0x0 DUP1 REVERT JUMPDEST POP JUMP JUMPDEST PUSH2 0x719 DUP2 PUSH2 0x686 JUMP JUMPDEST DUP2 EQ PUSH2 0x724 JUMPI PUSH1 0x0 DUP1 REVERT JUMPDEST POP JUMP INVALID LOG2 PUSH5 0x6970667358 0x22 SLT KECCAK256 DUP10 PUSH10 0x86192C6BB2D91EE0922D 0xD1 0xC CALLDATASIZE PUSH26 0xC15301C1B20A9CFBD04B6F31CE80D17464736F6C634300080000 CALLER "
				},
				"gasEstimates": {
					"creation": {
						"codeDepositCost": "377000",
						"executionCost": "20417",
						"totalCost": "397417"
					},
					"external": {
						"addressToAmountFunded(address)": "1514",
						"fund()": "62069",
						"funders(uint256)": "2422",
						"getPrice()": "infinite",
						"minimumUsd()": "1107"
					},
					"internal": {
						"getConversionRate(uint256)": "infinite",
						"getVersion()": "infinite"
					}
				},
				"methodIdentifiers": {
					"addressToAmountFunded(address)": "3e47d6f3",
					"fund()": "b60d4288",
					"funders(uint256)": "dc0d3dff",
					"getPrice()": "98d5fdca",
					"minimumUsd()": "098de820"
				}
			},
			"storageLayout": {
				"storage": [
					{
						"astId": 53,
						"contract": "contracts/FundMe.sol:FundMe",
						"label": "minimumUsd",
						"offset": 0,
						"slot": "0",
						"type": "t_uint256"
					},
					{
						"astId": 56,
						"contract": "contracts/FundMe.sol:FundMe",
						"label": "funders",
						"offset": 0,
						"slot": "1",
						"type": "t_array(t_address)dyn_storage"
					},
					{
						"astId": 60,
						"contract": "contracts/FundMe.sol:FundMe",
						"label": "addressToAmountFunded",
						"offset": 0,
						"slot": "2",
						"type": "t_mapping(t_address,t_uint256)"
					}
				],
				"types": {
					"t_address": {
						"encoding": "inplace",
						"label": "address",
						"numberOfBytes": "20"
					},
					"t_array(t_address)dyn_storage": {
						"base": "t_address",
						"encoding": "dynamic_array",
						"label": "address[]",
						"numberOfBytes": "32"
					},
					"t_mapping(t_address,t_uint256)": {
						"encoding": "mapping",
						"key": "t_address",
						"label": "mapping(address => uint256)",
						"numberOfBytes": "32",
						"value": "t_uint256"
					},
					"t_uint256": {
						"encoding": "inplace",
						"label": "uint256",
						"numberOfBytes": "32"
					}
				}
			},
			"userdoc": {
				"kind": "user",
				"methods": {},
				"version": 1
			}
		}
	}
}