{
	"contracts/FundMe.sol": {
		"FundMe": {
			"abi": [
				{
					"inputs": [],
					"stateMutability": "nonpayable",
					"type": "constructor"
				},
				{
					"inputs": [
						{
							"internalType": "address",
							"name": "",
							"type": "address"
						}
					],
					"name": "addressToAmountFunded",
					"outputs": [
						{
							"internalType": "uint256",
							"name": "",
							"type": "uint256"
						}
					],
					"stateMutability": "view",
					"type": "function"
				},
				{
					"inputs": [],
					"name": "fund",
					"outputs": [],
					"stateMutability": "payable",
					"type": "function"
				},
				{
					"inputs": [
						{
							"internalType": "uint256",
							"name": "",
							"type": "uint256"
						}
					],
					"name": "funders",
					"outputs": [
						{
							"internalType": "address",
							"name": "",
							"type": "address"
						}
					],
					"stateMutability": "view",
					"type": "function"
				},
				{
					"inputs": [],
					"name": "minimumUsd",
					"outputs": [
						{
							"internalType": "uint256",
							"name": "",
							"type": "uint256"
						}
					],
					"stateMutability": "view",
					"type": "function"
				},
				{
					"inputs": [],
					"name": "owner",
					"outputs": [
						{
							"internalType": "address",
							"name": "",
							"type": "address"
						}
					],
					"stateMutability": "view",
					"type": "function"
				},
				{
					"inputs": [],
					"name": "withdraw",
					"outputs": [],
					"stateMutability": "nonpayable",
					"type": "function"
				}
			],
			"devdoc": {
				"kind": "dev",
				"methods": {},
				"version": 1
			},
			"evm": {
				"assembly": "    /* \"contracts/FundMe.sol\":137:1636  contract FundMe {... */\n  mstore(0x40, 0x80)\n    /* \"contracts/FundMe.sol\":226:235  50 * 1e18 */\n  0x02b5e3af16b1880000\n    /* \"contracts/FundMe.sol\":198:235  uint256 public minimumUsd = 50 * 1e18 */\n  0x00\n  sstore\n    /* \"contracts/FundMe.sol\":361:411  constructor() {... */\n  callvalue\n  dup1\n  iszero\n  tag_1\n  jumpi\n  0x00\n  dup1\n  revert\ntag_1:\n  pop\n    /* \"contracts/FundMe.sol\":393:403  msg.sender */\n  caller\n    /* \"contracts/FundMe.sol\":385:390  owner */\n  0x03\n  0x00\n    /* \"contracts/FundMe.sol\":385:403  owner = msg.sender */\n  0x0100\n  exp\n  dup2\n  sload\n  dup2\n  0xffffffffffffffffffffffffffffffffffffffff\n  mul\n  not\n  and\n  swap1\n  dup4\n  0xffffffffffffffffffffffffffffffffffffffff\n  and\n  mul\n  or\n  swap1\n  sstore\n  pop\n    /* \"contracts/FundMe.sol\":137:1636  contract FundMe {... */\n  dataSize(sub_0)\n  dup1\n  dataOffset(sub_0)\n  0x00\n  codecopy\n  0x00\n  return\nstop\n\nsub_0: assembly {\n        /* \"contracts/FundMe.sol\":137:1636  contract FundMe {... */\n      mstore(0x40, 0x80)\n      jumpi(tag_1, lt(calldatasize, 0x04))\n      shr(0xe0, calldataload(0x00))\n      dup1\n      0x098de820\n      eq\n      tag_2\n      jumpi\n      dup1\n      0x3ccfd60b\n      eq\n      tag_3\n      jumpi\n      dup1\n      0x3e47d6f3\n      eq\n      tag_4\n      jumpi\n      dup1\n      0x8da5cb5b\n      eq\n      tag_5\n      jumpi\n      dup1\n      0xb60d4288\n      eq\n      tag_6\n      jumpi\n      dup1\n      0xdc0d3dff\n      eq\n      tag_7\n      jumpi\n    tag_1:\n      0x00\n      dup1\n      revert\n        /* \"contracts/FundMe.sol\":198:235  uint256 public minimumUsd = 50 * 1e18 */\n    tag_2:\n      callvalue\n      dup1\n      iszero\n      tag_8\n      jumpi\n      0x00\n      dup1\n      revert\n    tag_8:\n      pop\n      tag_9\n      tag_10\n      jump\t// in\n    tag_9:\n      mload(0x40)\n      tag_11\n      swap2\n      swap1\n      tag_12\n      jump\t// in\n    tag_11:\n      mload(0x40)\n      dup1\n      swap2\n      sub\n      swap1\n      return\n        /* \"contracts/FundMe.sol\":655:1490  function withdraw() public onlyOwner {... */\n    tag_3:\n      callvalue\n      dup1\n      iszero\n      tag_13\n      jumpi\n      0x00\n      dup1\n      revert\n    tag_13:\n      pop\n      tag_14\n      tag_15\n      jump\t// in\n    tag_14:\n      stop\n        /* \"contracts/FundMe.sol\":272:328  mapping(address => uint256) public addressToAmountFunded */\n    tag_4:\n      callvalue\n      dup1\n      iszero\n      tag_16\n      jumpi\n      0x00\n      dup1\n      revert\n    tag_16:\n      pop\n      tag_17\n      0x04\n      dup1\n      calldatasize\n      sub\n      dup2\n      add\n      swap1\n      tag_18\n      swap2\n      swap1\n      tag_19\n      jump\t// in\n    tag_18:\n      tag_20\n      jump\t// in\n    tag_17:\n      mload(0x40)\n      tag_21\n      swap2\n      swap1\n      tag_12\n      jump\t// in\n    tag_21:\n      mload(0x40)\n      dup1\n      swap2\n      sub\n      swap1\n      return\n        /* \"contracts/FundMe.sol\":335:355  address public owner */\n    tag_5:\n      callvalue\n      dup1\n      iszero\n      tag_22\n      jumpi\n      0x00\n      dup1\n      revert\n    tag_22:\n      pop\n      tag_23\n      tag_24\n      jump\t// in\n    tag_23:\n      mload(0x40)\n      tag_25\n      swap2\n      swap1\n      tag_26\n      jump\t// in\n    tag_25:\n      mload(0x40)\n      dup1\n      swap2\n      sub\n      swap1\n      return\n        /* \"contracts/FundMe.sol\":417:645  function fund() public payable {... */\n    tag_6:\n      tag_27\n      tag_28\n      jump\t// in\n    tag_27:\n      stop\n        /* \"contracts/FundMe.sol\":242:266  address[] public funders */\n    tag_7:\n      callvalue\n      dup1\n      iszero\n      tag_29\n      jumpi\n      0x00\n      dup1\n      revert\n    tag_29:\n      pop\n      tag_30\n      0x04\n      dup1\n      calldatasize\n      sub\n      dup2\n      add\n      swap1\n      tag_31\n      swap2\n      swap1\n      tag_32\n      jump\t// in\n    tag_31:\n      tag_33\n      jump\t// in\n    tag_30:\n      mload(0x40)\n      tag_34\n      swap2\n      swap1\n      tag_26\n      jump\t// in\n    tag_34:\n      mload(0x40)\n      dup1\n      swap2\n      sub\n      swap1\n      return\n        /* \"contracts/FundMe.sol\":198:235  uint256 public minimumUsd = 50 * 1e18 */\n    tag_10:\n      sload(0x00)\n      dup2\n      jump\t// out\n        /* \"contracts/FundMe.sol\":655:1490  function withdraw() public onlyOwner {... */\n    tag_15:\n        /* \"contracts/FundMe.sol\":1547:1552  owner */\n      0x03\n      0x00\n      swap1\n      sload\n      swap1\n      0x0100\n      exp\n      swap1\n      div\n      0xffffffffffffffffffffffffffffffffffffffff\n      and\n        /* \"contracts/FundMe.sol\":1533:1552  msg.sender == owner */\n      0xffffffffffffffffffffffffffffffffffffffff\n      and\n        /* \"contracts/FundMe.sol\":1533:1543  msg.sender */\n      caller\n        /* \"contracts/FundMe.sol\":1533:1552  msg.sender == owner */\n      0xffffffffffffffffffffffffffffffffffffffff\n      and\n      eq\n        /* \"contracts/FundMe.sol\":1525:1577  require(msg.sender == owner, \"Sender is not owner!\") */\n      tag_36\n      jumpi\n      mload(0x40)\n      0x08c379a000000000000000000000000000000000000000000000000000000000\n      dup2\n      mstore\n      0x04\n      add\n      tag_37\n      swap1\n      tag_38\n      jump\t// in\n    tag_37:\n      mload(0x40)\n      dup1\n      swap2\n      sub\n      swap1\n      revert\n    tag_36:\n        /* \"contracts/FundMe.sol\":770:789  uint256 funderIndex */\n      0x00\n        /* \"contracts/FundMe.sol\":766:965  for(uint256 funderIndex = 0; funderIndex < funders.length; funderIndex = funderIndex +1) {... */\n    tag_40:\n        /* \"contracts/FundMe.sol\":809:816  funders */\n      0x01\n        /* \"contracts/FundMe.sol\":809:823  funders.length */\n      dup1\n      sload\n      swap1\n      pop\n        /* \"contracts/FundMe.sol\":795:806  funderIndex */\n      dup2\n        /* \"contracts/FundMe.sol\":795:823  funderIndex < funders.length */\n      lt\n        /* \"contracts/FundMe.sol\":766:965  for(uint256 funderIndex = 0; funderIndex < funders.length; funderIndex = funderIndex +1) {... */\n      iszero\n      tag_41\n      jumpi\n        /* \"contracts/FundMe.sol\":870:884  address funder */\n      0x00\n        /* \"contracts/FundMe.sol\":887:894  funders */\n      0x01\n        /* \"contracts/FundMe.sol\":895:906  funderIndex */\n      dup3\n        /* \"contracts/FundMe.sol\":887:907  funders[funderIndex] */\n      dup2\n      sload\n      dup2\n      lt\n      tag_43\n      jumpi\n      mstore(0x00, 0x4e487b7100000000000000000000000000000000000000000000000000000000)\n      mstore(0x04, 0x32)\n      revert(0x00, 0x24)\n    tag_43:\n      swap1\n      0x00\n      mstore\n      keccak256(0x00, 0x20)\n      add\n      0x00\n      swap1\n      sload\n      swap1\n      0x0100\n      exp\n      swap1\n      div\n      0xffffffffffffffffffffffffffffffffffffffff\n      and\n        /* \"contracts/FundMe.sol\":870:907  address funder = funders[funderIndex] */\n      swap1\n      pop\n        /* \"contracts/FundMe.sol\":953:954  0 */\n      0x00\n        /* \"contracts/FundMe.sol\":921:942  addressToAmountFunded */\n      0x02\n        /* \"contracts/FundMe.sol\":921:950  addressToAmountFunded[funder] */\n      0x00\n        /* \"contracts/FundMe.sol\":943:949  funder */\n      dup4\n        /* \"contracts/FundMe.sol\":921:950  addressToAmountFunded[funder] */\n      0xffffffffffffffffffffffffffffffffffffffff\n      and\n      0xffffffffffffffffffffffffffffffffffffffff\n      and\n      dup2\n      mstore\n      0x20\n      add\n      swap1\n      dup2\n      mstore\n      0x20\n      add\n      0x00\n      keccak256\n        /* \"contracts/FundMe.sol\":921:954  addressToAmountFunded[funder] = 0 */\n      dup2\n      swap1\n      sstore\n      pop\n        /* \"contracts/FundMe.sol\":766:965  for(uint256 funderIndex = 0; funderIndex < funders.length; funderIndex = funderIndex +1) {... */\n      pop\n        /* \"contracts/FundMe.sol\":852:853  1 */\n      0x01\n        /* \"contracts/FundMe.sol\":839:850  funderIndex */\n      dup2\n        /* \"contracts/FundMe.sol\":839:853  funderIndex +1 */\n      tag_45\n      swap2\n      swap1\n      tag_46\n      jump\t// in\n    tag_45:\n        /* \"contracts/FundMe.sol\":825:853  funderIndex = funderIndex +1 */\n      swap1\n      pop\n        /* \"contracts/FundMe.sol\":766:965  for(uint256 funderIndex = 0; funderIndex < funders.length; funderIndex = funderIndex +1) {... */\n      jump(tag_40)\n    tag_41:\n      pop\n        /* \"contracts/FundMe.sol\":1025:1026  0 */\n      0x00\n        /* \"contracts/FundMe.sol\":1011:1027  new address[](0) */\n      0xffffffffffffffff\n      dup2\n      gt\n      iszero\n      tag_47\n      jumpi\n      mstore(0x00, 0x4e487b7100000000000000000000000000000000000000000000000000000000)\n      mstore(0x04, 0x41)\n      revert(0x00, 0x24)\n    tag_47:\n      mload(0x40)\n      swap1\n      dup1\n      dup3\n      mstore\n      dup1\n      0x20\n      mul\n      0x20\n      add\n      dup3\n      add\n      0x40\n      mstore\n      dup1\n      iszero\n      tag_48\n      jumpi\n      dup2\n      0x20\n      add\n      0x20\n      dup3\n      mul\n      dup1\n      calldatasize\n      dup4\n      calldatacopy\n      dup1\n      dup3\n      add\n      swap2\n      pop\n      pop\n      swap1\n      pop\n    tag_48:\n      pop\n        /* \"contracts/FundMe.sol\":1001:1008  funders */\n      0x01\n        /* \"contracts/FundMe.sol\":1001:1027  funders = new address[](0) */\n      swap1\n      dup1\n      mload\n      swap1\n      0x20\n      add\n      swap1\n      tag_49\n      swap3\n      swap2\n      swap1\n      tag_50\n      jump\t// in\n    tag_49:\n      pop\n        /* \"contracts/FundMe.sol\":1327:1343  bool callSuccess */\n      0x00\n        /* \"contracts/FundMe.sol\":1357:1367  msg.sender */\n      caller\n        /* \"contracts/FundMe.sol\":1349:1373  payable(msg.sender).call */\n      0xffffffffffffffffffffffffffffffffffffffff\n      and\n        /* \"contracts/FundMe.sol\":1381:1402  address(this).balance */\n      selfbalance\n        /* \"contracts/FundMe.sol\":1349:1407  payable(msg.sender).call{value: address(this).balance}(\"\") */\n      mload(0x40)\n      tag_51\n      swap1\n      tag_52\n      jump\t// in\n    tag_51:\n      0x00\n      mload(0x40)\n      dup1\n      dup4\n      sub\n      dup2\n      dup6\n      dup8\n      gas\n      call\n      swap3\n      pop\n      pop\n      pop\n      returndatasize\n      dup1\n      0x00\n      dup2\n      eq\n      tag_55\n      jumpi\n      mload(0x40)\n      swap2\n      pop\n      and(add(returndatasize, 0x3f), not(0x1f))\n      dup3\n      add\n      0x40\n      mstore\n      returndatasize\n      dup3\n      mstore\n      returndatasize\n      0x00\n      0x20\n      dup5\n      add\n      returndatacopy\n      jump(tag_54)\n    tag_55:\n      0x60\n      swap2\n      pop\n    tag_54:\n      pop\n        /* \"contracts/FundMe.sol\":1326:1407  (bool callSuccess, ) = payable(msg.sender).call{value: address(this).balance}(\"\") */\n      pop\n      swap1\n      pop\n        /* \"contracts/FundMe.sol\":1425:1436  callSuccess */\n      dup1\n        /* \"contracts/FundMe.sol\":1417:1452  require(callSuccess, \"Call Failed\") */\n      tag_56\n      jumpi\n      mload(0x40)\n      0x08c379a000000000000000000000000000000000000000000000000000000000\n      dup2\n      mstore\n      0x04\n      add\n      tag_57\n      swap1\n      tag_58\n      jump\t// in\n    tag_57:\n      mload(0x40)\n      dup1\n      swap2\n      sub\n      swap1\n      revert\n    tag_56:\n        /* \"contracts/FundMe.sol\":1587:1588  _ */\n      pop\n        /* \"contracts/FundMe.sol\":655:1490  function withdraw() public onlyOwner {... */\n      jump\t// out\n        /* \"contracts/FundMe.sol\":272:328  mapping(address => uint256) public addressToAmountFunded */\n    tag_20:\n      mstore(0x20, 0x02)\n      dup1\n      0x00\n      mstore\n      keccak256(0x00, 0x40)\n      0x00\n      swap2\n      pop\n      swap1\n      pop\n      sload\n      dup2\n      jump\t// out\n        /* \"contracts/FundMe.sol\":335:355  address public owner */\n    tag_24:\n      0x03\n      0x00\n      swap1\n      sload\n      swap1\n      0x0100\n      exp\n      swap1\n      div\n      0xffffffffffffffffffffffffffffffffffffffff\n      and\n      dup2\n      jump\t// out\n        /* \"contracts/FundMe.sol\":417:645  function fund() public payable {... */\n    tag_28:\n        /* \"contracts/FundMe.sol\":508:518  minimumUsd */\n      sload(0x00)\n        /* \"contracts/FundMe.sol\":475:504  msg.value.getConversionRate() */\n      tag_60\n        /* \"contracts/FundMe.sol\":475:484  msg.value */\n      callvalue\n        /* \"contracts/FundMe.sol\":475:502  msg.value.getConversionRate */\n      tag_61\n        /* \"contracts/FundMe.sol\":475:504  msg.value.getConversionRate() */\n      jump\t// in\n    tag_60:\n        /* \"contracts/FundMe.sol\":475:518  msg.value.getConversionRate() >= minimumUsd */\n      lt\n      iszero\n        /* \"contracts/FundMe.sol\":467:549  require(msg.value.getConversionRate() >= minimumUsd, \"Did not send enough moneys\") */\n      tag_62\n      jumpi\n      mload(0x40)\n      0x08c379a000000000000000000000000000000000000000000000000000000000\n      dup2\n      mstore\n      0x04\n      add\n      tag_63\n      swap1\n      tag_64\n      jump\t// in\n    tag_63:\n      mload(0x40)\n      dup1\n      swap2\n      sub\n      swap1\n      revert\n    tag_62:\n        /* \"contracts/FundMe.sol\":559:566  funders */\n      0x01\n        /* \"contracts/FundMe.sol\":572:582  msg.sender */\n      caller\n        /* \"contracts/FundMe.sol\":559:583  funders.push(msg.sender) */\n      swap1\n      dup1\n      0x01\n      dup2\n      sload\n      add\n      dup1\n      dup3\n      sstore\n      dup1\n      swap2\n      pop\n      pop\n      0x01\n      swap1\n      sub\n      swap1\n      0x00\n      mstore\n      keccak256(0x00, 0x20)\n      add\n      0x00\n      swap1\n      swap2\n      swap1\n      swap2\n      swap1\n      swap2\n      0x0100\n      exp\n      dup2\n      sload\n      dup2\n      0xffffffffffffffffffffffffffffffffffffffff\n      mul\n      not\n      and\n      swap1\n      dup4\n      0xffffffffffffffffffffffffffffffffffffffff\n      and\n      mul\n      or\n      swap1\n      sstore\n      pop\n        /* \"contracts/FundMe.sol\":629:638  msg.value */\n      callvalue\n        /* \"contracts/FundMe.sol\":593:614  addressToAmountFunded */\n      0x02\n        /* \"contracts/FundMe.sol\":593:626  addressToAmountFunded[msg.sender] */\n      0x00\n        /* \"contracts/FundMe.sol\":615:625  msg.sender */\n      caller\n        /* \"contracts/FundMe.sol\":593:626  addressToAmountFunded[msg.sender] */\n      0xffffffffffffffffffffffffffffffffffffffff\n      and\n      0xffffffffffffffffffffffffffffffffffffffff\n      and\n      dup2\n      mstore\n      0x20\n      add\n      swap1\n      dup2\n      mstore\n      0x20\n      add\n      0x00\n      keccak256\n        /* \"contracts/FundMe.sol\":593:638  addressToAmountFunded[msg.sender] = msg.value */\n      dup2\n      swap1\n      sstore\n      pop\n        /* \"contracts/FundMe.sol\":417:645  function fund() public payable {... */\n      jump\t// out\n        /* \"contracts/FundMe.sol\":242:266  address[] public funders */\n    tag_33:\n      0x01\n      dup2\n      dup2\n      sload\n      dup2\n      lt\n      tag_66\n      jumpi\n      0x00\n      dup1\n      revert\n    tag_66:\n      swap1\n      0x00\n      mstore\n      keccak256(0x00, 0x20)\n      add\n      0x00\n      swap2\n      pop\n      sload\n      swap1\n      0x0100\n      exp\n      swap1\n      div\n      0xffffffffffffffffffffffffffffffffffffffff\n      and\n      dup2\n      jump\t// out\n        /* \"contracts/PriceConverter.sol\":647:868  function getConversionRate(uint256 ethAmount) internal view returns (uint256) {... */\n    tag_61:\n        /* \"contracts/PriceConverter.sol\":716:723  uint256 */\n      0x00\n        /* \"contracts/PriceConverter.sol\":736:752  uint256 ethPrice */\n      dup1\n        /* \"contracts/PriceConverter.sol\":755:765  getPrice() */\n      tag_69\n        /* \"contracts/PriceConverter.sol\":755:763  getPrice */\n      tag_70\n        /* \"contracts/PriceConverter.sol\":755:765  getPrice() */\n      jump\t// in\n    tag_69:\n        /* \"contracts/PriceConverter.sol\":736:765  uint256 ethPrice = getPrice() */\n      swap1\n      pop\n        /* \"contracts/PriceConverter.sol\":775:798  uint256  ethAmountInUsd */\n      0x00\n        /* \"contracts/PriceConverter.sol\":826:830  1e18 */\n      0x0de0b6b3a7640000\n        /* \"contracts/PriceConverter.sol\":813:822  ethAmount */\n      dup5\n        /* \"contracts/PriceConverter.sol\":802:810  ethPrice */\n      dup4\n        /* \"contracts/PriceConverter.sol\":802:822  ethPrice * ethAmount */\n      tag_71\n      swap2\n      swap1\n      tag_72\n      jump\t// in\n    tag_71:\n        /* \"contracts/PriceConverter.sol\":801:830  (ethPrice * ethAmount) / 1e18 */\n      tag_73\n      swap2\n      swap1\n      tag_74\n      jump\t// in\n    tag_73:\n        /* \"contracts/PriceConverter.sol\":775:830  uint256  ethAmountInUsd = (ethPrice * ethAmount) / 1e18 */\n      swap1\n      pop\n        /* \"contracts/PriceConverter.sol\":847:861  ethAmountInUsd */\n      dup1\n        /* \"contracts/PriceConverter.sol\":840:861  return ethAmountInUsd */\n      swap3\n      pop\n      pop\n      pop\n        /* \"contracts/PriceConverter.sol\":647:868  function getConversionRate(uint256 ethAmount) internal view returns (uint256) {... */\n      swap2\n      swap1\n      pop\n      jump\t// out\n        /* \"contracts/PriceConverter.sol\":130:429  function getPrice() internal view returns(uint256){... */\n    tag_70:\n        /* \"contracts/PriceConverter.sol\":172:179  uint256 */\n      0x00\n        /* \"contracts/PriceConverter.sol\":225:256  AggregatorV3Interface priceFeed */\n      dup1\n        /* \"contracts/PriceConverter.sol\":281:323  0x5f4eC3Df9cbd43714FE2740f5E3616155c5b8419 */\n      0x5f4ec3df9cbd43714fe2740f5e3616155c5b8419\n        /* \"contracts/PriceConverter.sol\":225:324  AggregatorV3Interface priceFeed = AggregatorV3Interface(0x5f4eC3Df9cbd43714FE2740f5E3616155c5b8419) */\n      swap1\n      pop\n        /* \"contracts/PriceConverter.sol\":336:348  int256 price */\n      0x00\n        /* \"contracts/PriceConverter.sol\":355:364  priceFeed */\n      dup2\n        /* \"contracts/PriceConverter.sol\":355:380  priceFeed.latestRoundData */\n      0xffffffffffffffffffffffffffffffffffffffff\n      and\n      0xfeaf968c\n        /* \"contracts/PriceConverter.sol\":355:382  priceFeed.latestRoundData() */\n      mload(0x40)\n      dup2\n      0xffffffff\n      and\n      0xe0\n      shl\n      dup2\n      mstore\n      0x04\n      add\n      0xa0\n      mload(0x40)\n      dup1\n      dup4\n      sub\n      dup2\n      dup7\n      dup1\n      extcodesize\n      iszero\n      dup1\n      iszero\n      tag_76\n      jumpi\n      0x00\n      dup1\n      revert\n    tag_76:\n      pop\n      gas\n      staticcall\n      iszero\n      dup1\n      iszero\n      tag_78\n      jumpi\n      returndatasize\n      0x00\n      dup1\n      returndatacopy\n      revert(0x00, returndatasize)\n    tag_78:\n      pop\n      pop\n      pop\n      pop\n      mload(0x40)\n      returndatasize\n      not(0x1f)\n      0x1f\n      dup3\n      add\n      and\n      dup3\n      add\n      dup1\n      0x40\n      mstore\n      pop\n      dup2\n      add\n      swap1\n      tag_79\n      swap2\n      swap1\n      tag_80\n      jump\t// in\n    tag_79:\n        /* \"contracts/PriceConverter.sol\":334:382  (,int256 price,,,) = priceFeed.latestRoundData() */\n      pop\n      pop\n      pop\n      swap2\n      pop\n      pop\n        /* \"contracts/PriceConverter.sol\":416:420  1e10 */\n      0x02540be400\n        /* \"contracts/PriceConverter.sol\":408:413  price */\n      dup2\n        /* \"contracts/PriceConverter.sol\":408:420  price * 1e10 */\n      tag_81\n      swap2\n      swap1\n      tag_82\n      jump\t// in\n    tag_81:\n        /* \"contracts/PriceConverter.sol\":393:421  return uint256(price * 1e10) */\n      swap3\n      pop\n      pop\n      pop\n        /* \"contracts/PriceConverter.sol\":130:429  function getPrice() internal view returns(uint256){... */\n      swap1\n      jump\t// out\n    tag_50:\n      dup3\n      dup1\n      sload\n      dup3\n      dup3\n      sstore\n      swap1\n      0x00\n      mstore\n      keccak256(0x00, 0x20)\n      swap1\n      dup2\n      add\n      swap3\n      dup3\n      iszero\n      tag_83\n      jumpi\n      swap2\n      0x20\n      mul\n      dup3\n      add\n    tag_84:\n      dup3\n      dup2\n      gt\n      iszero\n      tag_85\n      jumpi\n      dup3\n      mload\n      dup3\n      exp(0x0100, 0x00)\n      dup2\n      sload\n      dup2\n      0xffffffffffffffffffffffffffffffffffffffff\n      mul\n      not\n      and\n      swap1\n      dup4\n      0xffffffffffffffffffffffffffffffffffffffff\n      and\n      mul\n      or\n      swap1\n      sstore\n      pop\n      swap2\n      0x20\n      add\n      swap2\n      swap1\n      0x01\n      add\n      swap1\n      jump(tag_84)\n    tag_85:\n    tag_83:\n      pop\n      swap1\n      pop\n      tag_86\n      swap2\n      swap1\n      tag_87\n      jump\t// in\n    tag_86:\n      pop\n      swap1\n      jump\t// out\n    tag_87:\n    tag_88:\n      dup1\n      dup3\n      gt\n      iszero\n      tag_89\n      jumpi\n      0x00\n      dup2\n      0x00\n      swap1\n      sstore\n      pop\n      0x01\n      add\n      jump(tag_88)\n    tag_89:\n      pop\n      swap1\n      jump\t// out\n        /* \"#utility.yul\":7:146   */\n    tag_91:\n      0x00\n        /* \"#utility.yul\":91:97   */\n      dup2\n        /* \"#utility.yul\":78:98   */\n      calldataload\n        /* \"#utility.yul\":69:98   */\n      swap1\n      pop\n        /* \"#utility.yul\":107:140   */\n      tag_93\n        /* \"#utility.yul\":134:139   */\n      dup2\n        /* \"#utility.yul\":107:140   */\n      tag_94\n      jump\t// in\n    tag_93:\n        /* \"#utility.yul\":59:146   */\n      swap3\n      swap2\n      pop\n      pop\n      jump\t// out\n        /* \"#utility.yul\":152:293   */\n    tag_95:\n      0x00\n        /* \"#utility.yul\":239:245   */\n      dup2\n        /* \"#utility.yul\":233:246   */\n      mload\n        /* \"#utility.yul\":224:246   */\n      swap1\n      pop\n        /* \"#utility.yul\":255:287   */\n      tag_97\n        /* \"#utility.yul\":281:286   */\n      dup2\n        /* \"#utility.yul\":255:287   */\n      tag_98\n      jump\t// in\n    tag_97:\n        /* \"#utility.yul\":214:293   */\n      swap3\n      swap2\n      pop\n      pop\n      jump\t// out\n        /* \"#utility.yul\":299:438   */\n    tag_99:\n      0x00\n        /* \"#utility.yul\":383:389   */\n      dup2\n        /* \"#utility.yul\":370:390   */\n      calldataload\n        /* \"#utility.yul\":361:390   */\n      swap1\n      pop\n        /* \"#utility.yul\":399:432   */\n      tag_101\n        /* \"#utility.yul\":426:431   */\n      dup2\n        /* \"#utility.yul\":399:432   */\n      tag_102\n      jump\t// in\n    tag_101:\n        /* \"#utility.yul\":351:438   */\n      swap3\n      swap2\n      pop\n      pop\n      jump\t// out\n        /* \"#utility.yul\":444:587   */\n    tag_103:\n      0x00\n        /* \"#utility.yul\":532:538   */\n      dup2\n        /* \"#utility.yul\":526:539   */\n      mload\n        /* \"#utility.yul\":517:539   */\n      swap1\n      pop\n        /* \"#utility.yul\":548:581   */\n      tag_105\n        /* \"#utility.yul\":575:580   */\n      dup2\n        /* \"#utility.yul\":548:581   */\n      tag_102\n      jump\t// in\n    tag_105:\n        /* \"#utility.yul\":507:587   */\n      swap3\n      swap2\n      pop\n      pop\n      jump\t// out\n        /* \"#utility.yul\":593:734   */\n    tag_106:\n      0x00\n        /* \"#utility.yul\":680:686   */\n      dup2\n        /* \"#utility.yul\":674:687   */\n      mload\n        /* \"#utility.yul\":665:687   */\n      swap1\n      pop\n        /* \"#utility.yul\":696:728   */\n      tag_108\n        /* \"#utility.yul\":722:727   */\n      dup2\n        /* \"#utility.yul\":696:728   */\n      tag_109\n      jump\t// in\n    tag_108:\n        /* \"#utility.yul\":655:734   */\n      swap3\n      swap2\n      pop\n      pop\n      jump\t// out\n        /* \"#utility.yul\":740:1002   */\n    tag_19:\n      0x00\n        /* \"#utility.yul\":848:850   */\n      0x20\n        /* \"#utility.yul\":836:845   */\n      dup3\n        /* \"#utility.yul\":827:834   */\n      dup5\n        /* \"#utility.yul\":823:846   */\n      sub\n        /* \"#utility.yul\":819:851   */\n      slt\n        /* \"#utility.yul\":816:818   */\n      iszero\n      tag_111\n      jumpi\n        /* \"#utility.yul\":864:865   */\n      0x00\n        /* \"#utility.yul\":861:862   */\n      dup1\n        /* \"#utility.yul\":854:866   */\n      revert\n        /* \"#utility.yul\":816:818   */\n    tag_111:\n        /* \"#utility.yul\":907:908   */\n      0x00\n        /* \"#utility.yul\":932:985   */\n      tag_112\n        /* \"#utility.yul\":977:984   */\n      dup5\n        /* \"#utility.yul\":968:974   */\n      dup3\n        /* \"#utility.yul\":957:966   */\n      dup6\n        /* \"#utility.yul\":953:975   */\n      add\n        /* \"#utility.yul\":932:985   */\n      tag_91\n      jump\t// in\n    tag_112:\n        /* \"#utility.yul\":922:985   */\n      swap2\n      pop\n        /* \"#utility.yul\":878:995   */\n      pop\n        /* \"#utility.yul\":806:1002   */\n      swap3\n      swap2\n      pop\n      pop\n      jump\t// out\n        /* \"#utility.yul\":1008:1270   */\n    tag_32:\n      0x00\n        /* \"#utility.yul\":1116:1118   */\n      0x20\n        /* \"#utility.yul\":1104:1113   */\n      dup3\n        /* \"#utility.yul\":1095:1102   */\n      dup5\n        /* \"#utility.yul\":1091:1114   */\n      sub\n        /* \"#utility.yul\":1087:1119   */\n      slt\n        /* \"#utility.yul\":1084:1086   */\n      iszero\n      tag_114\n      jumpi\n        /* \"#utility.yul\":1132:1133   */\n      0x00\n        /* \"#utility.yul\":1129:1130   */\n      dup1\n        /* \"#utility.yul\":1122:1134   */\n      revert\n        /* \"#utility.yul\":1084:1086   */\n    tag_114:\n        /* \"#utility.yul\":1175:1176   */\n      0x00\n        /* \"#utility.yul\":1200:1253   */\n      tag_115\n        /* \"#utility.yul\":1245:1252   */\n      dup5\n        /* \"#utility.yul\":1236:1242   */\n      dup3\n        /* \"#utility.yul\":1225:1234   */\n      dup6\n        /* \"#utility.yul\":1221:1243   */\n      add\n        /* \"#utility.yul\":1200:1253   */\n      tag_99\n      jump\t// in\n    tag_115:\n        /* \"#utility.yul\":1190:1253   */\n      swap2\n      pop\n        /* \"#utility.yul\":1146:1263   */\n      pop\n        /* \"#utility.yul\":1074:1270   */\n      swap3\n      swap2\n      pop\n      pop\n      jump\t// out\n        /* \"#utility.yul\":1276:2180   */\n    tag_80:\n      0x00\n      dup1\n      0x00\n      dup1\n      0x00\n        /* \"#utility.yul\":1460:1463   */\n      0xa0\n        /* \"#utility.yul\":1448:1457   */\n      dup7\n        /* \"#utility.yul\":1439:1446   */\n      dup9\n        /* \"#utility.yul\":1435:1458   */\n      sub\n        /* \"#utility.yul\":1431:1464   */\n      slt\n        /* \"#utility.yul\":1428:1430   */\n      iszero\n      tag_117\n      jumpi\n        /* \"#utility.yul\":1477:1478   */\n      0x00\n        /* \"#utility.yul\":1474:1475   */\n      dup1\n        /* \"#utility.yul\":1467:1479   */\n      revert\n        /* \"#utility.yul\":1428:1430   */\n    tag_117:\n        /* \"#utility.yul\":1520:1521   */\n      0x00\n        /* \"#utility.yul\":1545:1608   */\n      tag_118\n        /* \"#utility.yul\":1600:1607   */\n      dup9\n        /* \"#utility.yul\":1591:1597   */\n      dup3\n        /* \"#utility.yul\":1580:1589   */\n      dup10\n        /* \"#utility.yul\":1576:1598   */\n      add\n        /* \"#utility.yul\":1545:1608   */\n      tag_106\n      jump\t// in\n    tag_118:\n        /* \"#utility.yul\":1535:1608   */\n      swap6\n      pop\n        /* \"#utility.yul\":1491:1618   */\n      pop\n        /* \"#utility.yul\":1657:1659   */\n      0x20\n        /* \"#utility.yul\":1683:1746   */\n      tag_119\n        /* \"#utility.yul\":1738:1745   */\n      dup9\n        /* \"#utility.yul\":1729:1735   */\n      dup3\n        /* \"#utility.yul\":1718:1727   */\n      dup10\n        /* \"#utility.yul\":1714:1736   */\n      add\n        /* \"#utility.yul\":1683:1746   */\n      tag_95\n      jump\t// in\n    tag_119:\n        /* \"#utility.yul\":1673:1746   */\n      swap5\n      pop\n        /* \"#utility.yul\":1628:1756   */\n      pop\n        /* \"#utility.yul\":1795:1797   */\n      0x40\n        /* \"#utility.yul\":1821:1885   */\n      tag_120\n        /* \"#utility.yul\":1877:1884   */\n      dup9\n        /* \"#utility.yul\":1868:1874   */\n      dup3\n        /* \"#utility.yul\":1857:1866   */\n      dup10\n        /* \"#utility.yul\":1853:1875   */\n      add\n        /* \"#utility.yul\":1821:1885   */\n      tag_103\n      jump\t// in\n    tag_120:\n        /* \"#utility.yul\":1811:1885   */\n      swap4\n      pop\n        /* \"#utility.yul\":1766:1895   */\n      pop\n        /* \"#utility.yul\":1934:1936   */\n      0x60\n        /* \"#utility.yul\":1960:2024   */\n      tag_121\n        /* \"#utility.yul\":2016:2023   */\n      dup9\n        /* \"#utility.yul\":2007:2013   */\n      dup3\n        /* \"#utility.yul\":1996:2005   */\n      dup10\n        /* \"#utility.yul\":1992:2014   */\n      add\n        /* \"#utility.yul\":1960:2024   */\n      tag_103\n      jump\t// in\n    tag_121:\n        /* \"#utility.yul\":1950:2024   */\n      swap3\n      pop\n        /* \"#utility.yul\":1905:2034   */\n      pop\n        /* \"#utility.yul\":2073:2076   */\n      0x80\n        /* \"#utility.yul\":2100:2163   */\n      tag_122\n        /* \"#utility.yul\":2155:2162   */\n      dup9\n        /* \"#utility.yul\":2146:2152   */\n      dup3\n        /* \"#utility.yul\":2135:2144   */\n      dup10\n        /* \"#utility.yul\":2131:2153   */\n      add\n        /* \"#utility.yul\":2100:2163   */\n      tag_106\n      jump\t// in\n    tag_122:\n        /* \"#utility.yul\":2090:2163   */\n      swap2\n      pop\n        /* \"#utility.yul\":2044:2173   */\n      pop\n        /* \"#utility.yul\":1418:2180   */\n      swap3\n      swap6\n      pop\n      swap3\n      swap6\n      swap1\n      swap4\n      pop\n      jump\t// out\n        /* \"#utility.yul\":2186:2304   */\n    tag_123:\n        /* \"#utility.yul\":2273:2297   */\n      tag_125\n        /* \"#utility.yul\":2291:2296   */\n      dup2\n        /* \"#utility.yul\":2273:2297   */\n      tag_126\n      jump\t// in\n    tag_125:\n        /* \"#utility.yul\":2268:2271   */\n      dup3\n        /* \"#utility.yul\":2261:2298   */\n      mstore\n        /* \"#utility.yul\":2251:2304   */\n      pop\n      pop\n      jump\t// out\n        /* \"#utility.yul\":2310:2634   */\n    tag_127:\n      0x00\n        /* \"#utility.yul\":2473:2540   */\n      tag_129\n        /* \"#utility.yul\":2537:2539   */\n      0x1a\n        /* \"#utility.yul\":2532:2535   */\n      dup4\n        /* \"#utility.yul\":2473:2540   */\n      tag_130\n      jump\t// in\n    tag_129:\n        /* \"#utility.yul\":2466:2540   */\n      swap2\n      pop\n        /* \"#utility.yul\":2570:2598   */\n      0x446964206e6f742073656e6420656e6f756768206d6f6e657973000000000000\n        /* \"#utility.yul\":2566:2567   */\n      0x00\n        /* \"#utility.yul\":2561:2564   */\n      dup4\n        /* \"#utility.yul\":2557:2568   */\n      add\n        /* \"#utility.yul\":2550:2599   */\n      mstore\n        /* \"#utility.yul\":2625:2627   */\n      0x20\n        /* \"#utility.yul\":2620:2623   */\n      dup3\n        /* \"#utility.yul\":2616:2628   */\n      add\n        /* \"#utility.yul\":2609:2628   */\n      swap1\n      pop\n        /* \"#utility.yul\":2456:2634   */\n      swap2\n      swap1\n      pop\n      jump\t// out\n        /* \"#utility.yul\":2640:2937   */\n    tag_131:\n      0x00\n        /* \"#utility.yul\":2820:2903   */\n      tag_133\n        /* \"#utility.yul\":2901:2902   */\n      0x00\n        /* \"#utility.yul\":2896:2899   */\n      dup4\n        /* \"#utility.yul\":2820:2903   */\n      tag_134\n      jump\t// in\n    tag_133:\n        /* \"#utility.yul\":2813:2903   */\n      swap2\n      pop\n        /* \"#utility.yul\":2929:2930   */\n      0x00\n        /* \"#utility.yul\":2924:2927   */\n      dup3\n        /* \"#utility.yul\":2920:2931   */\n      add\n        /* \"#utility.yul\":2913:2931   */\n      swap1\n      pop\n        /* \"#utility.yul\":2803:2937   */\n      swap2\n      swap1\n      pop\n      jump\t// out\n        /* \"#utility.yul\":2943:3252   */\n    tag_135:\n      0x00\n        /* \"#utility.yul\":3106:3173   */\n      tag_137\n        /* \"#utility.yul\":3170:3172   */\n      0x0b\n        /* \"#utility.yul\":3165:3168   */\n      dup4\n        /* \"#utility.yul\":3106:3173   */\n      tag_130\n      jump\t// in\n    tag_137:\n        /* \"#utility.yul\":3099:3173   */\n      swap2\n      pop\n        /* \"#utility.yul\":3203:3216   */\n      0x43616c6c204661696c6564000000000000000000000000000000000000000000\n        /* \"#utility.yul\":3199:3200   */\n      0x00\n        /* \"#utility.yul\":3194:3197   */\n      dup4\n        /* \"#utility.yul\":3190:3201   */\n      add\n        /* \"#utility.yul\":3183:3217   */\n      mstore\n        /* \"#utility.yul\":3243:3245   */\n      0x20\n        /* \"#utility.yul\":3238:3241   */\n      dup3\n        /* \"#utility.yul\":3234:3246   */\n      add\n        /* \"#utility.yul\":3227:3246   */\n      swap1\n      pop\n        /* \"#utility.yul\":3089:3252   */\n      swap2\n      swap1\n      pop\n      jump\t// out\n        /* \"#utility.yul\":3258:3576   */\n    tag_138:\n      0x00\n        /* \"#utility.yul\":3421:3488   */\n      tag_140\n        /* \"#utility.yul\":3485:3487   */\n      0x14\n        /* \"#utility.yul\":3480:3483   */\n      dup4\n        /* \"#utility.yul\":3421:3488   */\n      tag_130\n      jump\t// in\n    tag_140:\n        /* \"#utility.yul\":3414:3488   */\n      swap2\n      pop\n        /* \"#utility.yul\":3518:3540   */\n      0x53656e646572206973206e6f74206f776e657221000000000000000000000000\n        /* \"#utility.yul\":3514:3515   */\n      0x00\n        /* \"#utility.yul\":3509:3512   */\n      dup4\n        /* \"#utility.yul\":3505:3516   */\n      add\n        /* \"#utility.yul\":3498:3541   */\n      mstore\n        /* \"#utility.yul\":3567:3569   */\n      0x20\n        /* \"#utility.yul\":3562:3565   */\n      dup3\n        /* \"#utility.yul\":3558:3570   */\n      add\n        /* \"#utility.yul\":3551:3570   */\n      swap1\n      pop\n        /* \"#utility.yul\":3404:3576   */\n      swap2\n      swap1\n      pop\n      jump\t// out\n        /* \"#utility.yul\":3582:3700   */\n    tag_141:\n        /* \"#utility.yul\":3669:3693   */\n      tag_143\n        /* \"#utility.yul\":3687:3692   */\n      dup2\n        /* \"#utility.yul\":3669:3693   */\n      tag_144\n      jump\t// in\n    tag_143:\n        /* \"#utility.yul\":3664:3667   */\n      dup3\n        /* \"#utility.yul\":3657:3694   */\n      mstore\n        /* \"#utility.yul\":3647:3700   */\n      pop\n      pop\n      jump\t// out\n        /* \"#utility.yul\":3706:4085   */\n    tag_52:\n      0x00\n        /* \"#utility.yul\":3912:4059   */\n      tag_146\n        /* \"#utility.yul\":4055:4058   */\n      dup3\n        /* \"#utility.yul\":3912:4059   */\n      tag_131\n      jump\t// in\n    tag_146:\n        /* \"#utility.yul\":3905:4059   */\n      swap2\n      pop\n        /* \"#utility.yul\":4076:4079   */\n      dup2\n        /* \"#utility.yul\":4069:4079   */\n      swap1\n      pop\n        /* \"#utility.yul\":3894:4085   */\n      swap2\n      swap1\n      pop\n      jump\t// out\n        /* \"#utility.yul\":4091:4313   */\n    tag_26:\n      0x00\n        /* \"#utility.yul\":4222:4224   */\n      0x20\n        /* \"#utility.yul\":4211:4220   */\n      dup3\n        /* \"#utility.yul\":4207:4225   */\n      add\n        /* \"#utility.yul\":4199:4225   */\n      swap1\n      pop\n        /* \"#utility.yul\":4235:4306   */\n      tag_148\n        /* \"#utility.yul\":4303:4304   */\n      0x00\n        /* \"#utility.yul\":4292:4301   */\n      dup4\n        /* \"#utility.yul\":4288:4305   */\n      add\n        /* \"#utility.yul\":4279:4285   */\n      dup5\n        /* \"#utility.yul\":4235:4306   */\n      tag_123\n      jump\t// in\n    tag_148:\n        /* \"#utility.yul\":4189:4313   */\n      swap3\n      swap2\n      pop\n      pop\n      jump\t// out\n        /* \"#utility.yul\":4319:4738   */\n    tag_64:\n      0x00\n        /* \"#utility.yul\":4523:4525   */\n      0x20\n        /* \"#utility.yul\":4512:4521   */\n      dup3\n        /* \"#utility.yul\":4508:4526   */\n      add\n        /* \"#utility.yul\":4500:4526   */\n      swap1\n      pop\n        /* \"#utility.yul\":4572:4581   */\n      dup2\n        /* \"#utility.yul\":4566:4570   */\n      dup2\n        /* \"#utility.yul\":4562:4582   */\n      sub\n        /* \"#utility.yul\":4558:4559   */\n      0x00\n        /* \"#utility.yul\":4547:4556   */\n      dup4\n        /* \"#utility.yul\":4543:4560   */\n      add\n        /* \"#utility.yul\":4536:4583   */\n      mstore\n        /* \"#utility.yul\":4600:4731   */\n      tag_150\n        /* \"#utility.yul\":4726:4730   */\n      dup2\n        /* \"#utility.yul\":4600:4731   */\n      tag_127\n      jump\t// in\n    tag_150:\n        /* \"#utility.yul\":4592:4731   */\n      swap1\n      pop\n        /* \"#utility.yul\":4490:4738   */\n      swap2\n      swap1\n      pop\n      jump\t// out\n        /* \"#utility.yul\":4744:5163   */\n    tag_58:\n      0x00\n        /* \"#utility.yul\":4948:4950   */\n      0x20\n        /* \"#utility.yul\":4937:4946   */\n      dup3\n        /* \"#utility.yul\":4933:4951   */\n      add\n        /* \"#utility.yul\":4925:4951   */\n      swap1\n      pop\n        /* \"#utility.yul\":4997:5006   */\n      dup2\n        /* \"#utility.yul\":4991:4995   */\n      dup2\n        /* \"#utility.yul\":4987:5007   */\n      sub\n        /* \"#utility.yul\":4983:4984   */\n      0x00\n        /* \"#utility.yul\":4972:4981   */\n      dup4\n        /* \"#utility.yul\":4968:4985   */\n      add\n        /* \"#utility.yul\":4961:5008   */\n      mstore\n        /* \"#utility.yul\":5025:5156   */\n      tag_152\n        /* \"#utility.yul\":5151:5155   */\n      dup2\n        /* \"#utility.yul\":5025:5156   */\n      tag_135\n      jump\t// in\n    tag_152:\n        /* \"#utility.yul\":5017:5156   */\n      swap1\n      pop\n        /* \"#utility.yul\":4915:5163   */\n      swap2\n      swap1\n      pop\n      jump\t// out\n        /* \"#utility.yul\":5169:5588   */\n    tag_38:\n      0x00\n        /* \"#utility.yul\":5373:5375   */\n      0x20\n        /* \"#utility.yul\":5362:5371   */\n      dup3\n        /* \"#utility.yul\":5358:5376   */\n      add\n        /* \"#utility.yul\":5350:5376   */\n      swap1\n      pop\n        /* \"#utility.yul\":5422:5431   */\n      dup2\n        /* \"#utility.yul\":5416:5420   */\n      dup2\n        /* \"#utility.yul\":5412:5432   */\n      sub\n        /* \"#utility.yul\":5408:5409   */\n      0x00\n        /* \"#utility.yul\":5397:5406   */\n      dup4\n        /* \"#utility.yul\":5393:5410   */\n      add\n        /* \"#utility.yul\":5386:5433   */\n      mstore\n        /* \"#utility.yul\":5450:5581   */\n      tag_154\n        /* \"#utility.yul\":5576:5580   */\n      dup2\n        /* \"#utility.yul\":5450:5581   */\n      tag_138\n      jump\t// in\n    tag_154:\n        /* \"#utility.yul\":5442:5581   */\n      swap1\n      pop\n        /* \"#utility.yul\":5340:5588   */\n      swap2\n      swap1\n      pop\n      jump\t// out\n        /* \"#utility.yul\":5594:5816   */\n    tag_12:\n      0x00\n        /* \"#utility.yul\":5725:5727   */\n      0x20\n        /* \"#utility.yul\":5714:5723   */\n      dup3\n        /* \"#utility.yul\":5710:5728   */\n      add\n        /* \"#utility.yul\":5702:5728   */\n      swap1\n      pop\n        /* \"#utility.yul\":5738:5809   */\n      tag_156\n        /* \"#utility.yul\":5806:5807   */\n      0x00\n        /* \"#utility.yul\":5795:5804   */\n      dup4\n        /* \"#utility.yul\":5791:5808   */\n      add\n        /* \"#utility.yul\":5782:5788   */\n      dup5\n        /* \"#utility.yul\":5738:5809   */\n      tag_141\n      jump\t// in\n    tag_156:\n        /* \"#utility.yul\":5692:5816   */\n      swap3\n      swap2\n      pop\n      pop\n      jump\t// out\n        /* \"#utility.yul\":5822:5969   */\n    tag_134:\n      0x00\n        /* \"#utility.yul\":5960:5963   */\n      dup2\n        /* \"#utility.yul\":5945:5963   */\n      swap1\n      pop\n        /* \"#utility.yul\":5935:5969   */\n      swap3\n      swap2\n      pop\n      pop\n      jump\t// out\n        /* \"#utility.yul\":5975:6144   */\n    tag_130:\n      0x00\n        /* \"#utility.yul\":6093:6099   */\n      dup3\n        /* \"#utility.yul\":6088:6091   */\n      dup3\n        /* \"#utility.yul\":6081:6100   */\n      mstore\n        /* \"#utility.yul\":6133:6137   */\n      0x20\n        /* \"#utility.yul\":6128:6131   */\n      dup3\n        /* \"#utility.yul\":6124:6138   */\n      add\n        /* \"#utility.yul\":6109:6138   */\n      swap1\n      pop\n        /* \"#utility.yul\":6071:6144   */\n      swap3\n      swap2\n      pop\n      pop\n      jump\t// out\n        /* \"#utility.yul\":6150:6455   */\n    tag_46:\n      0x00\n        /* \"#utility.yul\":6209:6229   */\n      tag_160\n        /* \"#utility.yul\":6227:6228   */\n      dup3\n        /* \"#utility.yul\":6209:6229   */\n      tag_144\n      jump\t// in\n    tag_160:\n        /* \"#utility.yul\":6204:6229   */\n      swap2\n      pop\n        /* \"#utility.yul\":6243:6263   */\n      tag_161\n        /* \"#utility.yul\":6261:6262   */\n      dup4\n        /* \"#utility.yul\":6243:6263   */\n      tag_144\n      jump\t// in\n    tag_161:\n        /* \"#utility.yul\":6238:6263   */\n      swap3\n      pop\n        /* \"#utility.yul\":6397:6398   */\n      dup3\n        /* \"#utility.yul\":6329:6395   */\n      0xffffffffffffffffffffffffffffffffffffffffffffffffffffffffffffffff\n        /* \"#utility.yul\":6325:6399   */\n      sub\n        /* \"#utility.yul\":6322:6323   */\n      dup3\n        /* \"#utility.yul\":6319:6400   */\n      gt\n        /* \"#utility.yul\":6316:6318   */\n      iszero\n      tag_162\n      jumpi\n        /* \"#utility.yul\":6403:6421   */\n      tag_163\n      tag_164\n      jump\t// in\n    tag_163:\n        /* \"#utility.yul\":6316:6318   */\n    tag_162:\n        /* \"#utility.yul\":6447:6448   */\n      dup3\n        /* \"#utility.yul\":6444:6445   */\n      dup3\n        /* \"#utility.yul\":6440:6449   */\n      add\n        /* \"#utility.yul\":6433:6449   */\n      swap1\n      pop\n        /* \"#utility.yul\":6194:6455   */\n      swap3\n      swap2\n      pop\n      pop\n      jump\t// out\n        /* \"#utility.yul\":6461:6646   */\n    tag_74:\n      0x00\n        /* \"#utility.yul\":6518:6538   */\n      tag_166\n        /* \"#utility.yul\":6536:6537   */\n      dup3\n        /* \"#utility.yul\":6518:6538   */\n      tag_144\n      jump\t// in\n    tag_166:\n        /* \"#utility.yul\":6513:6538   */\n      swap2\n      pop\n        /* \"#utility.yul\":6552:6572   */\n      tag_167\n        /* \"#utility.yul\":6570:6571   */\n      dup4\n        /* \"#utility.yul\":6552:6572   */\n      tag_144\n      jump\t// in\n    tag_167:\n        /* \"#utility.yul\":6547:6572   */\n      swap3\n      pop\n        /* \"#utility.yul\":6591:6592   */\n      dup3\n        /* \"#utility.yul\":6581:6583   */\n      tag_168\n      jumpi\n        /* \"#utility.yul\":6596:6614   */\n      tag_169\n      tag_170\n      jump\t// in\n    tag_169:\n        /* \"#utility.yul\":6581:6583   */\n    tag_168:\n        /* \"#utility.yul\":6638:6639   */\n      dup3\n        /* \"#utility.yul\":6635:6636   */\n      dup3\n        /* \"#utility.yul\":6631:6640   */\n      div\n        /* \"#utility.yul\":6626:6640   */\n      swap1\n      pop\n        /* \"#utility.yul\":6503:6646   */\n      swap3\n      swap2\n      pop\n      pop\n      jump\t// out\n        /* \"#utility.yul\":6652:7643   */\n    tag_82:\n      0x00\n        /* \"#utility.yul\":6714:6733   */\n      tag_172\n        /* \"#utility.yul\":6731:6732   */\n      dup3\n        /* \"#utility.yul\":6714:6733   */\n      tag_173\n      jump\t// in\n    tag_172:\n        /* \"#utility.yul\":6709:6733   */\n      swap2\n      pop\n        /* \"#utility.yul\":6747:6766   */\n      tag_174\n        /* \"#utility.yul\":6764:6765   */\n      dup4\n        /* \"#utility.yul\":6747:6766   */\n      tag_173\n      jump\t// in\n    tag_174:\n        /* \"#utility.yul\":6742:6766   */\n      swap3\n      pop\n        /* \"#utility.yul\":6948:6949   */\n      dup3\n        /* \"#utility.yul\":6880:6946   */\n      0x7fffffffffffffffffffffffffffffffffffffffffffffffffffffffffffffff\n        /* \"#utility.yul\":6876:6950   */\n      div\n        /* \"#utility.yul\":6873:6874   */\n      dup3\n        /* \"#utility.yul\":6870:6951   */\n      gt\n        /* \"#utility.yul\":6865:6866   */\n      0x00\n        /* \"#utility.yul\":6862:6863   */\n      dup5\n        /* \"#utility.yul\":6858:6867   */\n      sgt\n        /* \"#utility.yul\":6854:6855   */\n      0x00\n        /* \"#utility.yul\":6851:6852   */\n      dup5\n        /* \"#utility.yul\":6847:6856   */\n      sgt\n        /* \"#utility.yul\":6843:6868   */\n      and\n        /* \"#utility.yul\":6839:6952   */\n      and\n        /* \"#utility.yul\":6836:6838   */\n      iszero\n      tag_175\n      jumpi\n        /* \"#utility.yul\":6955:6973   */\n      tag_176\n      tag_164\n      jump\t// in\n    tag_176:\n        /* \"#utility.yul\":6836:6838   */\n    tag_175:\n        /* \"#utility.yul\":7159:7160   */\n      dup2\n        /* \"#utility.yul\":7091:7157   */\n      0x8000000000000000000000000000000000000000000000000000000000000000\n        /* \"#utility.yul\":7086:7161   */\n      sdiv\n        /* \"#utility.yul\":7083:7084   */\n      dup4\n        /* \"#utility.yul\":7079:7162   */\n      slt\n        /* \"#utility.yul\":7074:7075   */\n      0x00\n        /* \"#utility.yul\":7071:7072   */\n      dup5\n        /* \"#utility.yul\":7067:7076   */\n      slt\n        /* \"#utility.yul\":7063:7064   */\n      0x00\n        /* \"#utility.yul\":7060:7061   */\n      dup5\n        /* \"#utility.yul\":7056:7065   */\n      sgt\n        /* \"#utility.yul\":7052:7077   */\n      and\n        /* \"#utility.yul\":7048:7163   */\n      and\n        /* \"#utility.yul\":7045:7047   */\n      iszero\n      tag_177\n      jumpi\n        /* \"#utility.yul\":7166:7184   */\n      tag_178\n      tag_164\n      jump\t// in\n    tag_178:\n        /* \"#utility.yul\":7045:7047   */\n    tag_177:\n        /* \"#utility.yul\":7370:7371   */\n      dup3\n        /* \"#utility.yul\":7302:7368   */\n      0x8000000000000000000000000000000000000000000000000000000000000000\n        /* \"#utility.yul\":7297:7372   */\n      sdiv\n        /* \"#utility.yul\":7294:7295   */\n      dup3\n        /* \"#utility.yul\":7290:7373   */\n      slt\n        /* \"#utility.yul\":7285:7286   */\n      0x00\n        /* \"#utility.yul\":7282:7283   */\n      dup5\n        /* \"#utility.yul\":7278:7287   */\n      sgt\n        /* \"#utility.yul\":7274:7275   */\n      0x00\n        /* \"#utility.yul\":7271:7272   */\n      dup5\n        /* \"#utility.yul\":7267:7276   */\n      slt\n        /* \"#utility.yul\":7263:7288   */\n      and\n        /* \"#utility.yul\":7259:7374   */\n      and\n        /* \"#utility.yul\":7256:7258   */\n      iszero\n      tag_179\n      jumpi\n        /* \"#utility.yul\":7377:7395   */\n      tag_180\n      tag_164\n      jump\t// in\n    tag_180:\n        /* \"#utility.yul\":7256:7258   */\n    tag_179:\n        /* \"#utility.yul\":7580:7581   */\n      dup3\n        /* \"#utility.yul\":7512:7578   */\n      0x7fffffffffffffffffffffffffffffffffffffffffffffffffffffffffffffff\n        /* \"#utility.yul\":7507:7582   */\n      sdiv\n        /* \"#utility.yul\":7504:7505   */\n      dup3\n        /* \"#utility.yul\":7500:7583   */\n      slt\n        /* \"#utility.yul\":7495:7496   */\n      0x00\n        /* \"#utility.yul\":7492:7493   */\n      dup5\n        /* \"#utility.yul\":7488:7497   */\n      slt\n        /* \"#utility.yul\":7484:7485   */\n      0x00\n        /* \"#utility.yul\":7481:7482   */\n      dup5\n        /* \"#utility.yul\":7477:7486   */\n      slt\n        /* \"#utility.yul\":7473:7498   */\n      and\n        /* \"#utility.yul\":7469:7584   */\n      and\n        /* \"#utility.yul\":7466:7468   */\n      iszero\n      tag_181\n      jumpi\n        /* \"#utility.yul\":7587:7605   */\n      tag_182\n      tag_164\n      jump\t// in\n    tag_182:\n        /* \"#utility.yul\":7466:7468   */\n    tag_181:\n        /* \"#utility.yul\":7635:7636   */\n      dup3\n        /* \"#utility.yul\":7632:7633   */\n      dup3\n        /* \"#utility.yul\":7628:7637   */\n      mul\n        /* \"#utility.yul\":7617:7637   */\n      swap1\n      pop\n        /* \"#utility.yul\":6699:7643   */\n      swap3\n      swap2\n      pop\n      pop\n      jump\t// out\n        /* \"#utility.yul\":7649:7997   */\n    tag_72:\n      0x00\n        /* \"#utility.yul\":7712:7732   */\n      tag_184\n        /* \"#utility.yul\":7730:7731   */\n      dup3\n        /* \"#utility.yul\":7712:7732   */\n      tag_144\n      jump\t// in\n    tag_184:\n        /* \"#utility.yul\":7707:7732   */\n      swap2\n      pop\n        /* \"#utility.yul\":7746:7766   */\n      tag_185\n        /* \"#utility.yul\":7764:7765   */\n      dup4\n        /* \"#utility.yul\":7746:7766   */\n      tag_144\n      jump\t// in\n    tag_185:\n        /* \"#utility.yul\":7741:7766   */\n      swap3\n      pop\n        /* \"#utility.yul\":7934:7935   */\n      dup2\n        /* \"#utility.yul\":7866:7932   */\n      0xffffffffffffffffffffffffffffffffffffffffffffffffffffffffffffffff\n        /* \"#utility.yul\":7862:7936   */\n      div\n        /* \"#utility.yul\":7859:7860   */\n      dup4\n        /* \"#utility.yul\":7856:7937   */\n      gt\n        /* \"#utility.yul\":7851:7852   */\n      dup3\n        /* \"#utility.yul\":7844:7853   */\n      iszero\n        /* \"#utility.yul\":7837:7854   */\n      iszero\n        /* \"#utility.yul\":7833:7938   */\n      and\n        /* \"#utility.yul\":7830:7832   */\n      iszero\n      tag_186\n      jumpi\n        /* \"#utility.yul\":7941:7959   */\n      tag_187\n      tag_164\n      jump\t// in\n    tag_187:\n        /* \"#utility.yul\":7830:7832   */\n    tag_186:\n        /* \"#utility.yul\":7989:7990   */\n      dup3\n        /* \"#utility.yul\":7986:7987   */\n      dup3\n        /* \"#utility.yul\":7982:7991   */\n      mul\n        /* \"#utility.yul\":7971:7991   */\n      swap1\n      pop\n        /* \"#utility.yul\":7697:7997   */\n      swap3\n      swap2\n      pop\n      pop\n      jump\t// out\n        /* \"#utility.yul\":8003:8099   */\n    tag_126:\n      0x00\n        /* \"#utility.yul\":8069:8093   */\n      tag_189\n        /* \"#utility.yul\":8087:8092   */\n      dup3\n        /* \"#utility.yul\":8069:8093   */\n      tag_190\n      jump\t// in\n    tag_189:\n        /* \"#utility.yul\":8058:8093   */\n      swap1\n      pop\n        /* \"#utility.yul\":8048:8099   */\n      swap2\n      swap1\n      pop\n      jump\t// out\n        /* \"#utility.yul\":8105:8181   */\n    tag_173:\n      0x00\n        /* \"#utility.yul\":8170:8175   */\n      dup2\n        /* \"#utility.yul\":8159:8175   */\n      swap1\n      pop\n        /* \"#utility.yul\":8149:8181   */\n      swap2\n      swap1\n      pop\n      jump\t// out\n        /* \"#utility.yul\":8187:8313   */\n    tag_190:\n      0x00\n        /* \"#utility.yul\":8264:8306   */\n      0xffffffffffffffffffffffffffffffffffffffff\n        /* \"#utility.yul\":8257:8262   */\n      dup3\n        /* \"#utility.yul\":8253:8307   */\n      and\n        /* \"#utility.yul\":8242:8307   */\n      swap1\n      pop\n        /* \"#utility.yul\":8232:8313   */\n      swap2\n      swap1\n      pop\n      jump\t// out\n        /* \"#utility.yul\":8319:8396   */\n    tag_144:\n      0x00\n        /* \"#utility.yul\":8385:8390   */\n      dup2\n        /* \"#utility.yul\":8374:8390   */\n      swap1\n      pop\n        /* \"#utility.yul\":8364:8396   */\n      swap2\n      swap1\n      pop\n      jump\t// out\n        /* \"#utility.yul\":8402:8507   */\n    tag_194:\n      0x00\n        /* \"#utility.yul\":8478:8500   */\n      0xffffffffffffffffffff\n        /* \"#utility.yul\":8471:8476   */\n      dup3\n        /* \"#utility.yul\":8467:8501   */\n      and\n        /* \"#utility.yul\":8456:8501   */\n      swap1\n      pop\n        /* \"#utility.yul\":8446:8507   */\n      swap2\n      swap1\n      pop\n      jump\t// out\n        /* \"#utility.yul\":8513:8693   */\n    tag_164:\n        /* \"#utility.yul\":8561:8638   */\n      0x4e487b7100000000000000000000000000000000000000000000000000000000\n        /* \"#utility.yul\":8558:8559   */\n      0x00\n        /* \"#utility.yul\":8551:8639   */\n      mstore\n        /* \"#utility.yul\":8658:8662   */\n      0x11\n        /* \"#utility.yul\":8655:8656   */\n      0x04\n        /* \"#utility.yul\":8648:8663   */\n      mstore\n        /* \"#utility.yul\":8682:8686   */\n      0x24\n        /* \"#utility.yul\":8679:8680   */\n      0x00\n        /* \"#utility.yul\":8672:8687   */\n      revert\n        /* \"#utility.yul\":8699:8879   */\n    tag_170:\n        /* \"#utility.yul\":8747:8824   */\n      0x4e487b7100000000000000000000000000000000000000000000000000000000\n        /* \"#utility.yul\":8744:8745   */\n      0x00\n        /* \"#utility.yul\":8737:8825   */\n      mstore\n        /* \"#utility.yul\":8844:8848   */\n      0x12\n        /* \"#utility.yul\":8841:8842   */\n      0x04\n        /* \"#utility.yul\":8834:8849   */\n      mstore\n        /* \"#utility.yul\":8868:8872   */\n      0x24\n        /* \"#utility.yul\":8865:8866   */\n      0x00\n        /* \"#utility.yul\":8858:8873   */\n      revert\n        /* \"#utility.yul\":8885:9007   */\n    tag_94:\n        /* \"#utility.yul\":8958:8982   */\n      tag_199\n        /* \"#utility.yul\":8976:8981   */\n      dup2\n        /* \"#utility.yul\":8958:8982   */\n      tag_126\n      jump\t// in\n    tag_199:\n        /* \"#utility.yul\":8951:8956   */\n      dup2\n        /* \"#utility.yul\":8948:8983   */\n      eq\n        /* \"#utility.yul\":8938:8940   */\n      tag_200\n      jumpi\n        /* \"#utility.yul\":8997:8998   */\n      0x00\n        /* \"#utility.yul\":8994:8995   */\n      dup1\n        /* \"#utility.yul\":8987:8999   */\n      revert\n        /* \"#utility.yul\":8938:8940   */\n    tag_200:\n        /* \"#utility.yul\":8928:9007   */\n      pop\n      jump\t// out\n        /* \"#utility.yul\":9013:9133   */\n    tag_98:\n        /* \"#utility.yul\":9085:9108   */\n      tag_202\n        /* \"#utility.yul\":9102:9107   */\n      dup2\n        /* \"#utility.yul\":9085:9108   */\n      tag_173\n      jump\t// in\n    tag_202:\n        /* \"#utility.yul\":9078:9083   */\n      dup2\n        /* \"#utility.yul\":9075:9109   */\n      eq\n        /* \"#utility.yul\":9065:9067   */\n      tag_203\n      jumpi\n        /* \"#utility.yul\":9123:9124   */\n      0x00\n        /* \"#utility.yul\":9120:9121   */\n      dup1\n        /* \"#utility.yul\":9113:9125   */\n      revert\n        /* \"#utility.yul\":9065:9067   */\n    tag_203:\n        /* \"#utility.yul\":9055:9133   */\n      pop\n      jump\t// out\n        /* \"#utility.yul\":9139:9261   */\n    tag_102:\n        /* \"#utility.yul\":9212:9236   */\n      tag_205\n        /* \"#utility.yul\":9230:9235   */\n      dup2\n        /* \"#utility.yul\":9212:9236   */\n      tag_144\n      jump\t// in\n    tag_205:\n        /* \"#utility.yul\":9205:9210   */\n      dup2\n        /* \"#utility.yul\":9202:9237   */\n      eq\n        /* \"#utility.yul\":9192:9194   */\n      tag_206\n      jumpi\n        /* \"#utility.yul\":9251:9252   */\n      0x00\n        /* \"#utility.yul\":9248:9249   */\n      dup1\n        /* \"#utility.yul\":9241:9253   */\n      revert\n        /* \"#utility.yul\":9192:9194   */\n    tag_206:\n        /* \"#utility.yul\":9182:9261   */\n      pop\n      jump\t// out\n        /* \"#utility.yul\":9267:9387   */\n    tag_109:\n        /* \"#utility.yul\":9339:9362   */\n      tag_208\n        /* \"#utility.yul\":9356:9361   */\n      dup2\n        /* \"#utility.yul\":9339:9362   */\n      tag_194\n      jump\t// in\n    tag_208:\n        /* \"#utility.yul\":9332:9337   */\n      dup2\n        /* \"#utility.yul\":9329:9363   */\n      eq\n        /* \"#utility.yul\":9319:9321   */\n      tag_209\n      jumpi\n        /* \"#utility.yul\":9377:9378   */\n      0x00\n        /* \"#utility.yul\":9374:9375   */\n      dup1\n        /* \"#utility.yul\":9367:9379   */\n      revert\n        /* \"#utility.yul\":9319:9321   */\n    tag_209:\n        /* \"#utility.yul\":9309:9387   */\n      pop\n      jump\t// out\n\n    auxdata: 0xa26469706673582212209080e178855880b32daa41b5d4f2c84539a9cc9cef4e3d554e8135650aee2f1e64736f6c63430008000033\n}\n",
				"bytecode": {
					"linkReferences": {},
					"object": "60806040526802b5e3af16b188000060005534801561001d57600080fd5b5033600360006101000a81548173ffffffffffffffffffffffffffffffffffffffff021916908373ffffffffffffffffffffffffffffffffffffffff160217905550610d2b8061006e6000396000f3fe6080604052600436106100555760003560e01c8063098de8201461005a5780633ccfd60b146100855780633e47d6f31461009c5780638da5cb5b146100d9578063b60d428814610104578063dc0d3dff1461010e575b600080fd5b34801561006657600080fd5b5061006f61014b565b60405161007c91906109b0565b60405180910390f35b34801561009157600080fd5b5061009a610151565b005b3480156100a857600080fd5b506100c360048036038101906100be919061075f565b6103ea565b6040516100d091906109b0565b60405180910390f35b3480156100e557600080fd5b506100ee610402565b6040516100fb9190610935565b60405180910390f35b61010c610428565b005b34801561011a57600080fd5b5061013560048036038101906101309190610788565b61051e565b6040516101429190610935565b60405180910390f35b60005481565b600360009054906101000a900473ffffffffffffffffffffffffffffffffffffffff1673ffffffffffffffffffffffffffffffffffffffff163373ffffffffffffffffffffffffffffffffffffffff16146101e1576040517f08c379a00000000000000000000000000000000000000000000000000000000081526004016101d890610990565b60405180910390fd5b60005b6001805490508110156102b45760006001828154811061022d577f4e487b7100000000000000000000000000000000000000000000000000000000600052603260045260246000fd5b9060005260206000200160009054906101000a900473ffffffffffffffffffffffffffffffffffffffff1690506000600260008373ffffffffffffffffffffffffffffffffffffffff1673ffffffffffffffffffffffffffffffffffffffff16815260200190815260200160002081905550506001816102ad91906109e7565b90506101e4565b50600067ffffffffffffffff8111156102f6577f4e487b7100000000000000000000000000000000000000000000000000000000600052604160045260246000fd5b6040519080825280602002602001820160405280156103245781602001602082028036833780820191505090505b506001908051906020019061033a92919061064f565b5060003373ffffffffffffffffffffffffffffffffffffffff164760405161036190610920565b60006040518083038185875af1925050503d806000811461039e576040519150601f19603f3d011682016040523d82523d6000602084013e6103a3565b606091505b50509050806103e7576040517f08c379a00000000000000000000000000000000000000000000000000000000081526004016103de90610970565b60405180910390fd5b50565b60026020528060005260406000206000915090505481565b600360009054906101000a900473ffffffffffffffffffffffffffffffffffffffff1681565b6000546104343461055d565b1015610475576040517f08c379a000000000000000000000000000000000000000000000000000000000815260040161046c90610950565b60405180910390fd5b6001339080600181540180825580915050600190039060005260206000200160009091909190916101000a81548173ffffffffffffffffffffffffffffffffffffffff021916908373ffffffffffffffffffffffffffffffffffffffff16021790555034600260003373ffffffffffffffffffffffffffffffffffffffff1673ffffffffffffffffffffffffffffffffffffffff16815260200190815260200160002081905550565b6001818154811061052e57600080fd5b906000526020600020016000915054906101000a900473ffffffffffffffffffffffffffffffffffffffff1681565b600080610568610597565b90506000670de0b6b3a764000084836105819190610b85565b61058b9190610a3d565b90508092505050919050565b600080735f4ec3df9cbd43714fe2740f5e3616155c5b8419905060008173ffffffffffffffffffffffffffffffffffffffff1663feaf968c6040518163ffffffff1660e01b815260040160a06040518083038186803b1580156105f957600080fd5b505afa15801561060d573d6000803e3d6000fd5b505050506040513d601f19601f8201168201806040525081019061063191906107b1565b5050509150506402540be400816106489190610a6e565b9250505090565b8280548282559060005260206000209081019282156106c8579160200282015b828111156106c75782518260006101000a81548173ffffffffffffffffffffffffffffffffffffffff021916908373ffffffffffffffffffffffffffffffffffffffff1602179055509160200191906001019061066f565b5b5090506106d591906106d9565b5090565b5b808211156106f25760008160009055506001016106da565b5090565b60008135905061070581610c99565b92915050565b60008151905061071a81610cb0565b92915050565b60008135905061072f81610cc7565b92915050565b60008151905061074481610cc7565b92915050565b60008151905061075981610cde565b92915050565b60006020828403121561077157600080fd5b600061077f848285016106f6565b91505092915050565b60006020828403121561079a57600080fd5b60006107a884828501610720565b91505092915050565b600080600080600060a086880312156107c957600080fd5b60006107d78882890161074a565b95505060206107e88882890161070b565b94505060406107f988828901610735565b935050606061080a88828901610735565b925050608061081b8882890161074a565b9150509295509295909350565b61083181610bdf565b82525050565b6000610844601a836109d6565b91507f446964206e6f742073656e6420656e6f756768206d6f6e6579730000000000006000830152602082019050919050565b60006108846000836109cb565b9150600082019050919050565b600061089e600b836109d6565b91507f43616c6c204661696c65640000000000000000000000000000000000000000006000830152602082019050919050565b60006108de6014836109d6565b91507f53656e646572206973206e6f74206f776e6572210000000000000000000000006000830152602082019050919050565b61091a81610c1b565b82525050565b600061092b82610877565b9150819050919050565b600060208201905061094a6000830184610828565b92915050565b6000602082019050818103600083015261096981610837565b9050919050565b6000602082019050818103600083015261098981610891565b9050919050565b600060208201905081810360008301526109a9816108d1565b9050919050565b60006020820190506109c56000830184610911565b92915050565b600081905092915050565b600082825260208201905092915050565b60006109f282610c1b565b91506109fd83610c1b565b9250827fffffffffffffffffffffffffffffffffffffffffffffffffffffffffffffffff03821115610a3257610a31610c3b565b5b828201905092915050565b6000610a4882610c1b565b9150610a5383610c1b565b925082610a6357610a62610c6a565b5b828204905092915050565b6000610a7982610bf1565b9150610a8483610bf1565b9250827f7fffffffffffffffffffffffffffffffffffffffffffffffffffffffffffffff0482116000841360008413161615610ac357610ac2610c3b565b5b817f80000000000000000000000000000000000000000000000000000000000000000583126000841260008413161615610b0057610aff610c3b565b5b827f80000000000000000000000000000000000000000000000000000000000000000582126000841360008412161615610b3d57610b3c610c3b565b5b827f7fffffffffffffffffffffffffffffffffffffffffffffffffffffffffffffff0582126000841260008412161615610b7a57610b79610c3b565b5b828202905092915050565b6000610b9082610c1b565b9150610b9b83610c1b565b9250817fffffffffffffffffffffffffffffffffffffffffffffffffffffffffffffffff0483118215151615610bd457610bd3610c3b565b5b828202905092915050565b6000610bea82610bfb565b9050919050565b6000819050919050565b600073ffffffffffffffffffffffffffffffffffffffff82169050919050565b6000819050919050565b600069ffffffffffffffffffff82169050919050565b7f4e487b7100000000000000000000000000000000000000000000000000000000600052601160045260246000fd5b7f4e487b7100000000000000000000000000000000000000000000000000000000600052601260045260246000fd5b610ca281610bdf565b8114610cad57600080fd5b50565b610cb981610bf1565b8114610cc457600080fd5b50565b610cd081610c1b565b8114610cdb57600080fd5b50565b610ce781610c25565b8114610cf257600080fd5b5056fea26469706673582212209080e178855880b32daa41b5d4f2c84539a9cc9cef4e3d554e8135650aee2f1e64736f6c63430008000033",
					"opcodes": "PUSH1 0x80 PUSH1 0x40 MSTORE PUSH9 0x2B5E3AF16B1880000 PUSH1 0x0 SSTORE CALLVALUE DUP1 ISZERO PUSH2 0x1D JUMPI PUSH1 0x0 DUP1 REVERT JUMPDEST POP CALLER PUSH1 0x3 PUSH1 0x0 PUSH2 0x100 EXP DUP2 SLOAD DUP2 PUSH20 0xFFFFFFFFFFFFFFFFFFFFFFFFFFFFFFFFFFFFFFFF MUL NOT AND SWAP1 DUP4 PUSH20 0xFFFFFFFFFFFFFFFFFFFFFFFFFFFFFFFFFFFFFFFF AND MUL OR SWAP1 SSTORE POP PUSH2 0xD2B DUP1 PUSH2 0x6E PUSH1 0x0 CODECOPY PUSH1 0x0 RETURN INVALID PUSH1 0x80 PUSH1 0x40 MSTORE PUSH1 0x4 CALLDATASIZE LT PUSH2 0x55 JUMPI PUSH1 0x0 CALLDATALOAD PUSH1 0xE0 SHR DUP1 PUSH4 0x98DE820 EQ PUSH2 0x5A JUMPI DUP1 PUSH4 0x3CCFD60B EQ PUSH2 0x85 JUMPI DUP1 PUSH4 0x3E47D6F3 EQ PUSH2 0x9C JUMPI DUP1 PUSH4 0x8DA5CB5B EQ PUSH2 0xD9 JUMPI DUP1 PUSH4 0xB60D4288 EQ PUSH2 0x104 JUMPI DUP1 PUSH4 0xDC0D3DFF EQ PUSH2 0x10E JUMPI JUMPDEST PUSH1 0x0 DUP1 REVERT JUMPDEST CALLVALUE DUP1 ISZERO PUSH2 0x66 JUMPI PUSH1 0x0 DUP1 REVERT JUMPDEST POP PUSH2 0x6F PUSH2 0x14B JUMP JUMPDEST PUSH1 0x40 MLOAD PUSH2 0x7C SWAP2 SWAP1 PUSH2 0x9B0 JUMP JUMPDEST PUSH1 0x40 MLOAD DUP1 SWAP2 SUB SWAP1 RETURN JUMPDEST CALLVALUE DUP1 ISZERO PUSH2 0x91 JUMPI PUSH1 0x0 DUP1 REVERT JUMPDEST POP PUSH2 0x9A PUSH2 0x151 JUMP JUMPDEST STOP JUMPDEST CALLVALUE DUP1 ISZERO PUSH2 0xA8 JUMPI PUSH1 0x0 DUP1 REVERT JUMPDEST POP PUSH2 0xC3 PUSH1 0x4 DUP1 CALLDATASIZE SUB DUP2 ADD SWAP1 PUSH2 0xBE SWAP2 SWAP1 PUSH2 0x75F JUMP JUMPDEST PUSH2 0x3EA JUMP JUMPDEST PUSH1 0x40 MLOAD PUSH2 0xD0 SWAP2 SWAP1 PUSH2 0x9B0 JUMP JUMPDEST PUSH1 0x40 MLOAD DUP1 SWAP2 SUB SWAP1 RETURN JUMPDEST CALLVALUE DUP1 ISZERO PUSH2 0xE5 JUMPI PUSH1 0x0 DUP1 REVERT JUMPDEST POP PUSH2 0xEE PUSH2 0x402 JUMP JUMPDEST PUSH1 0x40 MLOAD PUSH2 0xFB SWAP2 SWAP1 PUSH2 0x935 JUMP JUMPDEST PUSH1 0x40 MLOAD DUP1 SWAP2 SUB SWAP1 RETURN JUMPDEST PUSH2 0x10C PUSH2 0x428 JUMP JUMPDEST STOP JUMPDEST CALLVALUE DUP1 ISZERO PUSH2 0x11A JUMPI PUSH1 0x0 DUP1 REVERT JUMPDEST POP PUSH2 0x135 PUSH1 0x4 DUP1 CALLDATASIZE SUB DUP2 ADD SWAP1 PUSH2 0x130 SWAP2 SWAP1 PUSH2 0x788 JUMP JUMPDEST PUSH2 0x51E JUMP JUMPDEST PUSH1 0x40 MLOAD PUSH2 0x142 SWAP2 SWAP1 PUSH2 0x935 JUMP JUMPDEST PUSH1 0x40 MLOAD DUP1 SWAP2 SUB SWAP1 RETURN JUMPDEST PUSH1 0x0 SLOAD DUP2 JUMP JUMPDEST PUSH1 0x3 PUSH1 0x0 SWAP1 SLOAD SWAP1 PUSH2 0x100 EXP SWAP1 DIV PUSH20 0xFFFFFFFFFFFFFFFFFFFFFFFFFFFFFFFFFFFFFFFF AND PUSH20 0xFFFFFFFFFFFFFFFFFFFFFFFFFFFFFFFFFFFFFFFF AND CALLER PUSH20 0xFFFFFFFFFFFFFFFFFFFFFFFFFFFFFFFFFFFFFFFF AND EQ PUSH2 0x1E1 JUMPI PUSH1 0x40 MLOAD PUSH32 0x8C379A000000000000000000000000000000000000000000000000000000000 DUP2 MSTORE PUSH1 0x4 ADD PUSH2 0x1D8 SWAP1 PUSH2 0x990 JUMP JUMPDEST PUSH1 0x40 MLOAD DUP1 SWAP2 SUB SWAP1 REVERT JUMPDEST PUSH1 0x0 JUMPDEST PUSH1 0x1 DUP1 SLOAD SWAP1 POP DUP2 LT ISZERO PUSH2 0x2B4 JUMPI PUSH1 0x0 PUSH1 0x1 DUP3 DUP2 SLOAD DUP2 LT PUSH2 0x22D JUMPI PUSH32 0x4E487B7100000000000000000000000000000000000000000000000000000000 PUSH1 0x0 MSTORE PUSH1 0x32 PUSH1 0x4 MSTORE PUSH1 0x24 PUSH1 0x0 REVERT JUMPDEST SWAP1 PUSH1 0x0 MSTORE PUSH1 0x20 PUSH1 0x0 KECCAK256 ADD PUSH1 0x0 SWAP1 SLOAD SWAP1 PUSH2 0x100 EXP SWAP1 DIV PUSH20 0xFFFFFFFFFFFFFFFFFFFFFFFFFFFFFFFFFFFFFFFF AND SWAP1 POP PUSH1 0x0 PUSH1 0x2 PUSH1 0x0 DUP4 PUSH20 0xFFFFFFFFFFFFFFFFFFFFFFFFFFFFFFFFFFFFFFFF AND PUSH20 0xFFFFFFFFFFFFFFFFFFFFFFFFFFFFFFFFFFFFFFFF AND DUP2 MSTORE PUSH1 0x20 ADD SWAP1 DUP2 MSTORE PUSH1 0x20 ADD PUSH1 0x0 KECCAK256 DUP2 SWAP1 SSTORE POP POP PUSH1 0x1 DUP2 PUSH2 0x2AD SWAP2 SWAP1 PUSH2 0x9E7 JUMP JUMPDEST SWAP1 POP PUSH2 0x1E4 JUMP JUMPDEST POP PUSH1 0x0 PUSH8 0xFFFFFFFFFFFFFFFF DUP2 GT ISZERO PUSH2 0x2F6 JUMPI PUSH32 0x4E487B7100000000000000000000000000000000000000000000000000000000 PUSH1 0x0 MSTORE PUSH1 0x41 PUSH1 0x4 MSTORE PUSH1 0x24 PUSH1 0x0 REVERT JUMPDEST PUSH1 0x40 MLOAD SWAP1 DUP1 DUP3 MSTORE DUP1 PUSH1 0x20 MUL PUSH1 0x20 ADD DUP3 ADD PUSH1 0x40 MSTORE DUP1 ISZERO PUSH2 0x324 JUMPI DUP2 PUSH1 0x20 ADD PUSH1 0x20 DUP3 MUL DUP1 CALLDATASIZE DUP4 CALLDATACOPY DUP1 DUP3 ADD SWAP2 POP POP SWAP1 POP JUMPDEST POP PUSH1 0x1 SWAP1 DUP1 MLOAD SWAP1 PUSH1 0x20 ADD SWAP1 PUSH2 0x33A SWAP3 SWAP2 SWAP1 PUSH2 0x64F JUMP JUMPDEST POP PUSH1 0x0 CALLER PUSH20 0xFFFFFFFFFFFFFFFFFFFFFFFFFFFFFFFFFFFFFFFF AND SELFBALANCE PUSH1 0x40 MLOAD PUSH2 0x361 SWAP1 PUSH2 0x920 JUMP JUMPDEST PUSH1 0x0 PUSH1 0x40 MLOAD DUP1 DUP4 SUB DUP2 DUP6 DUP8 GAS CALL SWAP3 POP POP POP RETURNDATASIZE DUP1 PUSH1 0x0 DUP2 EQ PUSH2 0x39E JUMPI PUSH1 0x40 MLOAD SWAP2 POP PUSH1 0x1F NOT PUSH1 0x3F RETURNDATASIZE ADD AND DUP3 ADD PUSH1 0x40 MSTORE RETURNDATASIZE DUP3 MSTORE RETURNDATASIZE PUSH1 0x0 PUSH1 0x20 DUP5 ADD RETURNDATACOPY PUSH2 0x3A3 JUMP JUMPDEST PUSH1 0x60 SWAP2 POP JUMPDEST POP POP SWAP1 POP DUP1 PUSH2 0x3E7 JUMPI PUSH1 0x40 MLOAD PUSH32 0x8C379A000000000000000000000000000000000000000000000000000000000 DUP2 MSTORE PUSH1 0x4 ADD PUSH2 0x3DE SWAP1 PUSH2 0x970 JUMP JUMPDEST PUSH1 0x40 MLOAD DUP1 SWAP2 SUB SWAP1 REVERT JUMPDEST POP JUMP JUMPDEST PUSH1 0x2 PUSH1 0x20 MSTORE DUP1 PUSH1 0x0 MSTORE PUSH1 0x40 PUSH1 0x0 KECCAK256 PUSH1 0x0 SWAP2 POP SWAP1 POP SLOAD DUP2 JUMP JUMPDEST PUSH1 0x3 PUSH1 0x0 SWAP1 SLOAD SWAP1 PUSH2 0x100 EXP SWAP1 DIV PUSH20 0xFFFFFFFFFFFFFFFFFFFFFFFFFFFFFFFFFFFFFFFF AND DUP2 JUMP JUMPDEST PUSH1 0x0 SLOAD PUSH2 0x434 CALLVALUE PUSH2 0x55D JUMP JUMPDEST LT ISZERO PUSH2 0x475 JUMPI PUSH1 0x40 MLOAD PUSH32 0x8C379A000000000000000000000000000000000000000000000000000000000 DUP2 MSTORE PUSH1 0x4 ADD PUSH2 0x46C SWAP1 PUSH2 0x950 JUMP JUMPDEST PUSH1 0x40 MLOAD DUP1 SWAP2 SUB SWAP1 REVERT JUMPDEST PUSH1 0x1 CALLER SWAP1 DUP1 PUSH1 0x1 DUP2 SLOAD ADD DUP1 DUP3 SSTORE DUP1 SWAP2 POP POP PUSH1 0x1 SWAP1 SUB SWAP1 PUSH1 0x0 MSTORE PUSH1 0x20 PUSH1 0x0 KECCAK256 ADD PUSH1 0x0 SWAP1 SWAP2 SWAP1 SWAP2 SWAP1 SWAP2 PUSH2 0x100 EXP DUP2 SLOAD DUP2 PUSH20 0xFFFFFFFFFFFFFFFFFFFFFFFFFFFFFFFFFFFFFFFF MUL NOT AND SWAP1 DUP4 PUSH20 0xFFFFFFFFFFFFFFFFFFFFFFFFFFFFFFFFFFFFFFFF AND MUL OR SWAP1 SSTORE POP CALLVALUE PUSH1 0x2 PUSH1 0x0 CALLER PUSH20 0xFFFFFFFFFFFFFFFFFFFFFFFFFFFFFFFFFFFFFFFF AND PUSH20 0xFFFFFFFFFFFFFFFFFFFFFFFFFFFFFFFFFFFFFFFF AND DUP2 MSTORE PUSH1 0x20 ADD SWAP1 DUP2 MSTORE PUSH1 0x20 ADD PUSH1 0x0 KECCAK256 DUP2 SWAP1 SSTORE POP JUMP JUMPDEST PUSH1 0x1 DUP2 DUP2 SLOAD DUP2 LT PUSH2 0x52E JUMPI PUSH1 0x0 DUP1 REVERT JUMPDEST SWAP1 PUSH1 0x0 MSTORE PUSH1 0x20 PUSH1 0x0 KECCAK256 ADD PUSH1 0x0 SWAP2 POP SLOAD SWAP1 PUSH2 0x100 EXP SWAP1 DIV PUSH20 0xFFFFFFFFFFFFFFFFFFFFFFFFFFFFFFFFFFFFFFFF AND DUP2 JUMP JUMPDEST PUSH1 0x0 DUP1 PUSH2 0x568 PUSH2 0x597 JUMP JUMPDEST SWAP1 POP PUSH1 0x0 PUSH8 0xDE0B6B3A7640000 DUP5 DUP4 PUSH2 0x581 SWAP2 SWAP1 PUSH2 0xB85 JUMP JUMPDEST PUSH2 0x58B SWAP2 SWAP1 PUSH2 0xA3D JUMP JUMPDEST SWAP1 POP DUP1 SWAP3 POP POP POP SWAP2 SWAP1 POP JUMP JUMPDEST PUSH1 0x0 DUP1 PUSH20 0x5F4EC3DF9CBD43714FE2740F5E3616155C5B8419 SWAP1 POP PUSH1 0x0 DUP2 PUSH20 0xFFFFFFFFFFFFFFFFFFFFFFFFFFFFFFFFFFFFFFFF AND PUSH4 0xFEAF968C PUSH1 0x40 MLOAD DUP2 PUSH4 0xFFFFFFFF AND PUSH1 0xE0 SHL DUP2 MSTORE PUSH1 0x4 ADD PUSH1 0xA0 PUSH1 0x40 MLOAD DUP1 DUP4 SUB DUP2 DUP7 DUP1 EXTCODESIZE ISZERO DUP1 ISZERO PUSH2 0x5F9 JUMPI PUSH1 0x0 DUP1 REVERT JUMPDEST POP GAS STATICCALL ISZERO DUP1 ISZERO PUSH2 0x60D JUMPI RETURNDATASIZE PUSH1 0x0 DUP1 RETURNDATACOPY RETURNDATASIZE PUSH1 0x0 REVERT JUMPDEST POP POP POP POP PUSH1 0x40 MLOAD RETURNDATASIZE PUSH1 0x1F NOT PUSH1 0x1F DUP3 ADD AND DUP3 ADD DUP1 PUSH1 0x40 MSTORE POP DUP2 ADD SWAP1 PUSH2 0x631 SWAP2 SWAP1 PUSH2 0x7B1 JUMP JUMPDEST POP POP POP SWAP2 POP POP PUSH5 0x2540BE400 DUP2 PUSH2 0x648 SWAP2 SWAP1 PUSH2 0xA6E JUMP JUMPDEST SWAP3 POP POP POP SWAP1 JUMP JUMPDEST DUP3 DUP1 SLOAD DUP3 DUP3 SSTORE SWAP1 PUSH1 0x0 MSTORE PUSH1 0x20 PUSH1 0x0 KECCAK256 SWAP1 DUP2 ADD SWAP3 DUP3 ISZERO PUSH2 0x6C8 JUMPI SWAP2 PUSH1 0x20 MUL DUP3 ADD JUMPDEST DUP3 DUP2 GT ISZERO PUSH2 0x6C7 JUMPI DUP3 MLOAD DUP3 PUSH1 0x0 PUSH2 0x100 EXP DUP2 SLOAD DUP2 PUSH20 0xFFFFFFFFFFFFFFFFFFFFFFFFFFFFFFFFFFFFFFFF MUL NOT AND SWAP1 DUP4 PUSH20 0xFFFFFFFFFFFFFFFFFFFFFFFFFFFFFFFFFFFFFFFF AND MUL OR SWAP1 SSTORE POP SWAP2 PUSH1 0x20 ADD SWAP2 SWAP1 PUSH1 0x1 ADD SWAP1 PUSH2 0x66F JUMP JUMPDEST JUMPDEST POP SWAP1 POP PUSH2 0x6D5 SWAP2 SWAP1 PUSH2 0x6D9 JUMP JUMPDEST POP SWAP1 JUMP JUMPDEST JUMPDEST DUP1 DUP3 GT ISZERO PUSH2 0x6F2 JUMPI PUSH1 0x0 DUP2 PUSH1 0x0 SWAP1 SSTORE POP PUSH1 0x1 ADD PUSH2 0x6DA JUMP JUMPDEST POP SWAP1 JUMP JUMPDEST PUSH1 0x0 DUP2 CALLDATALOAD SWAP1 POP PUSH2 0x705 DUP2 PUSH2 0xC99 JUMP JUMPDEST SWAP3 SWAP2 POP POP JUMP JUMPDEST PUSH1 0x0 DUP2 MLOAD SWAP1 POP PUSH2 0x71A DUP2 PUSH2 0xCB0 JUMP JUMPDEST SWAP3 SWAP2 POP POP JUMP JUMPDEST PUSH1 0x0 DUP2 CALLDATALOAD SWAP1 POP PUSH2 0x72F DUP2 PUSH2 0xCC7 JUMP JUMPDEST SWAP3 SWAP2 POP POP JUMP JUMPDEST PUSH1 0x0 DUP2 MLOAD SWAP1 POP PUSH2 0x744 DUP2 PUSH2 0xCC7 JUMP JUMPDEST SWAP3 SWAP2 POP POP JUMP JUMPDEST PUSH1 0x0 DUP2 MLOAD SWAP1 POP PUSH2 0x759 DUP2 PUSH2 0xCDE JUMP JUMPDEST SWAP3 SWAP2 POP POP JUMP JUMPDEST PUSH1 0x0 PUSH1 0x20 DUP3 DUP5 SUB SLT ISZERO PUSH2 0x771 JUMPI PUSH1 0x0 DUP1 REVERT JUMPDEST PUSH1 0x0 PUSH2 0x77F DUP5 DUP3 DUP6 ADD PUSH2 0x6F6 JUMP JUMPDEST SWAP2 POP POP SWAP3 SWAP2 POP POP JUMP JUMPDEST PUSH1 0x0 PUSH1 0x20 DUP3 DUP5 SUB SLT ISZERO PUSH2 0x79A JUMPI PUSH1 0x0 DUP1 REVERT JUMPDEST PUSH1 0x0 PUSH2 0x7A8 DUP5 DUP3 DUP6 ADD PUSH2 0x720 JUMP JUMPDEST SWAP2 POP POP SWAP3 SWAP2 POP POP JUMP JUMPDEST PUSH1 0x0 DUP1 PUSH1 0x0 DUP1 PUSH1 0x0 PUSH1 0xA0 DUP7 DUP9 SUB SLT ISZERO PUSH2 0x7C9 JUMPI PUSH1 0x0 DUP1 REVERT JUMPDEST PUSH1 0x0 PUSH2 0x7D7 DUP9 DUP3 DUP10 ADD PUSH2 0x74A JUMP JUMPDEST SWAP6 POP POP PUSH1 0x20 PUSH2 0x7E8 DUP9 DUP3 DUP10 ADD PUSH2 0x70B JUMP JUMPDEST SWAP5 POP POP PUSH1 0x40 PUSH2 0x7F9 DUP9 DUP3 DUP10 ADD PUSH2 0x735 JUMP JUMPDEST SWAP4 POP POP PUSH1 0x60 PUSH2 0x80A DUP9 DUP3 DUP10 ADD PUSH2 0x735 JUMP JUMPDEST SWAP3 POP POP PUSH1 0x80 PUSH2 0x81B DUP9 DUP3 DUP10 ADD PUSH2 0x74A JUMP JUMPDEST SWAP2 POP POP SWAP3 SWAP6 POP SWAP3 SWAP6 SWAP1 SWAP4 POP JUMP JUMPDEST PUSH2 0x831 DUP2 PUSH2 0xBDF JUMP JUMPDEST DUP3 MSTORE POP POP JUMP JUMPDEST PUSH1 0x0 PUSH2 0x844 PUSH1 0x1A DUP4 PUSH2 0x9D6 JUMP JUMPDEST SWAP2 POP PUSH32 0x446964206E6F742073656E6420656E6F756768206D6F6E657973000000000000 PUSH1 0x0 DUP4 ADD MSTORE PUSH1 0x20 DUP3 ADD SWAP1 POP SWAP2 SWAP1 POP JUMP JUMPDEST PUSH1 0x0 PUSH2 0x884 PUSH1 0x0 DUP4 PUSH2 0x9CB JUMP JUMPDEST SWAP2 POP PUSH1 0x0 DUP3 ADD SWAP1 POP SWAP2 SWAP1 POP JUMP JUMPDEST PUSH1 0x0 PUSH2 0x89E PUSH1 0xB DUP4 PUSH2 0x9D6 JUMP JUMPDEST SWAP2 POP PUSH32 0x43616C6C204661696C6564000000000000000000000000000000000000000000 PUSH1 0x0 DUP4 ADD MSTORE PUSH1 0x20 DUP3 ADD SWAP1 POP SWAP2 SWAP1 POP JUMP JUMPDEST PUSH1 0x0 PUSH2 0x8DE PUSH1 0x14 DUP4 PUSH2 0x9D6 JUMP JUMPDEST SWAP2 POP PUSH32 0x53656E646572206973206E6F74206F776E657221000000000000000000000000 PUSH1 0x0 DUP4 ADD MSTORE PUSH1 0x20 DUP3 ADD SWAP1 POP SWAP2 SWAP1 POP JUMP JUMPDEST PUSH2 0x91A DUP2 PUSH2 0xC1B JUMP JUMPDEST DUP3 MSTORE POP POP JUMP JUMPDEST PUSH1 0x0 PUSH2 0x92B DUP3 PUSH2 0x877 JUMP JUMPDEST SWAP2 POP DUP2 SWAP1 POP SWAP2 SWAP1 POP JUMP JUMPDEST PUSH1 0x0 PUSH1 0x20 DUP3 ADD SWAP1 POP PUSH2 0x94A PUSH1 0x0 DUP4 ADD DUP5 PUSH2 0x828 JUMP JUMPDEST SWAP3 SWAP2 POP POP JUMP JUMPDEST PUSH1 0x0 PUSH1 0x20 DUP3 ADD SWAP1 POP DUP2 DUP2 SUB PUSH1 0x0 DUP4 ADD MSTORE PUSH2 0x969 DUP2 PUSH2 0x837 JUMP JUMPDEST SWAP1 POP SWAP2 SWAP1 POP JUMP JUMPDEST PUSH1 0x0 PUSH1 0x20 DUP3 ADD SWAP1 POP DUP2 DUP2 SUB PUSH1 0x0 DUP4 ADD MSTORE PUSH2 0x989 DUP2 PUSH2 0x891 JUMP JUMPDEST SWAP1 POP SWAP2 SWAP1 POP JUMP JUMPDEST PUSH1 0x0 PUSH1 0x20 DUP3 ADD SWAP1 POP DUP2 DUP2 SUB PUSH1 0x0 DUP4 ADD MSTORE PUSH2 0x9A9 DUP2 PUSH2 0x8D1 JUMP JUMPDEST SWAP1 POP SWAP2 SWAP1 POP JUMP JUMPDEST PUSH1 0x0 PUSH1 0x20 DUP3 ADD SWAP1 POP PUSH2 0x9C5 PUSH1 0x0 DUP4 ADD DUP5 PUSH2 0x911 JUMP JUMPDEST SWAP3 SWAP2 POP POP JUMP JUMPDEST PUSH1 0x0 DUP2 SWAP1 POP SWAP3 SWAP2 POP POP JUMP JUMPDEST PUSH1 0x0 DUP3 DUP3 MSTORE PUSH1 0x20 DUP3 ADD SWAP1 POP SWAP3 SWAP2 POP POP JUMP JUMPDEST PUSH1 0x0 PUSH2 0x9F2 DUP3 PUSH2 0xC1B JUMP JUMPDEST SWAP2 POP PUSH2 0x9FD DUP4 PUSH2 0xC1B JUMP JUMPDEST SWAP3 POP DUP3 PUSH32 0xFFFFFFFFFFFFFFFFFFFFFFFFFFFFFFFFFFFFFFFFFFFFFFFFFFFFFFFFFFFFFFFF SUB DUP3 GT ISZERO PUSH2 0xA32 JUMPI PUSH2 0xA31 PUSH2 0xC3B JUMP JUMPDEST JUMPDEST DUP3 DUP3 ADD SWAP1 POP SWAP3 SWAP2 POP POP JUMP JUMPDEST PUSH1 0x0 PUSH2 0xA48 DUP3 PUSH2 0xC1B JUMP JUMPDEST SWAP2 POP PUSH2 0xA53 DUP4 PUSH2 0xC1B JUMP JUMPDEST SWAP3 POP DUP3 PUSH2 0xA63 JUMPI PUSH2 0xA62 PUSH2 0xC6A JUMP JUMPDEST JUMPDEST DUP3 DUP3 DIV SWAP1 POP SWAP3 SWAP2 POP POP JUMP JUMPDEST PUSH1 0x0 PUSH2 0xA79 DUP3 PUSH2 0xBF1 JUMP JUMPDEST SWAP2 POP PUSH2 0xA84 DUP4 PUSH2 0xBF1 JUMP JUMPDEST SWAP3 POP DUP3 PUSH32 0x7FFFFFFFFFFFFFFFFFFFFFFFFFFFFFFFFFFFFFFFFFFFFFFFFFFFFFFFFFFFFFFF DIV DUP3 GT PUSH1 0x0 DUP5 SGT PUSH1 0x0 DUP5 SGT AND AND ISZERO PUSH2 0xAC3 JUMPI PUSH2 0xAC2 PUSH2 0xC3B JUMP JUMPDEST JUMPDEST DUP2 PUSH32 0x8000000000000000000000000000000000000000000000000000000000000000 SDIV DUP4 SLT PUSH1 0x0 DUP5 SLT PUSH1 0x0 DUP5 SGT AND AND ISZERO PUSH2 0xB00 JUMPI PUSH2 0xAFF PUSH2 0xC3B JUMP JUMPDEST JUMPDEST DUP3 PUSH32 0x8000000000000000000000000000000000000000000000000000000000000000 SDIV DUP3 SLT PUSH1 0x0 DUP5 SGT PUSH1 0x0 DUP5 SLT AND AND ISZERO PUSH2 0xB3D JUMPI PUSH2 0xB3C PUSH2 0xC3B JUMP JUMPDEST JUMPDEST DUP3 PUSH32 0x7FFFFFFFFFFFFFFFFFFFFFFFFFFFFFFFFFFFFFFFFFFFFFFFFFFFFFFFFFFFFFFF SDIV DUP3 SLT PUSH1 0x0 DUP5 SLT PUSH1 0x0 DUP5 SLT AND AND ISZERO PUSH2 0xB7A JUMPI PUSH2 0xB79 PUSH2 0xC3B JUMP JUMPDEST JUMPDEST DUP3 DUP3 MUL SWAP1 POP SWAP3 SWAP2 POP POP JUMP JUMPDEST PUSH1 0x0 PUSH2 0xB90 DUP3 PUSH2 0xC1B JUMP JUMPDEST SWAP2 POP PUSH2 0xB9B DUP4 PUSH2 0xC1B JUMP JUMPDEST SWAP3 POP DUP2 PUSH32 0xFFFFFFFFFFFFFFFFFFFFFFFFFFFFFFFFFFFFFFFFFFFFFFFFFFFFFFFFFFFFFFFF DIV DUP4 GT DUP3 ISZERO ISZERO AND ISZERO PUSH2 0xBD4 JUMPI PUSH2 0xBD3 PUSH2 0xC3B JUMP JUMPDEST JUMPDEST DUP3 DUP3 MUL SWAP1 POP SWAP3 SWAP2 POP POP JUMP JUMPDEST PUSH1 0x0 PUSH2 0xBEA DUP3 PUSH2 0xBFB JUMP JUMPDEST SWAP1 POP SWAP2 SWAP1 POP JUMP JUMPDEST PUSH1 0x0 DUP2 SWAP1 POP SWAP2 SWAP1 POP JUMP JUMPDEST PUSH1 0x0 PUSH20 0xFFFFFFFFFFFFFFFFFFFFFFFFFFFFFFFFFFFFFFFF DUP3 AND SWAP1 POP SWAP2 SWAP1 POP JUMP JUMPDEST PUSH1 0x0 DUP2 SWAP1 POP SWAP2 SWAP1 POP JUMP JUMPDEST PUSH1 0x0 PUSH10 0xFFFFFFFFFFFFFFFFFFFF DUP3 AND SWAP1 POP SWAP2 SWAP1 POP JUMP JUMPDEST PUSH32 0x4E487B7100000000000000000000000000000000000000000000000000000000 PUSH1 0x0 MSTORE PUSH1 0x11 PUSH1 0x4 MSTORE PUSH1 0x24 PUSH1 0x0 REVERT JUMPDEST PUSH32 0x4E487B7100000000000000000000000000000000000000000000000000000000 PUSH1 0x0 MSTORE PUSH1 0x12 PUSH1 0x4 MSTORE PUSH1 0x24 PUSH1 0x0 REVERT JUMPDEST PUSH2 0xCA2 DUP2 PUSH2 0xBDF JUMP JUMPDEST DUP2 EQ PUSH2 0xCAD JUMPI PUSH1 0x0 DUP1 REVERT JUMPDEST POP JUMP JUMPDEST PUSH2 0xCB9 DUP2 PUSH2 0xBF1 JUMP JUMPDEST DUP2 EQ PUSH2 0xCC4 JUMPI PUSH1 0x0 DUP1 REVERT JUMPDEST POP JUMP JUMPDEST PUSH2 0xCD0 DUP2 PUSH2 0xC1B JUMP JUMPDEST DUP2 EQ PUSH2 0xCDB JUMPI PUSH1 0x0 DUP1 REVERT JUMPDEST POP JUMP JUMPDEST PUSH2 0xCE7 DUP2 PUSH2 0xC25 JUMP JUMPDEST DUP2 EQ PUSH2 0xCF2 JUMPI PUSH1 0x0 DUP1 REVERT JUMPDEST POP JUMP INVALID LOG2 PUSH5 0x6970667358 0x22 SLT KECCAK256 SWAP1 DUP1 0xE1 PUSH25 0x855880B32DAA41B5D4F2C84539A9CC9CEF4E3D554E8135650A 0xEE 0x2F 0x1E PUSH5 0x736F6C6343 STOP ADDMOD STOP STOP CALLER "
				},
				"gasEstimates": {
					"creation": {
						"codeDepositCost": "674200",
						"executionCost": "41580",
						"totalCost": "715780"
					},
					"external": {
						"addressToAmountFunded(address)": "1536",
						"fund()": "infinite",
						"funders(uint256)": "2444",
						"minimumUsd()": "1107",
						"owner()": "1258",
						"withdraw()": "infinite"
					}
				},
				"methodIdentifiers": {
					"addressToAmountFunded(address)": "3e47d6f3",
					"fund()": "b60d4288",
					"funders(uint256)": "dc0d3dff",
					"minimumUsd()": "098de820",
					"owner()": "8da5cb5b",
					"withdraw()": "3ccfd60b"
				}
			},
			"storageLayout": {
				"storage": [
					{
						"astId": 56,
						"contract": "contracts/FundMe.sol:FundMe",
						"label": "minimumUsd",
						"offset": 0,
						"slot": "0",
						"type": "t_uint256"
					},
					{
						"astId": 59,
						"contract": "contracts/FundMe.sol:FundMe",
						"label": "funders",
						"offset": 0,
						"slot": "1",
						"type": "t_array(t_address)dyn_storage"
					},
					{
						"astId": 63,
						"contract": "contracts/FundMe.sol:FundMe",
						"label": "addressToAmountFunded",
						"offset": 0,
						"slot": "2",
						"type": "t_mapping(t_address,t_uint256)"
					},
					{
						"astId": 65,
						"contract": "contracts/FundMe.sol:FundMe",
						"label": "owner",
						"offset": 0,
						"slot": "3",
						"type": "t_address"
					}
				],
				"types": {
					"t_address": {
						"encoding": "inplace",
						"label": "address",
						"numberOfBytes": "20"
					},
					"t_array(t_address)dyn_storage": {
						"base": "t_address",
						"encoding": "dynamic_array",
						"label": "address[]",
						"numberOfBytes": "32"
					},
					"t_mapping(t_address,t_uint256)": {
						"encoding": "mapping",
						"key": "t_address",
						"label": "mapping(address => uint256)",
						"numberOfBytes": "32",
						"value": "t_uint256"
					},
					"t_uint256": {
						"encoding": "inplace",
						"label": "uint256",
						"numberOfBytes": "32"
					}
				}
			},
			"userdoc": {
				"kind": "user",
				"methods": {},
				"version": 1
			}
		}
	}
}