{
	"contracts/ProxyStorage.sol": {
		"Example": {
			"abi": [
				{
					"inputs": [],
					"name": "getUint",
					"outputs": [
						{
							"internalType": "uint256",
							"name": "",
							"type": "uint256"
						}
					],
					"stateMutability": "view",
					"type": "function"
				},
				{
					"inputs": [],
					"name": "initialize",
					"outputs": [],
					"stateMutability": "nonpayable",
					"type": "function"
				},
				{
					"inputs": [
						{
							"internalType": "address",
							"name": "target",
							"type": "address"
						}
					],
					"name": "replace",
					"outputs": [],
					"stateMutability": "nonpayable",
					"type": "function"
				},
				{
					"inputs": [
						{
							"internalType": "uint256",
							"name": "value",
							"type": "uint256"
						}
					],
					"name": "setUint",
					"outputs": [],
					"stateMutability": "nonpayable",
					"type": "function"
				}
			],
			"devdoc": {
				"kind": "dev",
				"methods": {},
				"version": 1
			},
			"evm": {
				"assembly": "    /* \"contracts/ProxyStorage.sol\":1067:1378  contract Example is Upgradeable {... */\n  mstore(0x40, 0x80)\n  callvalue\n  dup1\n  iszero\n  tag_1\n  jumpi\n  0x00\n  dup1\n  revert\ntag_1:\n  pop\n  dataSize(sub_0)\n  dup1\n  dataOffset(sub_0)\n  0x00\n  codecopy\n  0x00\n  return\nstop\n\nsub_0: assembly {\n        /* \"contracts/ProxyStorage.sol\":1067:1378  contract Example is Upgradeable {... */\n      mstore(0x40, 0x80)\n      callvalue\n      dup1\n      iszero\n      tag_1\n      jumpi\n      0x00\n      dup1\n      revert\n    tag_1:\n      pop\n      jumpi(tag_2, lt(calldatasize, 0x04))\n      shr(0xe0, calldataload(0x00))\n      dup1\n      0x0267a4\n      eq\n      tag_3\n      jumpi\n      dup1\n      0x4ef65c3b\n      eq\n      tag_4\n      jumpi\n      dup1\n      0x8129fc1c\n      eq\n      tag_5\n      jumpi\n      dup1\n      0xcabfb934\n      eq\n      tag_6\n      jumpi\n    tag_2:\n      0x00\n      dup1\n      revert\n        /* \"contracts/ProxyStorage.sol\":1227:1303  function getUint() public view returns (uint) {... */\n    tag_3:\n      tag_7\n      tag_8\n      jump\t// in\n    tag_7:\n      mload(0x40)\n      tag_9\n      swap2\n      swap1\n      tag_10\n      jump\t// in\n    tag_9:\n      mload(0x40)\n      dup1\n      swap2\n      sub\n      swap1\n      return\n        /* \"contracts/ProxyStorage.sol\":1309:1376  function setUint(uint value) public {... */\n    tag_4:\n      tag_11\n      0x04\n      dup1\n      calldatasize\n      sub\n      dup2\n      add\n      swap1\n      tag_12\n      swap2\n      swap1\n      tag_13\n      jump\t// in\n    tag_12:\n      tag_14\n      jump\t// in\n    tag_11:\n      stop\n        /* \"contracts/ProxyStorage.sol\":1123:1221  function initialize() override public {... */\n    tag_5:\n      tag_15\n      tag_16\n      jump\t// in\n    tag_15:\n      stop\n        /* \"contracts/ProxyStorage.sol\":199:358  function replace(address target) public {... */\n    tag_6:\n      tag_17\n      0x04\n      dup1\n      calldatasize\n      sub\n      dup2\n      add\n      swap1\n      tag_18\n      swap2\n      swap1\n      tag_19\n      jump\t// in\n    tag_18:\n      tag_20\n      jump\t// in\n    tag_17:\n      stop\n        /* \"contracts/ProxyStorage.sol\":1227:1303  function getUint() public view returns (uint) {... */\n    tag_8:\n        /* \"contracts/ProxyStorage.sol\":1267:1271  uint */\n      0x00\n        /* \"contracts/ProxyStorage.sol\":1290:1296  _value */\n      sload(0x02)\n        /* \"contracts/ProxyStorage.sol\":1283:1296  return _value */\n      swap1\n      pop\n        /* \"contracts/ProxyStorage.sol\":1227:1303  function getUint() public view returns (uint) {... */\n      swap1\n      jump\t// out\n        /* \"contracts/ProxyStorage.sol\":1309:1376  function setUint(uint value) public {... */\n    tag_14:\n        /* \"contracts/ProxyStorage.sol\":1364:1369  value */\n      dup1\n        /* \"contracts/ProxyStorage.sol\":1355:1361  _value */\n      0x02\n        /* \"contracts/ProxyStorage.sol\":1355:1369  _value = value */\n      dup2\n      swap1\n      sstore\n      pop\n        /* \"contracts/ProxyStorage.sol\":1309:1376  function setUint(uint value) public {... */\n      pop\n      jump\t// out\n        /* \"contracts/ProxyStorage.sol\":1123:1221  function initialize() override public {... */\n    tag_16:\n        /* \"contracts/ProxyStorage.sol\":1212:1214  32 */\n      0x20\n        /* \"contracts/ProxyStorage.sol\":1171:1177  _sizes */\n      0x00\n        /* \"contracts/ProxyStorage.sol\":1171:1209  _sizes[bytes4(keccak256(\"getUint()\"))] */\n      dup1\n        /* \"contracts/ProxyStorage.sol\":1185:1207  keccak256(\"getUint()\") */\n      0x0267a4cc5a02e5a5bac8ff07c5f25b766898f1855576488bdf1bcd0be4be62\n        /* \"contracts/ProxyStorage.sol\":1171:1209  _sizes[bytes4(keccak256(\"getUint()\"))] */\n      not(0xffffffffffffffffffffffffffffffffffffffffffffffffffffffff)\n      and\n      not(0xffffffffffffffffffffffffffffffffffffffffffffffffffffffff)\n      and\n      dup2\n      mstore\n      0x20\n      add\n      swap1\n      dup2\n      mstore\n      0x20\n      add\n      0x00\n      keccak256\n      0x00\n        /* \"contracts/ProxyStorage.sol\":1171:1214  _sizes[bytes4(keccak256(\"getUint()\"))] = 32 */\n      0x0100\n      exp\n      dup2\n      sload\n      dup2\n      0xffffffff\n      mul\n      not\n      and\n      swap1\n      dup4\n      0xffffffff\n      and\n      mul\n      or\n      swap1\n      sstore\n      pop\n        /* \"contracts/ProxyStorage.sol\":1123:1221  function initialize() override public {... */\n      jump\t// out\n        /* \"contracts/ProxyStorage.sol\":199:358  function replace(address target) public {... */\n    tag_20:\n        /* \"contracts/ProxyStorage.sol\":257:263  target */\n      dup1\n        /* \"contracts/ProxyStorage.sol\":249:254  _dest */\n      0x01\n      0x00\n        /* \"contracts/ProxyStorage.sol\":249:263  _dest = target */\n      0x0100\n      exp\n      dup2\n      sload\n      dup2\n      0xffffffffffffffffffffffffffffffffffffffff\n      mul\n      not\n      and\n      swap1\n      dup4\n      0xffffffffffffffffffffffffffffffffffffffff\n      and\n      mul\n      or\n      swap1\n      sstore\n      pop\n        /* \"contracts/ProxyStorage.sol\":273:279  target */\n      dup1\n        /* \"contracts/ProxyStorage.sol\":273:292  target.delegatecall */\n      0xffffffffffffffffffffffffffffffffffffffff\n      and\n        /* \"contracts/ProxyStorage.sol\":323:348  keccak256(\"initialize()\") */\n      0x8129fc1cf5a76b8b9d76c7ab5059b1685decddb2380c6e4cebb774b7c17ae83f\n        /* \"contracts/ProxyStorage.sol\":293:350  abi.encodeWithSelector(bytes4(keccak256(\"initialize()\"))) */\n      add(0x24, mload(0x40))\n      mload(0x40)\n      0x20\n      dup2\n      dup4\n      sub\n      sub\n      dup2\n      mstore\n      swap1\n      0x40\n      mstore\n      swap1\n      not(0xffffffffffffffffffffffffffffffffffffffffffffffffffffffff)\n      and\n      0x20\n      dup3\n      add\n      dup1\n      mload\n      0xffffffffffffffffffffffffffffffffffffffffffffffffffffffff\n      dup4\n      dup2\n      dup4\n      and\n      or\n      dup4\n      mstore\n      pop\n      pop\n      pop\n      pop\n        /* \"contracts/ProxyStorage.sol\":273:351  target.delegatecall(abi.encodeWithSelector(bytes4(keccak256(\"initialize()\")))) */\n      mload(0x40)\n      tag_25\n      swap2\n      swap1\n      tag_26\n      jump\t// in\n    tag_25:\n      0x00\n      mload(0x40)\n      dup1\n      dup4\n      sub\n      dup2\n      dup6\n      gas\n      delegatecall\n      swap2\n      pop\n      pop\n      returndatasize\n      dup1\n      0x00\n      dup2\n      eq\n      tag_29\n      jumpi\n      mload(0x40)\n      swap2\n      pop\n      and(add(returndatasize, 0x3f), not(0x1f))\n      dup3\n      add\n      0x40\n      mstore\n      returndatasize\n      dup3\n      mstore\n      returndatasize\n      0x00\n      0x20\n      dup5\n      add\n      returndatacopy\n      jump(tag_28)\n    tag_29:\n      0x60\n      swap2\n      pop\n    tag_28:\n      pop\n      pop\n      pop\n        /* \"contracts/ProxyStorage.sol\":199:358  function replace(address target) public {... */\n      pop\n      jump\t// out\n        /* \"#utility.yul\":7:146   */\n    tag_31:\n      0x00\n        /* \"#utility.yul\":91:97   */\n      dup2\n        /* \"#utility.yul\":78:98   */\n      calldataload\n        /* \"#utility.yul\":69:98   */\n      swap1\n      pop\n        /* \"#utility.yul\":107:140   */\n      tag_33\n        /* \"#utility.yul\":134:139   */\n      dup2\n        /* \"#utility.yul\":107:140   */\n      tag_34\n      jump\t// in\n    tag_33:\n        /* \"#utility.yul\":59:146   */\n      swap3\n      swap2\n      pop\n      pop\n      jump\t// out\n        /* \"#utility.yul\":152:291   */\n    tag_35:\n      0x00\n        /* \"#utility.yul\":236:242   */\n      dup2\n        /* \"#utility.yul\":223:243   */\n      calldataload\n        /* \"#utility.yul\":214:243   */\n      swap1\n      pop\n        /* \"#utility.yul\":252:285   */\n      tag_37\n        /* \"#utility.yul\":279:284   */\n      dup2\n        /* \"#utility.yul\":252:285   */\n      tag_38\n      jump\t// in\n    tag_37:\n        /* \"#utility.yul\":204:291   */\n      swap3\n      swap2\n      pop\n      pop\n      jump\t// out\n        /* \"#utility.yul\":297:559   */\n    tag_19:\n      0x00\n        /* \"#utility.yul\":405:407   */\n      0x20\n        /* \"#utility.yul\":393:402   */\n      dup3\n        /* \"#utility.yul\":384:391   */\n      dup5\n        /* \"#utility.yul\":380:403   */\n      sub\n        /* \"#utility.yul\":376:408   */\n      slt\n        /* \"#utility.yul\":373:375   */\n      iszero\n      tag_40\n      jumpi\n        /* \"#utility.yul\":421:422   */\n      0x00\n        /* \"#utility.yul\":418:419   */\n      dup1\n        /* \"#utility.yul\":411:423   */\n      revert\n        /* \"#utility.yul\":373:375   */\n    tag_40:\n        /* \"#utility.yul\":464:465   */\n      0x00\n        /* \"#utility.yul\":489:542   */\n      tag_41\n        /* \"#utility.yul\":534:541   */\n      dup5\n        /* \"#utility.yul\":525:531   */\n      dup3\n        /* \"#utility.yul\":514:523   */\n      dup6\n        /* \"#utility.yul\":510:532   */\n      add\n        /* \"#utility.yul\":489:542   */\n      tag_31\n      jump\t// in\n    tag_41:\n        /* \"#utility.yul\":479:542   */\n      swap2\n      pop\n        /* \"#utility.yul\":435:552   */\n      pop\n        /* \"#utility.yul\":363:559   */\n      swap3\n      swap2\n      pop\n      pop\n      jump\t// out\n        /* \"#utility.yul\":565:827   */\n    tag_13:\n      0x00\n        /* \"#utility.yul\":673:675   */\n      0x20\n        /* \"#utility.yul\":661:670   */\n      dup3\n        /* \"#utility.yul\":652:659   */\n      dup5\n        /* \"#utility.yul\":648:671   */\n      sub\n        /* \"#utility.yul\":644:676   */\n      slt\n        /* \"#utility.yul\":641:643   */\n      iszero\n      tag_43\n      jumpi\n        /* \"#utility.yul\":689:690   */\n      0x00\n        /* \"#utility.yul\":686:687   */\n      dup1\n        /* \"#utility.yul\":679:691   */\n      revert\n        /* \"#utility.yul\":641:643   */\n    tag_43:\n        /* \"#utility.yul\":732:733   */\n      0x00\n        /* \"#utility.yul\":757:810   */\n      tag_44\n        /* \"#utility.yul\":802:809   */\n      dup5\n        /* \"#utility.yul\":793:799   */\n      dup3\n        /* \"#utility.yul\":782:791   */\n      dup6\n        /* \"#utility.yul\":778:800   */\n      add\n        /* \"#utility.yul\":757:810   */\n      tag_35\n      jump\t// in\n    tag_44:\n        /* \"#utility.yul\":747:810   */\n      swap2\n      pop\n        /* \"#utility.yul\":703:820   */\n      pop\n        /* \"#utility.yul\":631:827   */\n      swap3\n      swap2\n      pop\n      pop\n      jump\t// out\n        /* \"#utility.yul\":833:1206   */\n    tag_45:\n      0x00\n        /* \"#utility.yul\":965:1003   */\n      tag_47\n        /* \"#utility.yul\":997:1002   */\n      dup3\n        /* \"#utility.yul\":965:1003   */\n      tag_48\n      jump\t// in\n    tag_47:\n        /* \"#utility.yul\":1019:1107   */\n      tag_49\n        /* \"#utility.yul\":1100:1106   */\n      dup2\n        /* \"#utility.yul\":1095:1098   */\n      dup6\n        /* \"#utility.yul\":1019:1107   */\n      tag_50\n      jump\t// in\n    tag_49:\n        /* \"#utility.yul\":1012:1107   */\n      swap4\n      pop\n        /* \"#utility.yul\":1116:1168   */\n      tag_51\n        /* \"#utility.yul\":1161:1167   */\n      dup2\n        /* \"#utility.yul\":1156:1159   */\n      dup6\n        /* \"#utility.yul\":1149:1153   */\n      0x20\n        /* \"#utility.yul\":1142:1147   */\n      dup7\n        /* \"#utility.yul\":1138:1154   */\n      add\n        /* \"#utility.yul\":1116:1168   */\n      tag_52\n      jump\t// in\n    tag_51:\n        /* \"#utility.yul\":1193:1199   */\n      dup1\n        /* \"#utility.yul\":1188:1191   */\n      dup5\n        /* \"#utility.yul\":1184:1200   */\n      add\n        /* \"#utility.yul\":1177:1200   */\n      swap2\n      pop\n        /* \"#utility.yul\":941:1206   */\n      pop\n      swap3\n      swap2\n      pop\n      pop\n      jump\t// out\n        /* \"#utility.yul\":1212:1330   */\n    tag_53:\n        /* \"#utility.yul\":1299:1323   */\n      tag_55\n        /* \"#utility.yul\":1317:1322   */\n      dup2\n        /* \"#utility.yul\":1299:1323   */\n      tag_56\n      jump\t// in\n    tag_55:\n        /* \"#utility.yul\":1294:1297   */\n      dup3\n        /* \"#utility.yul\":1287:1324   */\n      mstore\n        /* \"#utility.yul\":1277:1330   */\n      pop\n      pop\n      jump\t// out\n        /* \"#utility.yul\":1336:1607   */\n    tag_26:\n      0x00\n        /* \"#utility.yul\":1488:1581   */\n      tag_58\n        /* \"#utility.yul\":1577:1580   */\n      dup3\n        /* \"#utility.yul\":1568:1574   */\n      dup5\n        /* \"#utility.yul\":1488:1581   */\n      tag_45\n      jump\t// in\n    tag_58:\n        /* \"#utility.yul\":1481:1581   */\n      swap2\n      pop\n        /* \"#utility.yul\":1598:1601   */\n      dup2\n        /* \"#utility.yul\":1591:1601   */\n      swap1\n      pop\n        /* \"#utility.yul\":1470:1607   */\n      swap3\n      swap2\n      pop\n      pop\n      jump\t// out\n        /* \"#utility.yul\":1613:1835   */\n    tag_10:\n      0x00\n        /* \"#utility.yul\":1744:1746   */\n      0x20\n        /* \"#utility.yul\":1733:1742   */\n      dup3\n        /* \"#utility.yul\":1729:1747   */\n      add\n        /* \"#utility.yul\":1721:1747   */\n      swap1\n      pop\n        /* \"#utility.yul\":1757:1828   */\n      tag_60\n        /* \"#utility.yul\":1825:1826   */\n      0x00\n        /* \"#utility.yul\":1814:1823   */\n      dup4\n        /* \"#utility.yul\":1810:1827   */\n      add\n        /* \"#utility.yul\":1801:1807   */\n      dup5\n        /* \"#utility.yul\":1757:1828   */\n      tag_53\n      jump\t// in\n    tag_60:\n        /* \"#utility.yul\":1711:1835   */\n      swap3\n      swap2\n      pop\n      pop\n      jump\t// out\n        /* \"#utility.yul\":1841:1939   */\n    tag_48:\n      0x00\n        /* \"#utility.yul\":1926:1931   */\n      dup2\n        /* \"#utility.yul\":1920:1932   */\n      mload\n        /* \"#utility.yul\":1910:1932   */\n      swap1\n      pop\n        /* \"#utility.yul\":1899:1939   */\n      swap2\n      swap1\n      pop\n      jump\t// out\n        /* \"#utility.yul\":1945:2092   */\n    tag_50:\n      0x00\n        /* \"#utility.yul\":2083:2086   */\n      dup2\n        /* \"#utility.yul\":2068:2086   */\n      swap1\n      pop\n        /* \"#utility.yul\":2058:2092   */\n      swap3\n      swap2\n      pop\n      pop\n      jump\t// out\n        /* \"#utility.yul\":2098:2194   */\n    tag_63:\n      0x00\n        /* \"#utility.yul\":2164:2188   */\n      tag_65\n        /* \"#utility.yul\":2182:2187   */\n      dup3\n        /* \"#utility.yul\":2164:2188   */\n      tag_66\n      jump\t// in\n    tag_65:\n        /* \"#utility.yul\":2153:2188   */\n      swap1\n      pop\n        /* \"#utility.yul\":2143:2194   */\n      swap2\n      swap1\n      pop\n      jump\t// out\n        /* \"#utility.yul\":2200:2326   */\n    tag_66:\n      0x00\n        /* \"#utility.yul\":2277:2319   */\n      0xffffffffffffffffffffffffffffffffffffffff\n        /* \"#utility.yul\":2270:2275   */\n      dup3\n        /* \"#utility.yul\":2266:2320   */\n      and\n        /* \"#utility.yul\":2255:2320   */\n      swap1\n      pop\n        /* \"#utility.yul\":2245:2326   */\n      swap2\n      swap1\n      pop\n      jump\t// out\n        /* \"#utility.yul\":2332:2409   */\n    tag_56:\n      0x00\n        /* \"#utility.yul\":2398:2403   */\n      dup2\n        /* \"#utility.yul\":2387:2403   */\n      swap1\n      pop\n        /* \"#utility.yul\":2377:2409   */\n      swap2\n      swap1\n      pop\n      jump\t// out\n        /* \"#utility.yul\":2415:2722   */\n    tag_52:\n        /* \"#utility.yul\":2483:2484   */\n      0x00\n        /* \"#utility.yul\":2493:2606   */\n    tag_70:\n        /* \"#utility.yul\":2507:2513   */\n      dup4\n        /* \"#utility.yul\":2504:2505   */\n      dup2\n        /* \"#utility.yul\":2501:2514   */\n      lt\n        /* \"#utility.yul\":2493:2606   */\n      iszero\n      tag_72\n      jumpi\n        /* \"#utility.yul\":2592:2593   */\n      dup1\n        /* \"#utility.yul\":2587:2590   */\n      dup3\n        /* \"#utility.yul\":2583:2594   */\n      add\n        /* \"#utility.yul\":2577:2595   */\n      mload\n        /* \"#utility.yul\":2573:2574   */\n      dup2\n        /* \"#utility.yul\":2568:2571   */\n      dup5\n        /* \"#utility.yul\":2564:2575   */\n      add\n        /* \"#utility.yul\":2557:2596   */\n      mstore\n        /* \"#utility.yul\":2529:2531   */\n      0x20\n        /* \"#utility.yul\":2526:2527   */\n      dup2\n        /* \"#utility.yul\":2522:2532   */\n      add\n        /* \"#utility.yul\":2517:2532   */\n      swap1\n      pop\n        /* \"#utility.yul\":2493:2606   */\n      jump(tag_70)\n    tag_72:\n        /* \"#utility.yul\":2624:2630   */\n      dup4\n        /* \"#utility.yul\":2621:2622   */\n      dup2\n        /* \"#utility.yul\":2618:2631   */\n      gt\n        /* \"#utility.yul\":2615:2617   */\n      iszero\n      tag_73\n      jumpi\n        /* \"#utility.yul\":2704:2705   */\n      0x00\n        /* \"#utility.yul\":2695:2701   */\n      dup5\n        /* \"#utility.yul\":2690:2693   */\n      dup5\n        /* \"#utility.yul\":2686:2702   */\n      add\n        /* \"#utility.yul\":2679:2706   */\n      mstore\n        /* \"#utility.yul\":2615:2617   */\n    tag_73:\n        /* \"#utility.yul\":2464:2722   */\n      pop\n      pop\n      pop\n      pop\n      jump\t// out\n        /* \"#utility.yul\":2728:2850   */\n    tag_34:\n        /* \"#utility.yul\":2801:2825   */\n      tag_75\n        /* \"#utility.yul\":2819:2824   */\n      dup2\n        /* \"#utility.yul\":2801:2825   */\n      tag_63\n      jump\t// in\n    tag_75:\n        /* \"#utility.yul\":2794:2799   */\n      dup2\n        /* \"#utility.yul\":2791:2826   */\n      eq\n        /* \"#utility.yul\":2781:2783   */\n      tag_76\n      jumpi\n        /* \"#utility.yul\":2840:2841   */\n      0x00\n        /* \"#utility.yul\":2837:2838   */\n      dup1\n        /* \"#utility.yul\":2830:2842   */\n      revert\n        /* \"#utility.yul\":2781:2783   */\n    tag_76:\n        /* \"#utility.yul\":2771:2850   */\n      pop\n      jump\t// out\n        /* \"#utility.yul\":2856:2978   */\n    tag_38:\n        /* \"#utility.yul\":2929:2953   */\n      tag_78\n        /* \"#utility.yul\":2947:2952   */\n      dup2\n        /* \"#utility.yul\":2929:2953   */\n      tag_56\n      jump\t// in\n    tag_78:\n        /* \"#utility.yul\":2922:2927   */\n      dup2\n        /* \"#utility.yul\":2919:2954   */\n      eq\n        /* \"#utility.yul\":2909:2911   */\n      tag_79\n      jumpi\n        /* \"#utility.yul\":2968:2969   */\n      0x00\n        /* \"#utility.yul\":2965:2966   */\n      dup1\n        /* \"#utility.yul\":2958:2970   */\n      revert\n        /* \"#utility.yul\":2909:2911   */\n    tag_79:\n        /* \"#utility.yul\":2899:2978   */\n      pop\n      jump\t// out\n\n    auxdata: 0xa26469706673582212205237e91503110ca94f0ce7c7b1f677d6d18c44c695737ff0dc89968e48c8ec6064736f6c63430008010033\n}\n",
				"bytecode": {
					"linkReferences": {},
					"object": "608060405234801561001057600080fd5b5061045b806100206000396000f3fe608060405234801561001057600080fd5b506004361061004b5760003560e01c80620267a4146100505780634ef65c3b1461006e5780638129fc1c1461008a578063cabfb93414610094575b600080fd5b6100586100b0565b6040516100659190610357565b60405180910390f35b610088600480360381019061008391906102d7565b6100ba565b005b6100926100c4565b005b6100ae60048036038101906100a991906102ae565b610155565b005b6000600254905090565b8060028190555050565b60206000807e0267a4cc5a02e5a5bac8ff07c5f25b766898f1855576488bdf1bcd0be4be627bffffffffffffffffffffffffffffffffffffffffffffffffffffffff19167bffffffffffffffffffffffffffffffffffffffffffffffffffffffff1916815260200190815260200160002060006101000a81548163ffffffff021916908363ffffffff160217905550565b80600160006101000a81548173ffffffffffffffffffffffffffffffffffffffff021916908373ffffffffffffffffffffffffffffffffffffffff1602179055508073ffffffffffffffffffffffffffffffffffffffff167f8129fc1cf5a76b8b9d76c7ab5059b1685decddb2380c6e4cebb774b7c17ae83f604051602401604051602081830303815290604052907bffffffffffffffffffffffffffffffffffffffffffffffffffffffff19166020820180517bffffffffffffffffffffffffffffffffffffffffffffffffffffffff838183161783525050505060405161023e9190610340565b600060405180830381855af49150503d8060008114610279576040519150601f19603f3d011682016040523d82523d6000602084013e61027e565b606091505b50505050565b600081359050610293816103f7565b92915050565b6000813590506102a88161040e565b92915050565b6000602082840312156102c057600080fd5b60006102ce84828501610284565b91505092915050565b6000602082840312156102e957600080fd5b60006102f784828501610299565b91505092915050565b600061030b82610372565b610315818561037d565b93506103258185602086016103c4565b80840191505092915050565b61033a816103ba565b82525050565b600061034c8284610300565b915081905092915050565b600060208201905061036c6000830184610331565b92915050565b600081519050919050565b600081905092915050565b60006103938261039a565b9050919050565b600073ffffffffffffffffffffffffffffffffffffffff82169050919050565b6000819050919050565b60005b838110156103e25780820151818401526020810190506103c7565b838111156103f1576000848401525b50505050565b61040081610388565b811461040b57600080fd5b50565b610417816103ba565b811461042257600080fd5b5056fea26469706673582212205237e91503110ca94f0ce7c7b1f677d6d18c44c695737ff0dc89968e48c8ec6064736f6c63430008010033",
					"opcodes": "PUSH1 0x80 PUSH1 0x40 MSTORE CALLVALUE DUP1 ISZERO PUSH2 0x10 JUMPI PUSH1 0x0 DUP1 REVERT JUMPDEST POP PUSH2 0x45B DUP1 PUSH2 0x20 PUSH1 0x0 CODECOPY PUSH1 0x0 RETURN INVALID PUSH1 0x80 PUSH1 0x40 MSTORE CALLVALUE DUP1 ISZERO PUSH2 0x10 JUMPI PUSH1 0x0 DUP1 REVERT JUMPDEST POP PUSH1 0x4 CALLDATASIZE LT PUSH2 0x4B JUMPI PUSH1 0x0 CALLDATALOAD PUSH1 0xE0 SHR DUP1 PUSH3 0x267A4 EQ PUSH2 0x50 JUMPI DUP1 PUSH4 0x4EF65C3B EQ PUSH2 0x6E JUMPI DUP1 PUSH4 0x8129FC1C EQ PUSH2 0x8A JUMPI DUP1 PUSH4 0xCABFB934 EQ PUSH2 0x94 JUMPI JUMPDEST PUSH1 0x0 DUP1 REVERT JUMPDEST PUSH2 0x58 PUSH2 0xB0 JUMP JUMPDEST PUSH1 0x40 MLOAD PUSH2 0x65 SWAP2 SWAP1 PUSH2 0x357 JUMP JUMPDEST PUSH1 0x40 MLOAD DUP1 SWAP2 SUB SWAP1 RETURN JUMPDEST PUSH2 0x88 PUSH1 0x4 DUP1 CALLDATASIZE SUB DUP2 ADD SWAP1 PUSH2 0x83 SWAP2 SWAP1 PUSH2 0x2D7 JUMP JUMPDEST PUSH2 0xBA JUMP JUMPDEST STOP JUMPDEST PUSH2 0x92 PUSH2 0xC4 JUMP JUMPDEST STOP JUMPDEST PUSH2 0xAE PUSH1 0x4 DUP1 CALLDATASIZE SUB DUP2 ADD SWAP1 PUSH2 0xA9 SWAP2 SWAP1 PUSH2 0x2AE JUMP JUMPDEST PUSH2 0x155 JUMP JUMPDEST STOP JUMPDEST PUSH1 0x0 PUSH1 0x2 SLOAD SWAP1 POP SWAP1 JUMP JUMPDEST DUP1 PUSH1 0x2 DUP2 SWAP1 SSTORE POP POP JUMP JUMPDEST PUSH1 0x20 PUSH1 0x0 DUP1 PUSH31 0x267A4CC5A02E5A5BAC8FF07C5F25B766898F1855576488BDF1BCD0BE4BE62 PUSH28 0xFFFFFFFFFFFFFFFFFFFFFFFFFFFFFFFFFFFFFFFFFFFFFFFFFFFFFFFF NOT AND PUSH28 0xFFFFFFFFFFFFFFFFFFFFFFFFFFFFFFFFFFFFFFFFFFFFFFFFFFFFFFFF NOT AND DUP2 MSTORE PUSH1 0x20 ADD SWAP1 DUP2 MSTORE PUSH1 0x20 ADD PUSH1 0x0 KECCAK256 PUSH1 0x0 PUSH2 0x100 EXP DUP2 SLOAD DUP2 PUSH4 0xFFFFFFFF MUL NOT AND SWAP1 DUP4 PUSH4 0xFFFFFFFF AND MUL OR SWAP1 SSTORE POP JUMP JUMPDEST DUP1 PUSH1 0x1 PUSH1 0x0 PUSH2 0x100 EXP DUP2 SLOAD DUP2 PUSH20 0xFFFFFFFFFFFFFFFFFFFFFFFFFFFFFFFFFFFFFFFF MUL NOT AND SWAP1 DUP4 PUSH20 0xFFFFFFFFFFFFFFFFFFFFFFFFFFFFFFFFFFFFFFFF AND MUL OR SWAP1 SSTORE POP DUP1 PUSH20 0xFFFFFFFFFFFFFFFFFFFFFFFFFFFFFFFFFFFFFFFF AND PUSH32 0x8129FC1CF5A76B8B9D76C7AB5059B1685DECDDB2380C6E4CEBB774B7C17AE83F PUSH1 0x40 MLOAD PUSH1 0x24 ADD PUSH1 0x40 MLOAD PUSH1 0x20 DUP2 DUP4 SUB SUB DUP2 MSTORE SWAP1 PUSH1 0x40 MSTORE SWAP1 PUSH28 0xFFFFFFFFFFFFFFFFFFFFFFFFFFFFFFFFFFFFFFFFFFFFFFFFFFFFFFFF NOT AND PUSH1 0x20 DUP3 ADD DUP1 MLOAD PUSH28 0xFFFFFFFFFFFFFFFFFFFFFFFFFFFFFFFFFFFFFFFFFFFFFFFFFFFFFFFF DUP4 DUP2 DUP4 AND OR DUP4 MSTORE POP POP POP POP PUSH1 0x40 MLOAD PUSH2 0x23E SWAP2 SWAP1 PUSH2 0x340 JUMP JUMPDEST PUSH1 0x0 PUSH1 0x40 MLOAD DUP1 DUP4 SUB DUP2 DUP6 GAS DELEGATECALL SWAP2 POP POP RETURNDATASIZE DUP1 PUSH1 0x0 DUP2 EQ PUSH2 0x279 JUMPI PUSH1 0x40 MLOAD SWAP2 POP PUSH1 0x1F NOT PUSH1 0x3F RETURNDATASIZE ADD AND DUP3 ADD PUSH1 0x40 MSTORE RETURNDATASIZE DUP3 MSTORE RETURNDATASIZE PUSH1 0x0 PUSH1 0x20 DUP5 ADD RETURNDATACOPY PUSH2 0x27E JUMP JUMPDEST PUSH1 0x60 SWAP2 POP JUMPDEST POP POP POP POP JUMP JUMPDEST PUSH1 0x0 DUP2 CALLDATALOAD SWAP1 POP PUSH2 0x293 DUP2 PUSH2 0x3F7 JUMP JUMPDEST SWAP3 SWAP2 POP POP JUMP JUMPDEST PUSH1 0x0 DUP2 CALLDATALOAD SWAP1 POP PUSH2 0x2A8 DUP2 PUSH2 0x40E JUMP JUMPDEST SWAP3 SWAP2 POP POP JUMP JUMPDEST PUSH1 0x0 PUSH1 0x20 DUP3 DUP5 SUB SLT ISZERO PUSH2 0x2C0 JUMPI PUSH1 0x0 DUP1 REVERT JUMPDEST PUSH1 0x0 PUSH2 0x2CE DUP5 DUP3 DUP6 ADD PUSH2 0x284 JUMP JUMPDEST SWAP2 POP POP SWAP3 SWAP2 POP POP JUMP JUMPDEST PUSH1 0x0 PUSH1 0x20 DUP3 DUP5 SUB SLT ISZERO PUSH2 0x2E9 JUMPI PUSH1 0x0 DUP1 REVERT JUMPDEST PUSH1 0x0 PUSH2 0x2F7 DUP5 DUP3 DUP6 ADD PUSH2 0x299 JUMP JUMPDEST SWAP2 POP POP SWAP3 SWAP2 POP POP JUMP JUMPDEST PUSH1 0x0 PUSH2 0x30B DUP3 PUSH2 0x372 JUMP JUMPDEST PUSH2 0x315 DUP2 DUP6 PUSH2 0x37D JUMP JUMPDEST SWAP4 POP PUSH2 0x325 DUP2 DUP6 PUSH1 0x20 DUP7 ADD PUSH2 0x3C4 JUMP JUMPDEST DUP1 DUP5 ADD SWAP2 POP POP SWAP3 SWAP2 POP POP JUMP JUMPDEST PUSH2 0x33A DUP2 PUSH2 0x3BA JUMP JUMPDEST DUP3 MSTORE POP POP JUMP JUMPDEST PUSH1 0x0 PUSH2 0x34C DUP3 DUP5 PUSH2 0x300 JUMP JUMPDEST SWAP2 POP DUP2 SWAP1 POP SWAP3 SWAP2 POP POP JUMP JUMPDEST PUSH1 0x0 PUSH1 0x20 DUP3 ADD SWAP1 POP PUSH2 0x36C PUSH1 0x0 DUP4 ADD DUP5 PUSH2 0x331 JUMP JUMPDEST SWAP3 SWAP2 POP POP JUMP JUMPDEST PUSH1 0x0 DUP2 MLOAD SWAP1 POP SWAP2 SWAP1 POP JUMP JUMPDEST PUSH1 0x0 DUP2 SWAP1 POP SWAP3 SWAP2 POP POP JUMP JUMPDEST PUSH1 0x0 PUSH2 0x393 DUP3 PUSH2 0x39A JUMP JUMPDEST SWAP1 POP SWAP2 SWAP1 POP JUMP JUMPDEST PUSH1 0x0 PUSH20 0xFFFFFFFFFFFFFFFFFFFFFFFFFFFFFFFFFFFFFFFF DUP3 AND SWAP1 POP SWAP2 SWAP1 POP JUMP JUMPDEST PUSH1 0x0 DUP2 SWAP1 POP SWAP2 SWAP1 POP JUMP JUMPDEST PUSH1 0x0 JUMPDEST DUP4 DUP2 LT ISZERO PUSH2 0x3E2 JUMPI DUP1 DUP3 ADD MLOAD DUP2 DUP5 ADD MSTORE PUSH1 0x20 DUP2 ADD SWAP1 POP PUSH2 0x3C7 JUMP JUMPDEST DUP4 DUP2 GT ISZERO PUSH2 0x3F1 JUMPI PUSH1 0x0 DUP5 DUP5 ADD MSTORE JUMPDEST POP POP POP POP JUMP JUMPDEST PUSH2 0x400 DUP2 PUSH2 0x388 JUMP JUMPDEST DUP2 EQ PUSH2 0x40B JUMPI PUSH1 0x0 DUP1 REVERT JUMPDEST POP JUMP JUMPDEST PUSH2 0x417 DUP2 PUSH2 0x3BA JUMP JUMPDEST DUP2 EQ PUSH2 0x422 JUMPI PUSH1 0x0 DUP1 REVERT JUMPDEST POP JUMP INVALID LOG2 PUSH5 0x6970667358 0x22 SLT KECCAK256 MSTORE CALLDATACOPY 0xE9 ISZERO SUB GT 0xC 0xA9 0x4F 0xC 0xE7 0xC7 0xB1 0xF6 PUSH24 0xD6D18C44C695737FF0DC89968E48C8EC6064736F6C634300 ADDMOD ADD STOP CALLER "
				},
				"gasEstimates": {
					"creation": {
						"codeDepositCost": "223000",
						"executionCost": "263",
						"totalCost": "223263"
					},
					"external": {
						"getUint()": "1115",
						"initialize()": "21129",
						"replace(address)": "infinite",
						"setUint(uint256)": "20420"
					}
				},
				"methodIdentifiers": {
					"getUint()": "000267a4",
					"initialize()": "8129fc1c",
					"replace(address)": "cabfb934",
					"setUint(uint256)": "4ef65c3b"
				}
			},
			"storageLayout": {
				"storage": [
					{
						"astId": 5,
						"contract": "contracts/ProxyStorage.sol:Example",
						"label": "_sizes",
						"offset": 0,
						"slot": "0",
						"type": "t_mapping(t_bytes4,t_uint32)"
					},
					{
						"astId": 7,
						"contract": "contracts/ProxyStorage.sol:Example",
						"label": "_dest",
						"offset": 0,
						"slot": "1",
						"type": "t_address"
					},
					{
						"astId": 80,
						"contract": "contracts/ProxyStorage.sol:Example",
						"label": "_value",
						"offset": 0,
						"slot": "2",
						"type": "t_uint256"
					}
				],
				"types": {
					"t_address": {
						"encoding": "inplace",
						"label": "address",
						"numberOfBytes": "20"
					},
					"t_bytes4": {
						"encoding": "inplace",
						"label": "bytes4",
						"numberOfBytes": "4"
					},
					"t_mapping(t_bytes4,t_uint32)": {
						"encoding": "mapping",
						"key": "t_bytes4",
						"label": "mapping(bytes4 => uint32)",
						"numberOfBytes": "32",
						"value": "t_uint32"
					},
					"t_uint256": {
						"encoding": "inplace",
						"label": "uint256",
						"numberOfBytes": "32"
					},
					"t_uint32": {
						"encoding": "inplace",
						"label": "uint32",
						"numberOfBytes": "4"
					}
				}
			},
			"userdoc": {
				"kind": "user",
				"methods": {},
				"version": 1
			}
		}
	}
}